:020000040800F2
:10000000F0FF01207DD00508794905080DE20008C0
:10001000F5D00508F5D00508F5D00508000000006A
:100020000000000000000000000000007D490508FD
:1000300081490508000000008549050869A40008F9
:10004000F5D00508F5D00508F5D00508F5D0050868
:10005000F5D00508F5D00508B1BC0008B9BC00080A
:10006000C1BC0008C9BC0008D1BC0008F9B7000831
:100070000DB8000821B8000835B8000849B80008D4
:100080005DB8000871B80008F5D005080000000050
:10009000000000000000000000000000D9BC0008C3
:1000A00061DE0008F9DD000871DE0008E9DD000806
:1000B00021DE000831DE000841DE0008D1B400086E
:1000C00025C40008D9B4000829C40008F5D00508E3
:1000D000F5D00508653C0508713C050800000000E6
:1000E000E1BC0008F5D00508DD4A05080000000065
:1000F00000000000000000000000000085B80008BB
:1001000000000000F5D0050851DE0008F5D0050814
:1001100000000000000000000000000000000000DF
:1001200099B80008ADB80008C1B80008D5B80008F3
:10013000E9B8000800000000000000000000000016
:1001400000000000000000000000000089490508D0
:10015000FDB8000811B9000825B900087D3C050864
:10016000E1B400082DC400080000000000000000F9
:10017000000000000000000000000000000000007F
:1001800000000000F5D0050800000000000000009D
:08019000F5D00508F5D00508C3
:08019800D8C8050001000000B9
:1001A0001D0202000600000094400020DC4D0020EB
:1001B0000000000000000000D84D002004000800EE
:1001C0008000000000440020E84D002000000000F6
:1001D00000000000E44D0020F701010006000000CF
:1001E000804400206C4E00200000000064230708BB
:1001F000684E00201C1201001000000090440020F6
:10020000784E00200000000081ED0408744E0020AC
:100210002630010008000000A04400208C4E002081
:1002200000000000917F0408884E0020FA010100C0
:1002300004000000A8440020984E002000000000A8
:1002400079ED0408944E0020021001000C0000001B
:10025000C4440020A04E0020000000006C230708CA
:100260009C4E002012400100110000007840002048
:10027000B04E00200000000078230708AC4E00209C
:10028000031201003D00000004490020C84E002078
:10029000000000008A230708C44E0020FD4701002B
:1002A000B2000000744C00200C4F00200000000041
:1002B000FD7C0408084F002013100100040000001A
:1002C000284D0020C44F002000000000C82307086C
:1002D000C04F00203780010014000000BC4D0020FA
:1002E000CC4F002000000000CC230708C84F00209E
:1002F000145001001C0000005C420020E44F00206C
:100300000000000011BB0208E04F0020F5D1010001
:1003100078000000F44B0020045000200000000092
:1003200009B8040800500020F63101000C0000005C
:10033000144800208050002000000000E02307083F
:100340007C500020F841010006000000F844002025
:100350009050002000000000EC2307088C50002083
:100360000202010003000000F04B00209C5000201E
:100370000000000015EE040898500020061203004B
:1003800012000000B0440020A45000200000000033
:1003900029FB0408A05000200540010008000000CF
:1003A000BC320020BC62002000000000F4230708DB
:1003B000B86200201302010004000000CC320020CB
:1003C000C862002000000000FC230708C46200206F
:1003D000FD01010016000000F8410020DC62002051
:1003E00000000000D5940008D86200200812030025
:1003F0000F00000060320020F862002000000000C2
:1004000029ED0408F46200200630010026000000F7
:10041000C03100200C6300200000000089ED0408BA
:1004200008630020160215003F0000008031002004
:10043000386300200000000011EE0408346300203F
:100440000D1001004C000000189E0020A8B90020EB
:1004500000000000F7EC0108A4B90020210201000F
:10046000F0000000F0AE0020E4AF0020000000002B
:100470003D290408E0AF00202C000400100000001B
:10048000E0AE0020D8B0002000000000BD860308C8
:10049000D4B0002025201E002C010000B4AD0020A7
:1004A000ECB000200000000000000000E8B00020D8
:1004B0002B001200240000006CAD00201CB20020B4
:1004C00000000000CD86030818B2002027000100BC
:1004D00004000000D4A0002044B20020000000006E
:1004E0000024070840B200200C700600C000000085
:1004F000509900204CB2002000000000E94B020897
:1005000048B200203112030042000000A89D0020E4
:1005100010B3002000000000554D02080CB300206D
:10052000220201001C010000B49F002058B30020EB
:10053000000000008DFD040854B3002003110100E9
:100540000A000000A89F002078B4002000000000EE
:10055000C580040874B400200AA001002400000033
:10056000EC9D002088B4002000000000B188030842
:1005700084B40020FE01010018000000909F0020BC
:10058000B0B400200000000005ED0408ACB4002069
:100590002950140078000000189F0020CCB40020DF
:1005A0000000000000000000C8B40020012001008D
:1005B0000C0000000C9F002048B500200000000047
:1005C0000424070844B5002018400100340000004E
:1005D000D89E002058B50020000000002DFD040822
:1005E00054B500202320010010000000C89E002008
:1005F00090B50020000000009D8803088CB5002005
:100600000B4001000E000000B89E0020A4B50020A1
:100610000000000010240708A0B500200EB0040060
:1006200098030000109A0020B8B5002000000000D8
:1006300051BB0208B4B500201E4001004E0000006E
:10064000689E002054B90020000000001E24070806
:1006500050B900203870010008000000CCBF002015
:1006600038D00020000000006C24070834D000209F
:100670003CA001005A00000068BA002044D00020CD
:10068000000000007424070840D000201B40010037
:100690001200000038C30020A4D000200000000099
:1006A00021080408A0D00020163001000A00000034
:1006B00050C30020BCD0002000000000CE2407085A
:1006C000B8D0002010200100030000003CC1002031
:1006D000CCD0002000000000D8240708C8D000209B
:1006E0001910010003000000E0C00020D4D0002059
:1006F00000000000DC240708D0D000201A0201000E
:100700003C000000F4CF0020DCD0002000000000FE
:10071000E1F10408D8D00020280204000400000001
:10072000D4C000201CD1002000000000F5ED04081A
:1007300018D100202702040004000000D0C00020CF
:1007400024D1002000000000EDED040820D100209D
:100750001A0001000E00000078C300202CD10020F8
:1007600000000000E024070828D1002020620100DA
:100770000C00000034C0002040D100200000000028
:10078000EE2407083CD100200E0201000200000008
:10079000A4C0002050D1002000000000FA24070867
:1007A0004CD100202F2001006600000058D100200D
:1007B000A0C3002000000000FC24070854D1002042
:1007C0002A1201000800000018D40020A4DE002036
:1007D0000000000064250708A0DE0020234201007D
:1007E000180000003CD30020B0DE00200000000014
:1007F0006C250708ACDE00201F6001002C00000003
:1008000018DA0020CCDE0020000000008425070854
:10081000C8DE0020050201000400000074F300207F
:1008200074FC002000000000B025070870FC0020C8
:100830002C22010008000000A0F200209CFC0020F7
:1008400000000000B425070898FC00202D020100DC
:1008500001000000ACF20020A8FC00200000000015
:1008600000000000A4FC002012120100040000009F
:10087000A8F20020B0FC002000000000D9ED040820
:10088000ACFC0020290201004000000060F20020C2
:10089000B8FC00200000000000000000B4FC0020B4
:1008A000010101000400000070F30020FCFC0020A6
:1008B0000000000000000000F8FC00200001010022
:1008C0000400000050F2002004FD002000000000A1
:1008D000BC25070800FD0020020101000300000004
:1008E00028F300200CFD002000000000D94B020876
:1008F00008FD00201B02010010000000A01B0120C9
:100900006820012000000000FDED040864200120A3
:10091000001201000A000000541B01207C2001206D
:10092000000000006DED040878200120FC070100A4
:1009300001000000082201208024012000000000A6
:10094000317D04087C240120110201000800000010
:10095000242F01201C2F012000000000E1ED0408DD
:10096000182F01201F0206000C000000D42D0120CA
:10097000302F012000000000F5FA04082C2F012080
:100980000902010001000000F05001205C5101202B
:1009900000000000C025070858510120F90101009E
:1009A0000400000084470120645101200000000081
:0809B000C22507086051012077
:1009B80012010002000000408304205700020102D7
:1009C80003010000040309041A03000000000000EA
:1009D800000000000000000000000000000000000F
:1009E80000000100D8000000000000000500000021
:1009F8000600000002000000000000009007002030
:100A0800D06200200200000001000000A18D000853
:100A18008C07002000000000010000000100000019
:100A28007D8D0008DC0100200000000000000000AF
:100A380000000000000000000000000000000000AE
:100A4800000000000100000000000000000000009D
:100A5800000000000000000001000000000000008D
:100A6800000000000000000000000000010000007D
:100A78000000000005000000FFFFFFFF0403002046
:100A8800CC6200200300000001000000C98D0008AE
:100A9800880700200000000001000000010000009D
:100AA800E98D000808030020000000000300000092
:100AB800000000000000000000000000000000002E
:100AC80000000000010000000000000004030020F6
:100AD800CC6200200300000001000000C98D00085E
:100AE800880700200000000001000000010000004D
:100AF800E98D00080C03002000000000030000003E
:100B080000000000000000000000000000000000DD
:100B180000000000010000000000000000C000000C
:100B28008400000002000000000000000000000037
:100B380000000000010000000000000000000000AC
:100B4800000000000000000001000000000000009C
:100B58001000000004030020CC6200200300000005
:100B680001000000C98D000888070020000000006F
:100B78000100000001000000E98D00083803002092
:100B8800000000000400000001000000F58D0008CE
:100B9800000000000000000000000000010000004C
:100BA80000000000FFFFFFFF0060024010600240ED
:100BB800000000000000000000000000000000002D
:100BC8000B00000000000000000000000000000012
:100BD80000000000006002402860024001000000A0
:100BE8000000000000000000060000000C000000EB
:100BF80000000000000000000000000000000000ED
:100C08000060024040600240020000000000000056
:100C180000000000100000000D00000000000000AF
:100C2800000000000000000000000000006002401A
:100C380058600240030000000000000000000000AF
:100C4800160000000E000000000000000000000078
:100C580000000000000000000060024070600240D8
:100C68000400000000000000000000002000000058
:100C78000F0000000000000000000000000000005D
:100C8800000000000060024088600240050000008B
:100C98000000000000000000260000001000000016
:100CA800000000000000000000000000000000003C
:100CB80000600240A0600240060000000000000042
:100CC80000000000300000001100000000000000DB
:100CD800000000000000000000000000006002406A
:100CE800B86002400700000000000000000000009B
:100CF800360000002F000000000000000000000087
:100D0800000000000000000000640240106402407F
:100D180000000000000000000000000000000000CB
:100D28003800000000000000000000000000000083
:100D38000000000000640240286402400100000036
:100D4800000000000000000006000000390000005C
:100D5800000000000000000000000000000000008B
:100D680000640240406402400200000000000000ED
:100D780000000000100000003A0000000000000021
:100D880000000000000000000000000000640240B5
:100D9800586402400300000000000000000000004A
:100DA800160000003B0000000000000000000000EA
:100DB800000000000000000000640240706402406F
:100DC80004000000000000000000000020000000F7
:100DD8003C000000000000000000000000000000CF
:100DE8000000000000640240886402400500000022
:100DF8000000000000000000260000004400000081
:100E080000000000000000000000000000000000DA
:100E180000640240A06402400600000000000000D8
:100E28000000000030000000450000000000000045
:100E38000000000000000000000000000064024004
:100E4800B864024007000000000000000000000035
:100E5800360000004600000000000000000000000E
:100E68000000000000000000118F0008318F00080A
:100E7800498F00084D8F000811A00008518F000805
:100E8800558F00082C150608110D050815F00408E3
:100E9800ED4505080000000000000000E5470508D2
:100EA800794805080000000000000000000000006C
:100EB80055F00408218800082D880008FD980008CE
:100EC800D59800083988000819990008359900084C
:100ED8000100000003000000000000000500000001
:100EE8001F0000001C0000001F0000001E00000082
:100EF8001F0000001E0000001F0000001F0000006F
:100F08001E0000001F0000001E0000001F0000005F
:100F18000068214C01000000AD08050885EF0408B1
:100F2800BD07050800000000F1EF0408650C05087E
:100F3800910A0508DD0A050800000000000000000D
:100F4800E5EF040861F0040885F004081145050878
:100F5800F54405082D450508494505086545050872
:100F6800E107050809EF0408B905050800000000B5
:100F780055EF0408F508050895090508E10905086D
:100F8800000000000000000079EF040801FF0000E5
:100F980090140608C4140608F8140608FFFFFFFF9B
:100FA800060000000600000005000000C700000061
:100FB8000600000005000000314B0508354B050808
:100FC800394B0508454B0508494B05083D4B0508B5
:100FD800414B0508FFFFFF00FFFFFFFF0100000076
:100FE80000010101000000000000C842FFFFFFFFF0
:100FF8000897060800000802050303000000000027
:10100800109706080100080205040300000000000C
:1010180018970608000008020503030000000000F6
:1010280020970608010008020504030000000000DC
:10103800A0E106080200FE01011403000000000000
:101048004C8F060803001402000300000000000093
:101058002897060804001F0202000600000000008E
:101068003097060805001F02020106000000000074
:10107800010000000000FA44000000000000000029
:101088000000000000000000000000000000000058
:101098000000000000000000000000000000000048
:1010A800020000000000803F010000007D000000F9
:1010B800640000000000803F000000000000000005
:1010C800000000000000803F000000000000000059
:1010D800000000000000803F000000000000000049
:1010E80000000000FFFFFFFFA0C90608B8DB0608E4
:1010F800000000003D4B0208A0860100040000002B
:10110800A0C90608C0DB060800000000C17C010871
:10111800E803000004000000C8DB06080000000027
:1011280000000000A5EC02087D000000FF000000A0
:101138000890060800000000000000008DEF02087B
:101148007D000000FF000000C0E606080000000067
:1011580000000000594903087D000000FF0000005E
:10116800A097060800000000000000005D7D01084F
:10117800E803000003000000F891060800000000E2
:1011880000000000B97B03081027000003000000DE
:1011980024970608000000005187030889AB01085E
:1011A8005F76000005000000A09906080000000016
:1011B80000000000157D0108102700000200000053
:1011C800D0DB060800000000000000007D7A01085E
:1011D800E803000005000000DCDB06080000000052
:1011E80000000000295E0208204E000003000000F5
:1011F800ECDB060800000000000000007163020834
:10120800204E000003000000FCDB06080000000080
:101218000000000021A60108400D030003000000A3
:101228007CCA06080000000000000000A9F70108B9
:101238001027000002000000A8990608000000001E
:1012480000000000B5620408102700000300000039
:101258000CDC0608000000000000000011820108F4
:101268001027000003000000B090060800000000EE
:10127800000000007D8F0108A86100000200000046
:101288004C8E0608000000000000000021920108B2
:101298001027000002000000FC9206080000000071
:1012A80000000000552B0208A00F000002000000FB
:1012B80018DC06080000000000000000C946040809
:1012C8001A41000002000000E8990608000000002A
:1012D800C1940408A1CF040885450100020000005C
:1012E8000C8E06080000000000000000F1900408C1
:1012F800102700000200000024DC0608000000009F
:1013080000000000CD11040850C3000002000000D6
:1013180028DC0608000000000000000019B30408DB
:10132800400D03000100000030DC0608000000004A
:10133800000000009957040850C300000300000093
:101348003CDC06080000000000000000695D02089F
:1013580040420F000100000048DC060800000000C1
:101368000000000039ED010850C300000100000032
:1013780054DC0608000000000000000099B90408C9
:1013880010270000020000008492060800000000F8
:101398000000000049920308102700000200000026
:1013A80064DC06080000000000000000E197040863
:1013B8001027000002000000D9F601080000000014
:1013C80000000000000000000000803F0000000056
:1013D8000000000000000000FFFFFFFFEDED010826
:1013E8000000000000000000000000006400000091
:1013F8000100000002000000FFFFFFFF00000000E6
:1014080021A804082300000003000000FFFFFFFFDD
:1014180000000000C5A9040818000000060000002C
:10142800FFFFFFFF00000000B1AB0408210000002F
:1014380006000000FFFFFFFF000000009DAC04084D
:101448003100000006000000FFFFFFFF0000000061
:1014580025AD0408F200000006000000FFFFFFFFB2
:101468000000000089AD04081E0000000A0000000A
:10147800FFFFFFFF000000002DAE04080000000081
:101488000B000000FFFFFFFF00000000F5AE04089E
:101498004A0000000B000000FFFFFFFF00000000F3
:1014A80011B00408930000000C000000FFFFFFFFCC
:1014B800000000002DB10408803C36FE000000004A
:1014C80088FC0020080000000000000078FC0020D4
:1014D8000800000001EE0108000000000000000004
:1014E8000000000001000000FFFFFF7F00000080F7
:1014F8007EFF7EFFE2FFE2FF0000803FFFFFFFFF6D
:101508000000FA430000FA430000803F000000009A
:1015180000000000000000000000000000000000C3
:1015280000000000000000000000000000000000B3
:101538000400000001F11F3FD12204080000000050
:101548000000000014730608D4060000AC13012044
:10155800590604085D1F0408000000000060060822
:10156800000000000000000000000000705F060896
:101578000000000000000000000000001C5F0608DA
:10158800010000005C1601200000FFFF01000000C0
:101598006A16012000180100761601200164010076
:1015A800851601201964010084160120020000003C
:1015B800781E0608010604082D060408000000002D
:1015C800B85F06089816012000C801009916012086
:1015D800005001009A160120005A01009B160120B4
:1015E80002000000241E060830E3060838E3060857
:1015F800AE1601200100C40900000000AC1601204D
:101608000100C40900000000AA1601200100C40955
:1016180000000000A81601200100C4090000000015
:10162800A41601200100C40900000000A61601202C
:101638000100C40900000000A21601200100C4092D
:1016480000000000A01601200100C40900000000ED
:10165800B016012000C80100B116012000C8010021
:10166800B21601200000FFFF0A000000B416012096
:101678000100C80001000000B616012032003075D4
:1016880032000000B8160120E2FF14000500000037
:10169800BA1601207EFF140005000000BC160120C8
:1016A80005002C0105000000BE160120055A0500A2
:1016B800C116012000FF0100C5160120020000002C
:1016C800D00D0020C9160120040000009C60060807
:1016D800C016012000FF0100C4160120020000000E
:1016E800D00D0020C8160120040000009C600608E8
:1016F800CA160120FF7F0100CC160120000000005F
:10170800FFFFFFFF01000000D016012000000000CD
:10171800FFFFFFFF01000000D416012000000000B9
:10172800FFFFFFFF01000000D8160120EE02CA08E3
:1017380001000000DA16012000C801006400000062
:10174800DB16012001C8010064000000DC1601203E
:1017580002000000E81E0608DE1601200000803E98
:1017680005000000E016012080C1803E0500000051
:10177800E21601200083007D05000000E416012028
:1017880080C1803E05000000E616012000FF010030
:10179800E81601206400F40101000000EA160120A7
:1017A8006400F40101000000EC1601206400F4015B
:1017B80001000000EE16012004000000D8210608F0
:1017C800EF16012002000000CC210608F0160120C7
:1017D8000D000000C41D0608F11601200064010078
:1017E800F2160120320010270A000000F41601202A
:1017F8000D000000C41D0608F51601200D000000AC
:10180800C41D0608F616012002000000FC1D06088B
:10181800000000000000000000000000B0600608A2
:10182800000000000000000000000000E86006085A
:10183800F7160120650000003C1F0608F816012075
:101848000300000020610608F916012004000000CA
:10185800EC210608FA160120030000003061060892
:10186800FB1601200300000030610608FC16012069
:10187800000A0100FE1601200000E8030100000034
:10188800001701200000E8030100000002170120F2
:10189800000A0100041701200000E803010000000D
:1018A800061701200000E8030100000008170120C6
:1018B800C800E803010000000A1701201400FA001C
:1018C800010000000C1701200100E80301000000DE
:1018D8000E17012000070100101701200000F40175
:1018E80001000000121701200000F40101000000AF
:1018F800141701200000F401010000001617012050
:101908000000F40101000000181701200000E8039E
:10191800010000001A1701200000E8030100000080
:10192800291701201964010028170120020000006E
:10193800781E06083A170120006401001D170120CF
:10194800006401001C170120006401002417012015
:10195800006401000A000000231701200064010050
:101968000A00000022170120006401000A0000009C
:101978002717012000FF01000A0000002617012098
:1019880000FF01000A0000002517012000FF0100E8
:101998000A0000002117012001FF01000A000000D1
:1019A8002017012001FF01000A0000001F17012075
:1019B80001FF01000A0000003C1701200000F401AB
:1019C800010000003E1701200000E80301000000AC
:1019D800401701200000E803010000004217012021
:1019E8000000E80301000000441701200000E8039C
:1019F8000100000046170120009601004817012049
:101A0800E803D0070A0000004A170120006401001B
:101A18004C170120E803D0070A0000004E170120E8
:101A2800006401000A0000004F1701200096010021
:101A38005017012000C8010051170120006401005F
:101A480056170120006401005517012000640100A9
:101A5800541701200064010057170120FF080100F6
:101A68005817012001640100F5FC030849FD03082B
:101A780000000000406106085917012001320100EA
:101A88005A170120010000004C1E06085B170120B0
:101A980004000000541E06085C170120009601008F
:101AA8005D170120006401005E17012000FA0100A3
:101AB800640000005F1701200AFA01006017012086
:101AC8000AC80100611701200064010062170120A3
:101AD80000640100631701200A5A010064170120FD
:101AE80000C801006517012000C801006617012021
:101AF8000032010067170120001401006817012057
:101B0800005F01006917012004000000801D06081D
:101B18006A170120006401000A0000006B17012009
:101B28000AC805000A0000006C1701200100000027
:101B3800DC2206086D1701200AC805000A0000000B
:101B48006E17012001000000DC2206086F17012033
:101B580000C805000A0000007017012000C8050031
:101B68000A0000007117012000C805000A000000E3
:101B78007217012000C805000A0000007317012031
:101B880000C805000A0000007417012000C80500FD
:101B98000A0000007517012000C805000A000000AF
:101BA8007617012000C805000A00000077170120F9
:101BB80002000000441D06087C1701200000D00721
:101BC800010000008817012000C8010087170120C4
:101BD80000C801008617012000C801007A170120FB
:101BE8000000D007010000008517012000C801008F
:101BF8008417012000C801008317012000C80100D4
:101C0800781701200000D00701000000821701208A
:101C180000C801008117012000C8010080170120B9
:101C280000C80100C8EE06080000000000008C187B
:101C38000120D4EE06080708000000000414002064
:101C4800DCEE0608070800000000FC130020E4EEA4
:101C58000608070800000000F4130020ECEE060850
:101C6800080800000000E8130020F4EE0608070842
:101C780000000000E0130020FCEE06080708000042
:101C88000000D813002004EF060807080000000031
:101C9800D01300200CEF0608080800000000C41349
:101CA800002014EF0608071000000000BC130020F5
:101CB8001CEF0608071000000000B413002024EFF2
:101CC8000608071000000000AC1300202CEF0608DF
:101CD800081000000000A013002094E2060801008C
:101CE80000000000000000000000000010000000DC
:101CF8000000000000000000D5000408E50004080A
:101D0800ED230408B0610608991801200064010059
:101D18009A180120005A01009B18012000C80100F0
:101D28000000000000000000011E04084C620608C4
:101D38009C18012003000000341D060891010408C6
:101D48000502040800000000A062060879020408E1
:101D5800BD02040800000000486306087901040871
:101D68001124040800000000C86306089D1801201B
:101D78000103010099050408CD05040800000000CE
:101D8800806706087DFB0308B1FB0308000000001C
:101D98000068060821030408C103040800000000C5
:101DA8006468060865000408C53C040800000000D3
:101DB8001C690608CD1B040839FB03080000000055
:101DC800C4690608D1FF03080000000000000000F5
:101DD8006C6A06082DFE0308BDFE0308000000001B
:101DE800D06A06089DFD0308E5FD03080000000011
:101DF800886B0608117B0408C1FC0308000000007A
:101E0800086C0608B818012005000000A018012079
:101E180041FF030891FF030800000000F86C060862
:101E2800597B04083521040800000000686D060885
:101E380005FC0308E51F040800000000606F0608A1
:101E4800B17A04081D1F0408000000000C140020CB
:101E5800CC18012003000000BC180120010104086F
:101E68003D010408000000006C7006089911040880
:101E78000000000000000000D070060809030408F4
:101E88002D240408000000006C7106080000000002
:101E98000000000000000000DC7106081B7A04083E
:101EA800E91E0408000000005C72060800FF00003C
:101EB8000000000000000000F90404080000000011
:101EC80000000000A07406080100000000000100E6
:101ED800000000000000000000000000587A06081A
:101EE800AD4104080000000000000000BC790608AD
:101EF800D1F904080000000000000000307906084D
:101F0800911A04080000000000000000E8780608A4
:101F1800FA000000010000000100000000000000BD
:101F280000000000511A0408131B0120012D202D68
:101F38002D202D2D2D2D202D2D2D000000000000F1
:101F48000000000000000000000000000101FF0088
:101F5800FFFFFFFF01000000F618012088136F172C
:101F680001000000F818012088136F170000000016
:101F7800FA18012088136F1701000000FC180120CF
:101F880088136F1700000000B10404080000000067
:101F980000000000507606084B1B012001000000DD
:101FA800A4760608FF18012001000000B076060894
:101FB800A419012002000000B8760608D504040818
:101FC8000000000000000000C476060800000000C1
:101FD800000000000000000018770608000000005C
:101FE800000000000000000088770608F3180120B0
:101FF80002000000D0770608BC1E0120E0150C176F
:1020080000000000C0120000922001200000000023
:1020180000000000902001200000000000000000E7
:102028008E20012000000000000000008C2001200C
:1020380000000000000000008A20012000000000CD
:1020480000000000882001200000000000000000BF
:10205800EC1700200000000000000000FE1801201E
:1020680003000000C0770608000000000000000020
:1020780000000000DC77060896200120E0150C1708
:10208800000000009820012002000000D077060818
:102098002D202D2D202D2D2D2D202D2D2D2D0000E9
:1020A8000000000000000000000000000000000028
:1020B800000000000000000000000000147806087E
:1020C8009A2001209CFF2C0100000000961E012090
:1020D800E0150C1700000000F91D012002000000A7
:1020E800D07706082D202D2D202D2D2D2D202D2D9E
:1020F8002D2D00000000000000000000000000007E
:1021080000000000000000000000000000000000C7
:102118004C78060801AA550701000000FCFFFFFFE4
:102128000101FDAA55050100000801AA5509020090
:102138000000AA5503009F0001000000AA550B01EA
:102148000000AA550501000014010000FF0000006E
:1021580009024300020100C0320904000001020222
:1021680001000524001001052401000104240202D5
:102178000524060001070582030800FF0904010081
:10218800020A00000007050102400000070581025D
:102198004000000009026400030100C03209040085
:1021A8000001030000000921110100012236000787
:1021B80005830309000A080B010202020100090451
:1021C800010001020201000524001001052401009C
:1021D80002042402020524060102070582030800FE
:1021E800FF09040200020A0000000705010240007E
:1021F800000705810240000009022000010104C017
:102208003209040000020806500507058102400053
:10221800000705010240000012010002EF02014020
:102228008304563200020102030100001201000279
:10223800020200408304405700020102030100002B
:10224800040309040101000005010905A101A10019
:1022580005010930093109320933093509340936CC
:1022680009371581257F7508950881020509190127
:10227800290815002501950875018102C0C00000D4
:1022880009022200010100E03209040000010301F3
:102298000200092111010001223600070583030904
:1022A800000A0000A4000000000000000000FF0079
:1022B800890305082904050811FE0408D9EE040855
:1022C8001DEE0408BDEE0408A5EE0408E9EE0408B6
:1022D800F9EE04080000000000000000C81A002001
:1022E800000000000000000068000000D0000000AE
:1022F80000000000000000000000000000000000D6
:1023080000000000000000000000000000000000C5
:1023180000000000000000000000000000000000B5
:0C232800000000000000000000000000A9
:10800000074BD0F8EC105B68D0F8F8205B1A9A4266
:10801000B8BFC0F8F830012380F824310020704741
:10802000001000E02C22C24B00FB02F22DE9F041CF
:1080300003EB020E9A585268918ACD0700F18780AF
:108040005FFA81FC1CF0020F4ED0BFF35F8F9EF8E9
:108050001C100129CCB200F0F3804100148BBFF357
:108060005F8F4FF02C0C0CFB003C9CF81C40022C4A
:1080700000F013814FF02C0C0CFB003C9CF81C40D2
:10808000032C09D19CF81E4034B10C181C4494F800
:108090008450002D40F06981B2F804C01FFA8CFCB6
:1080A0004CF4806CA2F804C001EB000C9C449CF9D9
:1080B00086E04FF02C0C0CFB003C9CF81CC00CF133
:1080C000010CF4450ED101441944002481F8844088
:1080D00091F88510002940F0D9802C2202FB003352
:1080E00000225A76BDE8F0811CF0040F66D18CB2F4
:1080F00000EB40015E181CF0400C96F986804FEAB8
:10810000400100F0DF80158ADEF82470EDB207F838
:1081100008505FFA88FC0CF1010464B29EF81C70F0
:1081200086F88640E51CAF42A64600F049812C2522
:1081300005FB00352D7FAC42BBD10C180CF1020CB5
:108140001C444FFA8CFC84F886C0E646B1E71188DF
:1081500021F400610904090C1180118889B241F4ED
:108160008061118000EB400C9C449EF81E4000256D
:1081700041008CF88650002C50D09CF88440002C94
:1081800048D001441944012481F884402C2101FB8A
:108190000031097F022904D1118889B241F40061BC
:1081A00011802C2101FB0031897E41F001011182F7
:1081B0002C2202FB00331B7FBDE8F08100EB400462
:1081C0001C449EF81E504FF0010C410084F885C0FD
:1081D000002D7BD094F88450002D7CD12C2404FBFE
:1081E0000034647F002C00F0C3801488A4B244F4EF
:1081F000007414800C181C4494F886E00EF1010EF3
:108200004FFA8EFE84F886E0B2F800C01CF4807F3E
:10821000FAD14EE79EF81B40FF2CB2D02C2404FB71
:10822000003494F81AC00CF0FE0CA2F810C0E27EE4
:10823000FF2ABDD001441944FF2281F88620B7E708
:108240009EF81E1000293FF408AF00EB40051D44C6
:10825000410095F88460002E3FF400AF168826F4A4
:1082600080663604360C1680BFF35F8F85F8854034
:10827000148B148895F986E0A4B244F40074148039
:108280009488A4B244F48064948012E7918821F425
:1082900040710904090C91801FE79CF81E40002CD6
:1082A0003FF4E8AE0C181C4494F88450002D3FF4C1
:1082B000E1AE94F986E0148824F480642404240C4C
:1082C00014804BE0240635D4C646F2E694F8844088
:1082D000002C83D089E79EF81C50DEF82460022D24
:1082E000158852D925F480652D042D0C1580158A2A
:1082F00094F986C0EDB206F80C501588DEF82470AB
:10830000ADB245F4007515805FFA8CFC168A0CF14D
:1083100001056DB2F6B27E550CF1020E4FFA8EFEDB
:1083200084F886E09488A4B244F4806494806BE777
:10833000181B0020B8F1FF3F49D0DEF8204014F8A8
:108340000850EDB215829EF81C5008F1010464B289
:10835000A54286F88640A6467FF4ABAE948824F406
:1083600080642404240C9480A3E694F986E0F5E765
:108370001488A4B244F4807414800C181C440125A1
:1083800094F986E084F884503EE7ADB245F4007578
:108390001580158A94F986C0EDB206F80C505FFA84
:1083A0008CFC168ADEF824700CF101056DB20CF11C
:1083B000030EF6B24FFA8EFE7E5584F886E023E770
:1083C000958825F480652D042D0C9580AFE69EF8E8
:1083D0001B1086F886C0C9B211829EF81E1021B902
:1083E0009EF81C1000297FF4E3AE918821F480618F
:1083F0000904090C9180DBE610B404698269E46821
:108400004168146000234024C2E902344469936344
:108410000C31C2E90433C2E90633C2E90833C2E9C8
:108420000A33C2E90C33516094B1C269E4689363C2
:108430004FF48030C2E90041C2E90233C2E904339B
:10844000C2E90633C2E90833C2E90A03C2E90C33C0
:108450005DF8044B704700BFD0E9001300221A609A
:10846000037D1F2B07D9203B202202FA03F343F0A0
:108470001803CB607047202202FA03F343F018037D
:108480008B6070471B4B016803F57D7C02E02C3349
:1084900063452CD01A688A42F9D170B593F804E08C
:1084A000427996450BD02C33634505D01A688A4231
:1084B000F4D02C336345F9D14FF0FF3070BD9E46A8
:1084C0008468DEF80C50A5424FF0000208D001325B
:1084D000032A0EF10C0EE6D0DEF80C50A542F6D1C0
:1084E000DEF81050C668B542F1D150B270BD4FF001
:1084F000FF30704730FD0508002A4FEA014C30B5C7
:1085000003460ABFE6468E468C4600F1C0050024AD
:1085100019689A6841EA0C0142EA0E029A60C3E9BE
:1085200000140C33AB42F3D1D0F8C030C0F8C440D3
:1085300043EA0E03C0F8C030C0F8C84030BD00BFE9
:10854000C3691969B3F80CC00A6830B49C6822F09A
:10855000010224680A60A28992B222EA0C02A28176
:10856000027D00681F2A06D94568203A08249440F5
:108570002C4246D0FEE70568082494402C42F9D1ED
:10858000202404FA02F28260274A92F88D20002A01
:1085900035D01A7E012A39D0D3F8F4200132C3F83D
:1085A000F420EFF31181502282F3128858685C6C3A
:1085B000026822EA04029C6C2243C9B2026081F381
:1085C0001188D3E90C401A6999681D6C0968146018
:1085D0005061D3E90E40546090600024B3F8A800C5
:1085E000D5604C62C86210680124204310601C767C
:1085F00083F8F1408A899B8913439BB28B8130BCFD
:108600007047202404FA02F2C260BDE7002283F81A
:10861000F120D3F8F8000A68013022F00102C3F813
:10862000F8000A60EBE700BF181B00202DE9F041BD
:10863000204CD4F89050002D32DD002304F1940238
:1086400018461F46012604EB032C01339CF88511C4
:1086500001F0FF0E51B9AB4202F58072F3D118B1AF
:1086600094F89434542B1ED0BDE8F0819168B2F890
:108670000C807046D1F800E0BEF80C1089B221EAF7
:108680000801AEF80C10D2F810E0DEF8001021F06E
:108690000101CEF800108CF8857182F8F260DAE7FB
:1086A0000020BDE8F081B4F89C340133A4F89C3478
:1086B000BDE8F081181B002010B40D4CD4F89030A8
:1086C000002B12DD002004F1940C0146DCF8A030F0
:1086D00003F1C00259600C339342FBD1D4F89030BF
:1086E000013083420CF5807CF0DC5DF8044B704770
:1086F000181B0020704700BF024B03EB401393F898
:10870000C5047047181B00204368B0F8502010B40F
:108710001A83EFF31182502383F312884168446C6B
:108720000B6823EA0403C46C2343D2B20B6082F3C8
:108730001188D0E907418268036912681C60596199
:10874000D0E909415C60C46A9960B0F86010DC60EF
:108750000023D1625DF8044B0376704710B4037DAB
:1087600002681F2B09D95468203B202101FA03F32A
:108770001C4215D15DF8044B70471468202101FAA2
:1087800003F31C42F6D00D494068002481F8A84547
:1087900001685DF8044B21F00101016093607047AE
:1087A00006494068002481F8A84501685DF8044B3B
:1087B00021F001010160D360704700BF181B002049
:1087C0000C2911D8DFE801F0231010101910101037
:1087D000111010100700838B23F400631B041B0C83
:1087E00043EA02239BB283837047838B23F0080301
:1087F0001B041B0C1A4382837047038B23F4006312
:108800001B041B0C43EA02239BB203837047038BB8
:1088100023F008031B041B0C1A430283704700BF9C
:10882000122301480B80704798010020042301485F
:108830000B807047AC0100201C48D0F8103AD0F8EB
:10884000182A10B59B184FF01A040C8001D1184853
:1088500010BD174AD0F8140A02F1100411464FF067
:10886000000E4FEA137CB3F1204F34BF0CF1300CF3
:108870000CF1370C81F802C081F803E002318C4220
:108880004FEA0313EDD102F108040021030FB0F108
:10889000204F34BF303337339374D1740232944253
:1088A0004FEA0010F2D1024810BD00BF0070FF1F58
:1088B000B0010020426A806A131A5842584170473A
:1088C00090F84F3830B53BB990F84D1890F84E38C5
:1088D0000124DAB2914200D830BDB0F8565804FAFB
:1088E00003F22A43A0F856280133F2E7037902463F
:1088F00013F0010005D0D369D068116A01385B1A02
:108900001840704710B50379DB07044601D40020F6
:1089100010BDFFF7EBFF0028F9D0236A6269D05C35
:10892000236AE2680133B3FBF2F102FB1133C0B2F8
:108930002362EDE703799B070AD5436A8269D15424
:10894000436A02690133B3FBF2F102FB1133436264
:1089500070477047017170470379024613F00200B7
:1089600007D0536A1069916A01385B1A0340DBB281
:10897000C01A704782B01D4B1D490022019201931D
:10898000019B04330193019B1A688B6803F00C036D
:10899000042B02D0082B05D0164A174BC3F8AC2580
:1089A00002B0704748684B68400203F03F0314D49C
:1089B0004A681049B1FBF3F3C2F3881203FB02F2D9
:1089C0000B4B5B68C3F3014301335B00B2FBF3F273
:1089D000094BC3F8AC2502B070474968B2FBF3F20B
:1089E000C1F3881303FB02F2EAE700BF50280040FE
:1089F000003802400024F400181B00202DE9F04F3D
:108A00004A484B494B4B4C4C4FF0010A4FF002097E
:108A10004FF004080827102620254FF0400E4FF095
:108A2000800C30F8022B12F0010F03D01960A3F86C
:108A300004A0083312F0020F03D01960A3F80490C9
:108A4000083312F0040F03D01960A3F80480083330
:108A500012F0080F02D019609F80083312F0100F37
:108A600002D019609E80083312F0200F02D01960E6
:108A70009D80083312F0400F03D01960A3F804E082
:108A8000083312F0800F03D01960A3F804C0083334
:108A900012F4807F05D04FF4807B1960A3F804B0F6
:108AA000083312F4007F05D04FF4007B1960A3F85F
:108AB00004B0083312F4806F05D04FF4806B196056
:108AC000A3F804B0083312F4006F05D04FF4006B24
:108AD0001960A3F804B0083312F4805F05D04FF496
:108AE000805B1960A3F804B0083312F4005F05D06E
:108AF0004FF4005B1960A3F804B0083312F4804F00
:108B000005D04FF4804B1960A3F804B00833D20BA2
:108B100004D04FF4004219609A80083301F5806157
:108B2000A1427FF47EAFBDE8F08F00BF24010608AC
:108B300000000240C820002000140240072809D885
:108B4000054B8C2202FB0033B3F83008B0FA80F0FA
:108B50004009704700207047181B0020072806D8DE
:108B6000034B8C2202FB0033012283F8322870472A
:108B7000181B002010B584464FEA810E102312F412
:108B8000004F14BF0E2407245200013BCCF80040D4
:108B900092B2F444F3D100EB81128C01035142F8FC
:108BA0002130122010BD00BF10B584464FEA810E5F
:108BB0000424130B03EB430318331201013CCCF8DC
:108BC000003092B2F444F4D100EB01130A01845056
:108BD00043F82140062010BD704700BF704700BF1A
:108BE000034B00EB400003EBC00393F8A10C70476C
:108BF000181B0020064B93F8502D824283BF00EBD8
:108C0000400003EBC003D3F8A40C0020704700BF62
:108C1000181B0020072808D8044B03EB401393F8D7
:108C2000C42412B1012283F8AA247047181B002023
:108C3000072808D8054B03EB4013B3F8A804B0FA93
:108C400080F0400970470020704700BF181B0020CB
:108C5000054B93F8502D824286BF03EB4013D3F8A7
:108C6000B4040020704700BF181B00201D4B93F870
:108C7000512DAAB3D3F8901C09B100200860012A35
:108C80002ED0D3F8A81C09B100200860022A27D0F2
:108C9000D3F8C01C09B100200860032A20D0D3F803
:108CA000D81C09B100200860042A19D0D3F8F01CA0
:108CB00009B100200860052A12D0D3F8081D09B1B7
:108CC00000200860062A0BD0D3F8201D09B100202F
:108CD0000860072A04D0D3F8383D0BB100221A608F
:108CE000704700BF181B00201D4B93F8512DAAB3ED
:108CF000D3F8901C09B100200860012A2ED0D3F8C7
:108D0000A81C09B100200860022A27D0D3F8C01C93
:108D100009B100200860032A20D0D3F8D81C09B17B
:108D200000200860042A19D0D3F8F01C09B10020F3
:108D30000860052A12D0D3F8081D09B10020086088
:108D4000062A0BD0D3F8201D09B100200860072A9D
:108D500004D0D3F8383D0BB100221A60704700BF31
:108D6000181B002000EE100AB8EE400A704700BF42
:108D7000BCEEC00A10EE103A98B27047012380F89A
:108D800029300020704700BF08B50346426AC06B17
:108D9000996B02445A6201B18847002008BD00BFA8
:108DA000036B1B681B6A5B685B78024613F001006B
:108DB00008BF82F82900704782634162704700BF94
:108DC000704700BF04307047036B1B681B6A5B6809
:108DD0009B78024613F0010008BF82F82900704713
:108DE00082634162704700BF012380F82930002070
:108DF000704700BF08B50346426AC06B996B0244D6
:108E00005A6201B18847002008BD00BF704700BF0B
:108E1000043070470D4B93F8582DD3F8541D02447D
:108E2000D2B283F8582D93F8582D01441206C3F896
:108E3000541D05D593F8582D82F0800283F8582DE3
:108E4000034B012283F83220704700BF181B00201B
:108E5000980100202DE9F047154FD7F85C5DED0A29
:108E600020D00026B14607F55A687419D7F8603D3E
:108E70001048D3F828A0C7F8989D04EBD474641068
:108E800010234246E102D0470F280BDD0A4B03F1C5
:108E9000100153F8042B013207D18B42F9D125463A
:108EA000B542E2DCE802BDE8F087661CF8E700BFE7
:108EB000181B002078280020B828002038B5134C53
:108EC000D4F8B05DD4F8B43DEB1A322B0CDCD4F8F6
:108ED000C83DEB1A002B00DC38BD0020323511F004
:108EE000C5FAC4F8C85D38BD94F8B83DD4F8BC2DB7
:108EF00003F001031AB19188126823B9118300238A
:108F0000C4F8C83D38BD5183F9E700BF181B0020E5
:108F1000064AD2F8BC3D3BB192F8B81D9A881B684E
:108F2000C90754BF1A835A8300207047181B0020BA
:108F30004FF40070034B1060D3F8D83D0B60002055
:108F4000704700BF181B00200020704701207047A9
:108F5000012070470020704730B585B068464AF060
:108F600005FF1048104AD0F8FC10009B0F4D41F04F
:108F70008071C0F8FC10002400F1C840C2F8B05F56
:108F8000A0F5650054601168094CA0F67D60A0FB57
:108F9000030341F001019B0CC4F8083E116005B0C9
:108FA00030BD00BF00ED00E0001000E055CEACC5C4
:108FB000181B00202DE9F0411D4CDFF87C801D4F6F
:108FC00082B004F52075012602E00834A54224D0C1
:108FD00094F90630002BF8D1206800F13F4303F5E7
:108FE0007E0308EB932393F800345A09032A03F015
:108FF0001F0306FA03F317D0042A11D0022A02D164
:109000007A6C13437B640023A1881A46CDE90036AD
:10901000083450F0B3F8A542DAD102B0BDE8F081CF
:109020003A6B13433B63EEE73A6C13433B64EAE766
:10903000C82000200038024030FD0508164AD0F84C
:10904000E8305268D0F8E01010B5044673B1501AF9
:1090500083420BDC94F8D830C4F8E020012B10D008
:10906000D4F8DC300133C4F8DC3010BDD4F8EC3077
:10907000C4F8E0200B44C4F8E43094F8D830012B55
:10908000EED104F1F001201D47F056FFD4F8DC309A
:109090000133C4F8DC3010BD001000E0F0B5224C04
:1090A000224A234B95B0054604F13C00CDE900026D
:1090B000049304F140000023CDE90503CDE90E330C
:1090C0001C4A09920B9304F13402109313931193E9
:1090D0002B6B95F828700A921868012302228DF8EC
:1090E0000C3007938DF820308DF834308DF84830EF
:1090F0003B1D02920E460C9350F0D2FA97B1330EFC
:1091000084F835303634320C330A22706370A6701E
:10911000286B694647F010FF2B6B186850F0C0FAB7
:1091200015B0F0BD3534EEE7980100202429002069
:10913000A18D00087D8D000810B5044694B0502222
:109140000649684656F096FB206B694647F0F4FEE8
:10915000236B186850F0A4FA14B010BD380106084B
:109160002DE9F0410446006B00681E460F4690460C
:1091700050F096FA94F82830606A002B3ED0284DC3
:10918000030E85F84530052205F146039870EA671D
:10919000020C000A58701A703B68C5F8883000202D
:1091A000D8F80030C5F89030012EE363C5F8A00070
:1091B00029D0022E20D1D8F80420C5F8980079686B
:1091C00085F89400C5F89C1013441649C5F8A420EE
:1091D0000120E36385F8A800C5F8AC10124B94F8A1
:1091E0002920206BA3F11401002A08BF194647F07B
:1091F000A3FEA36B7BB1E06BBDE8F0810B4B0422B7
:10920000A3F14505C2E7074B85F89460C5E9263010
:10921000C5F8A400E2E7236B186850F041FAEAE7CA
:1092200098010020898D0008F8010020DD01002050
:1092300000B583B041620192049A009382630123D6
:109240006A4601A9FFF78CFF03B05DF804FB00BF7D
:10925000F0B5836993F8E420012A8BB0054635D038
:10926000023A012A2FD893F85421D3F89C10244CA9
:1092700062F07F030B708669D6F8A0305F1C0FCCBC
:10928000EC46ACE80F00D6F89C30CDE900370FCCA7
:10929000ACE80F0094E803008CE80300694606F18F
:1092A000100047F049FEA9690A69136A002BFCD136
:1092B000D1F8A0305A8852BAEA819A8852BA2A82E2
:1092C000DB885BBA6B8201200BB0F0BD93F85421B0
:1092D00093F85701D3F8A010131A5B100133DBB2D7
:1092E00001EB430231F813305BBAEB8153885BBA70
:1092F0002B82938801205BBA6B820BB0F0BD00BF5C
:1093000088010608F0B590F8E430D0F8A060012B91
:109310008BB004464BD034D9023B012B2ED890F8A9
:109320005531D0F89C20524D63F07F031370D0F874
:10933000A0305F1C0FCDEC46ACE80F00D4F89C3099
:10934000CDE900370FCDACE80F0095E803008CE8BD
:109350000300694604F1100047F0EEFD2269136A2C
:10936000002BFCD173885BBAA4F8D030B3885BBA09
:10937000A4F8D230F3885BBAA4F8D43001200BB043
:10938000F0BDD0F89C304FF0FF321A605A609A60FE
:10939000DA60D0F8E8300522B3F57A7FC0F8F8201B
:1093A00038D8032380F8E43001200BB0F0BD90F8EA
:1093B000571190F8553190F85621D0ED366AD0ED1E
:1093C000377A5B1A5B100133DBB2521A36F813108E
:1093D00006EB430349BAA0F8D010598849BAA0F85F
:1093E000D2109B8852100132D2B25BBAA0F8D430AE
:1093F00036F81230DBBA07EE103AB8EEC77AE7EE6D
:10940000267AFDEEE77A17EE903AA0F8D6300120E2
:109410000BB0F0BD03691A7B2AB35B691BB390F8EC
:10942000983003B390F85731D0F89C20C4F8A400CA
:1094300063F07F03137090F8571190F85531D0F80E
:10944000A0200C48C4F80C015B1A07330121C4F8B2
:109450000431D4F89C3084F808110A44C4E93F323E
:1094600084F8E4108AE7022384F8E43086E700BF3A
:1094700088010608018000082DE9F0411348144DC9
:109480004FF4DC72002156F04DFA4FF00008A5F5BC
:10949000906705F2746440F29D1655F82810002379
:1094A00054F8332091420BD001330A2BF8D100201D
:1094B00008F107084DF068FEB045EED1BDE8F08137
:1094C00007EBC30393F8F80AF2E700BF282900204E
:1094D000B001060870B50B4C05460626013E00D1CA
:1094E00070BD94F9000016F02DF8031E08DBEA1891
:1094F00061781172A178E954052BDCBFE37813740D
:109500000434EBE77408060810B5274C14F8702CE7
:1095100014F86F3C9A4242D114F86E0C00B3234AFF
:1095200014F86D4C02F6C87300EB4000D2F8C82F57
:1095300003EBC000B4B140F20D3C00E01A6899683A
:109540009C894C600C6844F001040C60A2F848C08F
:109550009189183389B241F4807183429181EDD1B0
:1095600010BD1A68118821F0800109041833090C14
:10957000118033F8141CD162118889B241F0800146
:1095800011805462B2F80CC033F8041C41EA0C019B
:1095900089B28342918123F8044CE2D110BD51F08D
:1095A00057FB0028B8D110BD102C0020181B00203C
:1095B0002DE9F041DFF8B08008EB401797F8C4348C
:1095C0000BB9BDE8F08104460D46460110F0B0FC31
:1095D000B0BB2348464400EB4410A6F8A85410F052
:1095E000CDFA98F88D30D6F8C024D6F8AC1493B1E3
:1095F000D2F8A03001248C4003F1C001420010F4E5
:10960000004F90B202D15A6822435A600C339942FB
:10961000F4D1BDE8F081D2F8A030012401F11002AC
:10962000944003F1C001420010F4004F90B202D107
:109630005A6822435A600C338B42F4D1BDE8F08162
:10964000084B13F86F2C02EB420203EBC2032344D6
:1096500013F85F5C002DBCD0012387F8AA34B8E76B
:10966000C01F0020102C0020181B00202DE9F04105
:109670002B4F8C2505FB007595F83F380BB9BDE8DD
:10968000F08104460E4610F053FCDFF89C8038BB96
:109690008C2505FB04752348A5F8306804EB840489
:1096A000C4EBC40400EB840010F068FA18F86D1CD9
:1096B00058F80C3C024611BB0121D5F8B808984770
:1096C000D5F8B418B5F83C488A8AD5F8B0382243A2
:1096D0008A8258601A6842F001021A60BDE8F0817F
:1096E00018F86F3C03EB430308EBC303234413F860
:1096F0005F6C002ECCD0012385F83238C8E7D5F84E
:109700003818D5F8B4084979006901F0FC0108441B
:1097100004219847D5F8B43880009881BDE8F081DD
:10972000181B002048230020102C00209EE700BFBB
:1097300010B5044654F050FE81B22046BDE81040FA
:1097400036E700BF10B5044654F046FE81B220460D
:10975000BDE810408AE700BF38B50B4D00EB400074
:1097600005F5496303EBC00393ED027AD3ED037A69
:10977000E7EE007AC4002544B0EE670A54F02CFEF0
:10978000D5F8903C186038BD181B0020F8B50C4B7C
:109790001D685A69154005405D617DB1094F01267C
:1097A000B5FA85F4C4F11F0407EB840306FA04F448
:1097B00053F8080C03689847A543F1D1F8BD00BFE2
:1097C000003C0140102C00202DE9F843038AB0F83A
:1097D0000C801FFA88F818EA030829D005460E46BF
:1097E0004FF00047B8FA88F327FA03F2D24391B258
:1097F0001B3B298208EA0208042B16D8DFE803F095
:109800004134271A0300B36A002B47D003F1FF3914
:1098100000231FFA89F9B362746A34B123682046C1
:10982000494698476468002CF8D1B8F1000FD9D1A7
:10983000BDE8F88370680028F7D00368002BF4D0E7
:10984000696B89B29847B8F1000FCBD1F0E7B068E7
:109850000028EAD00368002BE7D0A96B89B29847AB
:10986000B8F1000FBED1E3E7F0680028DDD003684F
:10987000002BDAD0E96B89B29847B8F1000FB1D16B
:10988000D6E730690028D0D00368002BCDD0296CF2
:1098900089B29847B8F1000FA4D1C9E7EB6A1FFA63
:1098A00083F9B9E70C2908D8DFE801F011070707A9
:1098B0000E0707070B0707070800704711464AF015
:1098C0000BBD11464AF0BEBC11464AF06FBC1146B2
:1098D0004AF028BC0A4608B5054920B905484AF0AF
:1098E000E3FD034808BD04484AF0DEFD004808BD1A
:1098F000482C0020A4870608CC87060810B5044C25
:1099000004480A4621464AF0CFFD204610BD00BF5C
:10991000482C0020F487060810B5044C04480A4679
:1099200021464AF0C1FD204610BD00BF482C002052
:109930000888060810B5044C04480A4621464AF037
:10994000B3FD204610BD00BF482C00201488060837
:10995000F8B5A0F668042379DB0725D5657994F876
:109960004C3805F001073D46FBB1D4F848341A687D
:10997000D36A5B08536294F8503823B1B4F85A386C
:109980000133A4F85A38606C85F001014DF076FB84
:10999000012384F84F38002384F84D3884F84E387A
:1099A000A4F8563884F84C38F8BD94F84F68012E66
:1099B00004BF94F84D3884F84E382046FEF780FFF7
:1099C0004EB9012384F84F3887EA0301606CBDE883
:1099D000F8404DF053BB002384F84F383946F5E783
:1099E00010B5C469BCB12068036A1B7B33B952F05F
:1099F00083F82046BDE8104049F0B6BDA368002BAF
:109A0000F5D01A689B88138352F076F82046BDE89B
:109A1000104049F0A9BD10BD38B5C46904B938BDBE
:109A20002568284652F068F82B6A1B7B23B920462C
:109A3000BDE8384049F098BDA368002BF7D01A68FC
:109A40009B8813832046BDE8384049F08DBD00BF98
:109A500038B590F83430012B044608D090F829002E
:109A600008B9012038BD002384F8293038BD006BC7
:109A700003681A7B92B994F82930002BF1D00A4D73
:109A80000A49022305F59C7247F086FA95F83931A8
:109A9000D84300F0010003F00103E5E71B6A002B47
:109AA000E9D0002038BD00BF102C00205C0200204F
:109AB00010B504462046FFF7CBFF0028FAD001205E
:109AC00010BD00BF10B590F83430012B044604D00F
:109AD0000120002384F8293010BD006B03681A7B35
:109AE0003AB94FF0E1FDC24300F0010302F001007A
:109AF000F0E71B6A002BF4D0002010BD38B5124DE2
:109B0000044694F83430012B06D0002384F8293021
:109B10000023E362012038BD206B03681A7B7AB909
:109B20004FF0C2FD00F0010384F82930C307EFD5E0
:109B3000D5F8B03DE26A9B1A002BE2DB002038BD6D
:109B40001B6A002BECD0F3E7181B002010B5FF2296
:109B5000044690F83410006B51F05EFC104BD3F8C3
:109B6000B03D0233E3622046FFF7C8FF94F834307B
:109B7000012B00D010BD0022206BA02151F022FC4F
:109B800094F8202094F83430920042F01002012B17
:109B9000D2B2EFD1206BB021BDE8104051F012BC21
:109BA000181B002038B504460D46FFF7A7FF94F8B0
:109BB0003410206B062251F02FFC0121E38884F839
:109BC0002910B5FBF3F394F83410206BD82251F030
:109BD00045FC034BD3F8B03D0F33E36238BD00BF03
:109BE000181B002038B5838873B104460025E3882C
:109BF000218A03FB01F105FB01F12046FFF7D2FFAB
:109C0000A3880135AB42F2D838BD00BF70B50E4B0A
:109C10000E4EC288D6F83C51B5FBF2F50446C3F8A7
:109C2000C850FFF76BFF2B46102294F83410206BBE
:109C300051F014FC064BD3F8B03D0022023386F8F5
:109C40004021E36270BD00BF98010020102C00206D
:109C5000181B0020024B93F8403103B97047D5E739
:109C6000102C00202DE9F04FDFF85881B0F806C025
:109C7000B1FBFCF51E4698F8403199B004468A467F
:109C80001746002B4BD14D4BD3F8C830AB4243D0D5
:109C90002046FFF733FF18B9002019B0BDE8F08F58
:109CA000DFF818B1DFF82091206B94F834104FF0F2
:109CB000FF33CBF8C83013222B4651F0CFFBD9F835
:109CC000B03D0233E3622046FFF718FF0028E3D0DF
:109CD000B4F806C0CBF8C850BAFBFCF50CFB15A1D4
:109CE000ACEB010C94F83430B44534BF1FFA8CF55A
:109CF000B5B2012B1BD0D9F8B03D02332046E36248
:109D0000FFF7FCFE0028C7D094F83430012B48D070
:109D1000284619B0BDE8F08FDFF8AC90DEE7FFF71A
:109D200075FF2046FFF7EAFE0028B5D0B8E798F89F
:109D300041218DF8082002AA049201AA266B0592FF
:109D40008DF81C308DF844308DF858301C4A8DF851
:109D50000E100023CDE90D33CDE91233CDE91433D4
:109D600008928DF80A3003AA8DF80F300A938DF807
:109D700030301793090A03238DF80D1009928DF8DE
:109D80000C30042206933046C02304A90F970B928F
:109D900010958DF8093047F0CFF830684FF080FC0F
:109DA000A9E7206B4FF080FCC0F30113023B012BAD
:109DB000AED82046FFF7CAFE2846AAE79801002041
:109DC000C98D0008102C0020181B00202DE9F84F29
:109DD000414FD0F83090414D97F8413185F86C31C2
:109DE0000446D9F800008A4690464FF059FC97F88F
:109DF0004031002B3FD0D7F84461E288B6FBF2F344
:109E000002FB136385F872311B0A85F8713105F185
:109E1000CC0BDAF80030C5F87831D8F80030C5F846
:109E20008031594600232E4AC5F88831484647F00C
:109E300079F8012387F84031D8F80030E1881E44D2
:109E4000B6FBF1FA01FB1A6AC7F84461BAF1000FD8
:109E500021D0244AC5F8882194F829200AB90BF1A9
:109E6000140BE3635946484647F066F8A36B5BB3AF
:109E7000E06BBDE8F88F666AE288B6FBF2F302FB9E
:109E8000136385F876311B0AC7F83C6185F8753194
:109E900005F58E7BBDE7144AD7F83C31B3FBF1F3EF
:109EA000190CC5F8C83085F8A1115BBAA2F12C01D4
:109EB0004846A5F8A23147F035F8D8F8003087F8C1
:109EC00040A1C7F83C61C7E7236B18684FF0E8FB77
:109ED000E06BBDE8F88F00BF102C00209801002037
:109EE00010030020F58D00083C03002033B910B5A5
:109EF0001C46836B20469847204610BD66E700BF8E
:109F000000B583B041620192049A826301A96A4656
:109F10000093FFF75BFF03B05DF804FB2DE9F84306
:109F2000DDF820800F4615460021202204461E46FB
:109F300055F0F8FCB8F1000F0CD0D8F80030E381F0
:109F40001B0C2382D8F80430B8F80A20E3821B0CDB
:109F500062822383384652F0DBFDEB0619D4431EA0
:109F6000B8B107EB000C01E0013B12D31CF801ED86
:109F7000BEF12E0FF8D1C01A421E032AA8BF032239
:109F8000082B03F10109A8BF08239046B9441A46DB
:109F900006E008280246B946A8BF08224FF000088C
:109FA0004FF02033394623606360204655F062FC51
:109FB00004F10800154B238142464946837055F051
:109FC00059FC611EE21D11F801CFACF16103192BA0
:109FD0009CBFACF1200C81F800C09142F3D104F198
:109FE0000A0011F8013FA3F16102192A9CBF203B2E
:109FF0000B708142F5D118232373330CA382E572D1
:10A00000099B6683E361BDE8F88300BF2020200040
:10A010002DE9F04FDFF84CB4DBF8B00D85B0CBF88C
:10A02000B40D002B60D013440C46174601F5FE7AA0
:10A0300099461FE0002F64D0DBF8E43DBB4200F0FE
:10A04000C680DBF8E03DBB4200F0F880DBF8E83D7D
:10A05000DBF8EC1DBB424BD8B94200F27081791A93
:10A0600020464CF039FE01374F4504F500740AF5DF
:10A07000007A39D0DBF8F03DBB42DBD8DBF8005E7C
:10A08000FB1A296BDA0802328A4203F0070602D370
:10A09000AB6B9A420BD92946104602924CF0ECFD6C
:10A0A000029A0546002800F06A81CBF8000E2B7951
:10A0B000002B40F01E81D5F82880B8F1000F00F089
:10A0C00057812B6BD21AEB6806EBC20203EB4222DC
:10A0D00020462B464FF400710137C0474F4504F529
:10A0E00000740AF5007AC5D1002005B0BDE8F08FF4
:10A0F000B942B4D94FF400720021204655F012FC49
:10A10000B1E74FF400723946204655F00BFC80232E
:10A1100084F8BE310C2384F8C231DBF8E01DC54A57
:10A12000DBF8D83DC4F8C6119142C4F8CA3100F337
:10A130000B81C14AC14D82FB010285FB01050A4426
:10A14000C817C0EB6212C0EB2530BD4D84F8C101C9
:10A1500085FB0265C2EB82168010891B013120F05D
:10A160003F0015440843D117C1EBE5110A4484F8B8
:10A17000BF21B04A84F8C001013B934200F3F08054
:10A18000AD4AAE4882FB031280FB03101A44D91774
:10A19000C1EB6212C1EB2031A94884F8C51180FBE4
:10A1A0000250C2EB821589105B1B013321F03F0185
:10A1B00010441943D317C3EBE0131A4484F8C411B5
:10A1C00084F8C3214AF65523A4F8FE314BE74FF03B
:10A1D000FF3384F8EC3184F8ED3184F8EE3184F803
:10A1E000EF315223237063706123A37084F8E73149
:10A1F0004123E37084F8E6317223002584F8E431CA
:10A2000084F8E531DBF8F83DC4F8E8314FF4F0723A
:10A210002946201D55F086FB552384F8FE316FF04A
:10A220005503C4F8F051C4F8F451C4F8F85184F857
:10A23000FC5184F8FD5184F8FF3114E74FF40072AB
:10A240000021204655F06EFB7E4B03CB45F6EB0319
:10A2500023809023C4F80710A37002220821F8235A
:10A26000C4F80300617322746375DBF8D83D227370
:10A27000A27384F82C20DBF8E02D9B1A2362DBF814
:10A28000E82DDBF8EC3D9B1A63620023E372E37375
:10A290006377A377E37784F82D3084F82E3084F841
:10A2A0002F3084F83130684BA361684BC4F84230DA
:10A2B0003E232377012384F83030654A802384F8D5
:10A2C000403084F846104AF65521A4F8FE1103CA1E
:10A2D000604BC4F84700C4F84B1003CB1388A4F8B4
:10A2E0004F309378C4F85200C4F8561084F85130B7
:10A2F000B9E64FF400720021204655F013FB002E02
:10A3000044D12B6C04F12008002B7BD02B6B5249DD
:10A310001122CDE900662046FFF700FE2B6C1A6C77
:10A32000002A7ED01B6B4D49CDE9006640461122C4
:10A33000FFF7F4FD04F140084FF4E0736DE0F91A03
:10A3400020464CF0C9FC8EE6FF2284F8C1214FF66E
:10A35000FF72A4F8BF21374A013B93427FF710AF49
:10A36000FF2384F8C5314FF6FF73A4F8C33129E702
:10A3700041464FF40072204655F0D4FA73E6384A4D
:10A38000231F43F8042F9A45FBD16CE6D5E910252D
:10A390003301002A43D0023B002D3FF464AE013B61
:10A3A000AD6CF9D1A0464FF40073002D3FF45BAEC5
:10A3B000CDE9027A08EB0306A24608E00024CDE9C5
:10A3C00000C4FFF7ABFDAD6CBDB1B04515D02C7925
:10A3D00029682B6B404605F11C0C112208F120085E
:10A3E000002CEBD16A792C6942F02102CDE900C43E
:10A3F000FFF794FDAD6C002DE7D15446029FDDF8C8
:10A400000CA030E6CDE900663346DBF8DC1D0822FF
:10A410002046FFF783FD4FF4F0736D6CC5E7013BF9
:10A42000BAE7CDE900660D49334640461122FFF7F1
:10A4300075FD7FE7FF03FB008320088297554541A8
:10A44000818080802C8806083F00FF0029940E0D33
:10A4500038880608448806082488060828880608DC
:10A46000DEADBEEF181B002010B4EFF311831022F5
:10A4700082F312880A4C0B48D4F8B02D4FF0E0213B
:10A480000132C4F8B02D8A69C0F848210022C0F812
:10A490004C210A69DBB283F311885DF8044B7047E5
:10A4A000181B0020102C002030B4EFF31183102271
:10A4B00082F312884FF0E0220F4894691169C903B2
:10A4C00044BF0121C0F84C110C4948BF9469D1F830
:10A4D000B05DD0F84C21DBB283F31188D1F8081EAF
:10A4E0004FF47A702A4400FB01F31B1B30BCB3FB12
:10A4F000F1F300FB02307047102C0020181B0020E5
:10A5000030B50C4683B00546D8B1036803F13F432C
:10A5100003F57E039B0A0C4A134493F800044CF0A5
:10A5200033FEC4F34112C4F30013CDE90032C4F387
:10A530008103A988286804F003024EF01FFE03B0CF
:10A5400030BD4FF0FF33E6E730FD050800B1D7E737
:10A55000704700BF70B50E4C94F8506DB6B104F55D
:10A560009564002504E00135B54204F120040DD0C6
:10A57000237F002BF7D0E0680028F4D0217D01353F
:10A58000FFF7BEFFB54204F12004F1D1012070BDF8
:10A59000181B002010B40F4B0F4C4FF0E02CD3F8D9
:10A5A000B02DDCF81800D3F8B01D8A42F7D1D4F8EA
:10A5B00048118842F3D8D3F8084E4FF47A7101FB62
:10A5C00004F31B1AB3FBF4F35DF8044B01FB0230F8
:10A5D000704700BF181B0020102C0020184B5B6830
:10A5E000C3F308031BB9EFF3118303B9D2E730B407
:10A5F000EFF31182102383F312884FF0E023114808
:10A600009C691969C90344BF0121C0F84C110E4966
:10A6100048BF9C69D1F8B05DD0F84C31D2B282F31A
:10A620001188D1F8081E4FF47A722B4402FB01F016
:10A63000001B30BCB0FBF1F002FB0300704700BF11
:10A6400000ED00E0102C0020181B00202DE9F04147
:10A65000027D04681F2A08D96168A2F12005202321
:10A66000AB400B4206D1BDE8F08121682023934026
:10A670000B42F8D03D4B3E4FD0F81C805B683D4DFF
:10A68000C7F850318C2303FB085317F86DCCD3F86F
:10A690003808D3F8B0180668BCF1000F4FD1B3F8F2
:10A6A0003C080B6823F001030B60B3899BB223EADB
:10A6B0000003B3810B68DB07FCD41F2A4BD9203A77
:10A6C0002023934043F01D03E36095F88D30002B69
:10A6D000C9D00B68D7F8582123F0D0030B608C2326
:10A6E00003FB0853012183F88418002A39D03388EA
:10A6F00021499BB243F0800333804FF0FF33F36274
:10A700008C2303FB08F845443046414449F01EFEC3
:10A71000D5F8B038D5F8381816225A601A68096882
:10A7200042F001021A608889B5F83C380F4A0343A9
:10A730009BB28B815368C7F85431BDE8F081006942
:10A74000036823F001030360B38923F480731B04BF
:10A750001B0CB381AEE72023934043F01D03A3609D
:10A76000B3E7FFF73BFFC7F85801C0E7001000E070
:10A77000102C0020181B0020BC2300202DE9F04FD6
:10A78000DFF83CB387B09BF88D3004931BB90120F0
:10A7900007B0BDE8F08FC44EDBF8B03D059306F579
:10A7A00038759BF8503D01930BF5956A0027A84634
:10A7B000019B9F4200F00681DAF8182092F8F230EF
:10A7C0000093002B40F0F480DAF80450D2F8E8301F
:10A7D000D2F8EC400293FFF701FF029B9BF894E450
:10A7E0000390AA0002F1085202EB4312AF4B04F1AE
:10A7F000806093F844553938BEF1540F02EB801055
:10A8000002EB851301D1ABF89E54984240F23E8191
:10A810001968002900F03381196C002900F0528179
:10A82000D3F88010002900F04F81D3F8C01003F551
:10A8300080730029E9D19A1A98424FEAA21240F295
:10A840002581A11A45294FF0000428BF452103EBBB
:10A85000811120469946A4460DE01C6C002C40F066
:10A86000C880D3F88040002C40F0EE80D3F8C04080
:10A8700003F580732CB9994206D91C68002CECD0E2
:10A880004033994200F2B9806446112C40F20381B2
:10A89000DCF1150100F1FF80854DD5F8F4319A42C5
:10A8A000824B38BFC5F8F421D3F84835039DEA1A26
:10A8B000002A1BDB03F5F42303F590739D4288BF48
:10A8C0002B467A4A88BF0533C2F84835784B774A19
:10A8D000D3F8F431052B86BF053BDBB2002382F8A9
:10A8E0004435734A4FF0FF33C2F8F43131B100FA06
:10A8F00001F1C4F114040120A04008436D4CC0F3E1
:10A90000C43304EB8303D3F8581B00F01F0304EB9C
:10A910008303D3F8582B42EA0132C0F3441104EB0D
:10A920008101C0F3842304EB8303D1F8581BD3F8CF
:10A93000583B42EA011242EA032282EA122383EAE6
:10A94000131303F00F01594BD3F844340F2903F1CB
:10A95000010318D1B2F5803F15D2BEF1540F4FEA72
:10A96000121204D1BBF898140131ABF898144F4976
:10A97000B2F5606FC1F8443400F0AC80A8F80C2048
:10A98000049B00930FE0BEF1540F04D1BBF8982450
:10A990000132ABF89824454AC2F84434D2F8403426
:10A9A0000133C2F840340099059A30460FF086FA18
:10A9B0000137082F06F15C060AF1200A08F1140895
:10A9C0007FF4F6AEDBF8902038490123002A81F8A5
:10A9D00040357FF7DCAE384B002103EB022283F8D1
:10A9E000F21003F580739342F9D1012007B0BDE85E
:10A9F000F08F803399427FF647AF4C461D1BAD1157
:10AA00002E4C013584FB0594A4EBE574012CB8BFF2
:10AA10000124A0400125A444013C05FA04F420438C
:10AA20001D462C6894B12C6C002C4FD0D5F880407A
:10AA3000002C4DD0D5F8C04005F580753CB1A94239
:10AA4000EFD899462B4616E7C0331AE74035A9429E
:10AA5000F7D9EB1A194C9B11013384FB0394A4EB37
:10AA6000E373012BB8BF012398409C440124013BB0
:10AA700004FA03F318432B4699462B46FBE6403372
:10AA80009A1A98424FEAA2123FF6DBAE1DB1074B6D
:10AA9000013D83F84455BEF1540F89D1BBF89A3477
:10AAA0000133ABF89A3483E76C2D0020102C002082
:10AAB0009801002030FD0508AC1B00205655555567
:10AAC000181B00208033B6E6C033B4E68035BEE7FD
:10AAD000C035BCE711F86F3C03EB430301EBC30344
:10AAE0003B4413F85F3C0D2B7FF448AF802388F87C
:10AAF0001E3045E7F8B51E4F17F8702C17F86F3C5D
:10AB00009A422FD11B48D0F89050002D11DD90F8BB
:10AB10008D600024943016B1037E012B1CD0026995
:10AB20001368013443F00103A54200F580701360FF
:10AB3000F1D1FFF753FDD7F84C45002C0BDD0E4A41
:10AB400002EBC404116893888889083203439BB2DE
:10AB500094428B81F6D1F8BD002380F8F030FDF7E8
:10AB6000D3FDDCE750F074F80028CBD1F8BD00BF6E
:10AB7000102C0020181B002060310020274B5B6840
:10AB8000C3F308032DE9F0410446002B42D1EFF353
:10AB90001183002B3ED1FFF7FDFC06461F4FDFF867
:10ABA00084801F4D04E0FFF7F5FC831BA3422FD2E6
:10ABB0007B68C3F308031BB9EFF31183002BF2D0BA
:10ABC000EFF31183102282F312884FF0E02201206C
:10ABD000D2F818C01169C90344BFC5F84C01D2F8B6
:10ABE00018C0D8F8B0EDD5F84C21DBB283F311884A
:10ABF000D8F8080E4FF47A7101FB00F37244A3EB0E
:10AC00000C03B3FBF0F301FB0230831BA342CFD351
:10AC1000BDE8F081FFF748FC0646BFE700ED00E025
:10AC2000102C0020181B00202DE9F843294CDFF8D8
:10AC3000AC90294D471E10266368C3F30803002B10
:10AC400043D1EFF31183002B3FD1FFF7A3FC8046E4
:10AC500006E0FFF79FFCA0EB0800B0F57A7F30D24A
:10AC60006368C3F308031BB9EFF31183002BF0D023
:10AC7000EFF3118286F312884FF0E0230120D3F81E
:10AC800018C01969C90344BFC5F84C01D3F818C0EE
:10AC9000D9F8B0EDD5F84C31D2B282F31188D9F899
:10ACA000081E4FF47A7202FB01F07344A0EB0C0013
:10ACB000B0FBF1F002FB0300A0EB0800B0F57A7FD7
:10ACC000CED3013FB8D2BDE8F883FFF7EDFB804655
:10ACD000C6E700BF00ED00E0102C0020181B00208C
:10ACE0002DE9F84F0130454D454E01F1FF395FFA2E
:10ACF00080FA4CF0B3FC434F4FF4FA787B68C3F30F
:10AD00000803002B76D1EFF31183002B72D1FFF7EC
:10AD100041FC044605E0FFF73DFC001BB0F57A7FDF
:10AD20000DD27B68C3F308031BB9EFF31183002B2B
:10AD3000F1D0FFF7B9FB001BB0F57A7FF1D3B8F182
:10AD40000108DBD150464CF0C3FE2E4C4FF47A780C
:10AD500010276368C3F30803002B47D1EFF3118377
:10AD6000002B43D1FFF716FC834606E0FFF712FCE9
:10AD7000A0EB0B00B0F57A7F30D26368C3F3080311
:10AD80001BB9EFF31183002BF0D0EFF3118287F39F
:10AD900012884FF0E0230120D3F818C01969C903C5
:10ADA00044BFC6F84C01D3F818C0D5F8B03DD6F86A
:10ADB0004CE1D2B282F31188D5F8081E4FF47A72B2
:10ADC00002FB01F07344A0EB0C00B0FBF1F002FBBE
:10ADD0000300A0EB0B00B0F57A7FCED3B8F10108E9
:10ADE000B7D1B9F1010984D2BDE8F88FFFF75CFB58
:10ADF0008346C2E7FFF758FB044692E7181B002082
:10AE0000102C002000ED00E02DE9884800F1010A37
:10AE1000424C434E434F5FFA8AFA4FF00A094CF016
:10AE20001DFC4FF4FA754FF010086368C3F3080374
:10AE3000002B6ED1EFF31183002B6AD1FFF7AAFB31
:10AE4000834606E0FFF7A6FBA0EB0B03B3F57A7F82
:10AE50002DD26368C3F308031BB9EFF31183002BF2
:10AE6000F0D0EFF3118388F312884FF0E02291695C
:10AE70001069C00303D50121C7F84C119169D6F8B8
:10AE8000B00DD7F84C21DBB283F31188D6F808CE89
:10AE900002444FF47A7000FB0CF35B1AB3FBFCF333
:10AEA00000FB0230A0EB0B03B3F57A7FD1D3013D59
:10AEB000BBD150464CF00CFE4FF47A786368C3F374
:10AEC000080313BBEFF31183FBB9FFF763FB0546E0
:10AED00005E0FFF75FFB431BB3F57A7F0DD2636894
:10AEE000C3F308031BB9EFF31183002BF1D0FFF775
:10AEF000DBFA431BB3F57A7FF1D3B8F10108DDD15A
:10AF0000B9F101098BD14CF0A1FBFFF7CDFA054651
:10AF1000E5E7FFF7C9FA83469BE700BF00ED00E0D5
:10AF2000181B0020102C0020F8B5C0F30D040646B5
:10AF30000F46ECB13D6849F029F8092815D1434C7A
:10AF4000236923F440732361236943F4007323616D
:10AF5000236943F001032361356049F017F8236941
:10AF6000092823F0010323616DD06FF0020033E064
:10AF7000374B384A934229D302F58042934224D377
:10AF800002F58042934228D3334A934227D902F5EF
:10AF90008032934225D902F50032934223D902F53B
:10AFA0000032934221D902F5003293421FD902F5B3
:10AFB000003293421DD902F5802293421BD9B3F18E
:10AFC000016F1AD30520FFF71FFF082448F0DEFFAA
:10AFD000092814D04FF0FF30F8BD1024F6E71824EC
:10AFE000F4E72024F2E72824F0E73024EEE73824C1
:10AFF000ECE74024EAE74824E8E75824E6E7134D65
:10B000002B6923F440732B612B6943F400732B618C
:10B010002B6923F0F8032B612B691C4344F00204D5
:10B020002C612B6943F480332B6148F0AFFF2B690F
:10B0300023F002032B612B69092823F0F8032B610D
:10B040003FF478AFC6E70020C6E700BF003C0240EF
:10B050000040000800400008FFFF000890F8E330BF
:10B06000052B03D890F82631032B01D00020704720
:10B0700090F82B31022BF9D0042B14BF07200020AD
:10B08000704700BFF8B5D0F880508768044628465E
:10B090003E6848F0B7FE002284F854207F7930469D
:10B0A0003946FDF78DFB04F16002FEF7FBFB082239
:10B0B00039463046FDF784FB4023636204F11801F2
:10B0C000284648F035FF2B6843F010032B60F8BD8D
:10B0D0002DE9F04F704F97F88D3087B01BB90120E4
:10B0E00007B0BDE8F08FD7F8B03D0393FFF776FACD
:10B0F000034697F8500D002800F0C2816749009080
:10B10000D1F85821A3EB020A07F5036501F5AE7BE0
:10B1100001F23C480026D1460DE02846FFF7B2FF79
:10B12000009B01369E4205F18C050BF15C0B08F18A
:10B13000140800F0B780B9F1000F03DBAB6D4B458D
:10B1400000F383818C2303FB067393F8843803F0A8
:10B15000FF0E002BE1D0AB68A9891A68D5F88030C2
:10B160005C689389A4B2C4F116049BB223EA01037C
:10B17000072C9381D1D9494AD5F88810D2F84434A4
:10B18000CDF810E00133C2F8443400200A6805917C
:10B1900082468446012301968E4602951FE05EF8A2
:10B1A0002360BCF1140F8AF0010AA6EB02022FDC27
:10B1B00012F1080148BF02F1170109114D1E072ABB
:10B1C0004FF0010200FA01F002FA05F540F3318177
:10B1D00001339C4240EA05008C44324618D3A34216
:10B1E000DDD3CCF11501CCF1140500294FF0010697
:10B1F00000FA01F106FA05F50ADDBAF1000F00F0D8
:10B20000188101339C4245EA01004FF0150CE6D24B
:10B21000BCF1150FDDE90165DDF810E040F00B81B0
:10B220001F4AC0F3842302EB8303C0F3441102EBF3
:10B230008101D3F8D83BD1F8D81B1B0243EA011394
:10B2400000F01F0102EB8101C0F3C43002EB800269
:10B25000D1F8D81BD2F8D82B0B4343EA023383EA48
:10B26000132282EA121202F00F020F2A40F0E3804A
:10B27000C3F30F134FF6FF72934200F0DC80B3F577
:10B28000606F00F0E680A8F80C30039A71465846CB
:10B290000EF014FE41E700BF181B0020102C002008
:10B2A00030FD05087A4997F84048012218460023E6
:10B2B00081F84025C1F85831D7F83818A5070B6830
:10B2C000497948BF04228A40198C92B289B221EA96
:10B2D00002011984198C89B20A4301281A843FF4A7
:10B2E000FEAED7F8C4281368517997F8CC28940794
:10B2F00054BF012204228A40198C92B289B221EAF9
:10B3000002011984198C89B20A4302281A843FF475
:10B31000E6AED7F850291368517997F85829920763
:10B3200054BF012204228A40198C92B289B221EAC8
:10B3300002011984198C89B20A4303281A843FF444
:10B34000CEAED7F8DC291368517997F8E42996072F
:10B3500054BF012204228A40198C92B289B221EA98
:10B3600002011984198C89B20A4304281A843FF413
:10B37000B6AED7F8682A1368517997F8702A9507FE
:10B3800054BF012204228A40198C92B289B221EA68
:10B3900002011984198C89B20A4305281A843FF4E2
:10B3A0009EAED7F8F42A1368517997F8FC2A9407CF
:10B3B00054BF012204228A40198C92B289B221EA38
:10B3C00002011984198C89B20A4306281A843FF4B1
:10B3D00086AED7F8802B1368517997F8882B92079F
:10B3E00054BF012204228A40198C92B289B221EA08
:10B3F00002011984198C89B20A4308281A847FF43F
:10B400006EAED7F80C2C97F8141C1368507911F015
:10B41000020F18BF0422198C08BF0122824092B289
:10B4200089B221EA02011984198C89B20A431A846B
:10B4300055E6DDE90165164AD2F840340133C2F819
:10B440004034BEB14FF0000E1FE7002007B0BDE84A
:10B45000F08F0F4911F86F2C02EB420201EBC20290
:10B46000324412F85F2C0D2A7FF40DAF802388F848
:10B470001E300AE705990748582254F0FBF9E1E726
:10B48000034B012283F84025C3F8580127E600BF8B
:10B49000102C0020F830002043680B4A23F0407342
:10B4A00023F4807343F48073436083681A4042F04E
:10B4B00002028260C36A0139C9B223F4700343EA0D
:10B4C0000153C362704700BFFDF7FFC0704700BF64
:10B4D0000020FCF7A7BD00BF0120FCF7A3BD00BF03
:10B4E0000220FCF79FBD00BF10B1036882881A8359
:10B4F000704700BF10B1036882885A83704700BF4D
:10B50000F8B50468D4E904235568117D1768002B49
:10B5100040D01F295E68D8612CD820228A4042F092
:10B520001802BA601A7D19681F2A2DD9203A2023E3
:10B53000934043F01803CB6000232B6033603368E3
:10B54000A16943F010033360284648F0F1FCE1693B
:10B55000304648F0EDFC2B68626843F001032B6035
:10B56000336843F00103336093889BB243F00303D5
:10B570009380F8BD203920228A4042F01802FA60F8
:10B580001A7D19681F2AD1D82023934043F018034D
:10B590008B60D1E71F29D06119D820238B4043F05D
:10B5A0001803BB6000232B602B68A16943F01003D4
:10B5B0002B60284648F0BCFC2B68626843F001030E
:10B5C0002B6093889BB243F002039380F8BD20392F
:10B5D00020238B4043F01803FB60E3E7F0B50568D8
:10B5E00090F888606B688488012285F824201A8886
:10B5F00022F040021204120C1A802A89A24216D0AC
:10B60000B4F5807F2146A8BF4FF4807102291A88C3
:10B61000B8BF022191FAA1F192B2B1FA81F122F000
:10B620003802013942EAC10292B21A802C81017BB0
:10B63000AA7A8A420BD01A8822F003021204120C52
:10B640001A801A8892B2002944D01A80A9721A88E6
:10B650002F7B92B242F040021A802B6A9A6892B312
:10B660004FF0000C1D4C1433E64653F8101C964462
:10B6700001EA040221B1B2F1805F27D06A692AB3DE
:10B6800053F8142C143302EA040112B1B1F1805FB3
:10B690001CD053F80C2C0CF1010C002AE5D1AFB1F1
:10B6A000A6B1BCF1010F0AD8BEF1070F07D80CEB09
:10B6B0008C0C4FEA8C022B6A13441B7B33B9BDE818
:10B6C000F04047F019BF0FB1002EF4D1BDE8F040B3
:10B6D00047F0A6BF42F00302B7E700BF0000FFFF3C
:10B6E000D3B2012B1DD8104B02EB420210B54FEA2A
:10B6F000820E0EF1080403F5EE7C02E01C33634574
:10B700000DD01A788242F9D15A788A42F6D11A5964
:10B71000002AF3D00EF1040E03EB0E0010BD002042
:10B7200010BD0020704700BF8809060810B40C4CFB
:10B73000002304F5AE6C01E0152B0CD003EB4302A3
:10B7400001331CF802108142F6D1144494F97205B9
:10B750005DF8044B70474FF0FF305DF8044B7047C5
:10B76000102C002070B502EB4202104C4FEA820E02
:10B7700023460EF10C05002204E00132172A03F1E2
:10B780002C0310D01E688642F7D193F804C08C4574
:10B79000F3D15E59002EF0D02C210EF1080301FBED
