:020000040800F2
:10000000F0FF01207D2F0608F1AD050875E5000819
:100010000130060801300608013006080000000023
:10002000000000000000000000000000F5AD050821
:10003000F9AD050800000000FDAD05084DA300085E
:1000400001300608013006080130060801300608B4
:100050000130060801300608E1BC000805BD0008B3
:1000600029BD00084DBD000871BD000815BA000883
:1000700029BA00083DBA000851BA000865BA00085C
:1000800079BA00088DBA00080130060800000000A7
:1000900000000000000000000000000095BD000806
:1000A00019D100080130060829D10008C9D000087C
:1000B000D9D00008E9D00008F9D00008C1B3000881
:1000C00041C50008C9B3000845C50008013006084D
:1000D00001300608817F05088180050800000000C6
:1000E000D1BD000801300608A9ED05080000000098
:1000F000000000000000000000000000A1BA00089D
:10010000000000000130060809D10008013006088F
:1001100000000000000000000000000000000000DF
:10012000B5BA0008C9BA0008DDBA0008F1BA00087B
:1001300005BB0008000000000000000000000000F7
:1001400000000000000000000000000001AE0508F3
:1001500019BB00082DBB000841BB00080130060890
:10016000D1B3000849C500080000000000000000ED
:10017000000000000000000000000000000000007F
:100180000000000001300608000000000000000030
:080190000130060801300608E9
:08019800D82706000100000059
:1001A0000540010008000000B83A0020983F0020F8
:1001B00000000000247E0708943F00201302010085
:1001C00004000000B43A0020A43F0020000000001A
:1001D0002C7E0708A03F0020FD0101000A0000005E
:1001E000C43F0020B83F002000000000A595000893
:1001F000B43F0020081203000F000000E039002087
:10020000D43F002000000000A9810508D03F002055
:10021000063001002600000098310020E83F002051
:100220000000000009820508E43F002016021500C6
:100230003F000000BC3000201440002000000000FF
:1002400091820508104000200D10010040000000C0
:100250007C7E0020F4A40020000000007BEF010859
:10026000F0A400201A0201003C0000003C9800208D
:10027000F09A0020000000000D310508EC9A0020E3
:1002800021020100F0000000FC990020309B0020BA
:1002900000000000E15704082C9B00202C00040003
:1002A00010000000EC990020249C002000000000B9
:1002B000D5570308209C002025201E002C0100009B
:1002C000C0980020389C00200000000000000000C2
:1002D000349C00202B00120024000000789800209D
:1002E000689D002000000000E5570308649D002081
:1002F0002700010004000000D4840020909D00200D
:1003000000000000307E07088C9D00200C70060065
:10031000C000000048760020989D002000000000EA
:1003200031530208949D0020311203004200000066
:10033000A07A00205C9E0020000000007554020896
:10034000589E0020220201001C010000688000204D
:10035000A49E0020000000006D880508A09E0020DB
:10036000031101000A0000005C800020C49F0020EF
:1003700000000000D9AF0408C09F00200AA00100BF
:1003800024000000E47A0020D49F00200000000038
:10039000455B0308D09F0020FE010100180000000B
:1003A000CC7F0020FC9F002000000000D525050820
:1003B000F89F00202950140078000000547F00208E
:1003C00018A00020000000000000000014A0002081
:1003D000012001000C000000487F002094A00020B4
:1003E00000000000347E070890A0002018400100A3
:1003F00034000000487E0020A4A00020000000007F
:10040000DD870508A0A000202320010010000000C7
:10041000387F0020DCA0002000000000315B0308D2
:10042000D8A000200B4001000E000000187F002023
:10043000F0A0002000000000407E0708ECA0002093
:100440000EB00400980300000877002004A10020EB
:1004500000000000E154030800A100201E4001003C
:100460004E000000C47E0020A0A400200000000078
:100470004E7E07089CA400201D020200060000001A
:10048000E484002038A500200000000000000000E7
:1004900034A5002004000800800000009887002098
:1004A00044A50020000000000000000040A500203E
:1004B0001C12010010000000287F0020C8A50020A9
:1004C0000000000001820508C4A5002026300100BC
:1004D0000800000020880020DCA5002000000000AB
:1004E000ADAE0408D8A50020FA0101000400000008
:1004F00028880020E8A5002000000000F9810508F8
:10050000E4A5002012400100110000008C750020BD
:10051000F0A50020000000009C7E0708ECA500204C
:10052000031201003D000000C488002008A600203E
:1005300000000000AE7E070804A60020FD47010071
:10054000B2000000B88B00204CA600200000000084
:1005500041AC040848A6002013100100040000006C
:10056000C07E002004A7002000000000EC7E0708E9
:1005700000A700203780010014000000FC8C002040
:100580000CA7002000000000F07E070808A700204C
:10059000145001001C0000002C7E002024A7002025
:1005A00000000000A154030820A70020F5D101009D
:1005B00078000000E47F002044A700200000000035
:1005C0001DED040840A70020F841010006000000CE
:1005D000187E0020C0A7002000000000047F07084C
:1005E000BCA700200202010003000000B08B002025
:1005F000CCA700200000000095820508C8A70020B5
:10060000061203001200000030880020D4A700204A
:100610000000000099870508D0A70020387001006D
:100620000800000088BA002000C800200000000078
:100630000A7F0708FCC700203CA001005A00000008
:10064000F8B700200CC8002000000000127F070847
:1006500008C8002019100100030000000CB500209C
:100660006CC80020000000006C7F070868C80020EC
:100670002802040004000000ACBB002074C8002065
:10068000000000007582050870C8002027020400E1
:1006900004000000A8BB00207CC80020000000006F
:1006A0006D82050878C800201A0001000E000000C5
:1006B0008CB7002084C8002000000000707F07086D
:1006C00080C80020206201000C00000034BB002024
:1006D00098C80020000000007E7F070894C8002012
:1006E0000E0201000200000084BB0020A8C8002008
:1006F000000000008A7F0708A4C800202F20010006
:1007000066000000B0C80020C4BA0020000000004D
:100710008C7F0708ACC800202902010040000000BF
:1007200090E70020D4E70020000000000000000057
:10073000D0E700202A1201000800000088E700200E
:1007400018E8002000000000F47F070814E80020EB
:100750001B4001001200000070E7002024E8002088
:1007600000000000852E040820E80020163001005B
:100770000A00000060E700203CE8002000000000C4
:10078000FC7F070838E8002010200100030000006B
:100790005CE700204CE8002000000000068007080D
:1007A00048E80020021001000C00000050E7002083
:1007B00054E80020000000000C80070850E80020EA
:1007C000234201001800000010E5002064E800202A
:1007D000000000001880070860E800201F6001008A
:1007E0002C00000038DF002080E80020000000001E
:1007F000308007087CE800200502010004000000AA
:100800005CFB0020C0030120000000005C800708A2
:10081000BC0301202C22010008000000FCFA00208B
:10082000E80301200000000060800708E4030120C5
:100830002D020100010000006CFB0020F4030120E8
:100840000000000000000000F0030120121201006F
:100850000400000068FB0020FC03012000000000F1
:1008600059820508F803012001010100040000007D
:1008700048FB0020040401200000000000000000EC
:10088000000401200001010004000000F8FA00202B
:100890000C04012000000000688007080804012003
:1008A00002010100030000001CFB002014040120D1
:1008B0000000000021530208100401201B02010067
:1008C00010000000E82301207C2801200000000027
:1008D0007D82050878280120001201000A0000002E
:1008E0009C2301209028012000000000ED810508D4
:1008F0008C280120FC07010001000000E8290120EC
:10090000D42B01200000000075AC0408D02B01207E
:100910001F02020004000000282D0120302D0120BC
:10092000000000003D8805082C2D0120F901010080
:1009300004000000583F01206C3F0120000000002F
:100940006C800708683F01201102010008000000C8
:10095000503F0120743F0120000000006182050823
:04096000703F0120C3
:10096400120100020000004083042057000201022B
:1009740003010000040309041A030000000000003E
:100984000000000000000000000000000000000063
:1009940000000100D8000000000000000500000075
:1009A4000600000002000000000000000407002010
:1009B400AC3F00200200000001000000E5900008A8
:1009C40000070020000000000100000001000000FA
:1009D400C1900008DC0100200000000000000000BD
:1009E4000000000000000000000000000000000003
:1009F40000000000010000000000000000000000F2
:100A040000000000000000000100000000000000E1
:100A140000000000000000000000000001000000D1
:100A2400000000000100000005000000FFFFFFFFC0
:100A340008030020A83F002003000000010000007C
:100A4400C1920008FC060020000000000100000024
:100A540001000000E19200080C03002000000000E7
:100A6400030000000000000000000000000000007F
:100A74000000000000000000010000000000000071
:100A840008030020A83F002003000000010000002C
:100A9400C1920008FC0600200000000001000000D4
:100AA40001000000E1920008100300200000000093
:100AB400030000000000000000000000000000002F
:100AC4000000000000000000010000000000000021
:100AD40000C00000840000000200000000000000CC
:100AE4000000000000000000010000000000000001
:100AF40000000000000000000000000001000000F1
:100B0400000000001000000008030020A83F00209F
:100B14000300000001000000C1920008FC06002050
:100B2400000000000100000001000000E192000844
:100B34003C0300200000000004000000010000004D
:100B4400ED9200080000000000000000000000001A
:100B54000100000000000000FFFFFFFF00600240F2
:100B640010600240000000000000000000000000CF
:100B7400000000000B000000000000000000000066
:100B840000000000000000000060024028600240F5
:100B9400010000000000000000000000060000004A
:100BA4000C00000000000000000000000000000035
:100BB40000000000006002404060024002000000AB
:100BC4000000000000000000100000000D00000004
:100BD4000000000000000000000000000000000011
:100BE4000060024058600240030000000000000062
:100BF40000000000160000000E00000000000000CD
:100C0400000000000000000000000000006002403E
:100C140070600240040000000000000000000000BA
:100C2400200000000F000000000000000000000091
:100C340000000000000000000060024088600240E4
:100C44000500000000000000000000002600000075
:100C54001000000000000000000000000000000080
:100C64000000000000600240A06002400600000096
:100C7400000000000000000030000000110000002F
:100C84000000000000000000000000000000000060
:100C940000600240B860024007000000000000004D
:100CA40000000000360000002F00000000000000DB
:100CB400000000000000000000000000006402408A
:100CC400106402400000000000000000000000006A
:100CD40000000000380000000000000000000000D8
:100CE400000000000000000000640240286402408C
:100CF40001000000000000000000000006000000E9
:100D040039000000000000000000000000000000A6
:100D14000000000000640240406402400200000041
:100D24000000000000000000100000003A00000075
:100D340000000000000000000000000000000000AF
:100D440000640240586402400300000000000000F8
:100D540000000000160000003B000000000000003E
:100D640000000000000000000000000000640240D9
:100D74007064024004000000000000000000000055
:100D8400200000003C000000000000000000000003
:100D9400000000000000000000640240886402407B
:100DA4000500000000000000000000002600000014
:100DB40044000000000000000000000000000000EB
:100DC4000000000000640240A0640240060000002D
:100DD400000000000000000030000000450000009A
:100DE40000000000000000000000000000000000FF
:100DF40000640240B86402400700000000000000E4
:100E04000000000036000000460000000000000062
:100E140000000000000000000000000003000000CB
:100E24000000000005000000259400084594000817
:100E34005D94000861940008F59E0008659400081C
:100E440069940008886C060885950508958405084A
:100E540001A405080000000000000000759C0508BE
:100E6400499D05080000000000000000000000008B
:100E7400D5840508CD880008D988000801970008A2
:100E8400D9960008E58800081D97000839970008DE
:100E94001F0000001C0000001F0000001E000000D6
:100EA4001F0000001E0000001F0000001F000000C3
:100EB4001E0000001F0000001E0000001F000000B4
:100EC4000068214C06000000060000000500000038
:100ED400C700000006000000050000003985050871
:100EE400491402083D850508498505084D8505080E
:100EF4004185050845850508FFFFFF00FFFFFFFF4B
:100F04007D000000010100003190050805840508FA
:100F1400E1A2050800000000718405085D9205083F
:100F24009D9205083D9305080000000000000000A4
:100F340065840508098505082D85050881AD050822
:100F440065AD05089DAD0508B9AD0508D5AD050825
:100F5400318F050889830508DDA00508000000001D
:100F6400D58305087990050819910508B9910508F4
:100F74000000000000000000F9830508FF000000E5
:100F840014800608488006087C800608FFFFFFFFDF
:100F940000010101000000000000C842FFFFFFFF44
:100FA400A82507080000080205030300000000004C
:100FB400A025070801000802050403000000000042
:100FC4005034070800000802050303000000000075
:100FD400583407080100080205040300000000005B
:100FE4002C3D07080200FE0101140300000000006C
:100FF400BCEC06080300140200030000000000001B
:101004006034070804001F02020002000000000010
:101014006834070805001F020201020000000000F6
:101024007EFF7EFFE2FFE2FF0000803F0000000041
:1010340000000000000000000000803F00000000ED
:1010440000000000000000000000803F00000000DD
:101054000000000000000000010000000000FA444D
:10106400000000000000000000000000000000007C
:10107400000000000000000000000000000000006C
:101084000000000000000000020000000000803F9B
:1010940001000000640000000100000002000000E4
:1010A400FFFFFFFF00000000D1D50408230000006B
:1010B40003000000FFFFFFFF00000000D1D9040877
:1010C4001800000006000000FFFFFFFF0000000002
:1010D40001DD04082100000006000000FFFFFFFFFF
:1010E40000000000E5DE04083100000006000000F6
:1010F400FFFFFFFF0000000069E00408F2000000A9
:1011040006000000FFFFFFFF00000000C5E1040827
:101114001E0000000A000000FFFFFFFF00000000A7
:1011240055E30408000000000B000000FFFFFFFF70
:10113400000000000DE504084A0000000B00000058
:10114400FFFFFFFF0000000031E7040893000000E8
:101154000C000000FFFFFFFF0000000045E9040849
:10116400FFFFFFFF803C36FE7D0E020800000000FA
:101174000000000000000000902507083837070829
:101184000000000085520208A0860100040000004F
:10119400902507084037070800000000BD820108B9
:1011A400E8030000040000004837070800000000BE
:1011B400000000002DB602087D000000FF000000C2
:1011C40078ED0608000000000000000001B90208E4
:1011D4007D000000FF0000003C4407080000000000
:1011E40000000000AD1C03087D000000FF000000AB
:1011F400E0F406080000000000000000B5830108C8
:10120400E80300000300000068EF06080000000087
:10121400000000000543030810270000030000003D
:101224005C340708000000006D580308C98A0108EF
:101234005F76000005000000A0F50608000000002D
:101244000000000021E60108102700000200000051
:10125400503707080000000000000000657701080F
:10126400E8030000050000005C37070800000000E8
:1012740000000000A9560208204E000003000000F0
:101284006C3707080000000000000000F95802084D
:10129400204E0000030000007C3707080000000017
:1012A40000000000B1CA0108400D03000300000063
:1012B400A8F506080000000000000000B16C040856
:1012C40010270000030000008C370708000000000E
:1012D40000000000E1A00108102700000300000046
:1012E40020EE0608000000000000000061AF0108C5
:1012F400A861000002000000BCEB0608000000002A
:101304000000000005B201081027000002000000E0
:101314006CF006080000000000000000BDEF0108AA
:10132400A00F00000200000098370708000000002A
:1013340000000000DD7F04081A41000002000000E4
:10134400E8F506080000000019C20408150705089E
:1013540085450100020000007CEB06080000000047
:101364000000000049BE040810270000020000002D
:10137400A437070800000000000000006D400408C6
:1013840050C3000002000000A83707080000000056
:101394000000000021260508400D030001000000A4
:1013A400B037070800000000000000003999040865
:1013B40050C3000003000000BC3707080000000011
:1013C40000000000ED79020840420F000100000017
:1013D400C83707080000000000000000510F020891
:1013E40050C3000001000000D437070800000000CB
:1013F40000000000CDEE04081027000002000000E9
:10140400F4EF06080000000000000000F95503088E
:101414001027000002000000E43707080000000065
:1014240000000000D1C504081027000002000000DD
:101434000000803F000000000000000000000000E9
:101444002510020800000000000000000000000059
:101454000100000001000000FFFFFF7F000000808A
:1014640000000000D4030120080000000000000078
:10147400C403012008000000391002080000000025
:1014840000000000000000000000FA430000FA43DE
:10149400FFFFFFFF640000000000803F0000000029
:1014A4000000000000000000000000000000000038
:1014B4000000000000000000000000000000000028
:1014C4000400000001F11F3FD40600000000803F2B
:1014D400FFFFFFFF01000000E01B012000FF0000F0
:1014E40000000000000000008D2904080000000036
:1014F4000000000068BE06080100000000000100B2
:1015040039500408000000000000000078D80608E4
:101514000000000000000000000000001CC40608D9
:10152400000000000000000000000000D4C4060811
:1015340000000000000000000000000080C4060855
:101544001D920408000000000000000080C306088B
:10155400CD2905080000000000000000F4C20608C0
:10156400814904080000000000000000ACC2060825
:10157400E92A0408794D04080000000064C506083F
:1015840001000000FA00000001000000010000005A
:101594000000000000000000414904084823012025
:1015A40001012D202D2D202D2D2D2D202D2D2D0013
:1015B4000000000000000000000000000000000027
:1015C40000FF0000FFFFFFFF01010000D61F012004
:1015D40088136F1701000000D81F012088136F17AC
:1015E40000000000DA1F012088136F1701000000BB
:1015F400DC1F012088136F17000000003D29040838
:10160400000000000000000014C006089023012020
:101614000100000068C00608DF1F0120010000006F
:1016240074C006087C200120020000007CC006086B
:1016340065290408000000000000000088C00608B6
:10164400000000000000000000000000DCC00608EC
:101654000000000000000000000000004CC106086B
:10166400D41F01200200000094C10608282701208D
:10167400E0150C1700000000C0120000A62801208D
:101684000000000000000000A42801200000000069
:1016940000000000A228012000000000000000005B
:1016A400A028012000000000000000009E28012066
:1016B40000000000000000009C2801200000000041
:1016C40000000000B00E0020000000000000000038
:1016D400DE1F01200300000084C106080000000092
:1016E4000000000000000000A0C10608AA28012094
:1016F400E0150C1700000000AC28012002000000D7
:1017040094C106082D202D2D202D2D2D2D202D2D7D
:101714002D2D00000000000000000000000000006B
:1017240000000000000000000000000000000000B5
:10173400D8C10608AE2801209CFF2C01000000003F
:1017440000270120E0150C1700000000E02601200E
:101754000200000094C106082D202D2D202D2D2DD2
:101764002D202D2D2D2D0000000000000000000074
:101774000000000000000000000000000000000065
:101784000000000010C20608902001200000FFFFA6
:1017940001000000C620012000180100D220012011
:1017A40001640100A720012019640100A620012082
:1017B4000200000034760608992A0408C12A0408A5
:1017C400000000001CC50608BC1E012000C8010062
:1017D400BB1E012000500100BA1E0120005A010066
:1017E400B81E012002000000E0750608B440070896
:1017F400BC4007088E2301200100C409000000003A
:101804008C2301200100C409000000008A23012068
:101814000100C40900000000882301200100C4095C
:1018240000000000842301200100C409000000001E
:10183400862301200100C409000000008223012046
:101844000100C40900000000802301200100C40934
:1018540000000000B91F012000C80100B81F0120CA
:1018640000C80100B61F01200000FFFF0A000000AD
:10187400B41F01200100C80001000000B21F0120B4
:101884003200307532000000B01F0120E2FF140066
:1018940005000000AE1F01207EFF140005000000BB
:1018A400AC1F012005002C0105000000AA1F012027
:1018B400055A0500BF1F012000FF0100BD1F0120C4
:1018C4000200000024100020BB1F012004000000BF
:1018D40000C60608BE1F012000FF0100BC1F012036
:1018E4000200000024100020BA1F012004000000A0
:1018F40000C606088C200120FF7F010088200120FB
:1019040000000000FFFFFFFF010000008420012011
:1019140000000000FFFFFFFF010000008020012005
:1019240000000000FFFFFFFF01000000821E0120F5
:10193400EE02CA0801000000811E012000C8010057
:1019440064000000801E012001C801006400000042
:101954007F1E01200200000098760608D21F012095
:101964000000803E05000000D01F012080C1803EA1
:1019740005000000CE1F01200083007D050000004B
:10198400CC1F012080C1803E05000000CA1F012039
:1019940000FF0100C81F01206400F40101000000E1
:1019A400C61F01206400F40101000000C41F0120CF
:1019B4006400F40101000000C21F012004000000C3
:1019C40088790608C11F0120020000007C790608FE
:1019D400F31E01200D00000080750608F01E012092
:1019E40000640100EE1E0120320010270A000000EE
:1019F400ED1E01200D00000080750608EC1E01207C
:101A04000D00000080750608EB1E01200200000096
:101A1400B875060800000000000000000000000087
:101A240014C60608000000000000000000000000CA
:101A34004CC606087E1E012065000000EC760608F0
:101A44007C1E01200300000084C606087D1E0120C0
:101A5400040000009C790608E91E01200300000030
:101A640094C60608E81E01200300000094C6060878
:101A7400DC1E0120000A0100DA1E01200000E80338
:101A840001000000D81E01200000E803010000004E
:101A9400D61E0120000A0100D41E01200000E80324
:101AA40001000000D21E01200000E8030100000034
:101AB400CA1E0120C800E80301000000D01E012056
:101AC4001400FA0001000000CE1E01200100E8030A
:101AD40001000000CC1E012000070100C81E0120E7
:101AE4000000F40101000000C61E01200000F40102
:101AF40001000000C41E01200000F40101000000E8
:101B0400C21E01200000F40101000000C01E0120DB
:101B14000000E80301000000BE1E01200000E803ED
:101B240001000000A51E012019640100A41E01206B
:101B34000200000034760608B61E0120006401008D
:101B4400991E012000640100981E01200064010018
:101B5400A01E0120006401000A0000009F1E012055
:101B6400006401000A0000009E1E012000640100C0
:101B74000A000000A31E012000FF01000A0000006B
:101B8400A21E012000FF01000A000000A11E012086
:101B940000FF01000A0000009D1E012001FF01005A
:101BA4000A0000009C1E012001FF01000A00000041
:101BB4009B1E012001FF01000A000000E61E012017
:101BC4000000F40101000000E41E01200000E8030D
:101BD40001000000E21E01200000E80301000000F3
:101BE400E01E01200000E80301000000DE1E0120C9
:101BF4000000E803010000004723012000960100D3
:101C040044230120E803D0070A00000042230120F6
:101C14000064010040230120E803D0070A0000000B
:101C24003E230120006401000A0000003D2301203E
:101C3400009601003423012000C801003323012051
:101C440000640100322301200064010031230120DB
:101C54000064010030230120006401002F230120CF
:101C6400FF0801002E23012001640100E52204087D
:101C74002523040800000000A4C606083723012019
:101C84000132010036230120010000000876060815
:101C94003523012004000000107606082D230120BE
:101CA400009601002C230120006401002B23012055
:101CB40000FA0100640000002A2301200AFA01004E
:101CC400292301200AC801002823012000640100FF
:101CD4002723012000640100262301200A5A010061
:101CE4002523012000C801002423012000C801008D
:101CF4003A230120003201003C230120001401009A
:101D04003B230120005F010039230120040000006F
:101D14003C75060838230120006401000A00000015
:101D2400931E01200AC805000A000000921E01202B
:101D3400010000008C7A0608951E01200AC80500DF
:101D44000A000000941E0120010000008C7A06089D
:101D54008A1E012000C805000A000000911E01200F
:101D640000C805000A0000008B1E012000C8050001
:101D74000A0000008C1E012000C805000A000000B3
:101D84008F1E012000C805000A000000901E0120DB
:101D940000C805000A0000008E1E012000C80500CE
:101DA4000A0000008D1E012000C805000A00000082
:101DB400891E01200200000000750608222301206C
:101DC4000000D007010000001D23012000C801000D
:101DD4001C23012000C801001B23012000C80100AE
:101DE400202301200000D007010000001A23012055
:101DF40000C801001923012000C801001823012094
:101E040000C801001E2301200000D00701000000CB
:101E14001723012000C801001623012000C8010077
:101E24001523012000C80100444C070800000000ED
:101E340000005C280120504C07080708000000003F
:101E440058160020584C07080708000000005016D8
:101E54000020604C07080708000000004816002016
:101E6400684C07080808000000003C160020704C6D
:101E7400070807080000000034160020784C070803
:101E84000708000000002C160020804C07080708F3
:101E94000000000024160020884C070808080000F1
:101EA400000018160020904C0708071000000000DE
:101EB40010160020984C07080710000000000816B0
:101EC4000020A04C070807100000000000160020A6
:101ED400A84C0708081000000000F4150020783E04
:101EE40007080100000000000000000000000000DE
:101EF400100000000000000000000000F1250408AC
:101F0400012604085551040814C70608F71E0120C9
:101F140000640100F61E0120005A0100F51E012094
:101F240000C801000000000000000000214C04086B
:101F3400B0C706082822012003000000F074060838
:101F44009D260408F12604080000000004C80608C1
:101F5400452704088527040800000000ACC80608CB
:101F64008526040879510408000000002CC90608DD
:101F7400C01F012001030100492A0408712A040832
:101F840000000000E4CC0608D5210408F52104086B
:101F94000000000064CD0608E52704085D28040855
:101FA40000000000C8CD0608A12504084D7F0408E0
:101FB4000000000080CE0608BD4A04089B210408E6
:101FC4000000000028CF06080925040800000000CE
:101FD40000000000D0CF0608CD23040835240408EF
:101FE4000000000034D0060865230408992304087F
:101FF40000000000ECD00608D1AA0408B5220408A9
:10200400000000006CD10608132301200500000025
:102014004428012099240408D52404080000000061
:102024005CD2060815AB0408114F04080000000038
:10203400CCD2060835220408F94D0408000000003B
:10204400C4D4060879AA0408394D04080000000025
:10205400601600201423012003000000E42701205F
:102064001D2604085126040800000000D0D50608E7
:1020740035400408000000000000000034D60608C3
:10208400CD2704089551040800000000D0D60608A6
:1020940000000000000000000000000040D7060817
:1020A400EFA90408054D040800000000C0D7060885
:1020B40001000000FCFFFFFF01FD0100AA5507011C
:1020C40000001401AA5505010000010108AA5509E0
:1020D40002000000AA5503009F0000000100000058
:1020E400AA550B010000AA5505010000A400000038
:1020F400000000000000FF00FF0000000902430090
:10210400020100C03209040000010202010005249A
:102114000010010524010001042402020524060024
:1021240001070582030800FF09040100020A0000F8
:10213400000705010240000007058102400000007D
:1021440009026400030100C0320904000001030015
:10215400000009211101000122360007058303094B
:10216400000A080B01020202010009040100010235
:1021740002010005240010010524010002042402C8
:10218400020524060102070582030800FF09040270
:1021940000020A0000000705010240000007058153
:1021A4000240000009022000010104C032090400B9
:1021B40000020806500507058102400000070501DA
:1021C4000240000012010002EF0201408304563273
:1021D4000002010203010000120100020202004099
:1021E40083044057000201020301000004030904B0
:1021F40005010905A101A1000501093009310932D0
:10220400093309350934093609371581257F7508DD
:102214009508810205091901290815002501950869
:1022240075018102C0C0000009022200010100E022
:102234003209040000010301020009211101000117
:102244002236000705830309000A0000AD9E050835
:102254004D9F0508F1880508598305089D820508E6
:102264003D830508258305086983050879830508E6
:102274000000000000000000B41A0020000000006C
:102284000000000068000000D00000000000000012
:10229400000000000000000000000000000000003A
:1022A400000000000000000000000000000000002A
:1022B400000000000000000000000000000000001A
:0822C400000000000000000012
:10800000074BD0F8EC105B68D0F8F8205B1A9A4266
:10801000B8BFC0F8F830012380F824310020704741
:10802000001000E02C22C24B00FB02F22DE9F041CF
:1080300003EB020E9A585268918ACD0700F18780AF
:108040005FFA81FC1CF0020F4ED0BFF35F8F9EF8E9
:108050001C100129CCB200F0F3804100148BBFF357
:108060005F8F4FF02C0C0CFB003C9CF81C40022C4A
:1080700000F013814FF02C0C0CFB003C9CF81C40D2
:10808000032C09D19CF81E4034B10C181C4494F800
:108090008450002D40F06981B2F804C01FFA8CFCB6
:1080A0004CF4806CA2F804C001EB000C9C449CF9D9
:1080B00086E04FF02C0C0CFB003C9CF81CC00CF133
:1080C000010CF4450ED101441944002481F8844088
:1080D00091F88510002940F0D9802C2202FB003352
:1080E00000225A76BDE8F0811CF0040F66D18CB2F4
:1080F00000EB40015E181CF0400C96F986804FEAB8
:10810000400100F0DF80158ADEF82470EDB207F838
:1081100008505FFA88FC0CF1010464B29EF81C70F0
:1081200086F88640E51CAF42A64600F049812C2522
:1081300005FB00352D7FAC42BBD10C180CF1020CB5
:108140001C444FFA8CFC84F886C0E646B1E71188DF
:1081500021F400610904090C1180118889B241F4ED
:108160008061118000EB400C9C449EF81E4000256D
:1081700041008CF88650002C50D09CF88440002C94
:1081800048D001441944012481F884402C2101FB8A
:108190000031097F022904D1118889B241F40061BC
:1081A00011802C2101FB0031897E41F001011182F7
:1081B0002C2202FB00331B7FBDE8F08100EB400462
:1081C0001C449EF81E504FF0010C410084F885C0FD
:1081D000002D7BD094F88450002D7CD12C2404FBFE
:1081E0000034647F002C00F0C3801488A4B244F4EF
:1081F000007414800C181C4494F886E00EF1010EF3
:108200004FFA8EFE84F886E0B2F800C01CF4807F3E
:10821000FAD14EE79EF81B40FF2CB2D02C2404FB71
:10822000003494F81AC00CF0FE0CA2F810C0E27EE4
:10823000FF2ABDD001441944FF2281F88620B7E708
:108240009EF81E1000293FF408AF00EB40051D44C6
:10825000410095F88460002E3FF400AF168826F4A4
:1082600080663604360C1680BFF35F8F85F8854034
:10827000148B148895F986E0A4B244F40074148039
:108280009488A4B244F48064948012E7918821F425
:1082900040710904090C91801FE79CF81E40002CD6
:1082A0003FF4E8AE0C181C4494F88450002D3FF4C1
:1082B000E1AE94F986E0148824F480642404240C4C
:1082C00014804BE0240635D4C646F2E694F8844088
:1082D000002C83D089E79EF81C50DEF82460022D24
:1082E000158852D925F480652D042D0C1580158A2A
:1082F00094F986C0EDB206F80C501588DEF82470AB
:10830000ADB245F4007515805FFA8CFC168A0CF14D
:1083100001056DB2F6B27E550CF1020E4FFA8EFEDB
:1083200084F886E09488A4B244F4806494806BE777
:10833000001B0020B8F1FF3F49D0DEF8204014F8C0
:108340000850EDB215829EF81C5008F1010464B289
:10835000A54286F88640A6467FF4ABAE948824F406
:1083600080642404240C9480A3E694F986E0F5E765
:108370001488A4B244F4807414800C181C440125A1
:1083800094F986E084F884503EE7ADB245F4007578
:108390001580158A94F986C0EDB206F80C505FFA84
:1083A0008CFC168ADEF824700CF101056DB20CF11C
:1083B000030EF6B24FFA8EFE7E5584F886E023E770
:1083C000958825F480652D042D0C9580AFE69EF8E8
:1083D0001B1086F886C0C9B211829EF81E1021B902
:1083E0009EF81C1000297FF4E3AE918821F480618F
:1083F0000904090C9180DBE610B404698269E46821
:108400004168146000234024C2E902344469936344
:108410000C31C2E90433C2E90633C2E90833C2E9C8
:108420000A33C2E90C33516094B1C269E4689363C2
:108430004FF48030C2E90041C2E90233C2E904339B
:10844000C2E90633C2E90833C2E90A03C2E90C33C0
:108450005DF8044B704700BFD0E9001300221A609A
:10846000037D1F2B07D9203B202202FA03F343F0A0
:108470001803CB607047202202FA03F343F018037D
:108480008B6070471B4B016803F57D7C02E02C3349
:1084900063452CD01A688A42F9D170B593F804E08C
:1084A000427996450BD02C33634505D01A688A4231
:1084B000F4D02C336345F9D14FF0FF3070BD9E46A8
:1084C0008468DEF80C50A5424FF0000208D001325B
:1084D000032A0EF10C0EE6D0DEF80C50A542F6D1C0
:1084E000DEF81050C668B542F1D150B270BD4FF001
:1084F000FF307047E85A0608002A4FEA014C30B5B1
:1085000003460ABFE6468E468C4600F1C0050024AD
:1085100019689A6841EA0C0142EA0E029A60C3E9BE
:1085200000140C33AB42F3D1D0F8C030C0F8C440D3
:1085300043EA0E03C0F8C030C0F8C84030BD00BFE9
:10854000C3691969B3F80CC00A6830B49C6822F09A
:10855000010224680A60A28992B222EA0C02A28176
:10856000027D00681F2A06D94568203A08249440F5
:108570002C4246D0FEE70568082494402C42F9D1ED
:10858000202404FA02F28260274A92F88D20002A01
:1085900035D01A7E012A39D0D3F8F4200132C3F83D
:1085A000F420EFF31181502282F3128858685C6C3A
:1085B000026822EA04029C6C2243C9B2026081F381
:1085C0001188D3E90C401A6999681D6C0968146018
:1085D0005061D3E90E40546090600024B3F8A800C5
:1085E000D5604C62C86210680124204310601C767C
:1085F00083F8F1408A899B8913439BB28B8130BCFD
:108600007047202404FA02F2C260BDE7002283F81A
:10861000F120D3F8F8000A68013022F00102C3F813
:10862000F8000A60EBE700BF001B00202DE9F041D5
:10863000204CD4F89050002D32DD002304F1940238
:1086400018461F46012604EB032C01339CF88511C4
:1086500001F0FF0E51B9AB4202F58072F3D118B1AF
:1086600094F89434542B1ED0BDE8F0819168B2F890
:108670000C807046D1F800E0BEF80C1089B221EAF7
:108680000801AEF80C10D2F810E0DEF8001021F06E
:108690000101CEF800108CF8857182F8F260DAE7FB
:1086A0000020BDE8F081B4F89C340133A4F89C3478
:1086B000BDE8F081001B002010B40D4CD4F89030C0
:1086C000002B12DD002004F1940C0146DCF8A030F0
:1086D00003F1C00259600C339342FBD1D4F89030BF
:1086E000013083420CF5807CF0DC5DF8044B704770
:1086F000001B002070B5414C04EB401393F8C434C8
:1087000003B970BD94F8A8E594F8A9359E454FEAE1
:10871000401C0CD003EB430204EBC20292F8AC55B0
:108720006E1E012E4FEA430259D9032D52D004EB9D
:108730000C00A0F8A814EFF31182902383F31288A1
:1087400090F8AA34B0F8A81443EA41030021D2B249
:108750009BB280F8AA1482F3118894F88D10D0F897
:10876000C0441A0982EA13225A40C9B1D0F8AC14A5
:10877000D4F8A040D2431B019BB202F00F020120AB
:108780008840134304F1C0015A0013F4004F93B220
:1087900002D16268024362600C34A142F4D170BD20
:1087A000D0F8AC14D4F8A0401B0110319BB202F0F9
:1087B0000F0201208840134304F1C0015A0013F452
:1087C000004F93B202D16268024362600C34A1424E
:1087D000F4D170BD5D1C05F003057545A7D01344A9
:1087E00004EBC303034493F8B91500299FD004EBAD
:1087F0000C03012283F8AA2499E700BF001B002084
:10880000704700BF024B03EB401393F8C504704759
:10881000001B00204368B0F8502010B41A83EFF317
:108820001182502383F312884168446C0B6823EA59
:108830000403C46C2343D2B20B6082F31188D0E9E5
:1088400007418268036912681C605961D0E90941D7
:108850005C60C46A9960B0F86010DC600023D1628B
:108860005DF8044B0376704710B4037D02681F2B3C
:1088700009D95468203B202101FA03F31C4215D189
:108880005DF8044B70471468202101FA03F31C4281
:10889000F6D00D494068002481F80C4601685DF867
:1088A000044B21F001010160936070470649406864
:1088B000002481F80C4601685DF8044B21F00101A9
:1088C0000160D360704700BF001B002012230148E5
:1088D0000B80704798010020042301480B807047EB
:1088E000AC0100201C48D0F8103AD0F8182A10B576
:1088F0009B184FF01A040C8001D1184810BD174A7C
:10890000D0F8140A02F1100411464FF0000E4FEA9D
:10891000137CB3F1204F34BF0CF1300C0CF1370C49
:1089200081F802C081F803E002318C424FEA031360
:10893000EDD102F108040021030FB0F1204F34BF44
:10894000303337339374D174023294424FEA0010BB
:10895000F2D1024810BD00BF0070FF1FB00100201F
:1089600082B0304B3049002201920193019B0433C5
:108970000193019B1B688A6802F00C02082A0AD046
:108980000C2A23D02949042A18BF0B46284AC2F8CA
:10899000103602B0704748684A68400202F03F0251
:1089A00037D44B682149B1FBF2F2C3F3881302FBC1
:1089B00003F31D4A5268C2F3014201325200B3FB75
:1089C000F2F31B4AC2F8103602B0704748684A6892
:1089D000400202F03F0214D44B681449B1FBF2F29A
:1089E000C3F3881302FB03F30F4A5268C2F3027207
:1089F00001325200B3FBF2F30D4AC2F8103602B056
:108A000070474968B3FBF2F3C1F3881202FB03F32A
:108A1000EAE74968B3FBF2F3C1F3881202FB03F300
:108A2000C7E700BF50280040003802400024F4008F
:108A3000001B0020072809D8054B8C2202FB0033BD
:108A4000B3F81406B0FA80F0400970470020704770
:108A5000001B0020072806D8034B8C2202FB0033A2
:108A6000012283F816267047001B0020414B8C2200
:108A700002FB003292F8232602B9704770B593F8D2
:108A8000A8C593F8A92594450ED002EB420403EB48
:108A9000C40494F8ACE50EF1FF35012D4FEA420411
:108AA00046D9BEF1030F3ED08C2202FB0032A2F861
:108AB0001416EFF31184902181F31288B2F8145642
:108AC00092F8161641EA45010025E4B289B282F80F
:108AD000165684F311880C0993F88D2084EA11242A
:108AE0004C4002B1E443090193F8785AD3F8746A10
:108AF0008AB204F00F0422434DBB8C2101FB0034E9
:108B00000121D4F89C06B047D4F89816B4F8205642
:108B10008A8AD4F894362A438A8258601A6842F0C6
:108B200001021A6070BD551C05F003056545BBD0F8
:108B3000144403EBC404044494F8B9150029B3D0D9
:108B40008C2202FB0032012482F81646ACE78C240A
:108B500004FB0034D4F81C36D4F898165B79086905
:108B600003F0FC0318440421B047D4F89836800081
:108B7000988170BD001B002010B584464FEA810E1D
:108B8000102312F4004F14BF0E2407245200013B9F
:108B9000CCF8004092B2F444F3D100EB81128C0186
:108BA000035142F82130122010BD00BF10B5844699
:108BB0004FEA810E0424130B03EB43031833120115
:108BC000013CCCF8003092B2F444F4D100EB011334
:108BD0000A01845043F82140062010BD704700BFB1
:108BE000704700BF034B00EB400003EBC00393F85A
:108BF0008D0A7047001B0020064B93F83C2B8242E5
:108C000083BF00EB400003EBC003D3F8900A0020C1
:108C1000704700BF001B002028E700BF072808D8C6
:108C2000044B03EB401393F8C42412B1012283F8E0
:108C3000AA247047001B0020072808D8054B03EB27
:108C40004013B3F8A804B0FA80F040097047002040
:108C5000704700BF001B0020054B93F83C2B82425D
:108C600086BF03EB4013D3F8B4040020704700BF65
:108C7000001B00201D4B93F83D2BAAB3D3F87C1AA0
:108C800009B100200860012A2ED0D3F8941A09B146
:108C900000200860022A27D0D3F8AC1A09B10020BE
:108CA0000860032A20D0D3F8C41A09B10020086054
:108CB000042A19D0D3F8DC1A09B100200860052A6B
:108CC00012D0D3F8F41A09B100200860062A0BD09C
:108CD000D3F80C1B09B100200860072A04D0D3F890
:108CE000243B0BB100221A60704700BF001B00201C
:108CF0001D4B93F83D2BAAB3D3F87C1A09B1002081
:108D00000860012A2ED0D3F8941A09B10020086017
:108D1000022A27D0D3F8AC1A09B100200860032A30
:108D200020D0D3F8C41A09B100200860042A19D051
:108D3000D3F8DC1A09B100200860052A12D0D3F854
:108D4000F41A09B100200860062A0BD0D3F80C1BD6
:108D500009B100200860072A04D0D3F8243B0BB1E6
:108D600000221A60704700BF001B0020B44B93F82C
:108D70003230002B40F06381B24B93F83D2B002A38
:108D800000F05D8193F88C1A30B400294FD1D3F8EC
:108D90007C1A0020012A086047D993F8A41A0029F8
:108DA0006AD1D3F8941A0020022A08603DD993F8BA
:108DB000BC1A002940F0CE80D3F8AC1A0020032A58
:108DC000086032D993F8D41A002940F0EA80D3F829
:108DD000C41A0020042A086027D993F8EC1A002945
:108DE00040F00681D3F8DC1A0020052A08601CD95F
:108DF00093F8041B002940F02981D3F8F41A0020CD
:108E0000062A086011D993F81C1B002959D1D3F800
:108E10000C1B0020072A086007D993F8342B002A7E
:108E200074D1D3F8243B00221A6030BC7047D3F8C9
:108E3000800A810AA1F580115229A8D8824C2144C8
:108E400091F8F4130D29A2D8EFF31184502282F384
:108E50001288456A828A4FF02C0C0CFB013192B2C9
:108E6000013542F00102C1F8685BE4B2828284F30A
:108E7000118893F83D2B8AE7D3F8980A810AA1F567
:108E8000801152298DD8704C214491F8F4130D298A
:108E900087D8EFF31184502282F31288456A828AC0
:108EA0004FF02C0C0CFB013192B2013542F0010263
:108EB000C1F8685BE4B2828284F3118893F83D2B99
:108EC0006FE7D3F8100B810AA1F5801152299ED8C3
:108ED0005D4C214491F8F4130D2998D8EFF31184D7
:108EE000502282F31288456A828A4FF02C0C0CFBC8
:108EF000013192B2013542F00102C1F8685BE4B27F
:108F0000828284F3118893F83D2B80E7D3F8281BE5
:108F10008A0AA2F58012522A83D84B48024492F85A
:108F2000F4230D2A3FF67DAFEFF31184502080F338
:108F300012884D6A888A4FF02C0C0CFB023280B2EA
:108F4000013540F00100C2F8685BE4B2888284F326
:108F5000118866E7D3F8B00A810AA1F58011522979
:108F60003FF62AAF384C214491F8F4130D293FF60F
:108F700023AFEFF31184502282F31288456A828A6C
:108F80004FF02C0C0CFB013192B2013542F0010282
:108F9000C1F8685BE4B2828284F3118893F83D2BB8
:108FA0000AE7D3F8C80A810AA1F5801152293FF6D1
:108FB0000EAF254C214491F8F4130D293FF607AF6D
:108FC000EFF31184502282F31288456A828A4FF0AF
:108FD0002C0C0CFB013192B2013542F00102C1F8B8
:108FE000685BE4B2828284F3118893F83D2BEEE64D
:108FF000D3F8E00A810AA1F5801152293FF6F2AEBA
:10900000114C214491F8F4130D293FF6EBAEEFF328
:109010001184502282F31288456A828A4FF02C0C08
:109020000CFB013192B2013542F00102C1F8685BDC
:10903000E4B2828284F3118893F83D2BD2E6704724
:1090400098010020001B0020E85A0608D3F8F80A0F
:10905000810AA1F5801152293FF6CFAE0F4C214471
:1090600091F8F4130D293FF6C8AEEFF311845022A6
:1090700082F31288456A828A4FF02C0C0CFB013176
:1090800092B2013542F00102C1F8685BE4B282821B
:1090900084F3118893F83D2BAFE600BFE85A060829
:1090A00000EE100AB8EE400A704700BFBCEEC00ADE
:1090B00010EE103A98B270474FF400638381704706
:1090C000012380F829300020704700BF08B503460F
:1090D000426AC06B996B02445A6201B18847002012
:1090E00008BD00BF036B1B681B6A5B685B780246A8
:1090F00013F0010008BF82F829007047F0B5224C38
:10910000224A234B95B0054604F13C00CDE900020C
:10911000049304F140000023CDE90503CDE90E33AB
:109120001C4A09920B9304F1340210931393119388
:109130002B6B95F828700A921868012302228DF88B
:109140000C3007938DF820308DF834308DF848308E
:109150003B1D02920E460C9357F0BCFE97B1330EA6
:1091600084F835303634320C330A22706370A670BE
:10917000286B69464BF006F92B6B186857F0AAFE6E
:1091800015B0F0BD3534EEE798010020A828002086
:10919000E5900008C190000810B5044694B0502234
:1091A000064968465CF042FA206B69464BF0EAF8E3
:1091B000236B186857F08EFE14B010BD305F0608A0
:1091C00082634162704700BF2DE9F0410446006BA5
:1091D00000681E460F46904657F07CFE94F82830F3
:1091E000606A002B3ED0284D030E85F845300522DD
:1091F00005F146039870EA67020C000A58701A706D
:109200003B68C5F888300020D8F80030C5F89030A9
:10921000012EE363C5F8A00029D0022E20D1D8F892
:109220000420C5F89800796885F89400C5F89C106A
:1092300013441649C5F8A4200120E36385F8A8006B
:10924000C5F8AC10124B94F82920206BA3F114013F
:10925000002A08BF19464BF095F8A36B7BB1E06B71
:10926000BDE8F0810B4B0422A3F14505C2E7074B93
:1092700085F89460C5E92630C5F8A400E2E7236BC1
:10928000186857F027FEEAE798010020CD90000803
:10929000F8010020DD010020704700BF00B583B059
:1092A00041620192049A0093826301236A4601A9F4
:1092B000FFF78AFF03B05DF804FB00BF043070477E
:1092C000036B1B681B6A5B689B78024613F0010006
:1092D00008BF82F82900704782634162704700BF6F
:1092E000012380F829300020704700BF08B50346ED
:1092F000426AC06B996B02445A6201B188470020F0
:1093000008BD00BF704700BF043070470D4B93F895
:10931000B02DD3F8AC1D0244D2B283F8B02D93F82F
:10932000B02D01441206C3F8AC1D05D593F8B02D3D
:1093300082F0800283F8B02D034B012283F8C42011
:10934000704700BF001B0020980100202DE9F04766
:10935000154FD7F8B45DED0A20D00026B14607F6C8
:10936000F8587419D7F8B83D1048D3F828A0C7F8B2
:10937000F09D04EBD474641010234246E102D04700
:109380000F280BDD0A4B03F1100153F8042B0132B7
:1093900007D18B42F9D12546B542E2DCE802BDE8AF
:1093A000F087661CF8E700BF001B0020B8280020EB
:1093B000F82800201A4BD3F8081ED3F80C2E8A1A6E
:1093C000322A05DCD3F8202E8A1A002A0FDC7047D7
:1093D00093F8102ED3F8141E02F0010219B1086898
:1093E0008988B2B901830022C3F8202E7047D3F8D0
:1093F000142E82B11068928810B44469323122422E
:1094000018BF42835DF8044B08BF0283C3F8201ED7
:1094100070474183E7E73231C3F8201E704700BF31
:10942000001B0020064AD2F8143E3BB192F8101EF1
:109430009A881B68C90754BF1A835A830020704753
:10944000001B00204FF40070034B1060D3F8303E37
:109450000B600020704700BF001B002000207047F9
:1094600001207047012070470020704730B585B05B
:10947000684651F0ADF91048104AD0F8FC10009B36
:109480000F4D41F08071C0F8FC10002400F1C8407D
:10949000C2F8B05FA0F5650054601168094CA0F6F1
:1094A0007D60A0FB030341F001019B0CC4F8603E0A
:1094B000116005B030BD00BF00ED00E0001000E01D
:1094C00055CEACC5001B00202DE9F843038AB0F847
:1094D0000C801FFA88F818EA030829D005460E46C2
:1094E0004FF00047B8FA88F327FA03F2D24391B25B
:1094F0001B3B298208EA0208042B16D8DFE803F098
:109500004134271A0300B36A002B47D003F1FF3917
:1095100000231FFA89F9B362746A34B123682046C4
:10952000494698476468002CF8D1B8F1000FD9D1AA
:10953000BDE8F88370680028F7D00368002BF4D0EA
:10954000696B89B29847B8F1000FCBD1F0E7B068EA
:109550000028EAD00368002BE7D0A96B89B29847AE
:10956000B8F1000FBED1E3E7F0680028DDD0036852
:10957000002BDAD0E96B89B29847B8F1000FB1D16E
:10958000D6E730690028D0D00368002BCDD0296CF5
:1095900089B29847B8F1000FA4D1C9E7EB6A1FFA66
:1095A00083F9B9E770B50B4C05460526013E00D19D
:1095B00070BD94F9000018F065F8031E08DBEA1886
:1095C00061781171A178E954012BDCBFE378137243
:1095D0000434EBE7805F060838B5264D95F8A825DA
:1095E00095F8A9359A4240D195F8240FF0B1224B55
:1095F00095F8784AD5F8642E00EB400003EBC000E4
:10960000B4B140F20D3500E01A6899689C894C604D
:109610000C6844F001040C60A2F84850918918339A
:1096200089B241F4807183429181EDD138BD1A68CD
:10963000118821F0800109041833090C118033F8D6
:10964000141CD162118889B241F0800111805462EA
:10965000B2F80CC033F8041C41EA0C0189B2834211
:10966000918123F8044CE2D138BD58F023FD002845
:10967000BAD138BD001B00206429002010B5044673
:109680005AF086FD81B22046BDE81040FFF732B89F
:1096900010B504465AF07CFD81B22046BDE810406A
:1096A000FFF7E4B938B50B4D00EB400005F67C231D
:1096B00003EBC00393ED027AD3ED037AE7EE007A71
:1096C000C4002544B0EE670A5AF062FDD5F87C3A32
:1096D000186038BD001B00200A4608B5054920B9AE
:1096E000054851F019FB034808BD044851F014FB2C
:1096F000004808BD282A002098E50608C0E50608AD
:1097000010B5044C04480A46214651F005FB20469A
:1097100010BD00BF282A0020E8E5060810B5044C5B
:1097200004480A46214651F0F7FA204610BD00BF12
:10973000282A0020FCE5060810B5044C04480A4617
:10974000214651F0E9FA204610BD00BF282A00202A
:1097500008E60608C069002836D003681A6A127B3A
:109760002ABBD3E904125B68496872B110B454682B
:1097700000220A6022609A885DF8044B22F00302FE
:109780001204120C9A804DF001BF1A891206FCD403
:109790001A89D20709D400220A609A8822F00202AC
:1097A0001204120C9A804DF0F1BE9A89F0E782689B
:1097B000002AD6D0116892880A83D3E904125B6824
:1097C0004968002AD2D1E0E7704700BFC06900B9FC
:1097D0007047016830B4D1E904424B6864687AB1DB
:1097E0005568002222602A609A8822F0030212043F
:1097F000120C9A800B6A1B7BA3B930BC4DF0C6BE1D
:109800001A891506FCD41A89D20714D400222260C2
:109810009A8822F002021204120C9A800B6A1B7BB7
:10982000002BEAD08368002BE7D01A689B8813834B
:1098300030BC4DF0ABBE9A89E5E708B5F5214DF097
:1098400019F870281ED00ED844281DD006D812282A
:109850001CD0422814BF00200C2008BD472814BF8C
:1098600000200F20F9E7AC2812D006D800F0FD0048
:10987000712814BF00200620EFE7AF2814BF002096
:109880000920EAE70520E8E70E20E6E70820E4E7FC
:109890000720E2E738B590F83430012B044608D0B1
:1098A00090F8290008B9012038BD002384F8293038
:1098B00038BD006B03681A7B92B994F82930002BED
:1098C000F1D00A4D0A490223A5F1D0024AF014FD55
:1098D00015F8CF3CD84300F0010003F00103E5E7A1
:1098E0001B6A002BE9D0002038BD00BFF82B0020F8
:1098F0006002002038B5044694F83430012B09D0BA
:1099000094F8293013B1002384F82930012038BDA0
:109910001B6A23B1206B03681A7B002AF8D194F8E4
:109920002930002BF2D0084D08490223A5F1D002BE
:109930004AF0E2FC15F8CF3C03F00102DB0784F8A3
:109940002920E3D5D8E700BFF82B002060020020D3
:1099500010B590F83430012B044604D001200023C8
:1099600084F8293010BD006B03681A7B3AB957F0B0
:10997000B5FAC24300F0010302F00100F0E71B6AF0
:10998000002BF4D0002010BD38B5124D044694F8D9
:109990003430012B06D0002384F829300023E36201
:1099A000012038BD206B03681A7B7AB957F096FA0C
:1099B00000F0010384F82930C307EFD5D5F8083E3D
:1099C000E26A9B1A002BE2DB002038BD1B6A002BE9
:1099D000ECD0F3E7001B002010B5FF22044690F8FE
:1099E0003410006B58F010FF104BD3F8083E0233D0
:1099F000E3622046FFF7C8FF94F83430012B00D013
:109A000010BD0022206BA02158F0D4FE94F8202035
:109A100094F83430920042F01002012BD2B2EFD110
:109A2000206BB021BDE8104058F0C4BE001B0020E0
:109A300038B504460D46FFF7A7FF94F83410206BA5
:109A4000062258F0E1FE0121E38884F82910B5FBD5
:109A5000F3F394F83410206BD82258F0F7FE034B40
:109A6000D3F8083E0F33E36238BD00BF001B00206F
:109A7000838853B32DE9F041DFF850800446002677
:109A80000127E388258A204603FB05F5FFF77CFFC5
:109A900094F83410206B062258F0B6FE06FB05F54C
:109AA000E38894F83410B5FBF3F3D822206B84F8E4
:109AB000297058F0CBFED8F8083EA28801360F3343
:109AC000B242E362DDD8BDE8F0817047001B0020A0
:109AD00070B5104D15F8CE3C03B970BD0446C3886F
:109AE00055F8CC6CB6FBF3F60B4BC3F8CC60FFF724
:109AF0004BFF3346102294F83410206B58F0A6FE2A
:109B0000064BD3F8083E0022023305F8CE2CE36260
:109B100070BD00BFF82B002098010020001B002022
:109B20002DE9F04FDFF88091B0F806C0DFF87CA196
:109B3000B1FBFCF81E4619F8CE3C99B004460D4620
:109B40001746002B48D1DAF8CC30984541D0204652
:109B5000FFF71AFF18B9002019B0BDE8F08F4FF0D9
:109B6000FF33DFF83CB1206BCAF8CC3094F83410E6
:109B70004346132258F06AFEDBF8083E0233E362E4
:109B80002046FFF701FF0028E5D0B4F806C0CAF868
:109B9000CC80B5FBFCF80CFB1855ACEB050C94F82D
:109BA0003430B44534BF1FFA8CF6B6B2012B30D036
:109BB000DBF8083E02332046E362FFF7E5FE0028AB
:109BC000C9D094F83430012B5DD0304619B0BDE8CF
:109BD000F08FDFF8CCB0DEE759F8CC3CB3FBFCFBF0
:109BE000CAF8CCB0FFF7D0FE206B94F834105B4677
:109BF000102258F02BFE2A4BD3F8083E0233E362C2
:109C00002046002309F8CE3CFFF7BEFE0028A2D074
:109C1000A5E719F8C82C8DF8082002AA8DF80E5077
:109C200004922D0A01AA8DF80D500592256B8DF82E
:109C30001C308DF844308DF858301A4A08920023B1
:109C4000CDE90D33CDE91233CDE9143303AA8DF8F4
:109C50000A308DF80F300A938DF8303017930323B4
:109C600009928DF80C30042206932846C02304A9DB
:109C70000F970B9210968DF809304AF083FB2868F5
:109C800057F028F994E7206B57F028F9C0F3011337
:109C9000023B012B99D82046FFF79EFE304695E700
:109CA000001B0020C1920008F82B00209801002022
:109CB0002DE9F84F414FD0F83090414D17F8C83C8E
:109CC00085F870310446D9F800008A46904657F06E
:109CD00001F917F8CE3C002B3FD057F8C46CE2884E
:109CE000B6FBF2F302FB136385F876311B0A85F8A5
:109CF000753105F1D00BDAF80030C5F87C31D8F8B1
:109D00000030C5F88431594600232E4AC5F88C31FD
:109D100048464DF00BFB012307F8CE3CD8F8003045
:109D2000E1881E44B6FBF1FA01FB1A6A47F8C46CDD
:109D3000BAF1000F21D0244AC5F88C2194F82920CB
:109D40000AB90BF1140BE363594648464AF01AFB73
:109D5000A36B5BB3E06BBDE8F88F666AE288B6FB85
:109D6000F2F302FB136385F87A311B0A47F8CC6CD7
:109D700085F8793105F5907BBDE7144A57F8CC3C5E
:109D8000B3FBF1F3190CC5F8CC3085F8A5115BBA1B
:109D9000A2F12C014846A5F8A6314DF0C7FAD8F833
:109DA000003007F8CEAC47F8CC6CC7E7236B1868D7
:109DB00057F090F8E06BBDE8F88F00BFF82B00205B
:109DC0009801002014030020ED92000840030020B9
:109DD00033B910B51C46836B20469847204610BD0A
:109DE00066E700BF00B583B041620192049A8263C6
:109DF00001A96A460093FFF75BFF03B05DF804FB1F
:109E00002DE9F843DDF820800F4615460021202279
:109E100004461E465BF062FCB8F1000F0CD0D8F887
:109E20000030E3811B0C2382D8F80430B8F80A20F4
:109E3000E3821B0C62822383384658F0E9FDEB066F
:109E400019D4431EB8B107EB000C01E0013B12D35B
:109E50001CF801EDBEF12E0FF8D1C01A421E032AE4
:109E6000A8BF0322082B03F10109A8BF08239046CD
:109E7000B9441A4606E008280246B946A8BF082297
:109E80004FF000084FF020333946236063602046CE
:109E90005BF0CCFB04F10800154B23814246494698
:109EA00083705BF0C3FB611EE21D11F801CFACF1C2
:109EB0006103192B9CBFACF1200C81F800C09142CA
:109EC000F3D104F10A0011F8013FA3F16102192A4C
:109ED0009CBF203B0B708142F5D118232373330CB8
:109EE000A382E572099B6683E361BDE8F88300BF46
:109EF000202020002DE9F04FDFF84CB4DBF8080EED
:109F000085B0CBF80C0E002B60D013440C461746DE
:109F100001F5FE7A99461FE0002F64D0DBF83C3E45
:109F2000BB4200F0C680DBF8383EBB4200F0F88050
:109F3000DBF8403EDBF8441EBB424BD8B94200F28E
:109F40007081791A204653F057FD01374F4504F5CB
:109F500000740AF5007A39D0DBF8483EBB42DBD802
:109F6000DBF8585EFB1A296BDA0802328A4203F0EA
:109F7000070602D3AB6B9A420BD9294610460292D0
:109F800053F00AFD029A0546002800F06A81CBF8DA
:109F9000580E2B79002B40F01E81D5F82880B8F19F
:109FA000000F00F057812B6BD21AEB6806EBC20250
:109FB00003EB422220462B464FF400710137C04785
:109FC0004F4504F500740AF5007AC5D1002005B0AC
:109FD000BDE8F08FB942B4D94FF400720021204699
:109FE0005BF07CFBB1E74FF40072394620465BF032
:109FF00075FB802384F8BE310C2384F8C231DBF872
:10A00000381EC54ADBF8303EC4F8C6119142C4F888
:10A01000CA3100F30B81C14AC14D82FB010285FBAD
:10A0200001050A44C817C0EB6212C0EB2530BD4DD4
:10A0300084F8C10185FB0265C2EB82168010891B82
:10A04000013120F03F0015440843D117C1EBE51161
:10A050000A4484F8BF21B04A84F8C001013B93420E
:10A0600000F3F080AD4AAE4882FB031280FB031080
:10A070001A44D917C1EB6212C1EB2031A94884F808
:10A08000C51180FB0250C2EB821589105B1B0133A6
:10A0900021F03F0110441943D317C3EBE0131A44D6
:10A0A00084F8C41184F8C3214AF65523A4F8FE317C
:10A0B0004BE74FF0FF3384F8EC3184F8ED3184F84E
:10A0C000EE3184F8EF315223237063706123A37063
:10A0D00084F8E7314123E37084F8E63172230025E8
:10A0E00084F8E43184F8E531DBF8503EC4F8E83117
:10A0F0004FF4F0722946201D5BF0F0FA552384F8E6
:10A10000FE316FF05503C4F8F051C4F8F451C4F8AF
:10A11000F85184F8FC5184F8FD5184F8FF3114E7BC
:10A120004FF40072002120465BF0D8FA7E4B03CB3F
:10A1300045F6EB0323809023C4F80710A370022296
:10A140000821F823C4F80300617322746375DBF8F7
:10A15000303E2273A27384F82C20DBF8382E9B1A31
:10A160002362DBF8402EDBF8443E9B1A6362002337
:10A17000E372E3736377A377E37784F82D3084F891
:10A180002E3084F82F3084F83130684BA361684B4F
:10A19000C4F842303E232377012384F83030654AE7
:10A1A000802384F8403084F846104AF65521A4F8FC
:10A1B000FE1103CA604BC4F84700C4F84B1003CB30
:10A1C0001388A4F84F309378C4F85200C4F856109E
:10A1D00084F85130B9E64FF40072002120465BF05C
:10A1E0007DFA002E44D12B6C04F12008002B7BD08B
:10A1F0002B6B52491122CDE900662046FFF700FE85
:10A200002B6C1A6C002A7ED01B6B4D49CDE9006681
:10A2100040461122FFF7F4FD04F140084FF4E073CB
:10A220006DE0F91A204653F0E7FB8EE6FF2284F832
:10A23000C1214FF6FF72A4F8BF21374A013B934278
:10A240007FF710AFFF2384F8C5314FF6FF73A4F8F2
:10A25000C33129E741464FF4007220465BF03EFAD5
:10A2600073E6384A231F43F8042F9A45FBD16CE666
:10A27000D5E910253301002A43D0023B002D3FF4DD
:10A2800064AE013BAD6CF9D1A0464FF40073002DD4
:10A290003FF45BAECDE9027A08EB0306A24608E084
:10A2A0000024CDE900C4FFF7ABFDAD6CBDB1B045F6
:10A2B00015D02C7929682B6B404605F11C0C112216
:10A2C00008F12008002CEBD16A792C6942F02102B8
:10A2D000CDE900C4FFF794FDAD6C002DE7D15446E5
:10A2E000029FDDF80CA030E6CDE900663346DBF8CE
:10A2F000341E08222046FFF783FD4FF4F0736D6C87
:10A30000C5E7013BBAE7CDE900660D493346404653
:10A310001122FFF775FD7FE7FF03FB008320088212
:10A32000975545418180808020E606083F00FF0068
:10A3300029940E0D2CE6060838E6060818E60608ED
:10A340001CE60608DEADBEEF001B002010B4EFF3E4
:10A350001183102282F312880A4C0B48D4F8082E7D
:10A360004FF0E0210132C4F8082E8A6940F8C02C71
:10A37000002240F8BC2C0A69DBB283F311885DF837
:10A38000044B7047001B0020F82B002030B4EFF383
:10A390001183102282F312884FF0E0220F48946953
:10A3A0001169C90344BF012140F8BC1C0C4948BFD6
:10A3B0009469D1F8085E50F8BC2CDBB283F31188A5
:10A3C000D1F8601E4FF47A702A4400FB01F31B1B86
:10A3D00030BCB3FBF1F300FB02307047F82B0020D8
:10A3E000001B0020264B5B68C3F3080330B4FBB9A5
:10A3F000EFF31183E3B9234C234B4FF0E02CD3F858
:10A40000082EDCF81800D3F8081E8A42F7D154F859
:10A41000C01C8842F3D8D3F8604E4FF47A7101FB28
:10A4200004F3181AB0FBF4F030BC01FB02007047D3
:10A43000EFF31182102383F312884FF0E023114CC5
:10A440009D691969C90344BF012144F8BC1C0E4928
:10A4500048BF9D69D1F8080E54F8BC3CD2B282F3D3
:10A460001188D1F8601E4FF47A72034402FB01F0A8
:10A47000401B30BCB0FBF1F002FB0300704700BF93
:10A4800000ED00E0F82B0020001B00202DE9F0413A
:10A49000027D04681F2A08D96168A2F120052023E3
:10A4A000AB400B4206D1BDE8F081216820239340E8
:10A4B0000B42F8D03D4B3E4FD0F81C805B683D4DC1
:10A4C00047F8B83C8C2303FB085395F878CAD3F8B7
:10A4D0001C06D3F894160668BCF1000F4FD1B3F8F0
:10A4E00020060B6823F001030B60B3899BB223EABB
:10A4F0000003B3810B68DB07FCD41F2A4BD9203A39
:10A500002023934043F01D03E36095F88D30002B2A
:10A51000C9D00B6857F8B02C23F0D0030B608C2304
:10A5200003FB0853012183F86816002A39D03388C9
:10A5300021499BB243F0800333804FF0FF33F36235
:10A540008C2303FB08F845443046414450F036FB69
:10A55000D5F89436D5F81C1616225A601A68096880
:10A5600042F001021A608889B5F820360F4A034389
:10A570009BB28B81536847F8B43CBDE8F081006919
:10A58000036823F001030360B38923F480731B0481
:10A590001B0CB381AEE72023934043F01D03A3605F
:10A5A000B3E7FFF71FFF47F8B00CC0E7001000E06B
:10A5B000F82B0020001B0020882100202DE9F04FFF
:10A5C000BA4D95F88D3087B01BB9012007B0BDE8B2
:10A5D000F08FB749D5F8082EB64BB74CA1FB021245
:10A5E0005209A3FB0213DB0803EB8303A2EB430333
:10A5F00095F83C2B0292DAB2059204EB830704F53E
:10A60000387905F5956B4FF0000A029B9A4500F0EA
:10A610003681DBF8183093F8F220002A40F02181CF
:10A62000D3F8E820DBF80410D3F8EC800392019112
:10A63000FFF7D8FE0199A14B039A95F894E493F89B
:10A640003CC30490890001F1085108F1806001EBDE
:10A6500042113938BEF1540F01EB801001EB8C131D
:10A6600001D1A5F89EC4984240F284811A68002A5C
:10A6700000F079811A6C002A00F08E81D3F88020D6
:10A68000002A00F08B81D3F8C02003F58073002AE4
:10A69000E9D1591A98424FEAA11240F26B81A8EB16
:10A6A000020145294FF0000828BF4521404601948A
:10A6B00003EB811144469446F04603930DE01A6C77
:10A6C000002A40F00381D3F88020002A40F02F8137
:10A6D000D3F8C02003F580732AB9994206D91A68C5
:10A6E000002AECD04033994200F2F480C646A046DE
:10A6F000B8F1110F019C624640F24481D8F1150176
:10A7000000F140816E4B1E46D3F8F8319C4538BFAE
:10A710003346049E38BFC3F8F821684BD3F8403362
:10A72000F21A002A1BDB03F5F42303F590739E4213
:10A7300088BF3346614A88BF0533C2F84033604B57
:10A740005E4AD3F8F831052B86BF053BDBB2002308
:10A7500082F83C335A4A4FF0FF33C2F8F83141B126
:10A76000C8F11408012300FA01F103FA08F343EADF
:10A770000100544AC0F3C43302EB83031646D3F8F6
:10A78000A81400F01F0302EB8303D3F8A82442EAC5
:10A790000132C0F3441106EB8101C0F3842306EBC0
:10A7A0008303D1F8A814D3F8A83442EA011141EA8E
:10A7B000032181EA112383EA131303F00F023F4BB5
:10A7C000D3F83C320F2A03F1010316D1B1F5803FD3
:10A7D00013D2BEF1540F4FEA111104D1B5F89824E9
:10A7E0000132A5F89824354AB1F5606FC2F83C32C1
:10A7F00000F0DC80A9F80C1011E0BEF1540F04D178
:10A80000B5F898240132A5F898242C4AC2F83C32B5
:10A81000D2F838320133C2F838324FF6FF7194F86B
:10A820005830059883420CD0BA6823689B1A23607D
:10A830003A6B63689B1A63600023BB603B6384F8D8
:10A840005800236801332360BB680133BB604FF6B7
:10A85000FF73994205D16368013363603B6B013339
:10A860003B630AF1010ABAF1080F04F15C0407F135
:10A870005C0709F114090BF1200B7FF4C6AED5F883
:10A8800090200E490123002A81F838337FF79DAECE
:10A890000D4B002103EB022283F8F21003F58073C5
:10A8A0009342F9D1012007B0BDE8F08F001B0020D2
:10A8B0001F85EB51CDCCCCCC4C2B0020F82B0020AD
:10A8C00098010020E85A0608941B00208033994222
:10A8D0007FF60CAF039AA3EB020E4FEAAE1E3B4A83
:10A8E0000EF1010E82FB0E62A2EBEE72012AB8BFDE
:10A8F000012200FA02FE14440120013A904040EA8D
:10A900000E009E46DEF800209AB1DEF84020002AB4
:10A9100046D0DEF88020002A45D0DEF8C0200EF5B3
:10A92000807E42B17145EDD803937346D5E6C033BE
:10A93000D9E60EF1400E7145F6D9AEEB0303234A7A
:10A940009B11013382FB0362A2EBE373012BB8BFBF
:10A95000012398401C440122013B9A407346039313
:10A9600010437346B9E64033591A98424FEAA11290
:10A970003FF695AEBCF1000F04D0154B0CF1FF3C37
:10A9800083F83CC3BEF1540F7FF46BAFB5F89A3433
:10A990000133A5F89A3464E780337AE6C03378E669
:10A9A0000EF1800EC7E70EF1C00EC4E795F8A93589
:10A9B00003EB430305EBC303534493F8B9350D2B65
:10A9C0007FF418AF802389F81E3028E75655555577
:10A9D000F82B002070B51E4C94F8A82594F8A935E2
:10A9E0009A4230D1D4F89050002D11DD194894F8D6
:10A9F0008D60002416B1037E012B1ED002691368FE
:10AA0000013443F00103A54200F580701360F1D1D9
:10AA1000FFF7E8FC104BD3F84443002C0CDD03F5A2
:10AA2000527303EBC40419689A8888890833024377
:10AA300092B29C428A81F6D170BD002380F8F0303A
:10AA4000FDF7E8FEDAE757F035FB0028CAD170BD04
:10AA5000001B0020941B0020F82B00202DE9F0475C
:10AA60000646FFF7BFFC274FDFF8A0E0264B054660
:10AA70004FF010084FF0E02C4FF47A744FF00109BA
:10AA80007A68C2F30802E2B9EFF31182CAB9D3F8C7
:10AA9000082EDCF81800D3F8081E8A42F7D15EF8B9
:10AAA000C01C8842F3D8D3F860AE04FB0AF1091A3F
:10AAB000B1FBFAF104FB0212521BB242E0D3BDE833
:10AAC000F087EFF3118288F31288DCF81800DCF8C5
:10AAD0001010C90344BF4EF8BC9CDCF81800D3F832
:10AAE000081E5EF8BCACD2B282F311885144D3F890
:10AAF00060AE04FB0AF2121AB2FBFAF204FB012266
:10AB0000DAE700BF00ED00E0001B0020F82B00207A
:10AB10002DE9F047DFF804C13E4B3F4E00F1FF380E
:10AB200010274FF0E0204FF47A7E4FF00109726851
:10AB3000C2F30802002A58D1EFF31182002A54D13F
:10AB4000D3F8082E8469D3F8081E8A42F8D15CF83D
:10AB5000C01C8C42F4D8D3F8601E0EFB01F52D1BEF
:10AB6000B5FBF1F50EFB02557268C2F30802FAB9A3
:10AB7000EFF31182E2B9D3F8082E8469D3F8081EE6
:10AB80008A42F8D15CF8C01C8C42F4D8D3F860AE8D
:10AB90000EFB0AF1091BB1FBFAF10EFB0212521B6C
:10ABA000B2F57A7FE0D3B8F10108C0D2BDE8F087F2
:10ABB000EFF3118287F3128884690169C90344BFE6
:10ABC0004CF8BC9C8469D3F8081E5CF8BCACD2B2CB
:10ABD00082F311885144D3F860AE0EFB0AF2121BC7
:10ABE000B2FBFAF20EFB0122D9E7EFF3118187F3F2
:10ABF000128884690269D50344BF4CF8BC9C8469FF
:10AC0000D3F8085E5CF8BC2CC9B281F311882A44E1
:10AC1000A1E700BF001B002000ED00E0F82B0020A2
:10AC20002DE9F04F0130964D964C974E83B001F1CF
:10AC3000FF395FFA80FA10274FF0010854F014F939
:10AC40004FF4FA7301934FF0E0224FF47A7C73686B
:10AC5000C3F30803002B40F0D680EFF31183002BE1
:10AC600040F0D180D4F8083E9169D4F8080E8342B0
:10AC7000F8D155F8C00C8142F4D8D4F8600E0CFB22
:10AC800000FBABEB010EBEFBF0FE0CFB03EE7368AA
:10AC9000C3F30803002B40F09680EFF31183002BE1
:10ACA00040F09180D4F8083E9069D4F8081E8B4299
:10ACB000F8D155F8C01C8842F4D8D4F860BE0CFB1B
:10ACC0000BF1091AB1FBFBF10CFB0313A3EB0E0311
:10ACD000B3F57A7FDBD3019B013B0193B7D150469B
:10ACE00054F09CFC4FF47A7301934FF0E0229C46A1
:10ACF0007368C3F30803002B40F0A380EFF31183C4
:10AD0000002B40F09E80D4F8083E9169D4F8080EDC
:10AD10008342F8D155F8C00C8142F4D8D4F8600EC3
:10AD20000CFB00FBABEB010EBEFBF0FE0CFB03EEDD
:10AD30007368C3F3080333BBEFF311831BBBD4F871
:10AD4000083E9069D4F8081E8B42F8D155F8C01C13
:10AD50008842F4D8D4F860BE0CFB0BF1091AB1FBA1
:10AD6000FBF10CFB0313A3EB0E03B3F57A7FDFD3E8
:10AD7000019B013B0193BBD1B9F10109BFF45EAF67
:10AD800003B0BDE8F08FEFF3118387F31288D2F898
:10AD900018B01169C90344BF45F8BC8CD2F818B08B
:10ADA000D4F8080E55F8BC1CDBB283F311880144BB
:10ADB000D4F8600E0CFB00F3A3EB0B03B3FBF0F332
:10ADC0000CFB0133CFE7EFF3118387F31288D2F83E
:10ADD00018B01169C90344BF45F8BC8CD2F818B04B
:10ADE000D4F8080E55F8BC1CDBB283F3118801447B
:10ADF000D4F8600E0CFB00F3A3EB0B03B3FBF0F3F2
:10AE00000CFB013362E7EFF3118087F3128891693D
:10AE10001369DB0344BF45F8BC8C9169D4F8083E44
:10AE200055F8BCECC0B280F31188D4F8600E7344BE
:10AE30000CFB00FEAEEB010EBEFBF0FE0CFB03EEC6
:10AE400025E7EFF3118087F3128891691369DB031B
:10AE500044BF45F8BC8C9169D4F8083E55F8BCEC69
:10AE6000C0B280F31188D4F8600E73440CFB00FE6E
:10AE7000AEEB010EBEFBF0FE0CFB03EE58E700BF8D
:10AE8000F82B0020001B002000ED00E02DE9884891
:10AE9000914D924C431C5FFA83FA0A264FF0100939
:10AEA0004FF0010853F0E0FF4FF4FA7C4FF0E02040
:10AEB0004FF47A718A4B5B68C3F30803002B40F0B0
:10AEC000B280EFF31183002B40F0AD80D4F8083E40
:10AED000D0F818B0D4F8082E9342F7D155F8C02C0A
:10AEE0009345F3D8D4F860EE01FB0EF2A2EB0B020F
:10AEF000B2FBFEF201FB0322794B5B68C3F308034C
:10AF0000002B40F0A680EFF31183002B40F0A180CE
:10AF1000D4F808EED0F818B0D4F8083E9E45F7D122
:10AF200055F8C03C9B45F3D8D4F8603ED4F8607E19
:10AF300001FB03F3A3EB0B03B3FBF7F301FB0E33AE
:10AF40009B1AB3F57A7FD7D3BCF1010CB2D150462E
:10AF500054F064FB4FF47A7C4FF0E0206146604B84
:10AF60005B68C3F30803002B47D1EFF31183002B79
:10AF700043D1D4F8083ED0F818B0D4F8082E934244
:10AF8000F7D155F8C02C9345F3D8D4F860EE01FB07
:10AF90000EF2A2EB0B02B2FBFEF201FB0322504BBE
:10AFA0005B68C3F30803002B74D1EFF31183002B0C
:10AFB00070D1D4F808EED0F818B0D4F8083E9E4509
:10AFC000F7D155F8C03C9B45F3D8D4F8603ED4F88F
:10AFD000607E01FB03F3A3EB0B03B3FBF7F301FB71
:10AFE0000E339B1AB3F57A7FD9D3BCF1010CB6D1DD
:10AFF000013E7FF457AF53F02FFFEFF3118289F337
:10B000001288D0F818B00369DF0344BF45F8BC8C40
:10B01000D0F818B0D4F8083E55F8BCECD2B282F3A0
:10B0200011887344B1E7EFF3118289F31288D0F8E5
:10B0300018B00369DF0344BF45F8BC8CD0F818B0E2
:10B04000D4F8083E55F8BCECD2B282F311887344B0
:10B0500048E7EFF3118E89F3128883691F4603696D
:10B06000DB0303D545F8BC8C83691F46D4F808BEC2
:10B0700055F8BC3C5FFA8EFE8EF311885B44D4F821
:10B0800060BE01FB0BFEAEEB070EBEFBFBFE01FB41
:10B0900003E355E7EFF3118E89F3128883691F46A6
:10B0A0000369DB0303D545F8BC8C83691F46D4F8DC
:10B0B00008BE55F8BC3C5FFA8EFE8EF311885B44E7
:10B0C000D4F860BE01FB0BFEAEEB070EBEFBFBFE31
:10B0D00001FB03E385E700BFF82B0020001B0020E5
:10B0E00000ED00E02DE9F0411D4CDFF87C801D4FA4
:10B0F00082B004F5AC75012602E00834A54224D0E4
:10B1000094F90630002BF8D1206800F13F4303F595
:10B110007E0308EB932393F828355A09032A03F09A
:10B120001F0306FA03F317D0042A11D0022A02D112
:10B130007A6C13437B640023A1881A46CDE900365C
:10B14000083455F02BFEA542DAD102B0BDE8F081FB
:10B150003A6B13433B63EEE73A6C13433B64EAE715
:10B16000602F002000380240E85A060830B50C462F
:10B1700083B00546D8B1036803F13F4303F57E036E
:10B180009B0A0C4A134493F8280554F0B9FBC4F306
:10B190004112C4F30013CDE90032C4F38103A9883E
:10B1A000286804F0030255F0F9FD03B030BD4FF0FC
:10B1B000FF33E6E7E85A060800B1D7E7704700BF5B
:10B1C00070B50E4C94F83C6BB6B104F5956400254F
:10B1D00004E00135B54204F120040DD0237F002B9B
:10B1E000F7D0E0680028F4D0217D0135FFF7BEFFDD
:10B1F000B54204F12004F1D1012070BD001B0020F4
:10B20000F0B5002487B0CDE90144CDE903440DF148
:10B21000040CC0E93F44C0E94144C0F80C41054674
:10B2200000F5887EBCE80F00AEE80F00CEF80040C5
:10B2300095F82931224E0594C5F854610BB907B031
:10B24000F0BD1E09013E032E03F00F032CD81D4F45
:10B2500007EB4602B2F8300540FA03F2D20723D5D5
:10B26000012202FA03F3013B184037445AF028FC4C
:10B2700097F838352246144C1844294604EBC0048C
:10B280002623124DE380204641F80C5F53F07EFBED
:10B290000F49A2880868B2FA82F24FF00043D34007
:10B2A00003430B6007B0F0BD2946084B41F80C3F43
:10B2B0000022104607B0BDE8F04053F067BB00BF66
:10B2C0003B43413BE85A0608602F002011B50008B7
:10B2D000003C014048B182880449B2FA82F2086811
:10B2E0004FF00043D34003430B607047003C0140E4
:10B2F00038B50409013C032C1AD80F4D05EB440264
:10B3000000F00F03B2F8300540FA03F212F0010228
:10B3100010D0012202FA03F3013B184025445AF0F1
:10B32000CFFB95F83835054A034402EBC30038BD1E
:10B33000002038BD104638BDE85A0608602F0020AE
:10B3400090F8E330052B03D890F82631032B01D079
:10B350000020704790F82B31022BF9D0042B14BF3A
:10B3600007200020704708B516F08CF9012807D88F
:10B37000044BD3F8C0340344187ABDE80840B7E75B
:10B38000002008BDF82B002043680B4A23F04073CF
:10B3900023F4807343F48073436083681A4042F05F
:10B3A00002028260C36A0139C9B223F4700343EA1E
:10B3B0000153C362704700BFFDF7FFC0704700BF75
:10B3C0000020FCF72FBE00BF0120FCF72BBE00BF02
:10B3D0000220FCF727BE00BF10B1036882881A83E1
:10B3E000704700BF10B1036882885A83704700BF5E
:10B3F000F0B5056890F888606B688488012285F84C
:10B4000024201A8822F040021204120C1A802A8981
:10B41000A24255D1017BAA7A8A420BD01A8822F027
:10B4200003021204120C1A801A8892B2002944D026
:10B430001A80A9721A882F7B92B242F040021A80B9
:10B440002B6A9A6892B34FF0000C2F4C1433E646E7
:10B4500053F8101C964401EA040221B1B2F1805F56
:10B4600027D06A692AB353F8142C143302EA040172
:10B4700012B1B1F1805F1CD053F80C2C0CF1010C0F
:10B48000002AE5D1AFB1A6B1BCF1010F0AD8BEF1D7
:10B49000070F07D80CEB8C0C4FEA8C022B6A134475
:10B4A0001B7B33B9BDE8F0404BF04ABF0FB1002E13
:10B4B000F4D1BDE8F0404CF0C5B942F00302B7E763
:10B4C0001A88124922F0380212048B424FEA1242C3
:10B4D00017D001F580618B4213D02146B1F5807FF2
:10B4E000A8BF4FF480710229B8BF022191FAA1F1DF
:10B4F000B1FA81F1013942EAC10292B21A802C817B
:10B5000088E76108EAE700BF0000FFFF003800405D
:10B5100038B52C4AD0F8E8305268D0F8E01004462C
:10B5200073B1501A83420BDC94F8D830C4F8E02091
:10B53000012B10D0D4F8DC300133C4F8DC3038BD36
:10B54000D4F8EC30C4F8E0200B44C4F8E43094F8AC
:10B55000D830012BEED16168201D04F1F005EFF326
:10B56000118C102383F3128863681B6A0BB3D4F821
:10B57000F8302A461BB1D3691432002BFBD10B6A79
:10B580006BB1996839B9934209D0196829B15B68E0
:10B5900099680029F7D01433F3E7C3E900055FFA8F
:10B5A0008CFC8CF31188D4F8DC300133C4F8DC3027
:10B5B00038BD0D625FFA8CFC8CF31188FFF718FF21
:10B5C000B8E700BF001000E02DE9F041826992F871
:10B5D000E430012B8AB005465BD0023B012B54D8E6
:10B5E00092F85431D2F89C203B4C63F07F031370E7
:10B5F0008769D7F8A030D7F8108003F1010E0FCC7F
:10B60000EC46ACE80F00D7F89C30CDE9003E0FCCFB
:10B61000ACE80F0094E8030007F110068CE8030083
:10B62000EFF31180102383F312883B691B6A002B10
:10B6300049D0029B6A461BB1D3691432002BFBD15F
:10B64000D8F8203073B1996839B993420AD0196893
:10B6500029B15B6899680029F7D01433F3E71E60BD
:10B66000C3F804D0C0B280F31188A9690A69136ACB
:10B67000002BFCD1D1F8A0305A8852BAEA819A88BE
:10B6800052BA2A82DB885BBA6B8201200AB0BDE81D
:10B69000F08192F8570192F85431D2F8A0101B1A99
:10B6A0005B100133DBB201EB430231F813305BBABC
:10B6B000EB8153885BBA2B82938801205BBA6B8243
:10B6C0000AB0BDE8F081C8F820D0C0B280F311887C
:10B6D0003046FFF78DFEC8E7246006082DE9F041EB
:10B6E00090F8E430D0F8A050012B8AB0044673D013
:10B6F00041D9023B012B6BD890F85531D0F89C20F2
:10B700006A4E63F07F031370D0F8A030D0F8108039
:10B7100003F1010E00F110070FCEEC46ACE80F006C
:10B72000D4F89C30CDE9003E0FCEACE80F0096E88F
:10B7300003008CE80300EFF31180102383F31288D9
:10B7400023691B6A002B00F0A880029B6A461BB18C
:10B75000D3691432002BFBD1D8F820302BB3996871
:10B7600039B9934221D01968E1B15B689968002921
:10B77000F7D01433F3E7D0F89C304FF0FF321A6063
:10B780005A609A60DA60D0F8E8300522B3F57A7F23
:10B79000C0F8F82054D8032380F8E43001200AB020
:10B7A000BDE8F0811F60C3F804D0C0B280F31188F7
:10B7B0002269136A002BFCD16B885BBAA4F8D030E5
:10B7C000AB885BBAA4F8D230EB885BBAA4F8D4306B
:10B7D00001200AB0BDE8F08190F8571190F855317A
:10B7E00090F85621D0ED366AD0ED377A5B1A5B10AF
:10B7F0000133DBB2521A35F8131005EB430349BA93
