:020000040800F2
:1000000000000120ED880508898905087DE20008C7
:100010008989050889890508898905080000000083
:1000200000000000000000000000000089890508B1
:1000300089890508000000008989050839D500086C
:100040008989050889890508898905088989050834
:100050008989050889890508F9A8000801A9000807
:1000600009A9000811A9000819A9000819A7000882
:100070002DA7000841A7000855A7000869A7000898
:100080007DA7000891A700088989050889890508C6
:1000900089890508898905088989050821A9000831
:1000A000A5CC0008A1CB0008B5CC000891CB000876
:1000B000C9CB0008D9CB0008E9CB0008A9A30008E8
:1000C000A5A30008B1A30008ADA30008898905080D
:1000D000898905083DB9040849B9040855B90408D7
:1000E00029A900088989050889890508C5CC00085F
:1000F0007DCC0008898905086DCC0008A5A70008FB
:100100008989050889890508F9CB000889890508C6
:1001100061B904086DB9040809CC0008F1ED0408C0
:10012000B9A70008CDA70008E1A70008F5A70008B7
:1001300009A8000800000000000000000000000006
:1001400000000000000000000000000039E3040887
:100150001DA8000831A8000845A8000879B90408BE
:10016000B9A30008B5A3000889890508898905088D
:100170008989050889890508000000000000000041
:1001800089890508898905088989050889890508F3
:100190008989050889890508000000008989050802
:1001A0000000000000000000000000008989050830
:1001B0008989050889890508000000000000000001
:1001C000000000000000000000000000000000002F
:1001D0000000000000000000000000008989050800
:10800000084A0346D0F8EC005268D3F8F810121A68
:1080100000209142B8BFC3F8F820012283F8242140
:10802000704700BF001000E030B4046900234168CD
:1080300040258269E4680C3153605462446993635B
:1080400095601160C2E90333C2E90533C2E9073321
:10805000C2E90A33C2E90C3394B1C2694FF48030EB
:10806000E468116054629062C2E90133C2E90333EB
:10807000C2E90533C2E90733C2E90B33C2E90D3364
:1080800030BC7047114A037A0168D35C10B4CC58F5
:10809000CA1824F00104CC501368DB07FCD4037D1C
:1080A0001F2B09D9203B20225DF8044B02FA03F371
:1080B00043F01803CB60704720225DF8044B02FAAE
:1080C00003F343F018038B60704700BF044A0608AF
:1080D0001B4B016803F57D7C02E02C3363452BD0FC
:1080E0001A688A42F9D170B593F804E0427996454E
:1080F0000BD02C33634505D01A688A42F4D02C3358
:108100006345F9D14FF0FF3070BD9E468468002270
:10811000DEF80C50A54208D001320EF10C0E032AF5
:10812000E7D0DEF80C50A542F6D1DEF81050C66854
:10813000B542F1D150B270BD4FF0FF30704700BF73
:10814000F0B705084368426D30B49A61EFF31182CD
:10815000502383F312884168D2B2856C0B68046D9A
:1081600023EA050323430B6082F311884369816886
:108170001A68096822F00102D0E908541A60826A7C
:108180001D605C615A60D0E90B429C60DA6000239C
:10819000B0F86C2030BCCA6203777047002A4FEAFF
:1081A000014C034630B508BFE64600F1C00514BFD8
:1081B0008E468C46002419680C3353F8042C43F87F
:1081C000084C41EA0C0142EA0E02AB4243F80C1C97
:1081D00043F8042CEFD1D0F8C03043EA0E03C0E9D5
:1081E0003144C0F8C03030BDC3695969B3F810C01C
:1081F0000A6830B49C6822F0010224680A60E268D0
:1082000022EA0C02E260027D00681F2A06D9203AA9
:108210000824456894402C4242D0FEE708240568B3
:1082200094402C42F9D1202404FA02F28260254ABB
:108230001278002A32D01A7F012A36D0D3F80021D2
:108240000132C3F80021EFF31181502282F312882A
:108250005868C9B29D6C0268DC6C22EA05022243B0
:10826000026081F311885A699968D3E90D40096861
:1082700014605061D3E90F4054605C6C9060B3F8B7
:10828000B400D4600124C8621C77106820431060D9
:108290001A8A83F8FD40CB681343CB6030BC70472B
:1082A000202404FA02F2C260C1E70022D3F80401DC
:1082B00083F8FD2001300A68C3F8040122F00102AE
:1082C0000A60EBE7BC00002010B40C4C6368002B84
:1082D00011DD002004F1080C0146DCF8AC3003F19C
:1082E000C00259600C339342FBD1013063680CF536
:1082F000867C8342F1DC5DF8044B7047BC000020B3
:10830000704700BF024B03EB401393F855047047CE
:10831000BC000020C36900222DE9F0410833804DE4
:1083200082B055F8234001920822D4F85880E36DBA
:10833000D8F800609A402F6C164204D02168086873
:10834000400700F1968001229A40164204D021682D
:108350004969080600F1868004229A40164203D03B
:1083600021680968890776D410229A40164203D002
:108370002168086800075AD420229A40164217D074
:1083800021680868C00613D5C8F8082094F835207D
:10839000052A00F091800B6813F4802F0B6800F021
:1083A000A880190340F1B380E36B0BB120469847D6
:1083B000636D0BB3636DDA071AD55A4B2268A3FBC2
:1083C0000737052384F83530BF0A136823F001030B
:1083D000136002E01368DB0704D5019B01339F4261
:1083E0000193F7D20022012384F8342084F8353039
:1083F000E36C0BB120469847B5F844300C2B0DD8F0
:10840000DFE803F04E0C0C0C480C0C0C070C0C0CA9
:1084100042002A68D36823F40063D360012200235A
:1084200085F83D2085F8463002B0BDE8F081C8F8F7
:1084300008200A6812F4802F0A6837D1D20503D4C5
:108440000A6822F008020A60226C002A94D02046B2
:108450009047E36D90E7C8F80820626D42F004028F
:10846000626581E7C8F80820626D42F00202626529
:1084700072E7086820F004000860C8F80820626D00
:1084800042F0010262655EE72A68D36823F48053F4
:10849000D360C3E72A68D36823F48063D360BDE761
:1084A0002A68D36823F40073D360B7E71103CBD5F0
:1084B000A26C002ACBD15FE70A6822F016020A609C
:1084C0004A6922F080024A61226C2AB30A6822F0CB
:1084D00008020A603F22002102FA03F30122C8F8D1
:1084E0000830236D84F8341084F83520002B81D1B6
:1084F00082E713F480737FF457AF0A6822F010020A
:108500000A60012284F8343084F835204CE7636C2B
:10851000002B7FF44BAF4BE7A26C002AD6D1D9E7F2
:10852000481A0120B5814E1B426A806A131A5842CC
:108530005841704790F84F3830B53BB990F84D1816
:10854000012490F84E38DAB2914200D830BD04FAD6
:1085500003F2B0F8565801332A43A0F85628F2E740
:108560000379024613F0010005D0D369D068116A7F
:1085700001385B1A1840704710B503790446DB07D1
:1085800001D4002010BDFFF7EBFF0028F9D0236ACB
:108590006269D05C236AE268C0B20133B3FBF2F1D6
:1085A00002FB11332362EDE703799B070AD5436A87
:1085B0008269D154436A02690133B3FBF2F102FBD1
:1085C0001133436270477047017170470379024667
:1085D00013F0020007D0536A1069916A01385B1AE0
:1085E0000340DBB2C01A704707280AD800EB8000AE
:1085F000054B03EB4013B3F83805B0FA80F040099F
:1086000070470020704700BFBC000020072807D833
:10861000044B00EB8000012203EB401383F83A2562
:10862000704700BFBC00002010B584464FEA810EA1
:10863000102312F4004F4FEA420214BF0E24072405
:10864000013B92B2CCF80040F444F2D100EB81122D
:108650008C010351122042F8213010BD10B5844620
:108660004FEA810E0424130B013C4FEA021203EB84
:10867000430392B203F11803CCF80030F444F2D172
:1086800000EB01130A018450062043F8214010BD7D
:10869000704700BF704700BF00EB4000024B03EB88
:1086A000C00393F8490A7047BC000020064B93F8BA
:1086B000F82A824206D900EB400003EBC003D3F84E
:1086C0004C0A704700207047BC000020072808D8DB
:1086D000044B03EB401393F8542412B1012283F8A6
:1086E0003A247047BC000020072808D8054B03EB4C
:1086F0004013B3F83804B0FA80F040097047002006
:10870000704700BFBC000020054B93F8F82A824256
:1087100004D903EB4013D3F844047047002070479A
:10872000BC0000200B4890F8FC1A89B101EB410114
:10873000002300F63820490010B41C4650F82320CE
:10874000063302B114608B42F8D15DF8044B7047D8
:10875000704700BFBC0000200B4890F8FC1A89B19C
:1087600001EB4101002300F63820490010B41C46FB
:1087700050F82320063302B114608B42F8D15DF823
:10878000044B7047704700BFBC000020214B1B7892
:10879000002B3DD12DE9F0431F4C94F8FC2AAAB3DD
:1087A00004F638224FF0500E1C4F4FF02C0C1C4E8C
:1087B0001D4607E0013394F8FC1A52F8180B8B425F
:1087C000056023DA117C0029F4D050684FF0FE08D0
:1087D000810AA1F580115229314498BF91F8F483A0
:1087E000EFF311818EF31288D0F824900CFB0878F7
:1087F000C9B209F10109C8F87090D0F8148048F0A6
:108800000108C0F8148081F31188D3E7BDE8F08334
:10881000704700BF00000120BC000020481A012062
:10882000F0B7050800EE100AB8EE400A704700BF26
:10883000BCEEC00A10EE103A98B27047034601220F
:10884000002083F829207047426A08B50346C06BB0
:10885000996B02445A6201B18847002008BD00BFED
:10886000036B02461B681B6A5B685B7813F00100B0
:1088700008BF82F82900704782634162704700BFD9
:10888000704700BF04307047036B02461B681B6AC9
:108890005B689B7813F0010008BF82F829007047DD
:1088A00082634162704700BF03460122002083F8C3
:1088B00029207047426A08B50346C06B996B024491
:1088C0005A6201B18847002008BD00BF704700BF51
:1088D000043070470C4B93F8E022D3F8DC120244CA
:1088E0000144D2B2C3F8DC1283F8E02293F8E0220C
:1088F000120605D593F8E02282F0800283F8E02288
:10890000024B01225A707047481A012000000120D2
:108910002DE9F84F164FD7F8E452ED0A23D0002680
:10892000DFF850A007F53A79B0467419D7F8E81285
:108930004FF01003524648BF0134D1F828B04846E2
:10894000C7F820836410E102D8470F280BDD094BDC
:1089500003F1100153F8042B013207D18B42F9D1F6
:108960002546B542E1DCE802BDE8F88F661CF8E771
:10897000481A012000000020194BD3F82813D3F81F
:108980002C238A1A322A05DCD3F840238A1A002ABB
:1089900011DC7047D3F8301349B193F83C23888831
:1089A00002F001020968120100FA02F28A61002253
:1089B000C3F840237047D3F830236AB110683231CE
:1089C000928810B44469C3F8401322425DF8044B06
:1089D00018BF1204826170473231C3F840137047E8
:1089E000481A0120074AD2F830334BB192F83C23A1
:1089F0009988186802F001031B0101FA03F38361EF
:108A000000207047481A0120044B4FF4007C0020DE
:108A1000D3F85033A2F800C00B607047481A012009
:108A200000207047012070470120704700207047E8
:108A3000134BD0F8E0105B68D0F8E82010B504467E
:108A4000581A824200DC22B9D4F8EC200A44C4F857
:108A5000E42094F8D820C4F8E030012A05D0D4F8F6
:108A6000DC300133C4F8DC3010BD04F1F001201D0E
:108A700041F036FAD4F8DC300133C4F8DC3010BDF4
:108A8000001000E0CB070ED430B590F834308DB034
:108A9000C468012B08D0B4F1807F02D9012380F88B
:108AA00028300DB030BD7047194B056BD3F88013DB
:108AB0001B6CB1EB930F4FEA93024FF0020306D207
:108AC00052085B0091429BB201D2FF2BF8D9B4F15E
:108AD000807FAB80E5D90122002301A9B72480F86B
:108AE0002820284604928DF814208DF828208DF82F
:108AF00004400B93CDE9021302A9CDE90633CDE979
:108B0000083341F0EDF92A68136A002BFCD1C8E75D
:108B1000481A012030B590F834308BB00446012B50
:108B20000AD090F8290010B901200BB030BD002305
:108B300084F829300BB030BD056B2B681A7B22BB43
:108B400094F82930002BEFD0124902200023012293
:108B50000290081D8DF80C208DF820200993CDE996
:108B6000001069462846CDE90433CDE9063341F0CB
:108B7000B7F92A68136A002BFCD1074B5B7DD843F9
:108B800003F0010300F00100D2E71B6A002BD7D0ED
:108B90000020CAE7100000200000002030B5044685
:108BA0008BB094F83430012B0AD094F8293013B1EB
:108BB000002384F8293001200BB030BD1B6A23B19B
:108BC000256B2B681A7B002AF8D194F82930002BEA
:108BD000F1D011490220002301220290081D8DF8D6
:108BE0000C208DF820200993CDE900106946284615
:108BF000CDE90433CDE9063341F072F92A68136AEE
:108C0000002BFCD1054B5B7D03F00102DB0784F8F0
:108C10002920D0D5C5E700BF1000002000000020AB
:108C2000224A002330B5044695B0101D204D06930E
:108C3000019002200B93109313931193029094F8D8
:108C4000280000920495CDE90E3301238DF80C30F5
:108C500007938DF820308DF834308DF8483002F1CC
:108C60000803083A0593031D0A920C93114B0993CC
:108C7000236B1A68136A002BFCD1A0B10E480A0EB0
:108C800000F11A0342760A0A9970080C69465A7074
:108C90001870206B41F024F9236B1A68136A002BBB
:108CA000FCD115B030BD054BEDE700BF2000002022
:108CB000618800083D88000800000020190000209D
:108CC00010B594B0044650220749684652F0A2F904
:108CD0006946206B41F004F9236B1A68136A002B74
:108CE000FCD114B010BD00BF38BC0508F8B505466E
:108CF000006B0068046A002CFCD195F82840686A73
:108D0000002C37D0234E040E052786F82D402E3632
:108D1000B0704FEA104C000A1F4C86F800C0012BBF
:108D200070704FF000000E68676326641668A664D2
:108D3000EE63A06521D0022B1BD153680122206570
:108D40001E444968E365154B84F84C006165EE6389
:108D500084F860206366124B95F82920A3F1140172
:108D6000286B002A08BF194641F0BAF8AB6B5BB11B
:108D7000E86BF8BD04270B4ECAE7084A84F84C306C
:108D80006065E0652265E6E72B6B1A68136A002BC5
:108D9000FCD1EDE700000020000001204988000818
:108DA000180001202D00002000B583B0416201921F
:108DB00001A9049A0093012382636A46FFF796FF94
:108DC00003B05DF804FB00BF70B51D46036B94B0A3
:108DD00006461B681C6A002CFCD1324B0B9203F137
:108DE0003C0231480694009203F14002049003F1E2
:108DF0003400019202220590029201228DF8204057
:108E00008DF80C208DF834208DF8482096F8282015
:108E10000C95101D1394CDE90944CDE90E44CDE91C
:108E200010440790002A3BD00A0E363303F8012C79
:108E30000A0C99701D4C090A1A705970226CD4F8EA
:108E400080339108306BB3EB920F4FF0020206D2E1
:108E5000490852008B4292B201D2FF2AF8D996F803
:108E600029308280D3B1694641F03AF8306B03680B
:108E70001A6A002AFCD1236C0222D4F88443990890
:108E8000B4EB930F06D2490852008C4292B201D241
:108E9000FF2AF8D98280284614B070BD05A9E3E7FF
:108EA0003533C5E70000002061880008481A01201A
:108EB0002DE9F84F454E0546006B0F46DFF824E1DB
:108EC00096F8883304688EF84430236A002BFCD16E
:108ED00096F88933B5F806C0002B40D0D6F88C93AD
:108EE0003B49B9FBFCF30CFB13938EF84A301B0A89
:108EF0008EF849303B68374FD2F80080C7F81C31F4
:108F00000023C7F82481C7F82C318B68002B5BD075
:108F10000B46DC691433002CFBD11468DFF8C8A0C1
:108F2000A1441860C3F804A00123C6F88C9386F806
:108F30008933B9FBFCFB0CFB1B9BBBF1000F1DD065
:108F4000254BC7F82C3195F8293003B91431EC635F
:108F500040F0C6FFAB6B7BB3E86BBDE8F88FD5F88C
:108F600024901E49C6F89093B9FBFCF30CFB1393B5
:108F70008EF84E301B0A8EF84D30BBE7D6F8904382
:108F8000B4FBFCF4230CC7F8444164BA8EF85130AA
:108F90005346AEF85240B8F1000F03D0DC691433E9
:108FA000002CFBD114680E4A18605A600023C6F8E2
:108FB000909386F88933C6E72B6B1A68136A002BE7
:108FC000FCD1E86BBDE8F88F0B46A6E7481A0120F4
:108FD0007C00012000000120B5880008CC000120A1
:108FE00048010120000000201C01012033B910B508
:108FF0001C46836B20469847204610BD58E700BFAB
:1090000010B582B00C46019201A9049A44628263B1
:109010006A460093FFF74CFF02B010BD8369F0B5BC
:1090200093F8E4208BB00546012A35D0023A012A94
:109030002FD893F85421EC46D3F89C1062F07F03AC
:10904000224C0B708669D6F8A0305F1C0FCCACE8C0
:109050000F00D6F89C30CDE900370FCCACE80F00FC
:1090600094E803008CE80300694606F1100040F024
:1090700037FFA9690A69136A002BFCD1D1F8A03027
:109080005A8852BAEA819A8852BA2A82DB885BBA35
:109090006B8201200BB0F0BD93F8542193F8570177
:1090A000D3F8A010131A01205B100133DBB231F8A2
:1090B000132001EB430352BAEA815A8852BA2A823A
:1090C0009B885BBA6B820BB0F0BD00BF88BC050803
:1090D000F0B590F8E4308BB00446D0F8A060012BD6
:1090E0004BD034D9023B012B2ED890F85531EC46A9
:1090F000D0F89C2063F07F03504D1370D0F8A0305F
:109100005F1C0FCDACE80F00D4F89C30CDE90037E0
:109110000FCDACE80F0095E803008CE8030069462A
:1091200004F1100040F0DCFE2269136A002BFCD130
:1091300073885BBAA4F8D030B3885BBAA4F8D23095
:10914000F3885BBAA4F8D43001200BB0F0BDD0F89E
:109150009C304FF0FF3205211A605A609A60DA6045
:10916000D0F8E830C0F8F810B3F57A7F38D8032388
:1091700080F8E43001200BB0F0BD90F8571190F862
:10918000553190F856215B1AD0ED366A521AD0ED5F
:10919000377A5B10521001330132DBB2D2B236F8AB
:1091A000131006EB430349BAA0F8D010598849BA06
:1091B000A0F8D2109B885BBAA0F8D43036F81230F1
:1091C000DBBA07EE103AB8EEC77AE7EE267AFDEE84
:1091D000E77A17EE903AA0F8D63001200BB0F0BD38
:1091E00003691A7B2AB35B691BB390F8983003B309
:1091F00090F857310122D0F89C0063F07F03C4F847
:10920000A4400F49037094F8553194F8570184F83D
:1092100008211B1A84F8E420D4F8A0200733C4F8EE
:109220000C110132D4F89C10C4E94023C4F8FC109E
:109230008AE7022384F8E43086E700BF88BC05088B
:1092400001800008F8B50C4B1D685A6915400540AF
:109250005D617DB1094F0126B5FA85F4C4F11F04A3
:1092600007EB840306FA04F4D3F8940303689847E1
:10927000A543F1D1F8BD00BF003C0140481A0120D0
:1092800002692DE9F843C36812EA030828D00546AD
:109290000E464FF00047B8FA88F327FA03F21B3B5B
:1092A000D24308EA02082A61042B16D8DFE803F04B
:1092B0003B30251A0300B36A002B3FD003F1FF397E
:1092C00000231FFA89F9B362746A34B12368204617
:1092D000494698476468002CF8D1B8F1000FDAD1FC
:1092E000BDE8F88370680028F7D0696B036889B21D
:1092F0009847B8F1000FCED1F2E7B0680028ECD063
:10930000A96B036889B29847B8F1000FC3D1E7E7AA
:10931000F0680028E1D0E96B036889B29847B8F19A
:10932000000FB8D1DCE730690028D6D0296C03687B
:1093300089B29847B8F1000FADD1D1E7EB6A1FFAB7
:1093400083F9C1E72DE9F047214C6568002D34DD34
:10935000002304F108024FF4867601271846984648
:1093600006FB034C01339CF8051101F0FF0E59B9BF
:10937000AB4202F58672F3D120B1164B93F8D42399
:10938000542A1DD0BDE8F08791687046B2F810A04D
:10939000D1F80090D2F814E0D9F80C1021EA0A01B3
:1093A000C9F80C10DEF8001021F00101CEF8001011
:1093B0008CF8058182F8FE70DAE70020BDE8F087BE
:1093C000B3F8DC230132A3F8DC23BDE8F08700BF4B
:1093D000BC000020481A01202DE9F041DFF8B480DC
:1093E00008EB401797F854340BB9BDE8F0810446F8
:1093F0000D46460152F0C0F9C0BB2448464400EB7C
:109400004410A6F8385452F0CFF998F80030D6F846
:109410005024A3B1D6F83C140124D2F8AC308C40CF
:1094200003F1C001420010F4004F90B202D15A681B
:1094300022435A600C339942F4D1BDE8F081D6F84A
:109440003C140124D2F8AC3001F1100203F1C00148
:109450009440420010F4004F90B202D15A68224367
:109460005A600C338B42F4D1BDE8F081084B93F87D
:10947000482402EB420203EBC203234493F8F55362
:10948000002DBAD0012387F83A34B6E7F40400205F
:10949000481A0120BC00002010B5044650F06CFBB7
:1094A0000146204689B2BDE8104095E738B50B4D1E
:1094B00000EB400005F63823C40003EBC00325444D
:1094C00093ED027AD3ED037AE7EE007AB0EE670A05
:1094D00050F052FBD5F8383A186038BDBC00002077
:1094E000F8B5A0F668042379DB0725D5657994F8EB
:1094F0004C3805F001073D46FBB1D4F848341A68F2
:10950000D36A5B08536294F8503823B1B4F85A38E0
:109510000133A4F85A3885F00101606C48F07CFDF5
:10952000012384F84F38002384F84D3884F84E38EE
:10953000A4F8563884F84C38F8BD94F84F68012EDA
:1095400003D194F84D3884F84E382046FEF7F2FFE8
:109550004EB9012385EA030184F84F38606CBDE8F9
:10956000F84048F059BD0023394684F84F38F5E7F4
:1095700038B5C569002D3DD02C68236A1B7B5BBBC9
:1095800020464EF04FFE236A5B6803B3236A5A6895
:10959000236A22F01F025968236A01F01F019B68A9
:1095A0001F33194421F01F01BFF34F8F00290ADD3B
:1095B00002F12003114410488B42C0F85C221A4685
:1095C00003F12003F8D1BFF34F8FBFF36F8F28460D
:1095D000BDE8384042F052B9AB68002BD0D01A68D1
:1095E00020469B8893614EF01DFE236A5B68002B2A
:1095F000CCD1ECE738BD00BF00ED00E038B5C46960
:1096000004B938BD256828464EF00CFE2B6A1B7B3A
:1096100023B92046BDE8384042F030B9A368002B9A
:10962000F7D01A6820469B889361BDE8384042F025
:1096300025B970B505460926084C013E00D170BD1C
:1096400094F9000016F08EFC031E04DB6178EA1822
:109650001172A278EA540434EFE700BFB0BC0508E9
:1096600010B590F834300446012B04D001200023BB
:1096700084F8293010BD006B03681A7B3AB94AF0B0
:10968000B3F8C24300F0010302F00100F0E71B6AE7
:10969000002BF4D0002010BD38B5124D044694F8CC
:1096A0003430012B06D0002384F829300023012018
:1096B000E36238BD206B03681A7B7AB94AF094F8EC
:1096C00000F0010384F82930C307EFD5D5F828331B
:1096D000E26A9B1A002BE2DB002038BD1B6A002BDC
:1096E000ECD0F3E7481A012010B5FF22044690F8A9
:1096F0003410006B4EF01AFB104B2046D3F8283381
:109700000233E362FFF7C8FF94F83430012B00D036
:1097100010BD0022A021206B4EF0DCFA94F820202E
:1097200094F834309200012B42F01002D2B2EFD103
:10973000206BB021BDE810404EF0CCBA481A012091
:10974000CB0700D5704710B50446FFF7CDFF94F85E
:109750003430012B00D010BD094BA1691B6C206B6C
:10976000B1EB930F4FEA93024FF0020306D2520877
:109770005B0091429BB201D2FF2BF8D9838010BDD0
:10978000481A012038B504460D46FFF785FF06222A
:1097900094F83410206B4EF0C9FA0121E388D822E6
:1097A00084F82910206B94F83410B5FBF3F34EF0D5
:1097B000DFFA034BD3F828330F33E36238BD00BF21
:1097C000481A0120838853B32DE9F041044600264E
:1097D000DFF84C800127E3882046258A03FB05F546
:1097E000FFF75AFF062294F83410206B06FB05F5AC
:1097F0004EF09CFAE388D82294F83410206B01369E
:1098000084F82970B5FBF3F34EF0B2FAD8F8283398
:10981000A2880F33B242E362DDD8BDE8F081704721
:10982000481A012070B50F4D95F8893303B970BD02
:10983000C3880446D5F89063B6FBF3F60A4BC3F829
:109840004461FFF729FF3346102294F83410206B4F
:109850004EF08EFAD5F828330022023385F889239A
:10986000E36270BD481A0120000001202DE9F04F8D
:10987000574F0D461E46C18897F8893399B0044664
:109880009046B5FBF1F903BBDFF84CA1DAF844319F
:109890004B4532D101FB195594F83430491BB14284
:1098A00034BF8EB2B6B2012B55D0D7F8283320463C
:1098B0000233E362FFF7F0FE18B394F83430012B63
:1098C0003DD0304619B0BDE8F08FD7F89033DFF8BF
:1098D00008A1B3FBF1FBCAF844B1FFF7DDFE5B461C
:1098E000102294F83410206B4EF042FAD7F8283347
:1098F0000233E362002387F889332046FFF7CCFE6A
:1099000018B9002019B0BDE8F08F4FF0FF33206B7D
:10991000132294F83410CAF844314B464EF028FA1A
:10992000D7F8283320460233E362FFF7B5FE00285C
:10993000E7D0E188CAF84491B5FBF1F9AAE7206BBA
:1099400049F052FFC0F30113023B012BB9D8204666
:10995000FFF7CAFEB5E78DF81C3002AA8DF8443037
:1099600004A98DF858301B4B8DF80E502D0A089322
:1099700003AB8DF80D5009930423256B0B93002343
:10998000049201AA8DF80A3028468DF80F300A9308
:109990008DF8303017930592CDF83C801096CDE9C4
:1099A0000D33CDE91233CDE9143303238DF80C3098
:1099B000069397F888338DF80830C0238DF8093066
:1099C00040F08EFA2A68136A002BFCD16DE700BFC5
:1099D000481A012089880008000001202DE9F84379
:1099E000DDF820800F4616460021202204461D4641
:1099F00051F068FBB8F1000F0CD0D8F80030B8F87F
:109A00000A20E3811B0C2382D8F804306282E382AF
:109A10001B0C238338464EF0B3FCF30619D4431EC7
:109A2000B8B107EB000C01E0013B12D31CF801EDCB
:109A3000BEF12E0FF8D1C01A03F10109421EB9443C
:109A4000032AA8BF0322082BA8BF082390461A4662
:109A500006E008280246B9464FF00008A8BF0822D1
:109A60004FF02033394620462360636051F0D2FA2C
:109A7000164B04F10800424649462381837051F099
:109A8000C9FA611EE21D11F801CFACF16103ACF11E
:109A9000200C192B98BF81F800C09142F3D104F13A
:109AA0000A0011F8013FA3F16102203B192A98BF77
:109AB0000B708142F5D1182365832D0CE672237358
:109AC000099BA582E361BDE8F88300BF2020200048
:109AD0002DE9F04FDFF8509485B0D9F82803C9F884
:109AE0002C03002B5ED00C46154601F5FE7603EBE9
:109AF000020B1DE0002D62D0D9F85C33AB4200F0C0
:109B0000C580D9F85833AB4200F0F780D9E9D83195
:109B1000AB424BD88D42C0F07281691A204648F0A2
:109B200047F9013504F5007406F500765D4539D036
:109B3000D9F86823AA42DDD8AA1AD9F87873D308CD
:109B4000396B02F0070802338B4202D3BA6B93429F
:109B50000BD939461846039348F0FAF8039B074699
:109B6000002800F06C81C9F878033A79002A40F0A7
:109B70001D81D7F828A0BAF1000F00F059813A6B87
:109B8000013520464FF400719B1AFA6804F5007401
:109B900006F5007608EBC3083B4602EB4822D047A7
:109BA0005D45C5D1002005B0BDE8F08F8D42B4D22F
:109BB0004FF400720021204651F084FAB1E74FF4CF
:109BC00000722946204651F07DFA8023CA4A84F863
:109BD000BE310C2384F8C231D9F85813D9F8503368
:109BE0009142C4F8C611C4F8CA3100F30D81C34ACA
:109BF000013BC34F82FB0102C81787FB01C70A4420
:109C0000C0EB6212C0EB2730BE4F87FB02C7C2EB2E
:109C1000821C84F8C1018010A1EB0C01174420F0D4
:109C20003F0001310843D117C1EBE71184F8C001AF
:109C30000A4484F8BF21B04A934200F3F180AF4A4E
:109C4000AF4882FB0312D91780FB03701A44C1EBA3
:109C50006212C1EB2031AB4880FB0270C2EB82176D
:109C600084F8C5118910DB1B104421F03F0101333A
:109C70001943D317C3EBE01384F8C4111A4484F8D2
:109C8000C3214AF65523A4F8FE314AE74FF0FF33CB
:109C900000274FF4F072201D84F8EC31394684F827
:109CA000ED3184F8EE3184F8EF3152232370637084
:109CB0006123A37084F8E7314123E37084F8E6312F
:109CC000722384F8E43184F8E531D9F87033C4F8AC
:109CD000E83151F0F7F95523C4F8F07184F8FE31FA
:109CE0006FF05503C4F8F471C4F8F87184F8FC718E
:109CF00084F8FD7184F8FF3113E74FF400720021FE
:109D0000204651F0DFF9804B022203CB45F6EB03EE
:109D10002274227323809023A273A370F82384F803
:109D20002C200822C4F803006273C4F8071063757E
:109D3000D9F85813D9F850335B1A2362D9E9D813EC
:109D40005B1A4AF6552163620023E372E37363777B
:109D5000A377E37784F82D3084F82E3084F82F3001
:109D600084F83130694BA3613E232377012384F8C3
:109D70003030802384F84030654BC4F84230654B66
:109D800084F84620A4F8FE11634A03CBC4F84B10B4
:109D90001988C4F847009B78A4F84F1084F8513014
:109DA00003CAC4F85200C4F85610BAE64FF4007261
:109DB0000021204651F086F93B6CB8F1000F45D1E7
:109DC00004F1200A002B00F081803B6B11225349E3
:109DD0002046CDE90088FFF701FE3B6C1A6C002A93
:109DE00000F081801B6B504611224D49CDE900885F
:109DF000FFF7F4FD04F1400A4FF4E07871E0E91A4E
:109E0000204647F0D5FF8CE6FF22013B84F8C121B4
:109E10004FF6FF72A4F8BF21374A93427FF70FAF86
:109E2000FF2384F8C5314FF6FF73A4F8C33128E748
:109E300051464FF40072204651F044F971E6231F59
:109E4000384A43F8042F9E42FBD16AE6002B7F6C10
:109E500014BF02230123C3EB0813002F3FF461AEAC
:109E6000013BBF6C002B01DD002FF9D1A2464FF45E
:109E70000078002F3FF455AE0AEB080303959A468D
:109E80000BE00025A8F12008CDE900E5FFF7A6FDCD
:109E9000BF6CCFB1B8F11F0F16D93D7907F11C0E79
:109EA000112239683B6BAAEB0800002DE9D17A79C1
:109EB000A8F120083D6942F02102CDE900E5FFF755
:109EC0008DFDBF6C002FE5D1039D2AE6CDE900880A
:109ED00043464FF4F0780822D9F854132046FFF790
:109EE0007DFD7F6CC5E75046434611220C49CDE904
:109EF0000088FFF773FD7DE7FF03FB0083200882E6
:109F00009755454181808080504906083F00FF00F9
:109F100029940E0D5C490608684906084849060858
:109F20004C490608DEADBEEF481A012048B18288D0
:109F30004FF000430349B2FA82F20868D34003436A
:109F40000B607047003C014090F8E330052B03D8CC
:109F500090F82631032B01D00020704790F82B3168
:109F6000022BF9D0042BF7D00720704710B490F8DB
:109F7000443000F10801484A012BC2F84C146DD05E
:109F80008368464CD968A34221F46001D960D9683E
:109F900041F46001D960996B21F440119963996B88
:109FA00041F480119963996B21F4F8419963996B9D
:109FB00041F488419963996821F470219960996806
:109FC0009960996821F4401199609968996059687D
:109FD00021F480615960596821F4805159605969B0
:109FE0006FF30B0159615969596148D0D9682B4CFD
:109FF00021F0E061A342D960D96841F0E061D96005
:10A00000996B21F440119963996B41F48011996324
:10A01000996B21F478219963996B41F4102199632C
:10A02000996821F47021996099689960996821F480
:10A030004011996099689960596821F4806159606C
:10A04000596821F48051596099696FF30B01996146
:10A05000996999611AD0002380F844301048114B57
:10A06000848DC18D408D091BC2F85444C2F8500440
:10A070005DF8044B93FBF1F3C2F858347047D4F801
:10A08000041341F40001C4F80413AFE706494B6818
:10A0900043F400034B60DEE7481A01200020014032
:10A0A000007AF01F8038010000230140704700BF94
:10A0B000036882B023F002030360036823F0040303
:10A0C0000360036823F040030360036823F0200368
:10A0D0000360036823F010030360036823F0800328
:10A0E000036083699B0603D5C36943F02003C36102
:10A0F00083699A0701D5002383628369DB0701D452
:10A100000123836100224260036823F0010303609E
:10A110000192019B3F2B06DC00BF019B01330193A1
:10A12000019B3F2BF8DD03684FF0010C074A43EA1F
:10A130000C030360002381F800C04B70B2F85C345C
:10A1400063449BB2A2F85C3402B07047481A012005
:10A1500000EB80036E494FEA800C70B54FEAC30EE6
:10A1600001EBC303D3F860345B681A68D4060DD5DD
:10A170009A69D2060AD5DA697144184642F010028B
:10A1800001F27441BDE87040DA6191E71A68960700
:10A190001CD59A69950719D50CEB000201EBC20298
:10A1A00092F8794424B192F87844002C40F09180E0
:10A1B000604401EBC00090F8782412B190F8792443
:10A1C0001AB91A6822F002021A6070BD1A685407A0
:10A1D00022D41A68560639D59A69550636D5604490
:10A1E00001EBC00090F87A24002AEED090F8764473
:10A1F000484990F878045A680A404749224342EA9D
:10A200000042114359601A6822F002021A601A686B
:10A2100042F004021A6070BD9A695207D9D50CEB5E
:10A22000000201EBC20292F87A441CB192F8784421
:10A23000002C5DD1604401EBC00090F87824002A26
:10A24000C3D11A6822F004021A6070BD1A6894061D
:10A2500026D59A69920623D5DC690CEB0002002012
:10A2600044F0200401EBC202DC61196821F0020114
:10A270001960196821F004011960196821F0400182
:10A280001960196821F020011960196821F0100186
:10A290001960196821F08001196082F8750470BD99
:10A2A0001A6822F002021A601A6822F004021A6088
:10A2B0001A6822F040021A601A6822F020021A601E
:10A2C0001A6822F010021A601A6822F080021A60DE
:10A2D00070BDD2F87C44651CC2F87C542478E4B28A
:10A2E0009C6292F87844013CE4B282F878445FE7DB
:10A2F0005C6AD2F88054E4B26E1CC2F880642C70A0
:10A3000092F87844013CE4B282F8784492E700BFC6
:10A31000481A0120008000FC0024008200EB80022B
:10A320000346810030B41D4D05EBC202D2F8600433
:10A330004068046824062AD58469E40506D5C46902
:10A3400044F48074C461012482F8744482699405E1
:10A3500009D5C269012442F40072C261CA1805EB32
:10A36000C20282F874448269520509D5C269012487
:10A3700042F48062C261CA1805EBC20282F87444DA
:10A38000194405EBC103C90093F874340BB930BC10
:10A390007047034B30BC19448AE600BF481A0120BD
:10A3A000BC1E01200020B9E70020D1E60120B5E75E
:10A3B0000120CDE60220B1E70220C9E6F0B506682B
:10A3C0008C680F68B569002F56D02E4B3B40B3F117
:10A3D000005F4FD007F01F0C04F11F0327F01F028E
:10A3E0009C442CF01F0CBFF34F8FBCF1000F0BDD12
:10A3F000944402F12003DFF890E06345CEF8682230
:10A400001A4603F12003F8D1BFF34F8FBFF36F8FCC
:10A4100002684FF480636B6153696F602C6243B3D1
:10A420004B68F56963B31E46164B3340B3F1005FCA
:10A430001AD006F01F0226F01F011F32224422F01C
:10A440001F02BFF34F8F002A0ADD0A4401F12003E7
:10A450000D489342C0F87012194603F12003F8D159
:10A46000BFF34F8FBFF36F8F4FF480636E606B61EC
:10A470002C62F0BD3246CCE73B463246034FCAE77A
:10A48000034EF3E70000FFFF00ED00E05400002062
:10A49000580000202DE9F8430468D4E904356768C2
:10A4A0001A7DD3E90061002D52D01F2AE8613BD804
:10A4B0002020D5F8008000FA02F242F01802B260C3
:10A4C0002A7D1F2A3CD9203A202000FA02F242F0CD
:10A4D0001802C8F80C206A68002008601060304636
:10A4E000116841F01001116093F80890A269494683
:10A4F0004AF046FE2D7AE269404629464AF040FE7F
:10A50000284B13F809005A5D335843F001033350C8
:10A5100058F8023043F0010348F802307B6843F0FA
:10A5200003037B60BDE8F883203A2020D5F8008043
:10A5300000FA02F242F01802F2602A7D1F2AC2D805
:10A54000202000FA02F242F01802C8F80820C2E700
:10A550001F2AD8611DD8202000FA02F242F018020A
:10A56000B2600020A2690860086840F0100008602E
:10A5700030461C7A21464AF003FE0A4B1A5DB35856
:10A5800043F00103B3507B6843F002037B60BDE8F6
:10A59000F883203A202000FA02F242F01802F2601A
:10A5A000DFE700BF044A060810B1036882889A6199
:10A5B000704700BF18B1838802681B04936170471D
:10A5C000D3B2012B1DD802EB42020F4B10B54FEA5C
:10A5D000820E03F5217C0EF1080402E01C33634572
:10A5E0000DD01A788242F9D15A788A42F6D11A5996
:10A5F000002AF3D00EF1040E03EB0E0010BD002074
:10A6000010BD0020704700BFD0BC050810B40C4C32
:10A61000002304F5A06C01E0152B0CD003EB4302E2
:10A6200001331CF802108142F6D1144494F902055A
:10A630005DF8044B70474FF0FF305DF8044B7047F6
:10A64000481A0120D3B2022B21D802EB420270B586
:10A650004FEA820E0F4C002223460EF10C0503E058
:10A6600001322C33172A10D01E68B042F8D193F86B
:10A6700004C08C45F4D15E59002EF1D02C210EF18E
:10A68000080301FB0233E01870BD002070BD0020FC
:10A69000704700BFF0B70508002838D0002330B558
:10A6A0001B4D90F804C005F5A06401E0152B2CD0DB
:10A6B00003EB43020133A15C6145F7D11544046803
:10A6C00090F805E095F90235DAB2022A1DD803EBBD
:10A6D0004303104800224FEA830C03460CF10C059B
:10A6E00003E001322C33172A0FD019688C42F8D1BD
:10A6F00019797145F5D159590029F2D02C210CF165
:10A70000080301FB0233184430BD002030BD704700
:10A71000481A0120F0B705080348D0F8A83113B152
:10A7200000F5CC7018477047000001200348D0F8AE
:10A73000D43113B100F5E2701847704700000120D2
:10A740000348D0F8003213B100F5F870184770478D
:10A75000000001200348D0F82C3213B100F5077037
:10A7600018477047000001200348D0F8583213B151
:10A7700000F5127018477047000001200348D0F818
:10A78000843213B100F51D70184770470000012096
:10A790000348D0F8B03213B100F52870184770475D
:10A7A000000001200348D0F8DC3213B100F533700B
:10A7B00018477047000001200348D0F8083313B150
:10A7C00000F53E7018477047000001200348D0F89C
:10A7D000343313B100F54970184770470000012069
:10A7E0000348D0F8603313B100F554701847704730
:10A7F000000001200348D0F88C3313B100F55F70DE
:10A8000018477047000001200348D0F8B83313B14F
:10A8100000F56A7018477047000001200348D0F81F
:10A82000E43313B100F5757018477047000001203C
:10A830000348D0F8103413B100F580601847704712
:10A84000000001200348D0F83C3413B100F22C4042
:10A8500018477047000001204FF02C0C01380B4BBB
:10A8600082B00B4A0CFB00330A49D3F898318B4273
:10A8700014BF4FF480034FF40013116B194311639D
:10A88000126B13400193019B02B07047000001203E
:10A890000038024000600240F8B501381E46134CF3
:10A8A0002C2315460F4603FB0044114BD4F89801A6
:10A8B000984214BF9620952048F010FEC5F301126F
:10A8C000A90994F9B001C4F8A871C4F8B46141F0C1
:10A8D000D5F894F9B031002B07DB03F01F000122FB
:10A8E0005B090449824041F82320F8BD00000120A3
:10A8F0000060024000E100E00120FEF7A3BC00BFC1
:10A900000220FEF79FBC00BF0420FEF79BBC00BFE7
:10A910000820FEF797BC00BF1020FEF793BC00BFD5
:10A920004FF47870FEF78EBC4FF47C40FEF78ABC83
:10A9300030B1036882881B691A4214BF01200020CD
:10A94000704700BF2DE9F04F0E4683B00446154610
:10A95000002800F0C7800268644B13449B0A644AD5
:10A96000C6F34119134493F8640748F0B7FDC6F3E2
:10A970008103B4F804E006F00301246801939EFA11
:10A98000AEF0B0FA80F001F1FF383EFA00F367D084
:10A9900001220327009603E001303EFA00F35ED067
:10A9A00002FA00F313EA0E03F6D0D4F800C093FACB
:10A9B000A3FBBBFA8BFB93FAA3FABAFA8AFA4FEA23
:10A9C0004B0BB8F1010F4FEA4A0A07FA0BFB01FAE9
:10A9D0000AFA2CEA0B0C4CEA0A0CC4F800C04ED957
:10A9E000D4F80CC093FAA3FBBBFA8BFB93FAA3FA3F
:10A9F000BAFA8AFA4FEA4B0B02294FEA4A0A07FAD7
:10AA00000BFB09FA0AFA2CEA0B0C4CEA0A0CC4F804
:10AA10000CC0C1D193FAA3FABAFA8AFA4FEA132CFE
:10AA2000BAF1070F45DCD4F820C093FAA3FABAFABA
:10AA30008AFA93FAA3F34FF00F0BB3FA83F34FEABA
:10AA40008A0A01309B000BFA0AFA05FA03F32CEA92
:10AA50000A0C4CEA030323623EFA00F3A0D1009EE5
:10AA6000B8F1010F08D86268C6F3001322EA0E029B
:10AA70000EFB03F31343636003B0BDE8F08FD4F81B
:10AA800008C093FAA3FBBBFA8BFB93FAA3FABAFABA
:10AA90008AFA4FEA4B0B019E4FEA4A0A07FA0BFB70
:10AAA00006FA0AFA2CEA0B0C4CEA0A0CC4F808C0A5
:10AAB00096E7D4F824A09CFAACFBBBFA8BFB9CFA7B
:10AAC000ACF34FF00F0CB3FA83F34FEA8B0B9B0000
:10AAD0000CFA0BFC05FA03F32AEA0C0A4AEA030310
:10AAE000636259E74FF0FF3339E700BF0000FEBF54
:10AAF000F0B7050800B125E770472DE9F84FDFF8FA
:10AB000038832823064603FB0083D3F86054D3F828
:10AB10006874D3F86C44002D00F0558127B197F983
:10AB20000630002B40F04F8124B194F90630002B01
:10AB300040F04981731CDBB217B11522FB71BA7169
:10AB400014B11622E371A2714FF02809287E48F053
:10AB5000C5FC214609FB06F938464CF06BFC042283
:10AB600008EB090A38469AF87034002B0CBF4FF0F6
:10AB70001E0B4FF03E0B5946FFF7BCFF2046042248
:10AB80005946FFF7B7FFDAF860349F4814225C6833
:10AB90000021484450F096FA236823F00103236013
:10ABA0009A4B9C4203F5F23340F00F811A6A42F44B
:10ABB00000121A621A6A22F400121A62944BB0EE62
:10ABC000084A9FED947AF7EE003A9A6828239FEDA1
:10ABD000925A40F2145C03FB0686C2F382228F4B2A
:10ABE000B6F872940026134493F86C27D8F84030D6
:10ABF000D34007EE903AF8EE677AC7EE275A07EE91
:10AC0000909A9FED877AF8EEE77AC7EE274ADFED54
:10AC1000857AB0EE007AE5EE877AA5EE875A25EEC2
:10AC2000844A37EE856A74EEE72AB9F5C87F06F1E3
:10AC30000107D5BF4FF4967278226423322307EEC2
:10AC4000907AD8BF4FF4167E1344A2F13202F8EE88
:10AC5000E76AC8BF4FF4827E07EE903AD4BF6146E0
:10AC60004FF4FA7166EEA56AB8EEE77A7144C7EE62
:10AC7000267A07EE102AB8EEC77A37EE447A77EED6
:10AC8000E37AFCEEE77A17EE903AC7EE267AFCEE0E
:10AC9000E77A17EE900A07EE90EAB8EEE73A07EE89
:10ACA000901AF8EEE77A23EE243A83EE277A37EE0D
:10ACB000453A32EEC77AC3EE267A77EEE37AFCEEB7
:10ACC000E77A17EE901AC7EE267A77EEE37AFCEE73
:10ACD000E77A17EE902A02F1020E0EEB0108B0EEB1
:10ACE000467A07EE908AF8EE677AA6EEA77AF4EE37
:10ACF000C74AF1EE10FA00F3818043EA000E5FFAD2
:10AD00008EFEBEF10F0F7BD841EA020E1FFA8EFEB7
:10AD1000BEF1FF0F74D81B05000403F07F6392B2ED
:10AD200000F47F000343404843EA067300EA012130
:10AD30000B431343226822F001022260226822F4AE
:10AD4000F8522260002223612368114643F0010378
:10AD50002360A36823F40043A360A3686FF30A038E
:10AD6000A360236823F440132360636823F4004343
:10AD70006360236843F00103236095F91A0040F0F3
:10AD80007DFE95F91A20AB7E002A08DB59090122C5
:10AD900003F01F0302FA03F3244A42F82130002291
:10ADA00095F91900114640F069FE95F919206B7E5E
:10ADB000002A08DB5909012203F01F0302FA03F3FA
:10ADC0001A4A42F82130BDE8F88F194A944207D157
:10ADD0001A6A42F480021A621A6A22F48002ECE6CD
:10ADE000144A94427FF4EAAE1A6A42F400021A62EC
:10ADF0001A6A22F40002E0E63E4616E701316CE7EB
:10AE00000F2FF9D1002395E7BC1E0120005400400C
:10AE100000380240286B6E4E00001643F0B705085C
:10AE2000002474490000704200FFFF0000E100E0D0
:10AE300000580040005C0040481A012008B1002280
:10AE400080E5704770B50E4C94F8F86AAEB104F521
:10AE50008764002503E001352034B5420DD0237FFF
:10AE6000002BF8D0E06800220028F4D00135217DC5
:10AE7000FFF768FD2034B542F1D1012070BD00BF5D
:10AE8000BC00002070B590F8723004461D09013DE9
:10AE9000052D11D81B4E03F00F0306EB4502B2F847
:10AEA000741741FA03F2D20706D590F87520012AEB
:10AEB000D0B205D0012070BD94F875300120FAE7BA
:10AEC00098400138084050F00BFC73190E4A93F873
:10AED0008037034402EBC30552F83320AB88106976
:10AEE0001840E8D0002394F873200221284684F803
:10AEF0007530FFF727FD226E136843F008031360D7
:10AF0000D8E700BFF0B70508881F0120014B53F8B0
:10AF10002000704750280040014B43F82010704734
:10AF200050280040204B2148196C214A41F08051A3
:10AF300030B482B01964196CFF2401F08051019182
:10AF40000199016841F480710160CA20196C41F4D3
:10AF500080611964196C01F4806100915321009D96
:10AF60005462506251625B6FDB0013D4114B0022BC
:10AF70001149C3F85428C3F85828C3F85C28C3F80B
:10AF80006028C3F86428C3F86828C3F8501802B0D2
:10AF900030BC7047A2F50062074BD2F850289A42A5
:10AFA000E4D102B030BC704700380240007000406D
:10AFB0000028004000200040316665422DE9F84F2E
:10AFC000D0F894700446524B00F16406FDB227F0AD
:10AFD000FF09826800F1180A103D4846D2F8008047
:10AFE000A3FB05352D0929464AF012F9626D0023AD
:10AFF000B2F5807F84F858307ED00DD8102A00F04A
:10B0000083805CD8012A45D0042A16BF6FF4006102
:10B010006FF008013C230EE0B2F5805F70D0B2F50E
:10B02000803F3AD0B2F5806F15BF6FF400616FF0CA
:10B0300008013C230423324608F11806404656F81E
:10B0400003C001EA0C01F150D4F854B0594649F05C
:10B05000EBFEBBF5807F2DD023D8BBF1100F3ED087
:10B0600036D8BBF1010F02D0BBF1040F33D14FF042
:10B07000080C336852462946484643EA0C033360BD
:10B08000402323624AF07CF83B6843F010033B60A6
:10B09000BDE8F88F6FF00801CDE76FF008013C23A1
:10B0A000C9E7BBF5805F22D0BBF5803F1AD0BBF566
:10B0B000806F10D108F11C064FF0080CD9E7402A28
:10B0C00015BF6FF400616FF008013C230023B2E765
:10B0D000BBF1400FCBD03C364FF4006CC9E74FF4C6
:10B0E000006CC6E708F154064FF0080CC1E708F100
:10B0F0001C064FF4006CBCE76FF0080104239AE7CC
:10B100006FF40061042396E76FF4006193E700BFDA
:10B11000ABAAAAAA2DE9F04F067991B00546046EB4
:10B1200016F002093BD090F87280B8F1000818BF01
:10B130004FF001084FEAC802236823F4F873236034
:10B14000A36823F00103A360236823F001032360B5
:10B15000614B9C4274D0614B9C4223D0604B9C421B
:10B1600000F084805F4B9C4200F08B805E4B9C42E1
:10B1700071D05E4B9C4200F0A3815D4B9C4200F07D
:10B1800049825C4B9C4217D103F5DE33196A41F0CA
:10B1900000411962196A21F0004119620CE04A4627
:10B1A000C846C9E703F5FA33196A41F40031196258
:10B1B000196A21F4003119622368D5F808A0D8076C
:10B1C0006F793AD4BB022068390206F0010603F415
:10B1D000805301F480610B43474901400B4343EA2C
:10B1E0008603134323603B03626803F4005322F495
:10B1F000405213436360A36823F44073A360364B4B
:10B200009C4249D0354B9C427ED0354B9C4200F04D
:10B210004581344B9C4200F0E981334B9C4200F065
:10B220007981324B9C4200F00082314B9C4200F00D
:10B230001882304B9C4200F08B8111B0BDE8F08F3A
:10B2400003F59433596A41F010015962596A21F0AB
:10B2500010015962B0E703F5F433196A41F4801123
:10B260001962196A21F480111962A5E703F5F83310
:10B27000196A41F480211962196A21F48021196246
:10B280009AE703F5F633196A41F400211962196A45
:10B2900021F4002119628FE7DFF868B0174ADBF864
:10B2A000903003F0030343F44033934200F00181F4
:10B2B000B3F1031F38D0013A934200F03E8142F0CF
:10B2C000EDFFDBF80830DBF80810C3F303130C4A7A
:10B2D000C1F3423111E100BF0010014000440040C1
:10B2E00000480040004C0040005000400014014065
:10B2F00000780040007C0040F369FFEF020003008B
:10B30000F0B7050800380240DFF8DCB2AE4ADBF8DF
:10B31000903003F00C0343F44023934200F0C980C3
:10B32000B3F10C1F40F01081DBF870309A0784D520
:10B330004FF40043BAF1000F3FF47FAF03EB5A0321
:10B34000B3FBFAF39BB2E360FB070BD51EB1636856
:10B3500043F480336360B9F1000F03D0636843F4B2
:10B360000033636095F874301BB1636843F40043A5
:10B370006360A3683F0743F48053A360636823F4CA
:10B3800090436360A36823F02A03A36003D5A368F6
:10B3900043F00803A360236843F001032360002EF9
:10B3A0003FD0EF6B002F00F0F2806B6CFEB227F005
:10B3B000FF090022099304F12403103E484600933C
:10B3C0004FF4806305934FF4807303934FF48033FD
:10B3D0000A937E4BA3FB063600230293360904939F
:10B3E0003146CDE90B33CDE90D336B690193EB6841
:10B3F00008930023CDE9062349F00AFF6A46314647
:10B40000484649F0BDFE3B6843F001033B60704B8A
:10B41000A2689B5D42F040024B44A2605B689BB215
:10B420006B65B8F1000F3FF408AF2E6C002E00F0F2
:10B43000BF80F1B2AA6C654B26F0FF07A1F11005A1
:10B4400009923846A3FB0535002301932D09089383
:10B450002946CDE90333CDE90633CDE90B33CDE9F8
:10B460000D334023029304F1280300934FF48063CB
:10B4700005934FF480330A9349F0CAFE6A46294681
:10B48000384649F07DFE336843F01003336023688B
:10B4900043F04003236011B0BDE8F08FDFF848B1FE
:10B4A0004C4ADBF8903003F0300343F440139342EE
:10B4B00011D1DBF8003099077FF5BFAE464B39E775
:10B4C00003F59233596A41F020015962596A21F01B
:10B4D0002001596270E6B3F1301F3FF425AF103AF6
:10B4E00093422AD042F0DAFEDBF80830DBF808108D
:10B4F000C3F30313394AC1F3822113440A4493F876
:10B50000883792F86C2720FA03F3D340002B7FF49E
:10B5100011AF92E6DFF8D0B0314ADBF8903003F497
:10B52000407343F040739342C3D0B3F1032F3FF411
:10B53000FBAEA2F580729342D4D142F0AFFE034637
:10B54000002B7FF4F7AE78E6043A9342F5D0C9E7D2
:10B5500003F5DE33234AD3F8903003F4404343F03D
:10B560004043934200F09F80B3F1C02F00F09080E1
:10B57000A2F580429342E0D042F090FE1A49174A69
:10B580008B688968C3F30313C1F38221B5E723688D
:10B5900043F480732360A36843F00103A36023682E
:10B5A00043F020032360236843F01003236038E74F
:10B5B000236843F080032360236843F04003236043
:10B5C00011B0BDE8F08F00BF08000C00ABAAAAAA1A
:10B5D000044A0608200030000024F400F0B70508F3
:10B5E00000020003008000C000380240DFF8C8B04D
:10B5F000304ADBF8903003F0C00343F44003934239
:10B600003FF457AFB3F1C01F3FF48EAE403A9342C0
:10B6100093D067E703F5E033196A41F0804119627E
:10B62000196A21F080411962C6E5234A2349D2F8FC
:10B63000903003F4406343F040638B4223D0B3F176
:10B640000C2F2BD01E4A93423FF477AF42F026FED8
:10B6500019491C4A8B688968C3F30313C1F342314B
:10B660004BE7154A1849D2F8903003F4405343F0A1
:10B6700040538B4207D0B3F1302F09D0134A934285
:10B680003FF45BAF78E7136898077FF5D6AD15E711
:10B69000094B1B6F9A077FF5D0AD49E6136F9B07E7
:10B6A0007FF5CBAD44E6044B1B6899077FF5C5AD2C
:10B6B00004E700BF8000C000003802400008000C12
:10B6C0000004000CF0B70508002000300010003026
:10B6D00038B50409013C052C1AD80F4D00F00F03B2
:10B6E00005EB4402B2F8740740FA03F212F00102CB
:10B6F00010D00122254402FA03F3013B18404FF019
:10B70000EFFF95F88037054A034402EBC30038BDCC
:10B71000002038BD104638BDF0B70508881F01204D
:10B7200070B586B00024054600F5887E0DF1040C46
:10B73000C0F80C411C4E0594C0E93F44C0E94144A7
:10B74000CDE90144CDE90344BCE80F00AEE80F00A9
:10B75000CEF8004095F82901C5F8546108B906B043
:10B7600070BDFFF7B5FF2946064698B1262322464D
:10B77000C3800E4B41F80C3F49F0B4FFB2880C492E
:10B780004FF00043B2FA82F20868D34003430B60E3
:10B7900006B070BD054B024641F80C3F06B0BDE84F
:10B7A000704049F09FBF00BF3B43413B318A0008D6
:10B7B000003C01402DE9F84F714E00EB400306EBD1
:10B7C000C303D3F84048002C00F09180642106F5B3
:10B7D0000A6293F85088054601FB00224700404664
:10B7E000C3F84C2847F07AFE4FEA5813012208F0BC
:10B7F0001F08013B02FA08F2032B08D8DFE803F028
:10B80000ADB302B95F490B6A23EA02030B627B19ED
:10B8100005F1010B06EBC3035FFA8BFB93F84408B9
:10B82000FFF756FF804618B1122380F807B08371E6
:10B830007B1906EBC30393F84508FFF749FF8246DF
:10B8400018B1132380F807B083717B1906EBC3038B
:10B8500093F84608FFF73CFF814618B1142380F89F
:10B8600007B083712F4450462E2106EBC70696F889
:10B870004828FFF73FF996F8492848460E21FFF778
:10B8800039F996F847282E214046FFF733F9236807
:10B890003D4A23F04003944223602AD03B4B9C4214
:10B8A00031D103F500331A6A42F480421A621A6AEF
:10B8B00022F480421A62636843F480536360236811
:10B8C0005B060CD4206840F217323149314B0140FD
:10B8D0000A4322606268134043F4E0636360E369F3
:10B8E00023F40063E361236843F040032360BDE871
:10B8F000F88F244B5A6A42F480525A625A6A22F4F0
:10B9000080525A62D7E7244B9C421BD0234B9C4267
:10B910000DD0234B9C42CED103F568435A6A42F4C2
:10B9200080125A625A6A22F480125A62C3E703F5FF
:10B9300082335A6A42F400525A625A6A22F400521E
:10B940005A62B8E703F5FE331A6A42F400421A62FB
:10B950001A6A22F400421A62ADE70A494B6923EAE7
:10B9600002034B6153E707494B6A23EA02034B6228
:10B970004DE704490B6923EA02030B6147E700BF67
:10B98000481A0120003802400030014000380040D1
:10B990004000FFFFFBF0FFFF003C0040003401408F
:10B9A0000050014008B51D20FFF792FE10B190F93C
:10B9B000063053B11E20FFF78BFE10B190F9063010
:10B9C00003B108BD5523C38008BD5523C380F1E7EB
:10B9D0002DE9F04F002391B0B84F0193B84BA7F673
:10B9E000940BB84D93F8423AB74EAA460293013BE6
:10B9F000DBB20093B54DA946D9F80050AB0AA3F5C8
:10BA00008013522B00F2D0805B4493F8F4330D2B5B
:10BA100000F2CA8016F90380029B012B00F013810B
:10BA2000029B022B02D1B8F1080F3AD10024214623
:10BA3000404610F033FB10F0BBFB90F900C0BCF1A6
:10BA4000000F18BFBCF1540F14BF4FF0010C4FF0A2
:10BA5000000C40F0EE800434A4B2102CE7D1019B1E
:10BA6000002B00F0AC80974A0CE05B4493F8F43371
:10BA70000D2B0ED8F35643450ED002F58672924533
:10BA800000F0998091680B689B0AA3F58013522BF4
:10BA9000EBD900234345F0D14B7999F80510994231
:10BAA000EBD109F11C094F45A6D1019B0AF5867A15
:10BAB0000133042B01939DD1854A4FF0010B92F87D
:10BAC000F83A02F5876AD94601330293029B4B4547
:10BAD00067D07B4BDAF80C7093F8562A9AF810303E
:10BAE0000093002F5DD07A4BD7F800B05D6879489D
:10BAF000BB88002D584401934FEA902040F3B0805A
:10BB00007049002405E0013401F58671AC4200F073
:10BB1000A4800B688342F6D16A4B4FF48672019D74
:10BB200002FB0434009B0322CAF80C708AF8103020
:10BB3000019BCAF81840B3FA83F6C6F11F035800F8
:10BB4000CAF80430BA7187F8079002FA00F7A16CBE
:10BB50000122D4F854C0394302FA00F002FA03F388
:10BB6000A164216D0143D4F8AC00216558490F78D8
:10BB700099B2002F00F06A8143EA0C036365CBF8A9
:10BB80001850FCF70BFB09F101092046FCF7DAFA23
:10BB90000AF1200A40F20113B9F1090F2AF8043C16
:10BBA00094D111B0BDE8F08F009B012B7FF679AFE7
:10BBB0004FF000083AE7BCF1000F7FF472AF48463F
:10BBC000FCF786FA99F805E0C3B2022B00F2A983CC
:10BBD00000F1010C404A0CEB4C0C02F57D704FEA71
:10BBE0008C0C03E02C32904200F09B8313689D4242
:10BBF000F8D113797345F5D152F80C30002BF1D000
:10BC00003648002104E0102900F12C003FF449AF30
:10BC100042688C4601319A42F5D1314B2C2202FB0D
:10BC20000C3C9CF9B831002B7FF43BAFCAF808906C
:10BC30003BE7019B002B7FF416AF09F11C094F4530
:10BC40007FF4DAAE31E7B8F1010F3FF4EFAE09F15E
:10BC50001C094F457FF4D0AE27E7042C00F0048187
:10BC60004FF486711A4B01FB0533196904910029C1
:10BC700000F024839860013054210592C4B2144A24
:10BC800083F8101183F811416B1C5360049B184614
:10BC90001E685B790393FCF71BFAC3B2022B00F218
:10BCA000408300F1010E0C494FF0000C059A0EEB99
:10BCB0004E0EDDF80C804FEA8E0E1AE084C00508A7
:10BCC000481A0120C4000020F449060888BF05086E
:10BCD000BC0000200000FEBFF0B70508980101205D
:10BCE000000001200CF1010C2C31BCF1170F00F009
:10BCF00018830B689E42F5D10B794345F2D151F878
:10BD00000E30002BEED09E4606932C2300EB400015
:10BD1000DFF8948203FB0CF3C44603EB80039548E1
:10BD20000344954819694FF4867303FB050300200B
:10BD30001962C3F81CE004E010280CF12C0C3FF44D
:10BD400030AFDCF80410034601307145F4D12C21EA
:10BD50008A4801FB030393F9B81100297FF421AF4E
:10BD60004FF48671864883F8B9414FF08C0C01FB83
:10BD700005F1814C062A05914FEAA10100FB01F172
:10BD8000804800F54C7E059820447E4CC0F800C1E8
:10BD90000CFB01FC01EB4101C0F80CB001EB0111FF
:10BDA0000EEB4C0E04EB81044FF05401C0F8FCE0A4
:10BDB00083F8B8114FF033030599C0F8B830724BCF
:10BDC000C0F8B44003EB0104704B196C00F05182D1
:10BDD000072A6F4B6F48704A18BF1A466F4B18BF3F
:10BDE00003466548B1FBF3F3B1FBF2F2013B4FF4BC
:10BDF0008671013A01FB05019BB2A1F8BC20A1F8B4
:10BE000074302366059B03F1580100F108033046A6
:10BE100019440023A4F858306366E36549F04CF9EF
:10BE20003368039A43F0800333600C2A23D8DFE899
:10BE300012F0D201220022002200AD0122002200D5
:10BE40002200F6012200220022008801C6F12F06FE
:10BE50002D0402FA06F33A4643EA0C036365CBF875
:10BE60001850FCF79BF98EE60323484A82F8573AAC
:10BE700011B0BDE8F08F404A4FF486734FF0000BCD
:10BE80004FF0020E03FB0523304608AACDF828B078
:10BE900059693368079123F00103CDF834B0CDF828
:10BEA0003CB03360602308934FF480730E930123FA
:10BEB00009930A23CDE90B3E48F0B6FF0799B1F587
:10BEC000807F00F0128200F2E881102900F02682C3
:10BED00000F2FB81012900F01182042915BF4FF403
:10BEE000006308234FF03C0B4FF0000B06F11802E3
:10BEF00052F80B100B4342F80B30049B18790028C2
:10BF000040F0BA8133684FF0000B069943F001030B
:10BF1000336005E0BBF1100F08F12C0800F0A4819C
:10BF2000D8F804305A460BF1010B9942F2D113496B
:10BF30002C2303FB0213D3F89801194B984214BF2A
:10BF40009620952047F0CAFA039B0C2B00F28981BA
:10BF5000084A02EB4303B3F894C84FF48673064AC9
:10BF6000104803FB052300F26471A3F818C00023F6
:10BF700023E000BFF0B70508BC000020000001204E
:10BF80006B4CA40788110020C4000020481A01202F
:10BF900044950800D0DD06001055220040771B00B4
:10BFA00000600240B411002098010120964200F088
:10BFB00096810133042B00F0B78151F83320002A19
:10BFC000F4D1D0F884270132C0F8842700EBC300F5
:10BFD000DB00C0F8646719445846234690228E88D7
:10BFE0004CEA060C0026A1F804C0C549FEF754FC33
:10BFF0004FF48673C34A40214FF4403CC24803FBD0
:10C0000005280423D8F81C502A6842F010022A6040
:10C010002A6842F014022A60C4F8A860C4E91F66C6
:10C02000C4E92866D8F82020A1674FF48061C4F8DD
:10C0300098C04FF4804CC4F88410E9B2C4F89C3026
:10C04000C4F8942010390392D8F8B820A0FB01015D
:10C0500025F0FF00C4F890204FF48052D8F80CB0BF
:10C06000D940C4F88820059B0BF11802069122677D
:10C0700003F17002A54B04901A44D8F8B430C4F808
:10C080008CC0636749F07CF8D5F800E0059B0BF1A4
:10C09000100CC4F820E0D5F814E003F1B8029B4B73
:10C0A000C4F824E0D5F804E01A44039BC4F828E05F
:10C0B000D5F808E00699C4F82CE0D5F80CE0C4F8EF
:10C0C000DC300423C4F8C860C4F8E4304FF4806363
:10C0D000C4F8F060C4F8CC304FF40033C4F830E05A
:10C0E000C4F8E0300498C4E93066C4E93A664FF415
:10C0F0000066D8F80031C4F8B8C0C4F8D0604FF476
:10C100008046C4F8D830D8F8FC30C4F8D460C4F8FD
:10C11000BC3049F035F82B68D7F800B063636B6921
:10C12000A3636B68E363AB682364EB6863642B68A9
:10C1300043F010032B602B6843F014032B60BD8881
:10C14000F0E433684FF486726E494FF0020E23F02C
:10C150000103304602FB05124FF480514FF0040BEF
:10C16000516108AA336000230A930D930F93602353
:10C1700008934FF480730E93012309930A23CDE9AA
:10C180000B3E48F051FE4FF40063AFE633684FF4C6
:10C1900086725C494FF0000B23F00103304602FB2E
:10C1A00005121021CDF828B05161022233606023BE
:10C1B000CDF834B008934FF48073CDF83CB00E93B3
:10C1C000012309930A23CDE90B3208AA48F02CFE7B
:10C1D0004FF400638AE633684FF4867249494FF0A2
:10C1E000000B23F001034FF0020E02FB05120121A8
:10C1F0003046CDF828B0516108AA33606023099118
:10C2000008934FF48073CDF834B00E930A23CDF821
:10C210003CB0CDE90B3E48F007FE082366E63368E4
:10C220004FF4867237494FF0600B23F0010330461C
:10C2300002FB05124FF4807151610222336000232A
:10C240000E910A930D930F930123CDE908B30A23AE
:10C250004FF0040BCDE90B3208AA48F0E5FD0823A6
:10C2600044E64FF0000C78E64FF0FF324FF0000B41
:10C270005DE6274A274BB4E5FFF72AFA834638B133
:10C28000049B0221DA79FEF75DFB5423ABF80630FC
:10C29000736C43F40043736434E6B1F5805F28D0D7
:10C2A000B1F5803F1DD0B1F5806F15BF4FF400632D
:10C2B00008234FF03C0B4FF0040B17E60223164AFD
:10C2C00082F8573A11B0BDE8F08F402915BF4FF4FE
:10C2D000006308234FF03C0B4FF0000B06E6DB0039
:10C2E00079E608234FF03C0B00E608234FF0040BDF
:10C2F000FCE54FF400634FF0040BF7E50823F5E588
:10C30000E9810008BC000020ABAAAAAAC400002052
:10C31000882A1100A0BB0D00481A01204FF40063C9
:10C32000E4E500235B68FFDE00239B88FFDE00BF9F
:10C330002DE9F04F964C8BB094F8587A1FB9002035
:10C340000BB0BDE8F08F00222F2138460FF086FF9A
:10C3500006460028F3D090F80590D0F800A0A4F885
:10C360004490FEF799F90028E9D0D0E9015B002D4F
:10C37000E5D0DFF84C820023424601E0102BDED0EE
:10C38000516818462C3201338D42F7D12C22814B53
:10C3900002FB003090F9B821002AD0D12F21C4F837
:10C3A00000A0A0F8B811216C7B48814280F0CD80BC
:10C3B000090A7A4862600022A0FB011078492261D4
:10C3C000A26002090009A1FB0212E0605208A4F871
:10C3D0005C2A5200A4F85A2A94F83D2002F0FF018A
:10C3E000002A00F0C680022250466E4984F83D20A3
:10C3F00041F04AFE0122384684F83D20FFF768F9F3
:10C40000C4F8600A28B12F21C1804E21F279FEF7CD
:10C4100099FA654A0021C4F868BAB9F10C0FC4F85A
:10C42000701AC4F8801AC4F8881AC4F8901AC4F8AC
:10C43000941A106BC4F8645A40F400101063106B27
:10C4400000F4001000900098106B40F4800010631E
:10C45000126B02F480020192019A4FF04002C4F87C
:10C460006C2A4FF48062C4F8742A4FF48052C4F8E6
:10C47000782A4FF48042C4F87C2A4FF40032C4F882
:10C48000842A4FF00302C4F88C2A6FD8474A02EB83
:10C490004902B2F8B078BA46454A08370021C4F8D4
:10C4A0009C4A44F82720424601E0102966D0536890
:10C4B00008462C3201319D42F7D12C22354B02FB2C
:10C4C0000033D3F898013B4B984214BF9620952037
:10C4D00047F004F8002001E010284DD0D8F80430CF
:10C4E000013008F12C089D42F6D1534660223249B2
:10C4F000FEF7D2F954F827003FF030FD00287FF412
:10C500001EAFB47900276026089063004A4602A94E
:10C510001F4803F002030493E300CDE9026703F030
:10C520000803002600270593CDE9066746F0C2FC04
:10C5300000287FF404AFA3074946154821D541F0F0
:10C5400089FEB0FA80F04009FAE600F19C501B4ADF
:10C5500000F50C300A4400F28130A0FB0202920D7B
:10C56000013A92B2501CB1FBF0F121E78A460F4626
:10C5700092E784F83C1036E70020B6E74FF0FF3032
:10C580009BE741F051FDB0FA80F04009D8E600BFCA
:10C59000481A012000000120006CDC02598B4F0179
:10C5A000ABAAAAAA4C1A012000380240F0B705082D
:10C5B000AC240120006002401583000800366E01A3
:10C5C00098010120F8B50E4C94F8F87A9FB104F563
:10C5D000A764C7F109070925013D0ED0A668307987
:10C5E000FFF776F8217DF27908B1FEF7ABF9AF429B
:10C5F00004F1A004F0D10120F8BDAB68FFDE00BF5C
:10C60000BC000020F0B4046EEFF31183502282F3DB
:10C6100012880279920702D590F872203AB9012265
:10C6200080F86420DBB283F31188F0BC7047056C9E
:10C630002A6812F00102F5D1466A816A8E42EED074
:10C64000866A476A816A8F421ED8876A0169826258
:10C65000C91B89B28269DBB23244002680F864606B
:10C6600040202062EA606A686FF30F020A436A6042
:10C670002A6842F001022A60A26842F08002A260A9
:10C6800083F31188F0BC7047416A826A891A426A52
:10C6900089B28262DEE700BF027D0346C0691F2ABD
:10C6A0001B6805D9203A202101FA02F2DA60A9E7D5
:10C6B000202101FA02F29A60A4E700BF70B5037965
:10C6C0000646046E13F0020504D090F87250003D47
:10C6D00018BF01252368980602D5E369990659D445
:10C6E000E369DA0701D501232362E3699B0701D5DA
:10C6F00002232362E369580701D504232362E36917
:10C70000190701D5082323622368002D39D05A0662
:10C710000FD5E3695D060CD54023236296F875308A
:10C7200003F0FF05002B58D0336C13B13046FFF7F0
:10C7300069FF2368180618D5E369190615D5B26A8A
:10C74000736A9A42236844D013F0102FB26900D064
:10C750002368B36AD35CDBB2A362B36A3269013384
:10C76000B3FBF2F102FB1133B3622368DA0607D59B
:10C77000E369DB0604D5736B03B19847102323628A
:10C7800070BD23F0C0032360E3695B06EDD5402351
:10C790002362EAE7606AF36AC0B273B1316B98470B
:10C7A000236823F480732360A36823F00103A3604C
:10C7B000A36943F00803A36192E7F3697269D05457
:10C7C000F369F2680133B3FBF2F102FB1133F36159
:10C7D000E6E723F080032360C7E796F87200FEF7D0
:10C7E00077FF326E0121136823F00803136086F887
:10C7F0007510002898D02A462021FEF7A3F893E769
:10C80000BFF34F8F0549064BCA6802F4E062134339
:10C81000CB60BFF34F8F00BFFDE700BF00ED00E02E
:10C820000400FA0508B572B6FFF7EAFF30B583B029
:10C83000FEF778FB0320FEF769FB01284BD0324C52
:10C840000025324A0523C4F89850C4F89C50C4F817
:10C85000A020C4F89430BFF34F8FBFF36F8F4FF613
:10C86000FF01E2682A4B0A4013432A4AE360536FF0
:10C870003FF00EFC284B2949A3FB0023D4F8FC20F1
:10C880009B0C42F08072C4F8FC20C1F8C43A0B6CD7
:10C890002349244AA1FB031323499B09C2F8B01F73
:10C8A0005560013B1168B3F1807F41F001011160D7
:10C8B00007D34FF0E022136943F00403136103B080
:10C8C00030BD4FF0E022F0215361072384F823109C
:10C8D00095611361EDE702210320FEF71DFB0D4B6F
:10C8E00012485A6C124942F480425A645B6C03F459
:10C8F00080430193019A02680B68026083F3088801
:10C900004B689847FEE700BF00ED00E01B00000603
:10C910000005FA050038024083DE1B43481A012057
:10C92000D34D6210001000E055CEACC50038014078
:10C930000000F01F70B504460068830AA3F5801359
:10C94000522B05D82F4E334493F8F4530D2D00D9B4
:10C9500070BD4BF089FB2C4BA801022203EB85151F
:10C96000D5F8C81A85F8052B284A8D682A40062A6A
:10C9700006D0B2F5803F03D00A6842F001020A6097
:10C980001A1801210023224882F8051B216850F85B
:10C99000332091420BD001330E2BF8D1012200201D
:10C9A00011463FF06BF81B4B01221A6070BD06EB7D
:10C9B000C306012296F9D148114696F8D15820466F
:10C9C0003FF05CF8002CC3DB05F01F0101226B096E
:10C9D000104C02FA01F11B2D44F8231007D1114627
:10C9E00019203FF04BF84FF00073236070BD2E2DDF
:10C9F000AED111462C203FF041F84FF480536360D4
:10CA000070BD00BFF0B70508481A012007000100FB
:10CA1000BCC0050800E100E003689B0AA3F5801391
:10CA2000522B50D8F0B5334C234493F8F4330D2BEC
:10CA300048D840790225304C4FEA831C20FA05F78C
:10CA400003EB830004EB831603EB4000BD40D6F8F4
:10CA5000C86ABE463844F76800293AD03D4304EB23
:10CA60008007F964FA65F560EFF31185502282F3CF
:10CA700012882C2101FB0340826C2AB3111DC2666F
:10CA80001E4A03EB83001E4E03EB40008000064469
:10CA90001030024452F8040F08B10860011DB24280
:10CAA000F8D10022EDB20A6085F311882C2202FB36
:10CAB0000343DB6EABB1A444DCF8C82AD36843F06F
:10CAC0000103D360F0BD70470C4A01FB0321243100
:10CAD000D7E727EA0505F56004EB8005E964EA6518
:10CAE000C2E76444D4F8C82AD36823F00103D360B2
:10CAF000F0BD00BFF0B70508481A0120901A0120C8
:10CB0000B01A012003689B0AA3F58013522B00D9A9
:10CB100070470F4A134493F8F4330D2BF8D80222D0
:10CB200010B40C4C407904EB831C20FA02F3DCF8BF
:10CB3000C80A02FA03F3C26829B922EA03035DF8BE
:10CB4000044BC360704713435DF8044BC3607047E8
:10CB5000F0B70508481A012003689B0AA3F5801363
:10CB6000522B10D8084A134493F8F4230D2A0AD8FC
:10CB7000407902230549D84001EB82128340D2F864
:10CB8000C82ADB4313617047F0B70508481A012033
:10CB900001490248FCF774BB901A012000000140D3
:10CBA00010B5064C064804F14801FCF769FB04F592
:10CBB000EA710448BDE81040FCF762BB481A012046
:10CBC000000001400044014002494FF08040FCF762
:10CBD00057BB00BFBC1A012001490248FCF750BBFB
:10CBE000E81A01200004004001490248FCF748BB54
:10CBF000141B01200008004001490248FCF740BB1B
:10CC0000401B0120000C0040F8B5164D164E2A6955
:10CC1000EB681A404FF00040B2FA82F3EAB120FA12
:10CC200003F3012A6FEA030302EA03012B610A46B8
:10CC3000F2D1D6F84C718FB1013F0023BFB2C6F8D4
:10CC40004C31D6F8484134B12368204639469847DC
:10CC50006468002CF8D10022DCE7F8BDEF6ABFB2AF
:10CC6000EFE700BF00100040481A012001490248C8
:10CC7000FCF706BBC41B01200004014010B5064CA4
:10CC8000064804F5BE71FCF7FBFA04F5167104487A
:10CC9000BDE81040FCF7F4BA481A01200004014036
:10CCA000001C004001490248FCF7EABAF01B0120D1
:10CCB0000040014001490248FCF7E2BA481C01204B
:10CCC0000048014001490248FCF7DABA741C01200F
:10CCD000001800402DE9F0414FF425728EB000217C
:10CCE0005E484EF0EFF95E4B5E4D4FF000085A6C17
:10CCF00040F22227A5F63C16A5F1700442F001028D
:10CD00005A645A6C02F001020092009A1A6C42F0C6
:10CD100001021A641A6C02F001020192019A1A6C63
:10CD200042F002021A641A6C02F002020292029AA3
:10CD30001A6C42F004021A641A6C02F004020392A4
:10CD4000039A1A6C42F008021A641A6C02F0080284
:10CD50000492049A1A6C42F010021A641A6C02F0DF
:10CD600010020592059A1A6C42F020021A641A6C9D
:10CD700002F020020692069A5A6C42F002025A64AD
:10CD80005A6C02F002020792079A5A6C42F48032FF
:10CD90005A645A6C02F480320892089A5A6C42F42F
:10CDA00000325A645A6C02F400320992099A5A6CA1
:10CDB00042F480225A645A6C02F480220A920A9A3F
:10CDC0001A6C42F040021A641A6C02F040020B9294
:10CDD0000B9A1A6C42F080021A641A6C02F08002FC
:10CDE0000C920C9A1A6C42F480721A641B6C03F455
:10CDF00080730D930D9B55F82810002354F83320B1
:10CE0000914226D001330E2BF8D1002008F10708FB
:10CE100046F064FBB845EED14FF0000840F22227FF
:10CE200055F82810002354F8332091420CD00133D8
:10CE30000E2BF8D1002008F1070846F04FFBB8454B
:10CE4000EED10EB0BDE8F08106EBC30393F8D00835
:10CE5000F1E706EBC30393F8D008D7E7901A012057
:10CE6000003802402CC1050837B590F85F380446F9
:10CE7000032B2FD10023204D8DF807309DF807306C
:10CE800094F860289A4201D803B030BD9DF807306D
:10CE900005EBC30393F88C3E8BB181F0010383B1A2
:10CEA0009DF8073005EBC303D3F8880EFDF77CFB34
:10CEB0009DF807300133DBB28DF80730DEE70B4613
:10CEC000EDE79DF8073005EBC303D3F8880EFDF7B7
:10CED00071FBEDE7D0E910039B7903F00103994260
:10CEE00004D003B0BDE83040FDF75EBB03B0BDE841
:10CEF0003040FDF75FBB00BF481A012038B504463B
:10CF000000790D4650B1FEF7E3FB08B10323C3805F
:10CF1000E2792946BDE83840FDF7ECBD38BD10B5D3
:10CF200004462221FFF7EAFF2046FFF715FE2046C0
:10CF30000121BDE81040E5E510B504460121FFF7E9
:10CF4000DDFF00212046BDE81040DBE538B510F8D4
:10CF5000133CA0F6640433BB94F85028002A33D164
:10CF6000616AA36A99421ED0A36AA169581CA06293
:10CF7000CB5CA06A2169DBB2884200D3A2625B006D
:10CF800043F40073A4F854380A2384F85238012378
:10CF900084F8503894F85F38012B01D0042B02D16B
:10CFA000606CFFF7C9FF94F84C38002B6DD194F8F2
:10CFB0004D380133DBB2092B84F84D3825D120469A
:10CFC000BDE83840FBF7B6BA94F952586DB1B4F8E1
:10CFD0005418013D20464B0801F00101A4F85438D3
:10CFE000FFF742FF84F85258DDE7626AA36A84F8CB
:10CFF00050589A42D7D194F85F38012B01D0042BB6
:10D00000D1D1606CFFF78BFFCDE70A2B3DD194F8AF
:10D010004F382BB9B4F8563843F00103A4F856380A
:10D020002379D9070AD5B4F85608820501D4C30775
:10D0300018D4B4F85C380133A4F85C38012200231A
:10D0400084F84C2894F84F2884F84D38012A1CD1D4
:10D050006179606C84F84F3801F00101BDE8384017
:10D0600044F0DABFE36AC0F3470013B1216B98477D
:10D07000E4E7E3696269D054E369E2680133B3FB32
:10D08000F2F102FB1133E361D8E738BD2DE9F0413D
:10D09000A24CA4B0D4F85C38022B00F03982A0482E
:10D0A000A04AA149121A4DF0B5FFA048A04AA149D3
:10D0B000121A4DF0AFFFD4F85828012A00F2C080B0
:10D0C0009D4B9E4E03EBC2035A889988DB88C6F8B5
:10D0D0005824C6F85C14C6F86034994C994D9A4BA4
:10D0E000B2FBF1F2994901FB02F200212A64D4F863
:10D0F000882042F47002C4F888201A6842F00102C5
:10D100001A609960924A1868024092481A60C0F307
:10D110000807914A5A601A6822F480221A60D9607E
:10D1200007B1FEE78D49A0604FF6FF000A688C4BFF
:10D1300042F400720A60E26802401343E36046F082
:10D1400001FABFF34F8FBFF36F8FC4F85072BFF374
:10D150004F8FBFF36F8F636943F400336361BFF395
:10D160004F8FBFF36F8FC4F88470BFF34F8FD4F825
:10D17000803043F6E07CC3F3C90EC3F34E3358014D
:10D1800000EA0C01734641EA8372013B5F1CC4F85C
:10D190006022F8D1203810F1200FF1D1BFF34F8F6A
:10D1A000636943F480336361BFF34F8FBFF36F8FC5
:10D1B0006A49654B0A6842F480720A60196C694AD0
:10D1C00041F080511964196C01F08051029102996B
:10D1D000116841F4404111601268D6F8584402F4D5
:10D1E0004042D6F85C74D6F860140192019A9A68AD
:10D1F00002F00C02042A00F08D809A6802F00C0202
:10D20000082A00F08380504A136843F48033136087
:10D21000D5F8C80E04E0D5F8C83E1B1A642B74D8A4
:10D2200013689B03F7D5484A936803F00C03082B57
:10D230006BD0136823F080731360D5F8C80E0AE032
:10D240003E4ED6F85824D6F85C1446E7D5F8C83ECA
:10D250001B1A022B59D813689E01F7D40B067908C4
:10D2600043EA8413013943EA01433F4919435160BA
:10D27000136843F080731360334AD5F8C81E04E086
:10D28000D5F8C83E5B1A022B3FD813689801F7D532
:10D29000136C43F080531364136C324A03F08053D1
:10D2A0000393039B136843F480331360D5F8C81EBF
:10D2B00005E0D5F8C83E5B1AB3F57A7F2DD85368E0
:10D2C000DB03F6D51368274943F400331360D5F820
:10D2D000C82E05E0D5F8C83E9B1AB3F57A7F1CD856
:10D2E0004B689E03F6D54FF400124FF0006304A87C
:10D2F00004924FF4C07221930723CDE9082303233E
:10D300000A9340F039FC88B3FEE7FEE75B685A02F7
:10D310007FF579AF0C4B1B6885E7FEE700200040E6
:10D32000000000006838000050E4060800000020FB
:10D33000BC0000207E410708B4C905080000012098
:10D3400000ED00E0481A01200038024040420F0082
:10D35000FFFFF6FE0000000810300024003C0240F1
:10D360000003FA0500700040080040206B4A136873
:10D3700003F00F03062B0AD8136823F00F0343F0C2
:10D3800007031360136803F00F03072B68D1644B86
:10D390009A6842F4E0529A609A6842F460429A6055
:10D3A0009A6822F0F0029A601A68900158D59A683B
:10D3B00041F2883022F0030242F002029A60D5F86E
:10D3C000C81E04E0D5F8C82E521A824248D89A687E
:10D3D00002F00C02082AF5D1504A136819070AD541
:10D3E000136823F00F0343F007031360136803F07F
:10D3F0000F03072B34D1DFF828814A4ED8F80830C4
:10D4000023F4E05343F4A053C8F80830D8F80830A8
:10D4100023F4604343F40043C8F808303EF038FE7C
:10D42000D8F80830C3F30313334493F8883720FA4D
:10D4300003F32B6446F086F8002304A8CDE91333E8
:10D44000CDE91533CDE91733CDE91933CDE91B33D8
:10D45000CDE91D33344B049340F08EFB08B1FEE759
:10D46000FEE702234FF0007204A8CDE90633D8236B
:10D47000CDE9042301230B9340F07EFB00B1FEE7CE
:10D48000D8F88C3023F08073C8F88C30D8F88C3002
:10D4900043F08073C8F88C30D8F8083003F00C03E0
:10D4A000042B30D0082B11D0204B2149B4FBF7F2CC
:10D4B00001FB02F21A498968C1F303110E4496F880
:10D4C0008817CB409A422B641FD0FEE7D8F804306F
:10D4D000D8F8042013F4800FD8F8043002F03F028B
:10D4E00018BF1449C3F3881308BF1049B1FBF2F207
:10D4F00002FB03F30A4A5268C2F3014201325200AE
:10D50000B3FBF2F3D1E70B4BCFE724B0BDE8F081DA
:10D5100000210320FDF700FDFFF772F9003C0240F7
:10D5200000380240F0B70508C0FF03000024F400F3
:10D5300040420F0000127A0010B4EFF31182102362
:10D5400083F312880C4B4FF0E0200024D2B2D3F8C2
:10D5500028130131C3F828138169C3F8CC1EC3F81E
:10D56000D04E016982F31188D3F8C82E5DF8044BC0
:10D570000132C3F8C82E7047481A012010B4EFF3E7
:10D580001181102383F312884FF0E022946913690C
:10D5900013F4803F0D4B03D00120C3F8D00E9469E3
:10D5A000D3F82803C9B2D3F8D02E81F311880244EE
:10D5B000D3F8C41A4FF47A7000FB01F31B1B5DF81B
:10D5C000044BB3FBF1F300FB02307047481A012013
:10D5D000B0F1FF3F00F0B68003282DE9F84F044674
:10D5E00000F38F80DFF86CB100EB80064FEA800912
:10D5F0000BEBC606D6F86454002D00F0828096F836
:10D600007504984600F0FF0300287AD19246012263
:10D610000F4686F8752486F87434FFF7AFFFC6F816
:10D620008404FFF7ABFF6B68BAF1FF0F464A4FEA7D
:10D630004706074603EA020317D002F104423343C8
:10D6400002F520421A436A60AB69980743D4AB697C
:10D65000D90648D4FFF792FF42F20F73C01B9842DD
:10D66000F2DD58E06B68384A134043EA0843374A12
:10D6700033430A9E1A43B0446A60AA6950070CD427
:10D68000AA69D1062FD4FFF779FF42F20F73C01BAE
:10D69000984240DCAA695007F2D56A6A06F8012B65
:10D6A000B045EAD1AB699A0640D4AB69DB061AD41F
:10D6B000FFF764FF42F20F72C31B9342F2DD282290
:10D6C000234904FB02F20BEB02031144D3F8640478
:10D6D000FCF7EEFC15E0C5F828A0AB695A06C1D4EA
:10D6E000AB69DB0610D5EA69A144194942F0100282
:10D6F0000BEBC90301EBC901D3F86404EA61FCF741
:10D70000D7FC0020BDE8F88FFFF738FF42F20F7317
:10D71000C01B9842E1DDA1440D490BEBC90301EBAD
:10D72000C901D3F86404FCF7C3FCEAE7EA69A14441
:10D730000021012042F020020BEBC903EA6183F8CB
:10D740007514DFE700207047008000FC0024008291
:10D75000BC1E0120481A01202DE9F04F874C83B0F0
:10D760000746D4F8349394F83C330191B9F1000F93
:10D770000BD083F00202B9F80410C2F34002120188
:10D7800001FA02F2D9F800108A61D4F83083B8F1B6
:10D79000000F09D003F00103B8F804201B0102FABE
:10D7A00003F3D8F800209361013F754E4FF0E02558
:10D7B0004FF47A7BFBB20093B9F1000F08D0D9F88F
:10D7C0000010B9F804304869034218BF1B048B618C
:10D7D000B8F1000F00F0C980D8F80010B8F8043094
:10D7E000486903424FF0010018BF1B048B610EF023
:10D7F000E7FBDDF804A07368C3F30803002B40F0D7
:10D80000B080EFF31183002B40F0AB80D4F8287385
:10D81000A869D4F828138F42F8D1D4F8CC1E8842D6
:10D82000F4D8D4F8C43A0BFB03F1091AB1FBF3F1B5
:10D830000BFB07177368C3F30803002B40F08A80C3
:10D84000EFF31183002B40F08580D4F82833A969C9
:10D85000D4F828038342F8D1D4F8CC0E8142F4D80E
:10D86000D4F8C42A0BFB02F0401AB0FBF2F00BFB19
:10D870000300C31BB3F57A7FDCD3BAF1010ABAD136
:10D88000B9F1000F08D0D9F80010B9F80430486990
:10D89000034218BF1B048B61B8F1000F69D0D8F8A0
:10D8A0000010B8F80430486903424FF0000018BF78
:10D8B0001B048B610EF084FBDDF804A07368C3F3D6
:10D8C0000803002B49D1EFF31183002B45D1D4F885
:10D8D0002873A869D4F828138F42F8D1D4F8CC1E45
:10D8E0008842F4D8D4F8C43A0BFB03F1091AB1FB0F
:10D8F000F3F10BFB07177368C3F308033BBBEFF3AC
