:020000040800F2
:10000000F8FF012071380C080D390C08757C0408C4
:100010000D390C080D390C080D390C0800000000D2
:100020000000000000000000000000000D390C0876
:100030000D390C08000000000D390C08755D04082E
:100040000D390C080D390C080D390C080D390C0848
:100050000D390C080D390C08311A0408591A040816
:10006000811A0408A91A0408D11A0408BD03000063
:10007000D1030000E5030000F90300000D040000B7
:1000800021040000350400000D390C08517F0408DC
:10009000597F04080D390C080D390C08F91A0408A9
:1000A0000D390C08613F04080D390C08513F040854
:1000B000713F0408813F0408913F04084513040878
:1000C000411304084D130408491304080D390C08A2
:1000D0000D390C08453A00008D3B0000013D000041
:1000E000391B04080D390C08000000004D400408BD
:1000F000254004085D400408154004084904000038
:100100000D390C0835270408A13F04080D390C08E7
:10011000753E0000E93F0000B13F0408F52B0B08D5
:100120005D040000710400008504000099040000D3
:10013000AD0400000D390C080D390C080D390C0800
:1001400000000000000000000000000000000000AF
:10015000C1040000D5040000E90400005D41000076
:1001600055130408511304080D390C080D390C08F7
:100170000D390C080D390C080D390C080000000071
:100180000D390C080D390C08D1420000454400001F
:100190000D390C080D390C080D390C080D390C08F7
:1001A0000D390C080D390C080D390C080D390C08E7
:1001B0000D390C080D390C080D390C085D130408B5
:1001C000591304080D390C080D390C080D390C08A9
:1001D0000D390C0845220B080D390C080D390C0897
:1001E0000D390C080D390C080D390C080D390C08A7
:1001F0000D390C080D390C080D390C080D390C0897
:100200000D390C080D390C080D390C080D390C0886
:100210006D4004087D4004088D4004080D390C0829
:100220000D390C080D390C080D390C0800000000C0
:10023000392704080D390C08000000000D390C089E
:100240000D390C080D390C080D390C080D390C0846
:100250000D390C080D390C080D390C080D390C0836
:100260000D390C080D390C080D390C080D390C0826
:100270000D390C080D390C08B945000000000000CC
:100280000D390C08000000000D390C0800000000BA
:08029000000000000D390C080C
:020000040804EE
:10000000114A037A0168D35C10B4CC58CA1824F0A2
:100010000104CC501368DB07FCD4037D1F2B09D9E6
:10002000203B20225DF8044B02FA03F343F018034F
:10003000CB60704720225DF8044B02FA03F343F0D3
:1000400018038B60704700BF6C230D084368426D36
:1000500030B49A61EFF31182502383F31288416820
:10006000D2B2856C0B68046D23EA050323430B6051
:1000700082F31188436981681A68096822F00102D5
:10008000D0E908541A60826A1D605C615A60D0E948
:100090000B429C60DA600023B0F86C2030BCCA626E
:1000A00003777047002A4FEA014C034630B508BF7A
:1000B000E64600F1C00514BF8E468C460024196840
:1000C0000C3353F8042C43F8084C41EA0C0142EA83
:1000D0000E02AB4243F80C1C43F8042CEFD1D0F8CD
:1000E000C03043EA0E03C0E93144C0F8C03030BD2F
:1000F00010B40C4C6368002B11DD002004F1080CD7
:100100000146DCF8AC3003F1C00259600C33934275
:10011000FBD1013063680CF5867C8342F1DC5DF82D
:10012000044B704704000020F0B5404C04EB401332
:1001300093F8543403B9F0BD3D4B42011D7893F858
:1001400001C065450CD00CEB4C0E03EBCE0E9EF8B7
:1001500004604FEA4C0E771E012F5AD9032E52D05D
:100160002244A2F83814EFF31181902383F312880C
:1001700092F83A34C9B2B2F8380443EA4003002096
:100180009BB282F83A0481F311881909207881EA38
:1001900013215940D8B1C9431B01D2F8505401244E
:1001A000D2F83C049BB201F00F01D5F8AC2084409A
:1001B0000B4302F1C000590013F4004F8BB202D17F
:1001C0005168214351600C329042F4D1F0BDD2F815
:1001D0003C041B01D2F8502401F00F0110309BB2F7
:1001E0000124D2F8AC200B43844002F1C000590036
:1001F00013F4004F8BB202D15168214351600C328D
:100200009042F4D1F0BD0CF1010606F00306AE42B7
:10021000A6D0E64403EBCE030344597C00299FD0CB
:10022000A318012083F83A049AE700BF04000020D5
:1002300010220024704700BF024B03EB401393F8D9
:100240005504704704000020426A806A131A58421D
:100250005841704790F84F3830B53BB990F84D1879
:10026000012490F84E38DAB2914200D830BD04FA39
:1002700003F2B0F8565801332A43A0F85628F2E7A3
:100280000379024613F0010005D0D369D068116AE2
:1002900001385B1A1840704710B503790446DB0734
:1002A00001D4002010BDFFF7EBFF0028F9D0236A2E
:1002B0006269D05C236AE268C0B20133B3FBF2F139
:1002C00002FB11332362EDE703799B070AD5436AEA
:1002D0008269D154436A02690133B3FBF2F102FB34
:1002E00011334362704770470171704703790246CA
:1002F00013F0020007D0536A1069916A01385B1A43
:100300000340DBB2C01A704707280AD84FF4B47212
:10031000054B02FB0033B3F83805B0FA80F0400912
:1003200070470020704700BF04000020072807D84E
:10033000044B4FF4B471012201FB003383F83A25DA
:10034000704700BF0400002010B584464FEA810EBC
:10035000102312F4004F4FEA420214BF0E24072468
:10036000013B92B2CCF80040F444F2D100EB811290
:100370008C010351122042F8213010BD10B5844683
:100380004FEA810E0424130B013C4FEA021203EBE7
:10039000430392B203F11803CCF80030F444F2D1D5
:1003A00000EB01130A018450062043F8214010BDE0
:1003B000704700BF704700BF00EB4000024B03EBEB
:1003C000C00313F8670C7047FC100020064B93F82D
:1003D0004820824206D900EB400003EBC00353F8EB
:1003E000640C704700207047FC100020072808D8D4
:1003F000044B03EB401393F8542412B1012283F809
:100400003A24704704000020072808D8054B03EB66
:100410004013B3F83804B0FA80F040097047002068
:10042000704700BF04000020064B93F84830834219
:1004300005D9054B03EB4013D3F844047047002063
:10044000704700BFFC100020040000202DE9F04F91
:100450004FF49A754A4E85B000FB05F506EB050E84
:100460009EF87D219EF87C31DEF864909A4273D02C
:10047000444B05F11C0B4FF0010A03EB00289FEDE4
:100480003E7BD9F8C44014F4001265D19EF87D116A
:10049000C4F304448B1C2701C9B205EB0310009779
:1004A00008EB041C304490F86900002857D005EB95
:1004B00001103044C06F20F0604040F0804047F8A9
:1004C0000800080105EB0313334493F868703F04F8
:1004D000CCF8047093F868708DED027B3FB328442C
:1004E000012F304490F8803002931ED01023012059
:1004F00013FB01B1244B19440346CDE9008403F0FA
:10050000FC0203F0030311F8018F01301032DB000D
:100510006A4408FA03F352F8084C234342F8083CB3
:10052000C3B2BB42EBD3DDE90084DDE902270AFA5E
:1005300004F4CCF80820CCF80C70C9F8D0409EF830
:100540007D31013303F00F038EF87D319EF87D215C
:100550009EF87C319A4294D105B0BDE8F08F05EB4E
:1005600001100A4F3044C06F07EA8040009F47F8EF
:1005700008000801A6E700BF00000000000000001E
:100580001022002430AC0040742200240000FC1F24
:100590002DE9F04FDFF8F0B04FF49A7985B00746B7
:1005A00009FB00B9D9F864502C6DE6070FD4220777
:1005B00008D508232B654FF49A7303FB07B39A6F92
:1005C00001329A67A3054CD405B0BDE8F08F012332
:1005D0002B65D5F8A4305806E9D02A4E01943E4444
:1005E0003602D5F8A430C3F3052A06EB0A134FEA06
:1005F0000A1290595A6810F080489968C2F3034271
:10060000D3F80CE014BF20F06040C0F38A40082A01
:10061000134628BF08239AB100240DF1070C00955A
:10062000224602F00302032C8CBF75460D460134AE
:10063000D200D540E2B293420CF8015FF1D8009DA0
:10064000D9F87440C5F8A8A02CB1B8F1000102AAED
:1006500018BF0121A047D5F8A4305906C1D1019C8B
:10066000A5E74FF49A724FF40073384602FB07BBBC
:100670002B65DBF884310133CBF8843105B0BDE85C
:10068000F04FE3E6AC004000102200241B4B93F82F
:100690004C2092B353F8781C09B100200860012A5D
:1006A0002BD053F8601C09B100200860022A24D026
:1006B00053F8481C09B100200860032A1DD053F8E4
:1006C000301C09B100200860042A16D053F8181C09
:1006D00009B100200860052A0FD0196809B100206F
:1006E0000860062A09D0996909B100200860072A24
:1006F00003D01B6B0BB100221A607047FC10002066
:100700001B4B93F84C2092B353F8781C09B100208E
:100710000860012A2BD053F8601C09B10020086042
:10072000022A24D053F8481C09B100200860032A8B
:100730001DD053F8301C09B100200860042A16D0DF
:1007400053F8181C09B100200860052A0FD0196859
:1007500009B100200860062A09D0996909B1002072
:100760000860072A03D01B6B0BB100221A60704788
:10077000FC100020C04B1B78002B40F04781BF4B82
:1007800093F84C20002A00F0418113F8681C30B522
:1007900000294AD153F8781C0020012A086043D967
:1007A00013F8501C002962D153F8601C0020022A63
:1007B000086039D913F8381C002940F0C38053F879
:1007C000481C0020032A08602ED913F8201C002999
:1007D00040F0DA8053F8301C0020042A086023D946
:1007E00013F8081C002940F0F08053F8181C002072
:1007F000052A086018D9197C002940F00881196879
:100800000020062A08600FD993F82810002957D134
:1008100099690020072A086006D993F84020002A29
:1008200070D11B6B00221A6030BD53F8742C910AF2
:10083000A1F58011522940F20A814FF0FE0CEFF32E
:100840001181502080F312888D4C4FF02C0E556A88
:10085000C9B250690EFB0C4C013540F00100CCF8D8
:100860002854506181F3118893F84C2092E753F893
:100870005C2C910AA1F58011522940F2EC804FF0D6
:10088000FE0CEFF31181502080F312884FF02C0EF4
:10089000556A7B4CC9B2506901350EFB0C4440F0DF
:1008A0000100C4F82854506181F3118893F84C205A
:1008B000002053F8601C022A08603FF67BAFB3E7C4
:1008C000DA69910AA1F58011522900F2E1806D48A0
:1008D00010F801C0EFF31181502080F312884FF01F
:1008E0002C0E556A664CC9B2506901350EFB0C449A
:1008F00040F00100C4F82854506181F3118893F846
:100900004C2085E75A6B910AA1F58011522900F21B
:10091000C2805C4810F801C0EFF31181502080F3D1
:1009200012884FF02C0E556A554CC9B250690135EA
:100930000EFB0C4440F00100C4F82854506181F3D0
:1009400011886EE753F8442C910AA1F580115229C1
:1009500040F285804FF0FE0EEFF31181502080F3BE
:1009600012884FF02C0C556A454CC9B250690135BC
:100970000CFB0E4440F00100C4F82854506181F390
:10098000118893F84C201AE753F82C2C910AA1F502
:100990008011522967D94FF0FE0CEFF311815020DE
:1009A00080F312884FF02C0E556A354CC9B250694D
:1009B00001350EFB0C4440F00100C4F8285450618E
:1009C00081F3118893F84C2004E753F8142C910A12
:1009D000A1F5801152294AD94FF0FE0CEFF3118195
:1009E000502080F312884FF02C0E556A244CC9B267
:1009F000506901350EFB0C4440F00100C4F8285446
:100A0000506181F3118893F84C20EEE670475A68E4
:100A1000910AA1F58011522936D94FF0FE0CEFF35F
:100A20001181502080F312884FF02C0E556A144C1F
:100A3000C9B2506901350EFB0C4440F00100C4F806
:100A40002854506181F3118893F84C20D7E60D4863
:100A500010F801C0F3E60B4810F801C011E709488F
:100A600010F801E078E7074810F801C095E705485D
:100A700010F801C0B2E700BF00000024FC10002005
:100A800010220024D86C0C08044810F801C0C6E7F6
:100A90004FF0FE0C1EE74FF0FE0C3DE7D86C0C0843
:100AA00000EE100AB8EE400A704700BFBCEEC00A64
:100AB00010EE103A98B27047124810B590F894466C
:100AC000ECB100F5D36C4FF0000E05E00EF1010E15
:100AD0000CF1100CA64510D0BCF808009042F5D1DE
:100AE0009CF80A009842F1D1074B012003EB0E134A
:100AF00053E90223C1E9002310BD002010BD2046A8
:100B000010BD00BF10220024B028002470B5104E84
:100B100096F89446D4B1B1F816E006F5D3630022F6
:100B200003E001321033A24210D0B3F808C0F445FC
:100B3000F7D19D7A91F818C06545F2D106EB0216FF
:100B4000D6F8A43613B1BDE87040184770BD00BF99
:100B50001022002470B5154C94F818C794F8196742
:100B60000CF1010505F01F05AE421DD05FFA8CFCAB
:100B7000082B9E4604EB0C1628BF4FF0080EC6F853
:100B80001C0786F8291786F828E75BB1013A06F2B8
:100B90001F710023013312F8010FDBB201F8010FBE
:100BA0009E45F7D884F8185770BD00BF1022002466
:100BB0002DE9F047214C6568002D34DD002304F158
:100BC00008024FF4867601271846984606FB034C28
:100BD00001339CF8051101F0FF0E59B9AB4202F543
:100BE0008672F3D120B1164B93F81C29542A1DD0DC
:100BF000BDE8F08791687046B2F810A0D1F8009077
:100C0000D2F814E0D9F80C1021EA0A01C9F80C1046
:100C1000DEF8001021F00101CEF800108CF80581FB
:100C200082F8FE70DAE70020BDE8F087B3F82429E7
:100C30000132A3F82429BDE8F08700BF040000209A
:100C40001022002410B5044684F080F901462046A5
:100C500089B2BDE81040FFF767BA00BF10B500EBDE
:100C60004000084C04EBC00414ED1C7A54ED1B7AD0
:100C7000E7EE007AB0EE670A84F068F954F8783C41
:100C8000186010BDFC10002002692DE9F843C3680C
:100C900012EA030828D005460E464FF00047B8FA7E
:100CA00088F327FA03F21B3BD24308EA02082A61C1
:100CB000042B16D8DFE803F03B30251A0300B36A93
:100CC000002B3FD003F1FF3900231FFA89F9B362EB
:100CD000746A34B123682046494698476468002CFA
:100CE000F8D1B8F1000FDAD1BDE8F88370680028B8
:100CF000F7D0696B036889B29847B8F1000FCED17D
:100D0000F2E7B0680028ECD0A96B036889B2984775
:100D1000B8F1000FC3D1E7E7F0680028E1D0E96B34
:100D2000036889B29847B8F1000FB8D1DCE73069A1
:100D30000028D6D0296C036889B29847B8F1000F13
:100D4000ADD1D1E7EB6A1FFA83F9C1E710B590F88E
:100D50003DE0BEF1020F76D0144690F83D20844667
:100D6000012A02D1022280F83D200C2921D8DFE897
:100D700001F007202020222020203A2020205200AD
:100D8000DCF824003449DCF80020C1633349C16435
:100D900090F8341001290CD0012180F8341090F81B
:100DA0003510012952D000224FF4006380F834201E
:100DB0004365002010BDDCF828002749DCF800203E
:100DC000C1632649C16490F834100129F1D0012192
:100DD00080F8341090F835100129E4D138322146DA
:100DE00068F032FCE5E7DCF82C001B49DCF8002059
:100DF000C1631A49C16490F834100129D9D0012186
:100E000080F8341090F835100129CCD13C322146BD
:100E100068F01AFCCDE7DCF830000F49DCF8002060
:100E2000C1630E49C16490F834100129C1D0012179
:100E300080F8341090F835100129B4D140322146A1
:100E400068F002FCB5E75FFA8EF010BD343221463F
:100E500068F0FAFBADE700BF89580A0831580A0864
:100E6000F8B5A0F668042379DB0725D5657994F8F1
:100E70004C3805F001073D46FBB1D4F848341A68F8
:100E8000D36A5B08536294F8503823B1B4F85A38E7
:100E90000133A4F85A3885F00101606C7AF090FEB5
:100EA000012384F84F38002384F84D3884F84E38F5
:100EB000A4F8563884F84C38F8BD94F84F68012EE1
:100EC00003D194F84D3884F84E382046FFF7C2F924
:100ED0004EB9012385EA030184F84F38606CBDE800
:100EE000F8407AF06DBE0023394684F84F38F5E7B4
:100EF00038B5A0F668040022344D606C03685A626D
:100F0000A1F12903302B31D895F8CF3995F8D019B4
:100F10000133DBB2012B85F8CF3909D9B4F8563843
:100F200085F8CF295B08A4F856384B1C85F8D039D2
:100F300095F8D0290023082AA4F8583815D185F847
:100F4000D039B5F8D23901339BB2032BA5F8D23989
:100F500008D92379DB0705D5E36A94F8560843B32B
:100F6000216B98470023A4F8563838BD5B396C29AB
:100F70000CD8B4F8563885F8CF295B0843F08003C5
:100F8000A4F8563895F8D0390133CFE794F85138A2
:100F9000002BCDD1012185F8CF39A5F8D239802396
:100FA00084F85118A4F8563885F8D0197AF008FE5C
:100FB000BEE7E3696269D054E369E2680133B3FBD9
:100FC000F2F102FB1133E361CCE700BF10220024F1
:100FD00038B569F04FFA0D490D4CD1F8FC20A4FB4F
:100FE00000400C4D42F080720B4B800CC1F8FC208D
:100FF0004FF060420949C5F8D409C2F8B01F002279
:101000005A601A6842F001021A6038BD00ED00E033
:1010100083DE1B4310220024001000E055CEACC537
:1010200070B505460C26084C013E00D170BD94F900
:10103000000021F0E3FC031E04DB6178EA18D172A2
:10104000A278EA540434EFE72B6D0C0800207047B7
:10105000704700BF036882B023F002030360036897
:1010600023F004030360036823F040030360036874
:1010700023F020030360036823F010030360036878
:1010800023F08003036083699B0603D5C36943F0A3
:101090002003C36183699A0701D5002383628369B2
:1010A000DB0701D40123836100224260036823F03F
:1010B000010303600192019B3F2B06DC00BF019BF3
:1010C00001330193019B3F2BF8DD03684FF0010CC6
:1010D000074A43EA0C030360002381F800C04B7009
:1010E000B2F8D83963449BB2A2F8D83902B070473D
:1010F000102200242C2170B400FB01F16B4C63180A
:10110000D3F8DC395B681A68D5060CD59A69D20623
:1011100009D5DA692144184642F0100201F6F411AB
:1011200070BCDA6196E71A6896071ED59A6995072A
:101130001BD52C2202FB004292F8F91921B192F83A
:10114000F819002940F093802C2202FB004292F80B
:10115000F81921B192F8F929002A40F086801A681E
:1011600022F0020270BC1A6070471A68510722D43C
:101170001A68560638D59A69550635D52C2202FBD1
:10118000004292F8FA1900296FD092F8F6494849BE
:1011900092F8F8095A680A404649224342EA004256
:1011A000114359601A6822F002021A601A6842F06C
:1011B00004021A6059E09A695207D9D52C2202FB21
:1011C000004292F8FA1919B192F8F81900295DD184
:1011D0002C2202FB004292F8F829002A45D11A6815
:1011E00022F004021A6040E01A68910625D59A6937
:1011F000920622D5D9692C2241F0200102FB00423F
:101200000020D961196821F002011960196821F0E4
:1012100004011960196821F040011960196821F072
:1012200020011960196821F010011960196821F076
:101230008001196082F8F50917E01A6822F00202AD
:101240001A601A6822F004021A601A6822F040023A
:101250001A601A6822F020021A601A6822F010023E
:101260001A601A6822F080021A6070BC7047D2F8C7
:10127000FC194D1CC2F8FC590978C9B2996292F860
:10128000F8190139C9B282F8F8195DE7596AD2F83C
:10129000005AC9B26E1CC2F8006A297092F8F81997
:1012A0000139C9B282F8F81992E700BF1022002470
:1012B000008000FC002400822C23014610B41E4C48
:1012C00003FB0043D3F8DC295068026812062AD5D4
:1012D0008269D20506D5C26942F48072C2610122D8
:1012E00083F8F42983699A0509D5C2692C2342F44D
:1012F000007203FB0143C261012283F8F429836970
:101300005B0509D5C2692C2342F4806203FB0143CB
:10131000C261012283F8F4292C2303FB01F1631835
:1013200093F8F43913B95DF8044B7047034B5DF83B
:10133000044B19448EE600BF10220024042C002424
:101340000020B9E70020D5E60120B5E70120D1E66D
:101350000220B1E70220CDE60320ADE70320C9E675
:101360002DE9F8430568D5E904366C68F0611A7D0B
:10137000D3F800801F2A4BD9203A2021376801FA80
:1013800002F242F01802C8F80C20327D1F2A4AD916
:10139000203A202101FA02F242F01802FA60726843
:1013A00000205968086010604046116841F0100143
:1013B000116093F80890AA6949467DF0F9FC367AE5
:1013C000EA69384631467DF0F3FC2B6A9A68636817
:1013D0006FF30F0313436360164B13F809009A5D14
:1013E00058F8003043F0010348F80030BB5843F090
:1013F0000103BB50A36843F44043A360236843F058
:1014000001032360236843F400732360BDE8F8837D
:101410002021376801FA02F242F01802C8F80820C9
:10142000327D1F2AB4D8202101FA02F242F01802BC
:10143000BA60B4E76C230D08D3B20F2B1FD8114B41
:1014400000B503F17E0E02E00333734514D093F828
:1014500000C08445F8D193F801C08C45F4D102EB6B
:1014600042020948997800EB82030430D96000EB0E
:10147000820019715DF804FB00205DF804FB002078
:10148000704700BF586D0C080000002410B40C4CCD
:10149000002304F68C2C01E0152B0CD003EB430247
:1014A00001331CF802108142F6D1144494F98E0ADB
:1014B0005DF8044B70474FF0FF305DF8044B704708
:1014C0001022002430B5114D002305F5807C02E088
:1014D00001331A2B18D05CF833408442F8D10CEB5E
:1014E000C30EDC009EF804E08E45F1D102EB42020F
:1014F000074B254403EB8201043395F8054103EBC8
:101500008200CC600C7130BD002030BDD86C0C085E
:1015100000000024F0B1002310B504460E4894F8F2
:1015200004E000F68C2C01E0152B11D003EB4302F4
:1015300001331CF802107145F6D1831861792068D7
:1015400093F98E2AD3B20F2B02D8BDE81040B9E729
:10155000002010BD00207047102200244FF02C0CFA
:1015600001380C4B82B00C4A0CFB00330B49D3F80A
:10157000C4308B4214BF02230123D2F8D810194380
:10158000C2F8D810D2F8D82013400193019B02B0C2
:10159000704700BF000000240044025800000240D1
:1015A000F8B501381E46134C2C2315460F4603FB95
:1015B0000044114BD4F8C400984214BFA120A020CD
:1015C00078F02EFFC5F30112A909B4F9DC00C4F8C4
:1015D000D470C4F8E06067F0E3FAB4F9DC30002BB3
:1015E00007DB03F01F0001225B090449824041F838
:1015F0002320F8BD000000240000024000E100E0CC
:101600002DE9F04F89B09DF84860002800F09C80DB
:101610008C46CE4984884FF0004701EB86064FF098
:10162000B0481546CA4AD6F8E0E1B4FA84F6006834
:10163000F740C6F11F06314402EB8606C3F34112A0
:1016400091F8D0B1D8F88010C6F8CCCA21EA0701C9
:10165000C8F8801003F00301C8F8887041EA0E0151
:101660000092002C69D021F010077E1E012E6ED84A
:1016700001F00302C3F381034FEA111A4FF001088E
:1016800002924FF0030900220193CDE903B50EE069
:10169000DCF8201021EA0601CCF82010016829406E
:1016A0004EEA01010160013234FA02F143D008FA36
:1016B00002F651003442F6D0D0F808E009FA01F5FC
:1016C000019B022F2EEA050E03FA01FC4FF00F03D7
:1016D0004CEA0E0C0AFA02FEC0F808C04FEAD20C1F
:1016E000D0F804B000EB8C0C2BEA060B02F00706D6
:1016F0004EEA0B0E4FEA8606C0F804E003FA06F63F
:10170000D0F80CE0009B2EEA050E6FEA050503FAFF
:1017100001FB4BEA0E0B07FA01FEC0F80CB0B7D084
:10172000029B0132066803FA01F12E403143016049
:1017300034FA02F1BBD1DDE903B5854B5B4493F884
:101740000C2BAA4200F3C18009B0BDE8F08F11F064
:10175000805300F00B8101F480334FF0010ADFF871
:101760000482029301F40033039301F48013049381
:1017700001F40013059301F00303019300230AFA17
:1017800003F1214000F095805E000322D0F80CE0C8
:1017900023F0030702FA06F9009A07F1B04702FAAC
:1017A00006FC2EEA090E019A07F580674CEA0E0C3A
:1017B00002FA06F60F22C0F80CC0D0F800C02CEADE
:1017C000090C46EA0C060660D8F8F46046F00206FA
:1017D000C8F8F460D8F8F46006F002060796079E91
:1017E00003F00306D7F808C0B60002FA06FE594A0D
:1017F00090422CEA0E0C33D0DFF86CE1704500F01B
:1018000097800EF5806E704500F0D8800EF5806EE2
:10181000704500F0DA800EF5806E704500F0DB80D8
:101820000EF5806E704500F0C2800EF5806E70453A
:1018300000F0D8800EF5806E704500F0DA800EF56D
:10184000806E704500F0DC800EF5806E704514BF30
:101850004FF00A0E4FF0090E0EFA06FE4CEA0E0C7F
:101860004FF0B042C7F808C0CF43D2F88060029A68
:10187000002A5BD13E404FF0B042C2F88060D2F8FF
:101880008460039A002A5CD13E404FF0B042C2F817
:1018900084601668049A002A51D13E404FF0B0424D
:1018A00016605668059A002A47D13E404FF0B04274
:1018B0005660013334FA03F17FF461AF244B5B448B
:1018C00093F80C2BAA427FF73FAF234A83F80C5BB7
:1018D000AB11D2682149C2F3022211F80B10C2F1F8
:1018E0000704101D042C28BF042406282BD9033A12
:1018F0004FF0FF30C5F30115904025EA00054FF089
:10190000FF30A04023EA0003154893400122441809
:101910002B4301F01F0549091B01AA40DBB284F8E3
:10192000003340F8212009B0BDE8F08F0E43A2E754
:101930000AFA06F64CEA060C92E70E43B6E70E43A7
:10194000ACE70E43A1E700252A46D8E7D86C0C087F
:10195000102200240000025800ED00E054230D087E
:1019600000E100E00044025800040258964601F0ED
:10197000030101274FF0030C07FA03F2224211D0B2
:101980005A00C6680CFA02F826EA08090EFA02F6AE
:1019900001FA02F246EA0906C660066826EA080667
:1019A00032430260013334FA03F2E5D1C5E64FF069
:1019B000050E0EFA06FE4CEA0E0C51E74FF0020E31
:1019C0000EFA06FE4CEA0E0C4AE7032202FA06F66D
:1019D0004CEA060C44E74FF0040E0EFA06FE4CEA01
:1019E0000E0C3DE74FF0060E0EFA06FE4CEA0E0C0A
:1019F00036E74FF0070E0EFA06FE4CEA0E0C2FE704
:101A00004FF0080E0EFA06FE4CEA0E0C28E700BF57
:101A100060B182884FF0B0414FF00043B2FA82F2D9
:101A2000D1F88000D3400343C1F88030704700BF35
:101A30004FF0B042D2F88030D2F888100B4003F05B
:101A40000103C2F8883023B1024BD3F8CC0A0368F3
:101A500018477047102200244FF0B042D2F880306F
:101A6000D2F888100B4003F00203C2F8883023B18B
:101A7000024BD3F8D00A036818477047102200249D
:101A80004FF0B042D2F88030D2F888100B4003F00B
:101A90000403C2F8883023B1024BD3F8D40A036898
:101AA00018477047102200244FF0B042D2F880301F
:101AB000D2F888100B4003F00803C2F8883023B135
:101AC000024BD3F8D80A0368184770471022002445
:101AD0004FF0B042D2F88030D2F888100B4003F0BB
:101AE0001003C2F8883023B1024BD3F8DC0A036834
:101AF0001847704710220024F8B54FF0B043D3F8D0
:101B00008050D3F88820154005F47875C3F88850C4
:101B10007DB1084F0126B5FA85F4C4F11F0407EB27
:101B2000840306FA04F4D3F8CC0A03689847A54363
:101B3000F1D1F8BD10220024F8B54FF0B043D3F82E
:101B40008050D3F88820154005F47C45C3F88850B0
:101B50007DB1084F0126B5FA85F4C4F11F0407EBE7
:101B6000840306FA04F4D3F8CC0A03689847A54323
:101B7000F1D1F8BD1022002430B1036882881B69BE
:101B80001A4214BF01200020704700BF10B1036843
:101B900082889A61704700BF18B1838802681B046D
:101BA0009361704770B50D4682B00446164640B149
:101BB00001680C4B0C4A0B449B0A02EB4303B3F83D
:101BC000EC0178F02DFCC5F38101C5F3411305F05C
:101BD0001302CDE90016A18820687DF0D1FF02B084
:101BE00070BD00BF0000FEA7D86C0C0800B1D9E79B
:101BF00070472DE9F84FDFF874832C23074603FB69
:101C00000083D3F8DC59002D00F08D81D3F8E4690E
:101C100026B196F90630002B40F085812C2303FB7A
:101C20000783D3F8E84924B194F90630002B40F03B
:101C30007A817B1CDBB216B11522F371B27114B13B
:101C40001622E371A2714FF02C09288D78F0E8FB81
:101C5000214609FB07F930467FF084FE304608EB49
:101C6000090AB64E9AF8EE399AF8EC29002B0CBF07
:101C70004FF01E0B4FF03E0B5946FFF7B7FF2046C3
:101C80009AF8ED295946FFF7B1FFDAF8DC39AC488C
:101C900014225C6800214844DFF8D49284F0A2FC4E
:101CA000236823F001032360A64B9C4215D1D6F88C
:101CB000903043F40013C6F89030D6F8903023F4F7
:101CC0000013C6F8903068F0F7FB9C4BDB69C3F358
:101CD0000213994499F8003232E09B4B9C420AD19E
:101CE000D6F8903043F48003C6F89030D6F89030A0
:101CF00023F48003E5E7954B9C420AD1D6F8903057
:101D000043F40003C6F89030D6F8903023F4000373
:101D1000D7E78F4B9C42D6D1D6F89C3043F0800356
:101D2000C6F89C30D6F89C3023F08003C6F89C306F
:101D300068F0C2FB336AC3F302134B4493F80032DA
:101D400003F01F039FED837A9FED835AB0EE084A9C
:101D5000D8402C23F7EE003A002607EE900A03FB4A
:101D6000078840F2145CF8EE677AB8F8F089C7EE9D
:101D7000275A07EE908A9FED797AF8EEE77AC7EE58
:101D8000274ADFED777AB0EE007AE5EE877AA5EEA6
:101D9000875A25EE844A37EE856A74EEE72AB8F54D
:101DA000C87F06F10107D5BF4FF4967278226423ED
:101DB000322307EE907AD8BF4FF4167E1344A2F177
:101DC0003202F8EEE76AC8BF4FF4827E07EE903A1F
:101DD000D4BF61464FF4FA7166EEA56AB8EEE77AB1
:101DE0007144C7EE267A07EE102AB8EEC77A37EEAE
:101DF000447A77EEE37AFCEEE77A17EE903AC7EE94
:101E0000267AFCEEE77A17EE900A07EE90EAB8EE33
:101E1000E73A07EE901AF8EEE77A23EE243A83EEDB
:101E2000277A37EE453A32EEC77AC3EE267A77EE56
:101E3000E37AFCEEE77A17EE901AC7EE267A77EE91
:101E4000E37AFCEEE77A17EE902A02F1020E0EEB2F
:101E50000109B0EE467A07EE909AF8EE677AA6EEA0
:101E6000A77AF4EEC74AF1EE10FA60DC43EA000EFE
:101E70005FFA8EFEBEF10F0F5BD841EA020E1FFA29
:101E80008EFEBEF1FF0F54D81B05000403F07F63E4
:101E900092B200F47F000343324843EA067300EA3B
:101EA00001210B43134322682F4E22F001022260CE
:101EB000226822F4F852226000222361236811462E
:101EC00043F001032360A36823F40043A360A368E5
:101ED0006FF30A03A360236823F44013236063684D
:101EE00023F400436360236843F00103236001246B
:101EF00095F82B0066F054FE95F82B305A0903F044
:101F00001F0304FA03F346F82230002295F82A0052
:101F1000114666F045FE95F82A305A0903F01F0372
:101F20009C4046F82240BDE8F88F3E4637E7013135
:101F30008DE70F2FF9D10023B5E700BF0044025809
:101F4000042C00240054004000580040005C004075
:101F5000001C0058286B6E4E000016430024744984
:101F60000000704200FFFF0000E100E010220024AA
:101F7000D86C0C0808B1002214E670470D4B70B500
:101F800093F84860A6B10C4C002503E001352034DD
:101F9000B5420DD0237F002BF8D0E0680022002846
:101FA000F4D00135217DFFF7FDFD2034B542F1D19C
:101FB000012070BDFC1000203C04002070B590F89A
:101FC000723004461D09013D082D11D81B4E03F047
:101FD0000F0306EB4502B2F8101241FA03F2D207E2
:101FE00006D590F87520012AD0B205D0012070BD29
:101FF00094F875300120FAE798400138084084F0E1
:10200000FFFD73190E4A93F82432034402EBC30513
:1020100052F83320AB8810691840E8D0002394F8B8
:1020200073200221284684F87530FFF7BBFD226E2D
:10203000136843F008031360D8E700BFD86C0C089E
:10204000242D002470B5154BBFF34F8F144903F5B1
:102050000352C1F8683220339342FAD1BFF34F8F55
:10206000BFF36F8F0F4C40F62A030C4AB4F87C592B
:1020700004F513602946FEF769FE034618B10023F4
:1020800084F87E3970BDD4F83069294604F51360B0
:1020900001227362BDE8704080F0A2BD60DB0124C4
:1020A00000ED00E010220024014B53F8200070479F
:1020B00050400058014B43F82010704750400058E2
:1020C00019481A4B01681A4A41F4807130B482B041
:1020D0000160D3F8F410FF24CA2041F48031C3F822
:1020E000F410D3F8F41001F4803101915321019DD3
:1020F000546250625162D3F8D030DB010CD40C4BE7
:1021000000220C495A659A65DA651A665A669A661B
:10211000196502B030BC7047126D064B9A42EED181
:1021200002B030BC704700BF00480258004402585B
:1021300000400058316665422DE9F84FD0F85C71D7
:102140000446534B00F59676FDB227F0FF098268EE
:1021500000F1E00A103D4846D2F80080A3FB0535A7
:102160002D0929467CF080FED4F81C210023B2F50D
:10217000807F84F820317FD00DD8102A00F0848031
:102180005DD8012A46D0042A16BF6FF400616FF0B3
:1021900008013C230EE0B2F5805F71D0B2F5803FBC
:1021A0003BD0B2F5806F15BF6FF400616FF008018E
:1021B0003C230423324608F11806404656F803C073
:1021C00001EA0C01F150D4F81CB159467CF00CFC2A
:1021D000BBF5807F2ED024D8BBF1100F3FD037D86D
:1021E000BBF1010F02D0BBF1040F34D14FF0080C4A
:1021F000336852462946484643EA0C03336040237D
:10220000C4F8E8307CF0D4FD3B6843F010033B6039
:10221000BDE8F88F6FF00801CCE76FF008013C23B0
:10222000C8E7BBF5805F22D0BBF5803F1AD0BBF575
:10223000806F10D108F11C064FF0080CD8E7402A37
:1022400015BF6FF400616FF008013C230023B1E774
:10225000BBF1400FCAD03C364FF4006CC8E74FF4D6
:10226000006CC5E708F154064FF0080CC0E708F110
:102270001C064FF4006CBBE76FF00801042399E7DC
:102280006FF40061042395E76FF4006192E700BFEB
:10229000ABAAAAAA464A92F8981F013949B24B1C28
:1022A00000F08480434B480103EB411100B5C2F8B4
:1022B0009C1F811D13F801E003EB010C92F8A01F95
:1022C0008E455BD09CF802E08E4555D000F10A01A6
:1022D00013F801E003EB010C92F8A11F8E4546D0E4
:1022E0009CF802E08E4540D000F10E0113F801E0A9
:1022F00003EB010C92F8A21F8E4531D09CF802E04E
:102300008E452BD092F8961F31B300F1120113F8CD
:1023100001E003EB010C92F8A31F8E4535D09CF829
:1023200002E08E452FD000F1160113F801E003EB17
:10233000010C92F8A41F8E4533D09CF802E08E4524
:102340002DD01A3092F8A51F13F800C003448C4515
:1023500021D0987888421DD05DF804FB0CF1020C66
:10236000BCF80010A2F8A81FCCE70CF1020CBCF8D6
:102370000010A2F8B21FB7E70CF1020CBCF8001075
:10238000A2F8B01FA2E70CF1020CBCF80010A2F8F2
:10239000AA1FC8E702331B88A2F8AE3FDCE70CF1A6
:1023A000020CBCF80010A2F8AC1FCAE7704700BFCF
:1023B00010220024086F0C080120704738B5134D17
:1023C00041F20D13124941F28832D5F8F80FD5F8D1
:1023D000B44F0004A060E068014020460B430D218B
:1023E000E36068F0FDFB38B1D5F8E82F0346002024
:1023F0001343C5F8E83F38BD606900F4F050A0F51C
:102400000060B0FA80F0400938BD00BF10220024FF
:10241000C0E0FEFFC64B53E9321270B58C0F13F8C3
:10242000405C100EC2F3072C03F8984CC1F3836490
:102430000001012D03F8974CC1F3016403F8964C99
:10244000C1F3074403F8954CC1F30724C9B203F85C
:10245000944CC2F3035403F8931C23F8920CC2F378
:10246000C03033F8921C89B241EA0401C2F303443C
:1024700023F8921CC2F3403103F8904CC2F380342D
:1024800003F88F0C4FF0000003F88E4C03F88D1CFE
:10249000C2F3003103F88C1C53F8C01C03F88B0CFA
:1024A00040F2EF80022D00F0C3802A204FEA4C0C4E
:1024B00003F87F4CC1F3C01201F07F010CF07E0CD9
:1024C00003F87ECC4FF0010C13F87E4C144353F804
:1024D000BC2C03F87E4CD40F03F87D1C910D03F83F
:1024E0007C4CC2F3417401F00C01C2F3815503F836
:1024F0007B4CC2F3826403F87A4C03F8791C13F81E
:10250000791C53F8B84C294303F8791CC2F34051A5
:1025100003F8781C002103F8771CC2F3004103F88C
:10252000761CC2F3C03103F8751CC2F3803103F886
:10253000741CC2F3403103F8731CC2F3003103F87A
:10254000721CC2F3812103F8711CC2F30121C2F392
:10255000460203F8701CC4F3074103F86F2C220EE7
:10256000090203F86ECC03F86C2CC4F3072223F89D
:102570006A1C240633F86A1C89B2114323F86A1CCA
:1025800053F8B41C43F8684C0C0E53F8682C42EA1C
:10259000044243F8682C0A0A53F8684C02F47F425C
:1025A0002243C1F30724C9B243F8682C53F8685C8E
:1025B00053F8B02C2C4343F8684C03F8641C110EFC
:1025C00003F8631C110C090643F8601C110253F850
:1025D000604C0A4601F47F01214392B253F8AC4C9F
:1025E00043F8601C53F8601C0A4343F8602CC4F3A2
:1025F000035253F8601C41EA146143F8601C13F85D
:102600005C1C1143C4F3072203F85C1C210A01F48B
:10261000706123F85A1C33F85A1C89B21143C4F371
:10262000460223F85A1C03F8582C03F857CC70BD07
:102630001204C1F3072C0D0E02F47C1243F8882C0F
:10264000C1F3074253F8884C44EA052443F8884C08
:1026500053F8884C22434FF4007443F8882C53F805
:10266000882C43F8484C013240F10004A40244EAAB
:102670009254920243F84C4CC1F3803443F8502CEE
:1026800014E74FEA8C2CC1F3C26594000CF440624D
:10269000C1F3072C04F47F7443F8882C53F8882C7A
:1026A0001443CA0B43F8884C02F0060253F8884CD6
:1026B00044EA917443F8884CC1F3026403F8845CE3
:1026C000012503F8834CC1F3425403F8824CC1F353
:1026D000824403F8814CC1F3C03403F8802C13F812
:1026E000802C224303F8802C53F8884C13F8802C5C
:1026F00013F8906C023205FA02F2B540D617A2FB2D
:10270000052E43F8485C05FB06EE04FB0EEE013493
:10271000A2FB0424A644520AC1F3803442EACE52FA
:1027200043F8502C4FEA5E2243F84C2CBEE600BF23
:102730000833002477F03EB877F03CB82DE9F04F2D
:10274000067991B00546046E16F0020940D090F863
:102750007280B8F1000818BF4FF001084FEAC802B4
:10276000236823F4F8732360A36823F00103A360B4
:10277000236823F001032360B34B9C4200F0558192
:10278000B24B9C4227D0B24B9C4200F08981B14BA6
:102790009C4200F0B681B04B9C4200F07381AF4B7D
:1027A0009C4200F0BC81AE4B9C4200F0C681AD4B18
:1027B0009C421DD1AC4BD3F8901041F00041C3F8BE
:1027C0009010D3F8901021F00041C3F890100FE062
:1027D0004A46C846C4E7A44BD3F8901041F40031F0
:1027E000C3F89010D3F8901021F40031C3F8901082
:1027F0002368D5F808A0D9076F794AD4BB022068AE
:10280000390206F0010603F4805301F480610B43A2
:10281000964901400B4343EA8603134323603B037D
:10282000626803F4005322F4405213436360904BF8
:10283000A4EB030BA36823F44073BBFA8BFBA360E8
:102840004FEA5B1B804B4FEA8B0B9C4200F03681BA
:102850007E4B9C4220D07E4B9C421DD003F5806372
:102860009C4219D003F580639C4215D003F5444384
:102870009C4200F02381A3F51C439C420CD003F53D
:1028800080639C4208D0E36A23F00F0343EA0B0302
:10289000E36211B0BDE8F08F764868F06FFA002867
:1028A000F1D0BAF1000FEED0734B03EB8B03D3F8EA
:1028B0007032B0FBF3F000EB5A00B0FBFAF080B2DC
:1028C000E060E36A23F00F0343EA0B03E362FB07D4
:1028D0000BD51EB1636843F480336360B9F1000F18
:1028E00003D0636843F40033636095F874301BB120
:1028F000636843F400436360A3683F0743F4805375
:10290000A360236823F000532360636823F490439B
:102910006360A36823F02A03A36003D5A36843F090
:102920000803A360236843F001032360002E3FD017
:10293000EF6B002F00F0D4806B6CFEB227F0FF0924
:102940000022099304F12403103E484600934FF4FB
:10295000806305934FF4807303934FF480330A939D
:10296000464BA3FB063600230293360904933146F7
:10297000CDE90B33CDE90D336B690193EB68089317
:102980000023CDE906237CF06FFA6A4631464846BB
:102990007CF00EFA3B6843F001033B60384BA268C1
:1029A0009B5D42F040024B44A2605B689BB26B654A
:1029B000B8F1000F3FF46DAF2E6C002E00F0858053
:1029C000F1B2AA6C2D4B26F0FF07A1F11005099278
:1029D0003846A3FB0535002301932D0908932946AA
:1029E000CDE90333CDE90633CDE90B33CDE90D3322
:1029F0004023029304F1280300934FF4806305936E
:102A00004FF480330A937CF02FFA6A462946384601
:102A10007CF0CEF9336843F010033360236843F051
:102A20004003236011B0BDE8F08F0F4BD3F898102E
:102A300041F01001C3F89810D3F8981021F010015C
:102A4000C3F89810D4E600BF0010014000440040D5
:102A500000480040004C004000500040001401407D
:102A600000780040007C004000440258F369FFEF0A
:102A7000000C005808000007D86C0C08ABAAAAAAE2
:102A80006C230D08344BD3F8901041F48011C3F837
:102A90009010D3F8901021F48011C3F89010A7E69D
:102AA0002D4BD3F8901041F48021C3F89010D3F847
:102AB000901021F48021C3F8901099E6274868F01F
:102AC0005DF900283FF4DFAEEBE6236843F08003B6
:102AD0002360236843F04003236011B0BDE8F08F0A
:102AE000236843F480732360A36843F00103A36069
:102AF000236843F020032360236843F0100323601E
:102B000056E7154BD3F8901041F40021C3F890100C
:102B1000D3F8901021F40021C3F8901068E60E4B12
:102B2000D3F8981041F02001C3F89810D3F898100A
:102B300021F02001C3F898105AE6074BD3F8901003
:102B400041F08041C3F89010D3F8901021F08041FB
:102B5000C3F890104CE600BF004402580803000779
:102B600038B50409013C082C1AD80F4D00F00F03AA
:102B700005EB4402B2F8100240FA03F212F001022F
:102B800010D00122254402FA03F3013B184084F0DF
:102B900037F895F82432054A034402EBC30038BDE8
:102BA000002038BD104638BDD86C0C08242D0024F8
:102BB0002DE9F047984D05EB001353F83C4C002CE1
:102BC00000F08F8033F8327C06464FEA0019384611
:102BD00077F026FC01227B0907F01F07023BBA4071
:102BE000082B0FD8DFE813F0BF00C700CF00D700D5
:102BF000DF000900E700EF00B7008849CB6F23EA48
:102C00000203CB6705EB0903013613F8380CF6B263
:102C1000FFF7A6FF074610B11223C671837105EBBB
:102C2000090313F8370CFFF79BFF824610B11323FB
:102C3000C671837105EB090313F8360CFFF790FF9B
:102C4000804610B11423C67183714D4450462E2125
:102C500015F8342CFEF7CAFF15F8332C40460E2128
:102C6000FEF7C4FF15F8352C2E213846FEF7BEFFBF
:102C700023686B4A23F001039442236033D0694BED
:102C80009C423ED1654BD3F8902042F48042C3F879
:102C90009020D3F8902022F48042C3F89020E3687B
:102CA00043F00043E360A36823F4F073A360236858
:102CB000DA0716D4A1685C4A5C4B0A401343A36050
:102CC000E368DB0042D5E268594B134043F0E86308
:102CD000E360236823F400632360236D23F0010382
:102CE0002365BDE8F0874D4BD3F8982042F480521D
:102CF000C3F89820D3F8982022F48052C3F8982083
:102D0000CDE74C4B9C4213D04B4B9C4263D04B4B7A
:102D10009C426ED1414BD3F8982042F48012C3F804
:102D20009820D3F8982022F48012C3F89820B6E7B0
:102D30003A4BD3F8902042F40042C3F89020D3F8E5
:102D4000902022F40042C3F89020A8E7236843F4BF
:102D500080532360B7E73149D1F89C3023EA02035E
:102D6000C1F89C304EE72D49D1F8983023EA020390
:102D7000C1F8983046E72949D1F8903023EA020398
:102D8000C1F890303EE72549D1F8943023EA020398
:102D9000C1F8943036E72149D1F8803023EA0203A4
:102DA000C1F880302EE71D49D1F8843023EA0203B0
:102DB000C1F8843026E71949D1F88C3023EA0203A0
:102DC000C1F88C301EE71549D1F8883023EA020398
:102DD000C1F8883016E7114BD3F8982042F400521E
:102DE000C3F89820D3F8982022F40052C3F8982012
:102DF00055E7134B9C427FF452AF03F50C33D3F8E5
:102E00009C2042F02002C3F89C20D3F89C2022F0A2
:102E10002002C3F89C2042E70833002400440258F3
:102E20000030014000380040E0FFBF8F0700002065
:102E3000FFFF39D8003C0040003401400050014001
:102E40000014005808B51D20FFF78AFE10B190F954
:102E5000063053B11E20FFF783FE10B190F9063003
:102E600003B108BD5523C38008BD5523C380F1E7D6
:102E70002DE9F04FB64D9DB095F8241031B1B54B0A
:102E800093F8845328461DB0BDE8F08FB24C01235F
:102E90007C2204F6B47085F8243083F0A3FBD4F8C8
:102EA0009C6F4FF4805294F8969F3768C4F8BC2FFB
:102EB000C4F8B47FB9F1000F03D04FF48042C4F8D6
:102EC000C02FA64A4FF4003C0121C2E905C194F885
:102ED000E42F002A00F0EA800322A14B84F8E42FBB
:102EE000DB6C13F4803F0CAB1846029300F0DA80E1
:102EF00067F01CFB0E999B4B0A0A7E68A3FB02320B
:102F0000994B12093340134350007B6081423B6868
:102F100043F003033B6056D3944AB1FBF0F1B2FB9C
:102F2000F1F2A96A0232AB6A5B1A9A42FBD800231B
:102F3000DFF820828E4A0693BB60F9688D4B0B4008
:102F400043F48053FB60D8F88833A2FB032341F29B
:102F500088325B0A02FB03FB5A46002A00F091808C
:102F60007B6B013A1806F8D5834A8249BA634FF45D
:102F7000D572BA60FA68114041F208120A43FA6049
:102F8000BBF1000F09D05A467B6B13F0450F02D0FE
:102F9000990440F1FB80013AF6D10022C4F8F02FE9
:102FA000BA60F968734A0A4042F48052FA605A469D
:102FB000002A66D07B6B013A1806F9D56E4A0023C9
:102FC000BA63019302E1AA6AAB6A9B1A022BFBD98E
:102FD000ADE77B6B5A0700F1B082C7F8389079698A
:102FE000069B002903F101030693069B04DB4FF6C1
:102FF000FE72934240F2F48006984FF6FE729042C1
:1030000000F22C834B0040F11C81396801228E07AD
:10301000C4F8EC2F00F0998200920022DFF854915E
:103020003846BA6041F20232F96801EA09010A43FE
:10303000FA6067F077FE30BB7A6907F118034F4EEC
:1030400007F11C0A03933262BA697262FA69B262CA
:103050003A6AF26241F20312B860F96801EA0901C2
:1030600007F120090A43FA60BBF1000F09D07B6B1E
:1030700013F0450F02D0990440F1F382BBF1010B2C
:10308000F5D14FF00040012384F8E43FD4F8E83F45
:103090000343C4F8E83F2A25284688F884531DB026
:1030A000BDE8F08F67F0DCFA0D9924E7344A9742C7
:1030B00000F08A82334A974200F0A28294F8B00F5F
:1030C000FFF74EFD824694F8B20FFFF749FD8046A8
:1030D00094F8A80FFFF744FD94F8AC3F074694F826
:1030E000AABF009394F8AE3F0193BAF1000F05D048
:1030F000504694F8B12F0E21FEF754FDB8F1000FA1
:1031000005D0404694F8B32F0E21FEF74BFD2FB1AA
:10311000384694F8A92F0E21FEF744FDB9F1000FAF
:1031200040F016820022B6F90400114665F038FD21
:10313000B6F90430002B07DB03F01F0101225B0905
:103140008A40114941F82320D4F8B47FC4E600BF77
:10315000083300240000002410220024C031002481
:1031600000440258598B4F01002CC0FF1021010070
:10317000D34D6210C0E0FEFFC500200010320024D5
:10318000007000520024024800E100E07A6B520710
:1031900000F1A3827A6BD3074CD47A6B560601D523
:1031A0004022BA6300220126CB493846C4F8F06FAA
:1031B000BA60FA68114041F237120A433721FA60C7
:1031C00041F2883267F00CFD88BB019606994FF6F4
:1031D000FE72914231D8DFF800A3C04EDFF80493AD
:1031E000002337213846BB6041F23713FA6802EA00
:1031F0000A02134341F28832FB6067F0F1FC0028B9
:103200007FF441AFBE6041F22913FA6802EA0A0274
:103210001343FB60BBF1000F09D05B467A6B12F0E1
:10322000450F02D091047FF5D4AE013BF6D14FF0AB
:10323000805028E70122BA63AFE60699914200F276
:103240000D823A68900700F08081D4F8EC3F032BA0
:1032500000937FF4E2AEA24ED6E90423B969090DCA
:10326000C4F8F41F910F8DF83010C2F383618DF80C
:103270003110C2F301618DF83210C2F307418DF8AD
:103280003310C2F30721D2B28DF834108DF83520F7
:103290001A0DADF83620C3F303428DF83820C3F37E
:1032A000C0328DF83920C3F380328DF83A20C3F351
:1032B00040328DF83B20C3F300328DF83C200022D1
:1032C0008DF83D20009A002A40F06A8140F6FC7299
:1032D00002EA8303B26943EA92731093C2F3C263B2
:1032E0008DF84430C2F302638DF84530C2F3425387
:1032F0008DF84630C2F382438DF84730C2F3C233B3
:103300008DF84830012310999DF84800194400F0C9
:103310000700023081409DF8380000F00F00C4F82B
:10332000FC1F834033605B0A01FB03F37360D4F836
:10333000F81F4FF40079F3694FF0010B0804C2F352
:103340008031C6F808908DF84910C2F3C61102F01A
:103350007F02DFF884A18DF84A1007218DF84B20F9
:10336000DA0F03908DF84C20C3F341728DF84D2095
:10337000C3F382628DF84E20C3F383528DF84F2041
:10338000C3F340528DF8502000228DF85120C3F332
:1033900000428DF85220C3F3C0328DF85320C3F39E
:1033A00080328DF85420C3F340328DF85520C3F39A
:1033B00000328DF85620C3F381228DF85720C3F3D5
:1033C0000122C3F346038DF858208DF8593041F29D
:1033D00007138DF85AB0B8603846FA6802EA0A0254
:1033E000134341F28832FB6067F0FAFB00287FF458
:1033F0004AAEC7F8089041F21013FA681021384617
:1034000002EA0A021A43FA6041F2883267F0E8FBE6
:1034100041F21013002840F0B980D5F828907A695D
:10342000900100F18F804FF0400B10213846C7F813
:1034300008B0FA6802EA0A02134341F28832FB60DC
:1034400067F0CEFB00284FD1039B37213846BB6085
:1034500041F23713FA6802EA0A02134341F2883252
:10346000FB6067F0BDFB00283ED14FF0FF337B626D
:10347000C7F828B001301F28FCD9FB6A0D21164A75
:10348000384623F0FF0343F06303FB620023BB6075
:10349000FB681A4041F20D13134341F28832FB607E
:1034A00067F09EFB00BB029B05E0AA6AA2EB090243
:1034B000013200F015817A6B12F4957F7A6B40F03F
:1034C00012811104F1D503F12001D7F8802043F8CF
:1034D000042B9942F9D1E8E7C0E0FEFF000010C1DB
:1034E00010320024C5002000D4F8E83FC4F8E83FBB
:1034F000824B01221021BB63D4F8E83F03433846D6
:10350000C4F8E83F4FF4007384F8E42FBB60FB6815
:103510007B4A1A4041F21013134341F28832FB6098
:1035200067F05EFB00283FF4B6AD744BBB6301232C
:10353000C4F8E80F84F8E43FADE504234FF0805071
:10354000BB63A0E54FF40060D2E74FF080609AE5DE
:103550005846FFF705FB20B194F8AB2F0E21FEF77C
:1035600021FB0098FFF7FCFA20B194F8AD2F0E2153
:10357000FEF718FB0198FFF7F3FA94F8AF2F002835
:103580003FF4D0AD0E21FEF70DFBCBE55B4BBB63EB
:10359000D4F8E83F0343C4F8E83F84F8E4BF7AE591
:1035A000009A012A4CD11B04B26903F47C1343EA4C
:1035B000124310934FF400733360109B01339B024E
:1035C000C4F8FC3F7360B2E64E4AD2F8D41021F43E
:1035D0008031C2F8D410D16F41F48031D167D16FFE
:1035E00021F48031D167D2F8D41041F48031C2F88F
:1035F000D410D2F8D42002F480320592059A5DE509
:10360000404AD2F8DC1021F40071C2F8DC10D2F884
:10361000841041F40071C2F88410D2F8841021F4AF
:103620000071C2F88410D2F8DC1041F40071C2F8C5
:10363000DC10D2F8DC2002F400720492049A3DE51A
:103640002E4B01224FF08050BB63D4F8E83F43F08B
:103650008053C4F8E83F84F8E42F14E54FF08070FD
:1036600011E57B6B5A0700F1FF817B6BDB0700F1F3
:10367000F6813B69DBB2032B40F0F381224BBB6345
:103680007B6913F4604F0AD05D0400F1FB8113F4F1
:10369000004F14BF4FF480504FF48030F3E41B0C04
:1036A000174A3846C4F8F83F1B04BB60FB681A4051
:1036B00041F209331343FB6067F034FB00287FF4C9
:1036C000E2AC7A69039B32611B687361DAF800101F
:1036D000B161D9F80010F161C0E50422BA635CE47D
:1036E0004FF0004004E7120700F1C6817A6B9007A3
:1036F00000F1C6817A6B910611D5BFE1FF0FE01F83
:10370000C0E0FEFF00440258C5002000D7F880103A
:10371000AA6A43F8041BA2EB09020132E0D07A6BDB
:10372000D204F3D40CA84FF4007A0FC891FA81F9AF
:10373000010A5FFA83FC21F0FF0141EA10611FFAE0
:1037400081FE110C21F0FF0141EA0C01DFF850C3AA
:10375000C7F838C0C0F3811CC0F340108DF81CC0FE
:103760008DF81D00D0B2ADF81EE0CDF820908DF898
:103770002400C2F30720C2F303528DF82500384617
:103780008DF82620C3F38522ADF8281010218DF87E
:103790002A20C3F301228DF82B20C3F3031203F078
:1037A0000F038DF82C208DF82D309DF84330B74A4B
:1037B0008DF82E30C7F808A0FB681A4041F21013AC
:1037C000134341F28832FB6067F00AFA00287FF465
:1037D000ACAE00999DF82C3001299DF82D20DBB26C
:1037E000D4F8C09FD2B200F0B4800323F06084F814
:1037F000E43FB9F5004F00F0C480B9F5804F00F008
:103800000481B9F1000F00F0C380D4F8E83F43F021
:103810000063C4F8E83FD4F8E83FFBB19C4A4FF49A
:10382000007310213846BA63BB60FB68974A1A40A0
:1038300041F21013134341F28832FB6067F0D0F974
:10384000002800F0DD80924BBB630123D4F8E82F01
:103850001043C4F8E80F84F8E43F1CE4D4F8C82F00
:10386000D4F8B83F032AD4F8BC1FD4F8C40F09D841
:10387000D6F80CC0BCF5007F04D0BCF5807F14BF27
:10388000042202220B4383490343786801403846EF
:103890000B43102143EA0903DFF8F09113437B60E7
:1038A0004FF40073BB6041F21013FA6802EA090298
:1038B000134341F28832FB6067F092F90028C2D1CD
:1038C0000123029641F20D1A3E4684F8E43F039F1D
:1038D000D5F828B009E0D4F8E82F0243C4F8E82F5F
:1038E000AA6AA2EB0B02013242D0B7600D21F26846
:1038F000304602EA090242EA0A02F26041F28832E4
:1039000067F06EF90028E6D1726902F4F052B2F560
:10391000006FE5D1009B019A002B029EC4F8E80FCE
:1039200018BF022206F11003C4F8E00F05F8402C7E
:103930000122594F054684F8E42F584E07F1100430
:103940000FCB87E80F0096E80F0084E80F00FFF721
:10395000A3BB134305D00323C6F80CA084F8E43FAF
:1039600047E74FF48073F360032384F8E43F40E7B4
:103970004FF000420123C4F8E82F84F8E43FFFF73A
:103980008ABBD4F8E83F43F08053C4F8E83F42E7ED
:103990007B69002000219A01CDE90C015CD40298DA
:1039A00076F0F8F9034628BB0D9BDB0361D5039B3A
:1039B0003721DFF8D8A03846BB6041F23713FA68E8
:1039C00002EA0A02134341F28832FB6067F008F909
:1039D000034678B9C7F80890FA6841F20613062141
:1039E000384602EA0A02134341F28832FB6067F06C
:1039F000F7F80346D4F8E82F1343C4F8E83F0AE782
:103A0000012384F8E43FFFF746BB00207B690021D7
:103A1000CDE90C0198011FD4029876F0BBF903465A
:103A20000028E7D10D9B590323D5039B3721DFF8ED
:103A30005CA03846BB6041F23713FA6802EA0A021A
:103A4000134341F28832FB6067F0CAF8034600284E
:103A5000D0D10223BB60BFE74FF40063CAE7012364
:103A6000BB630120FFF70FBB04231846BB63FFF7BE
:103A70000ABB4FF08063BDE7082039E5202037E519
:103A8000022035E54FF40050FFF7FDBAC0E0FEFF1D
:103A9000FF0FE01F002CC0FF403200243032002412
:103AA0003A0F00182DE9F047344C94F8B00FFFF7A7
:103AB00057F8064694F8B20FFFF752F8054694F807
:103AC000A80FFFF74DF894F8968F074694F8ACAF1F
:103AD00094F8AA0F94F8AE4F0EB11823F3800DB1ED
:103AE0001923EB800FB11A23FB80B8F1000F15D119
:103AF00038460121FEF74AF8FEF73CFA304601212C
:103B0000FEF744F82846FEF741F83046FEF732FA51
:103B100028460121BDE8F047FEF72CBAFFF720F850
:103B2000814608B11B23C3805046FFF719F8804631
:103B300008B11C23C3802046FFF712F8044638461C
:103B40000CB11D23E3800121FEF720F8FEF712FAE5
:103B50004846FEF71BF84046FEF718F82046FEF7E9
:103B600015F801214846FEF705FA40460121FEF707
:103B700001FA01212046FEF7FDF9BFE710220024DB
:103B8000F8B50E4B93F848709FB10D4DC7F109077A
:103B90000924013C0FD0AE683079FEF7E1FF95F8BB
:103BA000DC10F27908B1FDF7FDFFA74205F5B47509
:103BB000EFD10120F8BDA368FFDE00BFFC1000209C
:103BC0003C050020F0B4046EEFF31183502282F321
:103BD00012880279920702D590F872203AB9012230
:103BE00080F86420DBB283F31188F0BC7047026C6C
:103BF000116801F001010029F4D1466A856AAE42DC
:103C0000EDD0856A476A866AB74220D8866A8162A3
:103C10000169891B1FFA81FC8169DBB229440025F7
:103C200080F8645040202062D16051686FF30F012A
:103C300041EA0C015160116841F001011160A26874
:103C400042F08002A26083F31188F0BC7047416AA1
:103C5000866AA1EB060C416A1FFA8CFC8162DBE7E5
:103C6000027D0346C0691F2A1B6805D9203A20211E
:103C700001FA02F2DA60A5E7202101FA02F29A6065
:103C8000A0E700BFBFF34F8F0549064BCA6802F497
:103C9000E0621343CB60BFF34F8F00BFFDE700BF6F
:103CA00000ED00E00400FA051B481C4AC1681C4BEB
:103CB00010B44FF6FF0485B021401A4C0A43C2608D
:103CC000D3F8D010D3F8DC20E16242F00052C3F800
:103CD000DC20D3F8DC2002F000520192019AD3F8E4
:103CE000DC2042F08042C3F8DC20D3F8DC2002F074
:103CF00080420292029AD3F8DC2042F00042C3F8DC
:103D0000DC20D3F8DC3003F000430393039B05B0C1
:103D10005DF8044BFDF75CB900ED00E00005FA0525
:103D2000004402580833002408B51D480023C0F899
:103D30008430BFF34F8F436923F480334361BFF373
:103D40004F8FD0F8803043F6E074C3F34E3CC3F39A
:103D5000C90E4FEA4C1C0CEA0401734641EA837217
:103D6000013BC0F874225A1CF8D1ACF1200C1CF1B4
:103D7000200FF0D1BFF34F8FBFF36F8FBFF34F8F83
:103D8000BFF36F8F4369002223F400334361C0F80F
:103D90005022BFF34F8FBFF36F8F72B6FFF772FFE2
:103DA00000ED00E0890AA1F5801152292BD81D4BA6
:103DB00010B513F801E0BEF10D0F23D8EFF3118415
:103DC000502383F312880368F3B1191D436200F195
:103DD000100200F1200C52F8043F0BB10B60191DCA
:103DE0009445F8D10022E3B20A6083F31188436A54
:103DF0006BB14C220C4B02FB0E331A6BD36843F0B1
:103E00000103D36010BD704700F12401DFE74C22AD
:103E1000054B02FB0E331A6BD36823F00103D3600A
:103E200010BD00BFD86C0C0808330024F0B50C4658
:103E300001688B0AA3F58013522B2BD81E4DEB5C27
:103E40000D2B27D840794C261C4D4FF0020E06FB57
:103E5000035C8508DCF8306028460EFA05FED4B114
:103E600003EB830CF768164D03EB4C0C47EA0E0787
:103E7000604405EB800CCCF80444CCF81424F760C3
:103E800003EB83020F4803EB4203BDE8F04000EB75
:103E9000830087E7F0BD03EB830503EB450528446A
:103EA000F56825EA0E05F560054D05EB8006C6F8B8
:103EB0000444C6F81424E3E7D86C0C080833002443
:103EC000102200241026002403689B0AA3F5801307
:103ED000522B00D970470E4AD35C0D2BFAD84FF005
:103EE0004C0C10B40B4C42790CFB03400223006BCA
:103EF000DA409340C26829B922EA03035DF8044B13
:103F0000C360704713435DF8044BC360704700BF44
:103F1000D86C0C080833002403689B0AA3F58013AF
:103F2000522B0FD8084AD25C0D2A0BD840790223B5
:103F300006494FF04C0CD8400CFB02128340126B28
:103F4000DB431361704700BFD86C0C0808330024B2
:103F500001490248FCF798BE1026002400000140E9
:103F600001490248FCF790BE1026002400000140E1
:103F700002494FF08040FCF787BE00BF3C2600247A
:103F800001490248FCF780BE682600240004004076
:103F900001490248FCF778BE94260024000800403E
:103FA00001490248FCF770BEC0260024000C004006
:103FB000F8B5164D164E2A69EB681A404FF00040CE
:103FC000B2FA82F3EAB120FA03F3012A6FEA03039B
:103FD00002EA03012B610A46F2D1D6F804758FB1CB
:103FE000013F0023BFB2C6F80435D6F8004534B10E
:103FF00023682046394698476468002CF8D100228F
:10400000DCE7F8BDEF6ABFB2EFE700BF0010004089
:104010001022002401490248FCF736BE4427002440
:104020000004014010B5064C064804F23451FCF778
:104030002BFE04F28C510448BDE81040FCF724BE6E
:104040001022002400040140001C004001490248E5
:10405000FCF71ABE702700240018004001490248EE
:10406000FCF712BEC8270024002000400149024886
:10407000FCF70ABEF4270024004001400149024831
:10408000FCF702BE202800240044014001490248F8
:10409000FCF7FABD4C280024004801402DE9F0410E
:1040A0004FF425728EB00021734882F09BFA734B57
:1040B000734D4FF00008D3F8F02040F27D27A5F5AE
:1040C000307605F6F41442F00102C3F8F020D3F87C
:1040D000F02002F001020092009AD3F8E82042F0AA
:1040E0000102C3F8E820D3F8E82002F001020192AF
:1040F000019AD3F8E82042F00202C3F8E820D3F88E
:10410000E82002F002020292029AD3F8E82042F07C
:104110000402C3F8E820D3F8E82002F00402039276
:10412000039AD3F8E82042F00802C3F8E820D3F855
:10413000E82002F008020492049AD3F8E82042F042
:104140001002C3F8E820D3F8E82002F0100205922C
:10415000059AD3F8E82042F02002C3F8E820D3F80B
:10416000E82002F020020692069AD3F8F02042F0EE
:104170000202C3F8F020D3F8F02002F00202079206
:10418000079AD3F8E82042F04002C3F8E820D3F8B9
:10419000E82002F040020892089AD3F8E82042F0A2
:1041A0008002C3F8E820D3F8E82002F080020992E8
:1041B000099AD3F8E82042F48072C3F8E820D3F8D3
:1041C000E82002F480720A920A9AD3F8F02042F4AE
:1041D0008032C3F8F020D3F8F02002F480320B9242
:1041E0000B9AD3F8F02042F40032C3F8F020D3F851
:1041F000F02002F400320C920C9AD3F8F02042F432
:104200008022C3F8F020D3F8F03003F480230D931C
:104210000D9B55F82810002354F83320914226D0E6
:1042200001330E2BF8D1002008F1070876F0F8F8DA
:10423000B845EED14FF0000840F27D2755F8281020
:10424000002354F8332091420CD001330E2BF8D1C7
:10425000002008F1070876F0E3F8B845EED10EB07B
:10426000BDE8F08106EBC303B3F8B80CF1E706EB49
:10427000C303B3F8B80CD7E7102600240044025853
:10428000986F0C081F4B984210B50ED003F5806351
:1042900098420AD01C4A03F58043984218BF9042C6
:1042A00003D003F5806398421BD166F005F9174BE4
:1042B0001749DC69DA69C4F3022CC2F3022201EB6C
:1042C0000C0393F8003203F01F03D8400F4B114941
:1042D0001B69C3F3C03342EAC303CB5C03FB00F0AA
:1042E00010BD66F0E9F8094B0949DC69DA69C4F3E5
:1042F0000214C2F302120B1993F8003203F01F03E9
:10430000D840E3E70000014000400140004402586B
:10431000D86C0C0840230D082DE9F04F002391B014
:10432000DFF8EC920093B04BB04DA3F6046AB04EA8
:10433000B04C276899F8B624BB0AA3F58013522B1A
:1043400000F2CC801AF803300D2B00F2C780012A4E
:1043500016F903B000F00181022A02D1BBF1080F67
:104360003CD14FF000084146584616F0B5FA16F019
:104370003DFB90F900C0BCF1000F18BFBCF1540F19
:1043800014BF4FF0010C4FF0000C40F0DC8008F13E
:1043900004081FFA88F8B8F1100FE4D1009B002B35
:1043A00000F0A780914A0BE01AF803300D2B0ED8CD
:1043B000F3565B450ED002F58672AA4200F0958056
:1043C00091680B689B0AA3F58013522BECD900234C
:1043D0005B45F0D14B7961799942ECD11C34824B29
:1043E0009C42A6D1009B05F586750133042B0093F2
:1043F0009ED1814B4FF0010ADFF818B293F8483094
:1044000001330293029B534565D099F8CA34DBF817
:104410000C6003939BF810300093002E5BD0774A1A
:10442000336855687648B288002D184401924FEAE7
:10443000902040F39F806D4A002405E0013402F58E
:104440008672AC4200F0938011688142F6D1674ACF
:104450004FF48671019F01FB0424009ACBF80C6095
:104460008BF81020019ACBF81840B2FA82FC032294
:10447000CCF11F056800CBF80450B27186F807A094
:1044800002FA00F6A16C0122D4F854E0314302FA9A
:1044900000F002FA05F5A164216D0143D4F8AC00E7
:1044A000216556490E78A9B2002E00F0408145EAF8
:1044B0000E0565659F61FBF7F5FD0AF1010A2046CF
:1044C000FBF7C4FD0BF1200B40F20113BAF1090F09
:1044D0002BF8043C96D111B0BDE8F08F013A012AC7
:1044E0007FF67CAF4FF0000B3BE7BCF1000F7FF491
:1044F00075AFA0680022434B04E001320C33102A50
:1045000000F0618359688842F7D152B26179384628
:10451000FCF7D8FF3C4A0023416804E0102B02F16D
:104520002C023FF45BAF576818460133B942F5D10E
:104530002C23364A03FB002090F9E430002B7FF453
:104540004DAFAC604EE7009B002B7FF42BAF1C34CB
:10455000254B9C427FF4EDAE44E7BBF1010F3FF4E5
:1045600000AF1C34204B9C427FF4E3AE3AE7042CAE
:1045700000F043824FF48671204A01FB0522116945
:104580000591002900F0F1829060013054211D4F07
:10459000C4B29E4682F8101182F811416A1C174974
:1045A0004A60059A10685179D2F808C0002204E0E8
:1045B00001320C37102A00F006837B689C45F7D146
:1045C00052B2CDF810E0FCF77DFF0C4B4FF4867231
:1045D000DFF8348002FB05310022049BD0E9017032
:1045E000C1E9077041461CE0DC7A0C080C00002091
:1045F0005C230D08FC790C08FC100020040000204E
:104600000000FEA704000024C400002400000024D1
:10461000083300243C040020102A01F12C013FF44F
:104620005AAF4868944601328742F5D12C2282491C
:1046300002FB0C1C9CF9E420002A7FF44CAF4FF4E1
:1046400086728CF8E54054217C4802FB05F28CF818
:10465000E41014467A4AA11006947A4C02F5607C64
:1046600000FB01F106982018C360C1EBC10302EB07
:10467000431201EBC10304F10801C0F8B4200CEBB4
:104680004313069AC0F8FC3033238C18C0F8B830B6
:104690008C23C0F80031059B1B6818460493FFF774
:1046A000F1FD039B062B00F0AE81072B6649674B9B
:1046B000674A18BF1A46674B18BF0B464FF48671FE
:1046C000B0FBF3F3B0FBF2F2013B5E48013A01FBB1
:1046D00005019BB2A1F8BC20A1F874302366069BAB
:1046E00003F1580100F10803049819440023A4F8C9
:1046F00058306366E3657AF0F5FA049A136843F07C
:1047000080031360059B5B791A4603930C2A1BD820
:10471000DFE812F0F3011A001A001A00D1011A00A2
:104720001A001A00AF011A001A001A008C01CCF10D
:104730002F0C3F0402FA0CF242EA0E026265324686
:104740009F61FBF7AFFCB8E63E4A4FF486730498CE
:104750004FF0020C03FB0523602208924FF4807295
:10476000596903680E92012223F00103079109920F
:104770000A2203600023CDE90B2C08AA0A930D93AB
:104780000F937AF031F907990023B1F5807F00F09B
:10479000128240F23B81B1F5805F00F00882B1F5F2
:1047A000803F00F0FF81B1F5806F15BF4FF40062CC
:1047B00008223C23042304991831C8580243CA50E4
:1047C000059B1879002840F0BE81049A136843F0D5
:1047D00001031360002304E0102B08F12C0800F003
:1047E000AE81D8F80420194601339742F4D10593DD
:1047F0002C22114B02FB0132D2F8C400164A90421F
:1048000014BFA120A02075F00BFE0399059B0C2975
:1048100000F29381114A02EB4102B2F8041E0948EA
:104820004FF48672DFF838E002FB0502DDF810C0B5
:10483000002011831DE000BF000000246B4CA40782
:1048400060D3012404000020D0DD06004495080058
:104850001055220040771B0000000240D86C0C0865
:1048600030180020944500F0A0810130042800F0A9
:10487000AD815EF83020002AF4D1BF4A1746D2F845
:1048800054270132C7F8542707EBC002049FC00029
:10489000C2F834770EEB0007902218462346B7F88B
:1048A00004C041EA0C01B9800027B449FCF778FE46
:1048B000B34A4FF486734FF0400C4FF4403EB1487A
:1048C00003FB05234FF48052DD690793296841F00B
:1048D00010012960296841F014012960C4E91F779B
:1048E000C4E92777C4E92977196AC4F878C04FF476
:1048F000806CC4F894100391E9B2C4F898E01039C0
:10490000C4F884C025F0FF0CA0FB0101D3F8B80067
:10491000CDF810C0C4F890000909D3F80C80C4F891
:10492000882008F118029848059108F110082267BC
:10493000069A70320244D3F8B40060674FF48040A6
:10494000C4F88C0060467AF033FAD5F800E0069A95
:10495000C4F820E0D5F814E0B8328B4BC4F824E05A
:10496000D5F804E01A44039BC4F828E0D5F808E021
:10497000C4F82CE0D5F80CE0C4F8DC304FF48063C8
:10498000C4F8C870C4F8CC30079BC4F830E0C4E960
:104990003077C4E93977C4E93B77DDE904C14FF4E6
:1049A000003760464FF4006CC4F8E070D3F8007133
:1049B000C4F8B880C4F8D8704FF48047C4F8D0C0A9
:1049C000D3F8FC30C4F8D470C4F8BC307AF0F0F9F5
:1049D0002B68B78863636B69A3636B68E363AB6839
:1049E0002364EB6863642B6843F010032B602B682F
:1049F00043F014032B6033682FE5032389F8CB348D
:104A000011B0BDE8F08F614A614B57E6102900F004
:104A1000D78000F2BF80012900F0D080042915BFA3
:104A20004FF4006208223C230023C4E604984FF4AC
:104A300086725349036802FB05124FF4805123F03C
:104A4000010351610222036000230A930D930F9327
:104A5000602308934FF480730E93012309930A2374
:104A6000CDE90B3208AA79F0BFFF4FF400620423AE
:104A7000A1E604984FF4867241494FF0600C036838
:104A80004FF0020E02FB05124FF4807123F0010378
:104A9000516108AA036000230E910A930D930F93AE
:104AA0000123CDE908C30A23CDE90B3E79F09CFF31
:104AB000082204237FE632494FF48672049802FBF1
:104AC0000512102103685161602223F0010308924E
:104AD0004FF48072036000230E9201220A930D931B
:104AE0000F93022309920A22CDE90B2308AA79F039
:104AF0007BFF00234FF400625DE604984FF486725A
:104B00001F49036802FB0512012123F001035161D3
:104B100060220360002308924FF480720A930D9381
:104B20000F9302230E920A220991CDE90B2308AAC2
:104B300079F05AFF002308223DE600216FE64FF08E
:104B4000FF31002353E6FEF70BF8079038B1059BC1
:104B50000221DA79FDF726F85422079BDA80049ABD
:104B6000536C43F4004353642FE6022389F8CB349B
:104B700011B0BDE8F08F00BFFC1000200100000064
:104B800004000020ABAAAAAA0C000020882A110069
:104B9000A0BB0D00402915BF4FF4006208223C2342
:104BA000002308E608223C2305E6C00072E64FF425
:104BB00000620423FFE508220423FCE50822FAE54D
:104BC0004FF40062F7E500235B68FFDE00239B885B
:104BD000FFDE00BF2DE9F04FB24D8FB095F8CC84C9
:104BE000B8F1000F03D100200FB0BDE8F08F002214
:104BF0002F21404615F050FF06460028F3D00368E9
:104C000090F80590A84F0193A7F87C99FCF782FCD7
:104C10000028E8D0D0E901430293002CE3D0DFF86C
:104C2000C0B20022594601E0102ADCD04B689446FD
:104C30002C3101329C42F7D12C229C4B02FB0C3CC4
:104C40009CF9E4A0BAF1000FCDD1019B2F221846A8
:104C5000ACF8E420C7F83039FFF714FB944A9042CF
:104C600080F0FC80012303930198FFF70BFB039B6B
:104C70009049C7F834A9B0FBF3F2120A8E48A1FBA1
:104C800002210022C7F84029C7F838290A09090972
:104C9000A0FB0202C7F83C195208A5F8D024520024
:104CA000A5F8CE2497F86D2902F0FF01002A00F044
:104CB000E78002220198814987F86D2965F0D2FECC
:104CC0000122404687F8782987F86E2987F86F29EE
:104CD00087F8702987F8712987F8722987F873296E
:104CE00087F8742987F8752987F8762987F877294E
:104CF00087F86D29FDF734FFC5F8D40428B12F21BA
:104D0000C1804E21F279FCF74DFF6D4A0021029BD4
:104D1000B9F10C0FC5F8E414C5F8DC34C5F8F41487
:104D2000C5F8FC14C5F80415C5F80815D2F8D80064
:104D3000C5F8D84440F00100C2F8D800D2F8D80035
:104D400000F0010004900498D2F8D80040F002006E
:104D5000C2F8D800D2F8D82002F002020592059AD3
:104D60004FF04002C5F8E0244FF48062C5F8E82413
:104D70004FF48052C5F8EC244FF48042C5F8F0247B
:104D80004FF40032C5F8F8244FF00302C5F80025AF
:104D900079D84C4A02EB4902B2F8208EC2464A4A00
:104DA00008F108084949C5F8102507EB8802C2F840
:104DB00030195A46002101E0102969D0536808468D
:104DC0002C3201319C42F7D1384B2C2202FB0032AD
:104DD000D2F8C4003E4A904214BFA120A02075F032
:104DE0001FFB002001E0102850D0DBF80430013018
:104DF0000BF12C0B9C42F6D107EB8807534660223F
:104E00003449FCF7CDFBD7F8300964F07DFA00286F
:104E10007FF4E9AEB479002760260C9063004A461F
:104E200006A9294803F002030893E300CDE90667C9
:104E300003F00803002600270993CDE90A6775F0FF
:104E400039F800287FF4CFAEA30749461E4822D583
:104E500065F07CFEB0FA80F04009C5E60198FFF7E6
:104E600011FA1D4A1D490244A1FB021A4FEA9A5A3F
:104E70000AF1FF3A1FFA8AFA0AF101030393F3E6F3
:104E800087F86C1915E78A46884688E70020B3E75B
:104E90004FF0FF3098E765F059FDB0FA80F0400917
:104EA000A2E600BF083300241022002400000024E2
:104EB000006CDC02598B4F01ABAAAAAA442B002438
:104EC00000440258D86C0C08402B0024E037002422
:104ED00000000240D502000000366E01819F5E1680
:104EE000C40000242DE9F0470468A30AA3F5801349
:104EF000522B6FD815466E4AD65C0D2E6AD84C27B9
:104F0000DFF8C481013907FB06FA89B208EB0A0908
:104F1000C9F83C100068FFF7B5F908F13003B0FBA1
:104F2000F5F0013807FB0637C9F83400391DD9F808
:104F30003000A04200F0B7800AF1080A0022C9F848
:104F400030405344C9F83820C3E9022299F86D3043
:104F500003F0FF02002B00F0A3804C250223204623
:104F600005FB068585F86D3065F07CFD0123B4F105
:104F7000804F85F8783085F86E3085F86F3085F889
:104F8000703085F8713085F8723085F8733085F8A7
:104F9000743085F8753085F8763085F8773085F887
:104FA0006D30444BA4EB0303B3FA83F34FEA53137E
:104FB00056D0002B54D1404A94420DD002F5806265
:104FC000944209D002F5806294422BD002F57842D7
:104FD000944227D0BDE8F0874C2303FB068393F867
:104FE0006C20012AF6D00221344A83F86D10A068A3
:104FF0000240A260012283F86D2083F86D10626880
:10500000A16822F0700221F080014C23626000222E
:10501000A160012103FB068383F86D1083F86C20E7
:10502000BDE8F0874C2202FB068292F86C10012941
:10503000D0D0022182F86D102049A068014020489C
:10504000A1600121201A82F86D100021B0FA80F0D1
:1050500082F86C101B4A4009944213D090B9B9E70A
:105060004C2202FB068292F86C100129B2D0022178
:1050700082F86D101149A06801400020A160012153
:1050800082F86D104C22022102FB068282F86D101C
:105090006268A1680BB90028B3D022F47002B0E7AF
:1050A00089F86C2059E7BDE8F04765F0DBBC00BF2C
:1050B000D86C0C0800000140000400408800CEFFBE
:1050C00000040140000C00400833002403689B0AE0
:1050D000A3F58013522B07D82DE9F0412F4DEE5C3C
:1050E0000D2E02D9BDE8F08170470446FFF7FAFEA5
:1050F0004C222B4B02FB063393F86D20012A12D071
:1051000020680023274951F8332090421CD00133F6
:105110000E2BF8D101220020114663F041FD224BF5
:1051200001221A60DEE702211A6B83F86D101F4B13
:1051300091680B40062BE3D0B3F5803FE0D01368B5
:1051400043F001031360DBE705EBC3050126164FAF
:1051500095F8BA4C3246314604F01F05204663F0FC
:105160001FFD1B2C4FEA541806FA05F547F8285086
:105170000AD02E2CB6D1324631462C2063F010FDD9
:105180004FF480537B60ADE732463146192063F01F
:1051900007FD4FF000733B60A4E700BFD86C0C081C
:1051A000083300248C790C0800E100E007000100BE
:1051B000F8B5134C94F8CE3903F0FF05002BF9D164
:1051C000104B012693F8503584F8CE6903B9F8BD29
:1051D0000D4AB4F8CC79138A14320C483946FBF7DF
:1051E000B5FD034610B184F8CE59F8BDD4F8804916
:1051F0003246394605486362BDE8F8407DF0F0BCB0
:10520000102200240833002420860124902B00243F
:1052100037B590F85F380446032B2FD10023204D7B
:105220008DF807309DF8073094F860289A4201D82D
:1052300003B030BD9DF8073005EBC30393F8583534
:105240008BB181F0010383B19DF8073005EBC303F7
:10525000D3F85405FCF79AFC9DF807300133DBB214
:105260008DF80730DEE70B46EDE79DF8073005EBDC
:10527000C303D3F85405FCF78FFCEDE7D0E9100326
:105280009B7903F00103994204D003B0BDE830409C
:10529000FCF77CBC03B0BDE83040FCF77DBC00BF30
:1052A0000833002438B5044600790D4650B1FDF7A7
:1052B00057FC08B10323C380E2792946BDE8384092
:1052C000FCF794BC38BD10B504462221FFF7EAFF75
:1052D0002046FEF721FE20460121BDE81040FEF7E2
:1052E000F3BD10B504460121FFF7DCFF0021204685
:1052F000BDE81040FEF7E8BD38B510F8133CA0F645
:10530000640433BB94F85028002A33D1616AA36A3D
:1053100099421ED0A36AA169581CA062CB5CA06A06
:105320002169DBB2884200D3A2625B0043F40073C0
:10533000A4F854380A2384F85238012384F85038EA
:1053400094F85F38012B01D0042B02D1606CFFF779
:10535000C8FF94F84C38002B6DD194F84D380133C8
:10536000DBB2092B84F84D3825D12046BDE8384002
:10537000FAF770BF94F952586DB1B4F85418013D62
:1053800020464B0801F00101A4F85438FFF740FF14
:1053900084F85258DDE7626AA36A84F850589A424A
:1053A000D7D194F85F38012B01D0042BD1D1606C98
:1053B000FFF789FFCDE70A2B3DD194F84F382BB981
:1053C000B4F8563843F00103A4F856382379D907C6
:1053D0000AD5B4F85608820501D4C30718D4B4F826
:1053E0005C380133A4F85C380122002384F84C288F
:1053F00094F84F2884F84D38012A1CD16179606CEB
:1054000084F84F3801F00101BDE8384076F0D8BB90
:10541000E36AC0F3470013B1216B9847E4E7E369FF
:105420006269D054E369E2680133B3FBF2F102FB35
:105430001133E361D8E738BD2DE9F84310F8133C88
:10544000A0F664047BB1B4F8583801339BB2082B42
:10545000A4F858381BD90021606C84F85118A4F8BE
:10546000581876F0ADFB394F97F89485B8F1000FD6
:1054700003D101212046FFF7CBFE94F850385BBBE7
:10548000626AA36A9A4204D1002387F89435BDE882
:10549000F883B8F1020F12D808F1010814BFFF23F6
:1054A0007F2387F89485A4F854380823606C84F827
:1054B0005238012384F85038BDE8F84311E7A36A55
:1054C000A269591CA162D35CA16A2269DBB2914234
:1054D000E9D30022A262E6E794F952685EB3B4F819
:1054E000549897F8955519F001010BD0012D01D86A
:1054F000012103E0AB1E012B09D800212046FFF754
:1055000087FE04E015F0FD03F2D0012BF6D0013543
:10551000EDB2032D87F89555B9D9013E4FEA5909E7
:10552000002376B2A4F8549887F8953584F8526829
:10553000002EA5D0ABE7626AA36A9A42A7D1606C3D
:1055400084F85068BDE8F843BDE600BF0833002486
:105550002DE9F047BEB0BFF35F8FA14A0020516A2A
:105560000346044621F4803151620146C2F894009A
:10557000C2F898300133C2F89C10112BC2F8A01069
:10558000F6D10523C2F89430536A43F48033536252
:10559000BFF34F8FBFF36F8F9248934A9349121A0C
:1055A00080F0C2FF9248934A9349121A80F0BCFFE0
:1055B000924BDA6D042A00F0FB8005D8012A00F036
:1055C0009D83022A00F0B083854A00238C4C012081
:1055D000D2F888108B4E41F470018B4DC2F88810C0
:1055E00020602361216841F080012160216801432E
:1055F0002160216841F480312160216841F48051AB
:105600002160A361E3612362A362E36223636363B6
:10561000A363E36323646364216821F48021216030
:105620007A492366C1F808014FF000614FF6FF0088
:10563000774B9160D16801400B43D36064F01AFF4F
:10564000A36902460F20C3F30323A169334493F8EF
:10565000003203F01F0322FA03F3C5F8883363F026
:10566000D7FA6C4AD36813F0040FD36840F0A280D5
:10567000694B0021674A0591D96A21F00101D9627D
:10568000DB6A03F001030593936943F4404393619C
:10569000936903F440430593059B93699B04FCD5F0
:1056A0004C2200210EA85D4C80F09CFF5C4A42F227
:1056B00003031268B3EB124F4FF000030793A4F1FA
:1056C000140308BF1C46E268002A4DD0524B5149D2
:1056D000D86A20F00100D862DB6A03F00103079367
:1056E0008B6923F4404313438B618B6903F440437C
:1056F0000793079B474A93699F04FCD5404B4FF49F
:10570000403748480321D3F8E02042F08002C3F834
:10571000E0200122D3F8E03003F080030693069BDB
:1057200087610D9B0091019300237AF029FA0223EF
:1057300022690EA8CDE91733A3781E92012219938E
:10574000A3881A93A3791B93E3791C93237A1D935F
:1057500000231F934FF48033CDE90E2364F0D2FB76
:10576000032839D098B1FEE72A4A2B4B916941F4BE
:1057700040419161926902F440420792DA6A42F034
:105780000102DA62DB6A03F001030793B1E7264BFB
:105790001A6812F00E0F4BD11A6822F00F0242F075
:1057A00002021A601B6803F00F03022B40D0FEE7D1
:1057B000DC6509E723F007031C4C43F00203D360C8
:1057C000A16A05E0A36A5B1AB3F57A7F3FF650AF92
:1057D00053689804F6D54BE772B6FEF753FA00BF4C
:1057E00000ED00E000000000604A0000B4CE0D08AB
:1057F0000000002004000020994A0E0800400058D4
:1058000000440258D86C0C080000002400800051AD
:105810000003FA050048025800040058A0030024C1
:105820000010005C001C02580020005208330024C5
:105830006D4A936903F070033F2B05D8936923F0F9
