:0200000490105A
:1000000000000220418C1790DD8C179051851090D4
:10001000DD8C1790DD8C1790DD8C179000000000B0
:10002000000000000000000000000000DD8C1790C0
:10003000DD8C179000000000DD8C1790E5571090C4
:10004000DD8C1790DD8C1790DD8C1790DD8C179070
:10005000DD8C1790DD8C1790A12D1090C92D10907C
:10006000F12D1090192E1090412E1090BD0300001C
:10007000D1030000E5030000F90300000D040000B7
:100080002104000035040000DD8C17905585109088
:100090005D851090DD8C1790DD8C1790692E109087
:1000A000DD8C179001411090DD8C1790F14010907D
:1000B0001141109021411090314110901122109067
:1000C0000D2210901922109015221090DD8C17909F
:1000D000DD8C1790113A0000593B0000CD3C000028
:1000E000A92E1090DD8C179000000000ED411090BB
:1000F000C5411090FD411090B54110904904000099
:10010000DD8C1790DD8C179041411090DD8C17909D
:10011000413E0000B53F000051411090AD95169052
:100120005D040000710400008504000099040000D3
:10013000AD040000DD8C1790DD8C1790DD8C1790DE
:1001400000000000000000000000000000000000AF
:10015000C1040000D5040000E904000029410000AA
:10016000212210901D221090DD8C1790DD8C1790AD
:10017000DD8C1790ED8B1690DD8C1790DD8C179031
:10018000DD8C1790DD8C17909D420000114400001B
:10019000DD8C1790DD8C1790DD8C1790DD8C17901F
:1001A000DD8C1790DD8C1790DD8C1790000000001F
:1001B000DD8C1790DD8C1790DD8C17902922109024
:1001C00025221090DD8C1790000000000000000038
:1001D0000000000000000000DD8C1790000000000F
:1001E000000000000000000000000000000000000F
:1001F0000000000000000000DD8C1790DD8C1790DF
:10020000DD8C1790DD8C179000000000DD8C1790BE
:100210000D4210901D4210902D421090DD8C1790D1
:10022000DD8C179000000000DD8C179000000000AE
:10023000DD8C1790DD8C179000000000DD8C17908E
:10024000DD8C1790DD8C1790DD8C1790DD8C17906E
:10025000DD8C1790DD8C1790DD8C1790DD8C17905E
:10026000DD8C1790DD8C1790DD8C1790DD8C17904E
:10027000DD8C1790DD8C17906D48000000000000A9
:10028000DD8C1790DD8C1790DD8C1790DD8C17902E
:1002900000000000DD8C1790DD8C1790DD8C17902E
:1002A000DD8C1790DD8C1790DD8C17908545000054
:1002B000F9460000DD8C1790DD8C17906585109055
:1002C000DD8C1790DD8C1790DD8C179000000000FE
:1002D000114A037A0168D35C10B4CC58CA1824F0D0
:1002E0000104CC501368DB07FCD4037D1F2B09D914
:1002F000203B20225DF8044B02FA03F343F018037D
:10030000CB60704720225DF8044B02FA03F343F000
:1003100018038B60704700BF706518904368426D8A
:1003200030B49A61EFF31182502383F3128841684D
:10033000D2B2856C0B68046D23EA050323430B607E
:1003400082F31188436981681A68096822F0010202
:10035000D0E908541A60826A1D605C615A60D0E975
:100360000B429C60DA600023B0F86C2030BCCA629B
:1003700003777047002A4FEA014C034630B508BFA7
:10038000E64600F1C00514BF8E468C46002419686D
:100390000C3353F8042C43F8084C41EA0C0142EAB0
:1003A0000E02AB4243F80C1C43F8042CEFD1D0F8FA
:1003B000C03043EA0E03C0E93144C0F8C03030BD5C
:1003C00010B40C4C6368002B11DD002004F1080C04
:1003D0000146DCF8AC3003F1C00259600C339342A3
:1003E000FBD1013063680CF5867C8342F1DC5DF85B
:1003F000044B704788200020F0B5404C04EB4013BC
:1004000093F8543403B9F0BD3D4B42011D7893F885
:1004100001C065450CD00CEB4C0E03EBCE0E9EF8E4
:1004200004604FEA4C0E771E012F5AD9032E52D08A
:100430002244A2F83814EFF31181902383F3128839
:1004400092F83A34C9B2B2F8380443EA40030020C3
:100450009BB282F83A0481F311881909207881EA65
:1004600013215940D8B1C9431B01D2F8505401247B
:10047000D2F83C049BB201F00F01D5F8AC208440C7
:100480000B4302F1C000590013F4004F8BB202D1AC
:100490005168214351600C329042F4D1F0BDD2F842
:1004A0003C041B01D2F8502401F00F0110309BB224
:1004B0000124D2F8AC200B43844002F1C000590063
:1004C00013F4004F8BB202D15168214351600C32BA
:1004D0009042F4D1F0BD0CF1010606F00306AE42E5
:1004E000A6D0E64403EBCE030344597C00299FD0F9
:1004F000A318012083F83A049AE700BF882000205F
:1005000000000024704700BF024B03EB401393F838
:100510005504704788200020BFF34F8F0549064BD4
:10052000CA6802F4E0621343CB60BFF34F8F00BF91
:10053000FDE700BF00ED00E00400FA05426A806AB2
:10054000131A58425841704790F84F3830B53BB9AC
:1005500090F84D18012490F84E38DAB2914200D844
:1005600030BD04FA03F2B0F8565801332A43A0F81C
:100570005628F2E70379024613F0010005D0D3694B
:10058000D068116A01385B1A1840704710B50379BA
:100590000446DB0701D4002010BDFFF7EBFF002865
:1005A000F9D0236A6269D05C236AE268C0B2013381
:1005B000B3FBF2F102FB11332362EDE703799B07F2
:1005C0000AD5436A8269D154436A02690133B3FB95
:1005D000F2F102FB113343627047704701717047BB
:1005E0000379024613F0020007D0536A1069916A3A
:1005F00001385B1A0340DBB2C01A70472DE9F043A3
:10060000134C83B0DFF84C90DFF84C8004F56C7627
:1006100002E00834B44217D094F90650002DF8D106
:100620002768083407EB08039B0A39F813006FF0BA
:1006300043FC34F8041C01232A463846CDE9005512
:1006400074F01AFFB442E7D103B0BDE8F08300BFF5
:100650006400002418C017900000FEA72DE9F04F99
:100660004C484FF0010A4C494FF002094B4B4FF0F8
:10067000040808271026202540244FF0800EDFF8BC
:1006800020C130F8022F12F0010F03D01960083397
:1006900023F804AC12F0020F03D01960083323F8DA
:1006A000049C12F0040F03D01960083323F8048C63
:1006B00012F0080F03D01960083323F8047C12F0FD
:1006C000100F03D01960083323F8046C12F0200FC8
:1006D00003D01960083323F8045C12F0400F03D0F4
:1006E0001960083323F8044C12F0800F03D019600E
:1006F000083323F804EC12F4807F05D04FF4807B9C
:100700001960083323F804BC12F4007F05D04FF4BD
:10071000007B1960083323F804BC12F4806F05D005
:100720004FF4806B1960083323F804BC12F4006F97
:1007300005D04FF4006B1960083323F804BC12F4A1
:10074000805F05D04FF4805B1960083323F804BC48
:1007500012F4005F05D04FF4005B1960083323F8F2
:1007600004BC12F4804F05D04FF4804B196008335D
:1007700023F804BCD20B05D04FF4004219600833B3
:1007800023F8042C01F5806161457FF47AAFBDE860
:10079000F08F00BF26C017900000025864000024AC
:1007A0000020025807280AD84FF4B472054B02FB08
:1007B0000033B3F83805B0FA80F0400970470020E4
:1007C000704700BF88200020072807D8044B4FF44B
:1007D000B471012201FB003383F83A25704700BF52
:1007E0008820002010B584464FEA810E102312F4B1
:1007F000004F4FEA420214BF0E240724013B92B27D
:10080000CCF80040F444F2D100EB81128C0103518A
:10081000122042F8213010BD10B584464FEA810EF7
:100820000424130B013C4FEA021203EB430392B280
:1008300003F11803CCF80030F444F2D100EB0113BB
:100840000A018450062043F8214010BD704700BFC4
:10085000704700BF00EB4000024B03EBC00313F8EE
:10086000670C704780310020064B93F84820824285
:1008700006D900EB400003EBC00353F8640C70474B
:100880000020704780310020072808D8044B03EB74
:10089000401393F8542412B1012283F83A2470478C
:1008A00088200020072808D8054B03EB4013B3F835
:1008B0003804B0FA80F0400970470020704700BF4C
:1008C00088200020064B93F84830834205D9054B19
:1008D00003EB4013D3F8440470470020704700BF77
:1008E00080310020882000202DE9F04F4FF49A75C8
:1008F0004B4E85B000FB05F506EB050E9EF82D3539
:100900009EF82C25DEF814949A4272D0454B05F1DE
:100910001C0B4FF0010A03EB00289FED3F7BD9F839
:10092000C44014F4001264D19EF82D15C4F304449D
:100930008B1C2701C9B205EB0310009708EB041CC0
:10094000304490F81904002856D005EB01103044CB
:10095000D0F82C0420F0604040F0804047F80800B8
:10096000080105EB0313334493F818743B048DED31
:10097000027BCCF804303FB32844012F304490F878
:10098000303402931ED01023012013FB01B1264BFB
:1009900019440346CDE9009403F0FC0203F003037D
:1009A00011F8019F01301032DB006A4409FA03F3A9
:1009B00052F8084C234342F8083CC3B29F42EBD89C
:1009C000DDE90094DDE902270AFA04F4CCF80820F6
:1009D000CCF80C70C9F8D0409EF82D35013303F0E7
:1009E0000F038EF82D359EF82D259EF82C359A4252
:1009F00095D105B0BDE8F08F05EB01100B4F3044E9
:100A0000D0F82C0407EA8040009F47F8080008014E
:100A1000A7E700BFAFF30080000000000000000067
:100A20000000002430AC0040140400240000FC1F2F
:100A30002DE9F04FDFF8F4B04FF49A7985B007460E
:100A400009FB00B9D9F814542C6DE60711D422071C
:100A50000AD508232B654FF49A7303FB07B3D3F829
:100A600028240132C3F82824A3054CD405B0BDE8DE
:100A7000F08F01232B65D5F8A4305806E7D02A4E15
:100A800001943E443602D5F8A430C3F3052A06EBA0
:100A90000A134FEA0A1290595A6810F08048996870
:100AA000C2F30342D3F80CE014BF20F06040C0F35F
:100AB0008A40082A134628BF08239AB100240DF162
:100AC000070C0095224602F00302032C8CBF7546EA
:100AD0000D460134D200D540E2B293420CF8015FDA
:100AE000F1D8009DD9F82444C5F8A8A02CB1B8F1DC
:100AF000000102AA18BF0121A047D5F8A430590669
:100B0000C1D1019CA3E74FF49A724FF400733846A9
:100B100002FB07BB2B65DBF834350133CBF83435EA
:100B200005B0BDE8F04FDFE6AC0040000000002457
:100B30001B4B93F84C2092B353F8781C09B100205A
:100B40000860012A2BD053F8601C09B1002008600E
:100B5000022A24D053F8481C09B100200860032A57
:100B60001DD053F8301C09B100200860042A16D0AB
:100B700053F8181C09B100200860052A0FD0196825
:100B800009B100200860062A09D0996909B100203E
:100B90000860072A03D01B6B0BB100221A60704754
:100BA000803100201B4B93F84C2092B353F8781CF3
:100BB00009B100200860012A2BD053F8601C09B14C
:100BC00000200860022A24D053F8481C09B10020F4
:100BD0000860032A1DD053F8301C09B100200860BA
:100BE000042A16D053F8181C09B100200860052A01
:100BF0000FD0196809B100200860062A09D0996948
:100C000009B100200860072A03D01B6B0BB100223A
:100C10001A60704780310020C14B1B78002B40F0D8
:100C20004981C04B93F84C20002A00F0438113F80F
:100C3000681C30B500294AD153F8781C0020012ADD
:100C4000086043D913F8501C002962D153F8601C86
:100C50000020022A086039D913F8381C002940F016
:100C6000C58053F8481C0020032A08602ED913F8C9
:100C7000201C002940F0DC8053F8301C0020042A9E
:100C8000086023D913F8081C002940F0F28053F8BB
:100C9000181C0020052A086018D9197C002940F08A
:100CA0000A8119680020062A08600FD993F82810D5
:100CB000002957D199690020072A086006D993F8BE
:100CC0004020002A71D11B6B00221A6030BD53F8FE
:100CD000742C910AA1F58011522940F20C814FF039
:100CE000FE0CEFF31181502080F312888E4C4FF0F0
:100CF0002C0E556AC9B250690EFB0C4C013540F000
:100D00000100CCF8D857506181F3118893F84C203A
:100D100092E753F85C2C910AA1F58011522940F218
:100D2000EF804FF0FE0CEFF31181502080F312881A
:100D30004FF02C0E556A7C4CC9B2506901350EFB40
:100D40000C4440F00100C4F8D857506181F3118879
:100D500093F84C20002053F8601C022A08603FF6EC
:100D60007BAFB3E7DA69910AA1F58011522900F24D
:100D7000E9806E48014491F820C0EFF311815020C2
:100D800080F312884FF02C0E556A674CC9B2506937
:100D900001350EFB0C4440F00100C4F8D8575061F7
:100DA00081F3118893F84C2084E75A6B910AA1F5DE
:100DB0008011522900F2C9805C48014491F820C09A
:100DC000EFF31181502080F312884FF02C0E556AFA
:100DD000554CC9B2506901350EFB0C4440F001007E
:100DE000C4F8D857506181F311886CE753F8442C4C
:100DF000910AA1F58011522940F287804FF0FE0E32
:100E0000EFF31181502080F312884FF02C0C556ABB
:100E1000454CC9B2506901350CFB0E4440F001004D
:100E2000C4F8D857506181F3118893F84C2018E723
:100E300053F82C2C910AA1F5801152296AD94FF050
:100E4000FE0CEFF31181502080F312884FF02C0E2E
:100E5000556A354CC9B2506901350EFB0C4440F05F
:100E60000100C4F8D857506181F3118893F84C20E1
:100E700002E753F8142C910AA1F58011522957D991
:100E80004FF0FE0CEFF31181502080F312884FF0E9
:100E90002C0E556A244CC9B2506901350EFB0C4426
:100EA00040F00100C4F8D857506181F3118893F8DD
:100EB0004C20ECE670475A68910AA1F5801152293E
:100EC0003BD94FF0FE0CEFF31181502080F31288D4
:100ED0004FF02C0E556A144CC9B2506901350EFB07
:100EE0000C4440F00100C4F8D857506181F31188D8
:100EF00093F84C20D5E60D48014491F820C0F0E667
:100F00000A48014491F820C00DE70848014491F8CF
:100F100020E075E70548014491F820C091E700BF43
:100F2000CC020020803100200000002418C017905F
:100F30000748014491F820C0A4E70548014491F80E
:100F400020C0C0E74FF0FE0C17E74FF0FE0C37E76C
:100F500018C0179000EE100AB8EE400A704700BFA4
:100F6000BCEEC00A10EE103A98B27047124810B5A5
:100F700090F8444AECB100F6482C4FF0000E05E022
:100F80000EF1010E0CF1100CA64510D0BCF80800B3
:100F90009042F5D19CF80A009842F1D1074B01200C
:100FA00003EB0E1353E90223C1E9002310BD002017
:100FB00010BD204610BD00BF00000024500A0024D0
:100FC00070B5104E96F8444AD4B1B1F816E006F662
:100FD0004823002203E001321033A24210D0B3F8BC
:100FE00008C0F445F7D19D7A91F818C06545F2D153
:100FF00006EB0216D6F8543A13B1BDE87040184714
:1010000070BD00BF0000002470B5154C94F8C8CA2C
:1010100094F8C96A0CF1010505F01F05AE421DD018
:101020005FFA8CFC082B9E4604EB0C1628BF4FF091
:10103000080EC6F8CC0A86F8D91A86F8D8EA5BB149
:10104000013A06F6CF210023013312F8010FDBB27B
:1010500001F8010F9E45F7D884F8C85A70BD00BF4B
:1010600000000024072810D89FED087ADFED087AE9
:1010700080FE470A074B80FE270ABDEEC00A03EB3D
:10108000400310EE102AA3F8CC2C704700F8FF455F
:10109000000000000000002401207047012070477C
:1010A000B0F5FA6F9FED0A7A9FED0A0AA8BF4FF4D8
:1010B000FA60B0F57A7FB8BF4FF47A7007EE900A05
:1010C000F8EE677A77EEC77A27EE800A704700BF9E
:1010D00000007A44560E034191F91B20CB7E002A72
:1010E0000CDD5809064903F01F02012301EB8001C2
:1010F0009340D1F8DC2C1343C1F8DC3C704700BFAF
:10110000000000240E2809D8DFE800F01515151599
:1011100015151515150A0C0E1012140040207047F5
:101120000C2070471020704714207047182070471B
:1011300020207047302070472DE9F043456A35B9CB
:101140004162BDE8F083CEF800100B60F9E74E680D
:10115000AE462B4626F0604CC6F38A47C6F380782D
:1011600017EA260738BF67465C6894EA060F24F042
:1011700060420CD5002C1EDA920CBA4201D0BA4261
:101180000FD99D42DFD10D60DAE71346ECE79445B5
:1011900005D104F08049C4F38074444507D19445D7
:1011A000EFD31A689E46002AEFD11960C9E7B9F15A
:1011B000000FF6D0E5E7BA42F3D0E0E72DE9F041C1
:1011C0004FF425728EB0002173487AF0ABFB734B5D
:1011D000734D4FF00008D3F8F02040F27D27A5F1C1
:1011E000740605F6F41442F00102C3F8F020D3F8B7
:1011F000F02002F001020092009AD3F8E82042F0B9
:101200000102C3F8E820D3F8E82002F001020192BD
:10121000019AD3F8E82042F00202C3F8E820D3F89C
:10122000E82002F002020292029AD3F8E82042F08B
:101230000402C3F8E820D3F8E82002F00402039285
:10124000039AD3F8E82042F00802C3F8E820D3F864
:10125000E82002F008020492049AD3F8E82042F051
:101260001002C3F8E820D3F8E82002F0100205923B
:10127000059AD3F8E82042F02002C3F8E820D3F81A
:10128000E82002F020020692069AD3F8F02042F0FD
:101290000202C3F8F020D3F8F02002F00202079215
:1012A000079AD3F8E82042F04002C3F8E820D3F8C8
:1012B000E82002F040020892089AD3F8E82042F0B1
:1012C0008002C3F8E820D3F8E82002F080020992F7
:1012D000099AD3F8E82042F48072C3F8E820D3F8E2
:1012E000E82002F480720A920A9AD3F8F02042F4BD
:1012F0008032C3F8F020D3F8F02002F480320B9251
:101300000B9AD3F8F02042F40032C3F8F020D3F85F
:10131000F02002F400320C920C9AD3F8F02042F440
:101320008022C3F8F020D3F8F03003F480230D932B
:101330000D9B55F82810002354F83320914226D0F5
:1013400001330E2BF8D1002008F107086EF0B4FD30
:10135000B845EED14FF0000840F27D2755F828102F
:10136000002354F8332091420CD001330E2BF8D1D6
:10137000002008F107086EF09FFDB845EED10EB0D1
:10138000BDE8F08106EBC303B3F86C0AF1E706EBA6
:10139000C303B3F86C0AD7E7B0070024004402582F
:1013A0008CC017902DE9F047214C6568002D34DD85
:1013B000002304F108024FF4867601271846984668
:1013C00006FB034C01339CF8051101F0FF0E59B9DF
:1013D000AB4202F58672F3D120B1164B93F8EC2C98
:1013E000542A1DD0BDE8F08791687046B2F810A06D
:1013F000D1F80090D2F814E0D9F80C1021EA0A01D3
:10140000C9F80C10DEF8001021F00101CEF8001030
:101410008CF8058182F8FE70DAE70020BDE8F087DD
:10142000B3F8F42C0132A3F8F42CBDE8F08700BF28
:10143000882000200000002410B5044678F026FF24
:101440000146204689B2BDE81040FEF7D5BF00BF77
:1014500010B500EB4000084C04EBC00414ED1C7AFE
:1014600054ED1B7AE7EE007AB0EE670A78F00EFFD3
:1014700054F8783C186010BD803100209FED067A4A
:10148000DFED067AE0EE077A08B5B0EE670A78F08D
:10149000FDFE80B208BD00BFD007FA3D00007A44CF
:1014A00002692DE9F843C36812EA030828D005460B
:1014B0000E464FF00047B8FA88F327FA03F21B3BB9
:1014C000D24308EA02082A61042B16D8DFE803F0A9
:1014D0003B30251A0300B36A002B3FD003F1FF39DC
:1014E00000231FFA89F9B362746A34B12368204675
:1014F000494698476468002CF8D1B8F1000FDAD15A
:10150000BDE8F88370680028F7D0696B036889B27A
:101510009847B8F1000FCED1F2E7B0680028ECD0C0
:10152000A96B036889B29847B8F1000FC3D1E7E708
:10153000F0680028E1D0E96B036889B29847B8F1F8
:10154000000FB8D1DCE730690028D6D0296C0368D9
:1015500089B29847B8F1000FADD1D1E7EB6A1FFA15
:1015600083F9C1E710B590F83DE0BEF1020F76D0E7
:10157000144690F83D208446012A02D1022280F8C8
:101580003D200C2921D8DFE801F00720202022206F
:1015900020203A2020205200DCF824003449DCF8D6
:1015A0000020C1633349C16490F8341001290CD084
:1015B000012180F8341090F83510012952D0002212
:1015C0004FF4006380F834204365002010BDDCF840
:1015D00028002749DCF80020C1632649C16490F83F
:1015E00034100129F1D0012180F8341090F8351021
:1015F0000129E4D1383221465FF03AFBE5E7DCF817
:101600002C001B49DCF80020C1631A49C16490F822
:1016100034100129D9D0012180F8341090F8351008
:101620000129CCD13C3221465FF022FBCDE7DCF82A
:1016300030000F49DCF80020C1630E49C16490F806
:1016400034100129C1D0012180F8341090F83510F0
:101650000129B4D1403221465FF00AFBB5E75FFAB9
:101660008EF010BD343221465FF002FBADE700BFC3
:1016700091D0159039D01590F8B5A0F6680423796B
:10168000DB0725D5657994F84C3805F001073D4610
:10169000FBB1D4F848341A68D36A5B08536294F8F3
:1016A000503823B1B4F85A380133A4F85A3885F0C9
:1016B0000101606C70F03CF9012384F84F3800237D
:1016C00084F84D3884F84E38A4F8563884F84C38ED
:1016D000F8BD94F84F68012E03D194F84D3884F882
:1016E0004E382046FEF730FF4EB9012385EA03014C
:1016F00084F84F38606CBDE8F84070F019B90023E9
:10170000394684F84F38F5E738B5A0F6680400226A
:10171000344D606C03685A62A1F12903302B31D833
:1017200095F89F3D95F8A01D0133DBB2012B85F89C
:101730009F3D09D9B4F8563885F89F2D5B08A4F869
:1017400056384B1C85F8A03D95F8A02D0023082A9B
:10175000A4F8583815D185F8A03DB5F8A23D01335D
:101760009BB2032BA5F8A23D08D92379DB0705D549
:10177000E36A94F8560843B3216B98470023A4F812
:10178000563838BD5B396C290CD8B4F8563885F812
:101790009F2D5B0843F08003A4F8563895F8A03DD0
:1017A0000133CFE794F85138002BCDD1012185F8D2
:1017B0009F3DA5F8A23D802384F85118A4F856381F
:1017C00085F8A01D70F0B4F8BEE7E3696269D054F3
:1017D000E369E2680133B3FBF2F102FB1133E36129
:1017E000CCE700BF0000002438B55FF0B5FF0D491D
:1017F0000D4CD1F8FC20A4FB00400C4D42F080724F
:101800000B4B800CC1F8FC204FF060420949C5F831
:10181000A40DC2F8B01F00225A601A6842F00102FB
:101820001A6038BD00ED00E083DE1B430000002499
:10183000001000E055CEACC51548164AC168164BDD
:1018400010B44FF6FF0483B02140144C0A43C26029
:10185000D3F8D010D3F8DC20C4F8A81D42F0005211
:10186000C3F8DC20D3F8DC2002F000520092009A8A
:10187000D3F8DC2042F08042C3F8DC20D3F8DC301F
:1018800003F080430193019B03B05DF8044BABE789
:1018900000ED00E00005FA050044025800000024B5
:1018A0009B4AD36813F0040FD3682DE97043994D18
:1018B000B6B040F0DD81964C00230293A36943F457
:1018C0004043A361A36903F440430293029BA369CD
:1018D0009E04FCD5442200210AA87AF023F80023B4
:1018E0008B4A0593A36923F44043A361A36903F4DE
:1018F00040430593059B93699C04FCD501204FF45C
:10190000803102220423CDE908014FF4827108A836
:101910001893CDE91122CDE91331CDE91632012119
:101920000022159119925FF0C1FC00B1FEE77A4ADE
:10193000136803F00F03022B0BD8136823F00F0377
:1019400043F003031360136803F00F03032B00D06D
:10195000FEE7724A936903F070033F2B05D8936941
:1019600023F0700343F0400393616C4AD36903F0A2
:1019700070033F2B05D8D36923F0700343F0400375
:10198000D361664AD36903F4E063B3F5806F05D28F
:10199000D36923F4E06343F48063D3615F4A136A3D
:1019A00003F070033F2B05D8136A23F0700343F054
:1019B00040031362594B9A69100705D49A6922F0C3
:1019C0000F0242F008029A61544A936923F470634B
:1019D000936113689901BBD5136941F2883023F0F4
:1019E000070343F003031361D5F8AC1D05E0D5F8F8
:1019F000AC3D5B1A834200F24F81136903F0380358
:101A0000182BF4D1936903F00F03082B05D99369C0
:101A100023F00F0343F0080393613F4B1A6812F061
:101A20000C0F0AD01A6822F00F0242F003021A606B
:101A30001B6803F00F03032B8AD1384A936903F024
:101A40007003402B05D9936923F0700343F04003E2
:101A50009361324AD36903F07003402B05D9D369EF
:101A600023F0700343F04003D3612C4AD36903F49D
:101A7000E063B3F5806F05D9D36923F4E06343F4E1
:101A80008063D361254A136A03F07003402B05D9A4
:101A9000136A23F0700343F0400313621F4C5FF09E
:101AA0005BFEA269A369C2F303221D4B13441D4AC6
:101AB00093F8D83A03F01F0320FA03F390685360B9
:101AC0005EF0BEFB002840F0EB8010220F901190DA
:101AD00008A808925FF0EAFB002840F0DC80236849
:101AE000114943F080032360D4F8F43043F002033B
:101AF000C4F8F430D4F8F43003F002030393039AEB
:101B00000A6A0A4B42F001020A62D5F8AC1D12E0E3
:101B100000480258000000240020005200440258EF
:101B200018C01790CC0200200004005800E2040006
:101B3000013B00F0B280D5F8AC2D9142F8D0D5F839
:101B4000AC2DD5F8AC3D9B1A0A2BFAD9554C23681D
:101B50009B04FCD54FF480224FF4401308A80326C1
:101B600008924FF00008289372F030FFD4F8EC2070
:101B70004FF000094C4B08A842F002024B490025E7
:101B8000C4F8EC20D4F8EC2002F002020492049A8B
:101B9000D4F8942042F00202C4F89420D4F894209F
:101BA00022F00202C4F89420414A09685A601A6877
:101BB00022F47C5242F400521A601A6842F0600229
:101BC0001A600896CDE9248972F000FF4FF4E043D3
:101BD00008A832950893CDE91E8972F0F7FE182304
:101BE00008A827952C95089372F0F0FE4FF4002377
:101BF00008A808934FF400332F9372F0E7FED4F84F
:101C0000E0202B462B4842F00102C4F8E020D4F833
:101C1000E02002F001020792022207994FF480713E
:101C2000CDE9006573F028FC22692B46224822F09A
:101C3000FE7242F088722261D4F8E02042F0040281
:101C4000C4F8E0200222D4F8E010019501F004016C
:101C5000009606914FF40071069D73F00DFC236908
:101C600023F07E4343F0FC43236136B0BDE870832C
:101C700023F0070343F00203D360D5F8AC1D06E060
:101C8000D5F8AC3D5B1AB3F57A7F3FF614AE5368D6
:101C90009B04F5D50FE6FEE75AE672B6FEF73CFC6C
:101CA00056E600BF00440258008400400010005C6B
:101CB0007FBB2220000002580008025801302DE9A5
:101CC000F84F884C01F1FF38874D10265FFA80FBF2
:101CD00001276DF0C7F84FF4FA794FF0E0214FF487
:101CE0007A7C6B68C3F30803002B40F0D280EFF3DB
:101CF0001183002B40F0CD80D4F8B43D8869D4F82E
:101D0000B42D9342F8D1D4F8B82D9042F4D8D4F839
:101D1000A42D0CFB02FEAEEB000EBEFBF2FE0CFB94
:101D200003EE6B68C3F30803002B40F09280EFF3DF
:101D30001183002B40F08D80D4F8B43D8869D4F82D
:101D4000B42D9342F8D1D4F8B82D9042F4D8D4F8F9
:101D5000A4AD0CFB0AF2121AB2FBFAF20CFB03233D
:101D6000A3EB0E03B3F57A7FDBD3B9F10109B8D148
:101D70004FF47A7958466DF047FA4FF0E021CC469F
:101D80006B68C3F30803002B40F09780EFF31183D7
:101D9000002B40F09280D4F8B43D8869D4F8B42D7B
:101DA0009342F8D1D4F8B82D9042F4D8D4F8A42DA9
:101DB0000CFB02FEAEEB000EBEFBF2FE0CFB03EED4
:101DC0006B68C3F3080323BBEFF311830BBBD4F899
:101DD000B43D8869D4F8B42D9342F8D1D4F8B82D25
:101DE0009042F4D8D4F8A4AD0CFB0AF2121AB2FB5C
:101DF000FAF20CFB0323A3EB0E03B3F57A7FDFD3D8
:101E0000B9F10109BCD1B8F10108BFF462AFBDE876
:101E1000F88FEFF3118386F31288D1F818A00A69BE
:101E2000D20303D5C4F8B07DD1F818A0D4F8B40D0E
:101E3000DBB2D4F8B02D83F311880244D4F8A40D9A
:101E40000CFB00F3A3EB0A03B3FBF0F30CFB023330
:101E5000D1E7EFF3118386F31288D1F818A00A694D
:101E6000D20303D5C4F8B07DD1F818A0D4F8B40DCE
:101E7000DBB2D4F8B02D83F311880244D4F8A40D5A
:101E80000CFB00F3A3EB0A03B3FBF0F30CFB0233F0
:101E900066E7EFF3118286F3128888690B69DB032A
:101EA00002D5C4F8B07D8869D4F8B43DD2B2D4F874
:101EB000B0ED82F31188734429E7EFF3118286F3C2
:101EC000128888690B69DB0302D5C4F8B07D886984
:101ED000D4F8B43DD2B2D4F8B0ED82F31188734493
:101EE00064E700BF0000002400ED00E070B5054687
:101EF0000E26084C013E00D170BD94F900001AF086
:101F00008FFC031E04DB6178EA185173A278EA544F
:101F10000434EFE700CB179000207047704700BFF4
:101F2000036882B023F002030360036823F0040314
:101F30000360036823F040030360036823F0200379
:101F40000360036823F010030360036823F0800339
:101F5000036083699B0603D5C36943F02003C36113
:101F600083699A0701D5002383628369DB0701D463
:101F70000123836100224260036823F001030360B0
:101F80000192019B3F2B06DC00BF019B01330193B3
:101F9000019B3F2BF8DD03684FF0010C074A43EA31
:101FA0000C030360002381F800C04B70B2F8BC3D05
:101FB00063449BB2A2F8BC3D02B07047000000240D
:101FC0002C2170B400FB01F16B4C6318D3F8C03DB9
:101FD0005B681A68D5060CD59A69D20609D5DA6904
:101FE0002144184642F0100201F6D85170BCDA6163
:101FF00096E71A6896071ED59A6995071BD52C2275
:1020000002FB004292F8DD1D21B192F8DC1D00298F
:1020100040F093802C2202FB004292F8DC1D21B19B
:1020200092F8DD2D002A40F086801A6822F0020224
:1020300070BC1A6070471A68510722D41A68560695
:1020400038D59A69550635D52C2202FB004292F804
:10205000DE1D00296FD092F8DA4D484992F8DC0D68
:102060005A680A404649224342EA004211435960F5
:102070001A6822F002021A601A6842F004021A601A
:1020800059E09A695207D9D52C2202FB004292F8F6
:10209000DE1D19B192F8DC1D00295DD12C2202FB56
:1020A000004292F8DC2D002A45D11A6822F0040281
:1020B0001A6040E01A68910625D59A69920622D5E1
:1020C000D9692C2241F0200102FB00420020D96195
:1020D000196821F002011960196821F004011960E2
:1020E000196821F040011960196821F02001196078
:1020F000196821F010011960196821F08001196038
:1021000082F8D90D17E01A6822F002021A601A68E4
:1021100022F004021A601A6822F040021A601A685B
:1021200022F020021A601A6822F010021A601A685F
:1021300022F080021A6070BC7047D2F8E01D4D1C7E
:10214000C2F8E05D0978C9B2996292F8DC1D0139E4
:10215000C9B282F8DC1D5DE7596AD2F8E45DC9B204
:102160006E1CC2F8E46D297092F8DC1D0139C9B209
:1021700082F8DC1D92E700BF00000024008000FC14
:10218000002400822C23014610B41E4C03FB0043A4
:10219000D3F8C02D5068026812062AD58269D2058C
:1021A00006D5C26942F48072C261012283F8D82D3B
:1021B00083699A0509D5C2692C2342F4007203FB96
:1021C0000143C261012283F8D82D83695B0509D5DB
:1021D000C2692C2342F4806203FB0143C2610122E5
:1021E00083F8D82D2C2303FB01F1631893F8D83D15
:1021F00013B95DF8044B7047034B5DF8044B194469
:102200008EE600BF00000024D80D00240020B9E7AE
:102210000020D5E60120B5E70120D1E60220B1E794
:102220000220CDE60320ADE70320C9E62DE9F843FF
:102230000568D5E904366C68F0611A7DD3F8008032
:102240001F2A4BD9203A2021376801FA02F242F0C6
:102250001802C8F80C20327D1F2A4AD9203A2021C2
:1022600001FA02F242F01802FA607268002059681E
:10227000086010604046116841F01001116093F849
:102280000890AA69494672F083FA367AEA693846B4
:10229000314672F07DFA2B6A9A6863686FF30F0318
:1022A00013436360164B13F809009A5D58F8003029
:1022B00043F0010348F80030BB5843F00103BB5022
:1022C000A36843F44043A360236843F00103236001
:1022D000236843F400732360BDE8F8832021376846
:1022E00001FA02F242F01802C8F80820327D1F2AD3
:1022F000B4D8202101FA02F242F01802BA60B4E721
:1023000070651890D3B20F2B1FD8114B00B503F195
:102310008A0E02E00333734514D093F800C084455D
:10232000F8D193F801C08C45F4D102EB4202094880
:10233000997800EB82030C30596100EB820019732D
:102340005DF804FB00205DF804FB0020704700BF2F
:1023500034CB1790CC02002010B40C4C002304F5B1
:10236000676C01E0152B0CD003EB430201331CF822
:1023700002108142F6D1144494F9720E5DF8044BB8
:1023800070474FF0FF305DF8044B704700000024A9
:1023900030B5114D002305F6A83C02E001331A2B9D
:1023A00018D05CF833408442F8D10CEBC30EDC004B
:1023B0009EF804E08E45F1D102EB4202074B254422
:1023C00003EB82010C3395F8AD4B03EB82004C61BB
:1023D0000C7330BD002030BD18C01790CC02002017
:1023E000F0B1002310B504460E4894F804E000F55F
:1023F000676C01E0152B11D003EB430201331CF88D
:1024000002107145F6D183186179206893F9722E14
:10241000D3B20F2B02D8BDE81040B9E7002010BDA1
:1024200000207047000000244FF02C0C01380C4BAA
:1024300082B00C4A0CFB00330B49D3F8CC308B42F2
:1024400014BF02230123D2F8D8101943C2F8D810C0
:10245000D2F8D82013400193019B02B0704700BF0F
:10246000CC0200200044025800000240F8B50138B8
:102470001E46134C2C2315460F4603FB0044114BFC
:10248000D4F8CC00984214BFA120A0206DF014FD18
:10249000C5F30112A909B4F9E400C4F8DC70C4F86A
:1024A000E8605DF091FEB4F9E430002B07DB03F047
:1024B0001F0001225B090449824041F82320F8BD36
:1024C000CC0200200000024000E100E02DE9F04FC6
:1024D000012385B0DFF804A30026BB4A99460AF120
:1024E000F00BBA4FA2F10C0801960BE0019B09F129
:1024F00001090AF1280A0BF1050B0133062B0193A0
:1025000000F0F1809AF80030022BEFD19BF9032004
:10251000511C00F0EB80D2B2964602EB4204AA4B6B
:102520009DF8041003EB84040F2A5ED8A84802E04B
:102530000330B84259D00378002BF9D145788D4249
:10254000F6D18678D8F8D0506068A660A842267088
:1025500000F04681D8F8FC50A84200F06581D8F818
:102560002851A84200F05B81D8F85451A84200F0ED
:102570007181D8F88051A84200F07C81D8F8AC5124
:10258000A84200F07281D8F8D851A84200F07D81AD
:10259000D8F80452A84200F07E81D8F83052A84200
:1025A00000F09781D8F85C32984200F08681D8F824
:1025B0008832984200F09781D8F8B432984200F0FF
:1025C0009881D8F8E032984200F0B181D8F80C3305
:1025D000984200F0B281D8F83833984200F09B81DD
:1025E000D8F86433984200F0BA8101320C34D2B288
:1025F000724599D9002303939BF90420531C79D089
:10260000D2B2964602EB42046F4B9DF8041003EBE6
:1026100084040F2A5DD86E4802E00330B84258D0D7
:102620000378012BF9D145788D42F6D18578D8F819
:10263000D0606068A560B04225705FD0D8F8FC60BB
:10264000B04200F0FC80D8F82861B04200F0F18080
:10265000D8F85461864200F0F780D8F88061B04223
:1026600000F0FD80D8F8AC61B04200F00881D8F8E5
:10267000D861B04200F01581D8F80462B04200F091
:102680001681D8F83062B04200F01D81D8F85C6243
:10269000B04200F02381D8F88832984200F02F81B0
:1026A000D8F8B432984200F03081D8F8E03298423D
:1026B00000F03781D8F80C33984200F04A81D8F8FE
:1026C0003833984200F03F81D8F86433984200F0E4
:1026D0004C8101320C34D2B296459AD200220023AA
:1026E000CAE9042302E705B0BDE8F08F4FF00F0EF2
:1026F000002212E74FF00F0E002283E74FF0000C8C
:1027000063466046CDF808C02C2606FB008090F991
:10271000EC60002EDDD1324680F8D43066462D4B79
:10272000029CAC46334480F8ED900134C0F8D8C028
:10273000CAF814301323154680F8EC302046FFF712
:1027400073FE039B002BC9D0DAF814603046FDF706
:10275000BFFDDAF81000FDF7BBFDDAF81830C168EC
:10276000DAF80420596240215D60996002F120018D
:102770009D631960C3E90355C3E90555C3E90755CE
:10278000C3E90A55C3E90C55A6B1DAF81C3030325A
:10279000F1681D625962C3E900254FF48032C3E934
:1027A0000255C3E90455C3E90655C3E90B55C3E90E
:1027B0000D559A620023204607491A46FFF756FE38
:1027C00001238AF80C3091E6D8020020BECB179086
:1027D00034CB179098030020B9060000B00E0024F7
:1027E000184602932C2505FB008595F9ECC0BCF139
:1027F000000F7FF4FAAE029A013085F8D4305E4BB8
:10280000C5F8D860134485F8ED90CAF81030142349
:1028100085F8EC30FFF708FE01230393ECE658201F
:10282000022302901846DDE72C200123029018466F
:10283000D8E702234FF0580C1846029364E74FF094
:102840002C0C184602935FE703234FF0840C1846C4
:10285000029359E78420032302901846C2E7042319
:102860004FF0B00C184602934EE7DC20052302908F
:102870001846B7E7B020042302901846B2E70523B4
:102880004FF0DC0C184602933EE74FF484700623A9
:1028900002901846A6E74FF49A7007230290184654
:1028A000A0E706234FF4847C184602932CE7072305
:1028B0004FF49A7C1846029326E74FF4C67309201A
:1028C000029301238EE708204FF4B07C002302908E
:1028D0001AE74FF4B0700290082083E709204FF404
:1028E000C67C029010E74FF4DC70022302900A20AD
:1028F00078E74FF4F2730B200293032372E70A2068
:1029000002234FF4DC7C0290FEE60B204FF4F27CB5
:1029100003230290F8E64FF41A730E200293062365
:1029200060E70C204FF4047C04230290ECE64FF4A3
:1029300004730C200293042354E74FF40F730D200B
:10294000029305234EE70E204FF41A7C06230290D3
:10295000DAE60D204FF40F7C05230290D4E64FF405
:1029600025730F20029307233CE70F204FF4257CAB
:1029700007230290C8E600BF980300202DE9F04F1E
:1029800089B09DF84850002800F09C80C94F4FF056
:1029900000468488944607EB85054FF0B042DFF887
:1029A0002C83D5F888ECB4FA84F50068EE40C5F1C4
:1029B0001F052F4408EB850597F878BCD2F8807086
:1029C000C5F8C01F03F0030127EA0607C3F341154A
:1029D00041EA0E01C2F88070C2F888600095002CB0
:1029E00069D021F010077D1E012D6ED801F0030281
:1029F000C3F381034FEA111A4FF0010802924FF01E
:102A0000030900220193CDE903BC0EE0DCF820109D
:102A100021EA0601CCF82010016829404EEA0101A4
:102A20000160013234FA02F143D008FA02F6510093
:102A30003442F6D0D0F808E009FA01F5019B022FE4
:102A40002EEA050E03FA01FC4FF00F034CEA0E0CC0
:102A50000AFA02FEC0F808C04FEAD20CD0F804B05F
:102A600000EB8C0C2BEA060B02F007064EEA0B0E6D
:102A70004FEA8606C0F804E003FA06F6D0F80CE048
:102A8000009B2EEA050E6FEA050503FA01FB4BEAEF
:102A90000E0B07FA01FEC0F80CB0B7D0029B013252
:102AA000066803FA01F12E403143016034FA02F165
:102AB000BBD1DDE903BC804B5B4413F8F82C6245C5
:102AC00000F3AE8009B0BDE8F08F11F0805300F044
:102AD0000C8101F480334FF0010ADFF8F481029396
:102AE00001F40033039301F48013049301F4001301
:102AF000059301F00303019300230AFA03F1214037
:102B000000F082805D004FF0030EC76823F00306DB
:102B10000EFA05F906F1B04627EA090E009F06F500
:102B20008066AF4047EA0E074FF00F0EC760019F67
:102B300007FA05F5076827EA09073D430560D8F855
:102B4000F45045F00205C8F8F450D8F8F45005F0F8
:102B500002050795079D03F00305B768AD000EFA5F
:102B600005FE27EA0E09554FB8422ED0DFF864E182
:102B7000704500F0B1800EF5806E704500F0DD808C
:102B80000EF5806E704500F0DF800EF5806E7045AA
:102B900000F0E0800EF5806E704500F0C7800EF505
:102BA000806E704500F0DD800EF5806E704500F09F
:102BB000DF800EF5006E704514BF4FF00A0E4FF027
:102BC000090E0EFA05FE49EA0E09029FC6F80890A2
:102BD000CE43D2F88050002F55D13540039FC2F824
:102BE0008050D2F88450002F55D13540049FC2F850
:102BF00084501568002F55D13540059F15605568E4
:102C0000002F55D135405560013334FA03F17FF47C
:102C100074AF294B5B4413F8F82C62457FF752AF31
:102C2000274A03F8F8CC4FEAAC13D2682549C2F31F
:102C3000022211F80B10C2F10704101D042C28BF4A
:102C4000042406284DD9033A4FF0FF30CCF3011C81
:102C500090402CEA000C4FF0FF3001F01F05A0401F
:102C600023EA00031848934001224418490943EA23
:102C70000C03AA401B01DBB284F8003340F821208A
:102C800009B0BDE8F08F0D43039FC2F88050D2F821
:102C90008450002FA9D00D43049FC2F884501568BA
:102CA000002FA9D00D43059F15605568002FA9D0AE
:102CB0000D43A8E718C01790F81000240000025830
:102CC00000ED00E05865189000E100E000000024ED
:102CD00000440258000402580AFA05F549EA0509B9
:102CE00073E74FF0000C6246B5E701F003010126DF
:102CF0000327DDF800E006FA03F2224211D05A0061
:102D0000C56807FA02F825EA08090EFA02F501FA81
:102D100002F245EA0905C560056825EA08052A4367
:102D20000260013334FA03F2E5D1C4E64FF0050E38
:102D30000EFA05FE49EA0E0947E74FF0020E0EFAB9
:102D400005FE49EA0E0940E7032707FA05F549EAB7
:102D500005093AE74FF0040E0EFA05FE49EA0E099E
:102D600033E74FF0060E0EFA05FE49EA0E092CE78E
:102D70004FF0070E0EFA05FE49EA0E0925E700BFDF
:102D800060B182884FF0B0414FF00043B2FA82F256
:102D9000D1F88000D3400343C1F88030704700BFB2
:102DA0004FF0B042D2F88030D2F888100B4003F0D8
:102DB0000103C2F8883023B1024BD3F8C00F036877
:102DC00018477047000000244FF0B042D2F880301E
:102DD000D2F888100B4003F00203C2F8883023B108
:102DE000024BD3F8C40F0368184770470000002453
:102DF0004FF0B042D2F88030D2F888100B4003F088
:102E00000403C2F8883023B1024BD3F8C80F03681B
:102E100018477047000000244FF0B042D2F88030CD
:102E2000D2F888100B4003F00803C2F8883023B1B1
:102E3000024BD3F8CC0F03681847704700000024FA
:102E40004FF0B042D2F88030D2F888100B4003F037
:102E50001003C2F8883023B1024BD3F8D00F0368B7
:102E60001847704700000024F8B54FF0B043D3F87E
:102E70008050D3F88820154005F47875C3F8885041
:102E80007DB1084F0126B5FA85F4C4F11F0407EBA4
:102E9000840306FA04F4D3F8C00F03689847A543E7
:102EA000F1D1F8BD00000024F8B54FF0B043D3F8DD
:102EB0008050D3F88820154005F47C45C3F888502D
:102EC0007DB1084F0126B5FA85F4C4F11F0407EB64
:102ED000840306FA04F4D3F8C00F03689847A543A7
:102EE000F1D1F8BD0000002430B1036882881B696D
:102EF0001A4214BF01200020704700BF10B10368C0
:102F000082889A61704700BF18B1838802681B04E9
:102F10009361704770B50D4682B00446164630B1D5
:102F200001680B4B0B4A0B449B0A32F813006CF000
:102F3000C3FFC5F38101C5F3411305F01302CDE9C9
:102F40000016A188206872F097FA02B070BD00BF29
:102F50000000FEA718C0179000B1DBE770472DE90D
:102F6000F84FDFF898832C23074603FB0083D3F840
:102F7000C06D002E00F08E81D3F8C85D25B195F9A3
:102F80000630002B40F086812C2303FB0783D3F807
:102F9000CC4D24B194F90630002B40F07B817B1C92
:102FA000DBB215B11522EB71AA7114B11622E371CF
:102FB000A2714FF02C09308D6CF07EFF214609FB89
:102FC00007F9284674F03CF9284608EB090ABE4D7B
:102FD0009AF8D23D9AF8D02D002B0CBF4FF01E0B63
:102FE0004FF03E0B5946FFF7B7FF20469AF8D12D18
:102FF0005946FFF7B1FFDAF8C03DB44814225C68C7
:1030000000214844DFF8F89278F08CFC236823F024
:1030100001032360AE4B9C4215D1D5F8903043F4A8
:103020000013C5F89030D5F8903023F40013C5F89C
:1030300090305EF0B3FBA44BDB69C3F302139944F9
:1030400099F8D83A33E0A34B9C420AD1D5F8903096
:1030500043F48003C5F89030D5F8903023F4800312
:10306000E5E79D4B9C420AD1D5F8903043F400032C
:10307000C5F89030D5F8903023F40003D7E7974B8C
:103080009C4240F00981D5F89C3043F08003C5F89C
:103090009C30D5F89C3023F08003C5F89C305EF05E
:1030A0007DFB2B6AC3F302134B4493F8D83A03F029
:1030B0001F039FED8B7A9FED8B5AB0EE084AD840E4
:1030C0002C23F7EE003A002507EE900A03FB078851
:1030D00040F2145CF8EE677AB8F8D48DC7EE275A40
:1030E00007EE908A9FED807AF8EEE77AC7EE274ADE
:1030F000DFED7E7AB0EE007AE5EE877AA5EE875AAC
:1031000025EE844A37EE856A74EEE72AB8F5C87F63
:1031100005F10107D5BF4FF496727822642332235C
:1031200007EE907AD8BF4FF4167E1344A2F1320214
:10313000F8EEE76AC8BF4FF4827E07EE903AD4BF3C
:1031400061464FF4FA7166EEA56AB8EEE77A71440B
:10315000C7EE267A07EE102AB8EEC77A37EE447A21
:1031600077EEE37AFCEEE77A17EE903AC7EE267A2E
:10317000FCEEE77A17EE900A07EE90EAB8EEE73A2F
:1031800007EE901AF8EEE77A23EE243A83EE277AD8
:1031900037EE453A32EEC77AC3EE267A77EEE37A17
:1031A000FCEEE77A17EE901AC7EE267A77EEE37A0E
:1031B000FCEEE77A17EE902A02F1020E0EEB0109FF
:1031C000B0EE467A07EE909AF8EE677AA6EEA77A06
:1031D000F4EEC74AF1EE10FA6FDC43EA000E5FFA34
:1031E0008EFEBEF10F0F6AD841EA020E1FFA8EFE64
:1031F000BEF1FF0F63D81B05000403F07F6392B29A
:1032000000F47F0003433A4843EA057300EA0121D2
:103210000B4313432268374D22F0010222602268DB
:1032200022F4F8522260002223612368114643F001
:1032300001032360A36823F40043A360A3686FF332
:103240000A03A360236823F440132360636823F414
:1032500000436360236843F001032360012496F870
:103260002B005CF0B1FF96F82B305A0903F01F03D6
:1032700004FA03F345F82230002296F82A0011469A
:103280005CF0A2FF96F82A305A0903F01F039C4015
:1032900045F82240BDE8F88F174B9C427FF4C9AE39
:1032A000D5F8903043F00073C5F89030D5F89030E1
:1032B00023F00073BBE63D4628E701317EE70F2F80
:1032C000F9D10023A6E700BF00440258D80D00241E
:1032D0000054004000580040005C0040001C0058B2
:1032E000286B6E4E000016430024744900007042A3
:1032F00000FFFF0000E100E0006400400000002447
:1033000018C0179008B1002204E670470D4B70B545
:1033100093F84860A6B10C4C002503E00135203439
:10332000B5420DD0237F002BF8D0E06800220028A2
:10333000F4D00135217DFFF7EDFD2034B542F1D108
:10334000012070BD80310020C024002070B590F8AD
:10335000723004461D09013D072D10D81A4E03F0A6
:103360000F0306EB4502118A41FA03F2D20706D594
:1033700090F87520012AD0B205D0012070BD94F8D4
:1033800075300120FAE798400138084078F0D8FD00
:1033900073190E4A93F8943C034402EBC30552F8A8
:1033A0003320AB8810691840E8D0002394F87320CC
:1033B0000221284684F87530FFF7ACFD226E1368B1
:1033C00043F008031360D8E718C017906400002486
:1033D00070B5154BBFF34F8F144903F50352C1F875
:1033E000683220339342FAD1BFF34F8FBFF36F8F10
:1033F0000F4C40F62A030C4AB4F84C5D04F55060BB
:103400002946FEF7AFF8034618B1002384F84E3D75
:1034100070BDD4F8006D294604F550600122736236
:10342000BDE8704074F0BEBD2052012400ED00E004
:103430000000002419481A4B01681A4A41F48071AF
:1034400030B482B00160D3F8F410FF24CA2041F4F4
:103450008031C3F8F410D3F8F41001F480310191F5
:103460005321019D546250625162D3F8D030DB0188
:103470000CD40C4B00220C495A659A65DA651A6621
:103480005A669A66196502B030BC7047126D064BD9
:103490009A42EED102B030BC704700BF00480258DB
:1034A0000044025800400058316665422DE9F84F4B
:1034B000D0F85C710446534B00F59676FDB227F0C8
:1034C000FF09826800F1E00A103D4846D2F800800A
:1034D000A3FB05352D09294671F0B6F9D4F81C2156
:1034E0000023B2F5807F84F820317FD00DD8102AD8
:1034F00000F084805DD8012A46D0042A16BF6FF4FC
:1035000000616FF008013C230EE0B2F5805F71D0DE
:10351000B2F5803F3BD0B2F5806F15BF6FF400610C
:103520006FF008013C230423324608F11806404698
:1035300056F803C001EA0C01F150D4F81CB1594609
:1035400070F038FFBBF5807F2ED024D8BBF1100F70
:103550003FD037D8BBF1010F02D0BBF1040F34D1FB
:103560004FF0080C336852462946484643EA0C039C
:1035700033604023C4F8E83071F00AF93B6843F047
:1035800010033B60BDE8F88F6FF00801CCE76FF0E7
:1035900008013C23C8E7BBF5805F22D0BBF5803F24
:1035A0001AD0BBF5806F10D108F11C064FF0080C43
:1035B000D8E7402A15BF6FF400616FF008013C2383
:1035C0000023B1E7BBF1400FCAD03C364FF4006C8A
:1035D000C8E74FF4006CC5E708F154064FF0080C3B
:1035E000C0E708F11C064FF4006CBBE76FF0080160
:1035F000042399E76FF40061042395E76FF40061F9
:1036000092E700BFABAAAAAA2DE9F04F067991B0C4
:103610000546046E16F0020A48D090F87280B8F1A0
:10362000000818BF4FF001084FEAC802236823F4CE
:10363000F8732360A36823F00103A360236823F0D9
:1036400001032360B44B9C4200F08881B34B9C4241
:103650002FD0B34B9C4200F0C281B24B9C4200F091
:10366000CC81B14B9C4200F0A881B04B9C4200F051
:10367000D281AF4B9C4200F0EA81AE4B9C4200F0FD
:10368000F481AD4B9C4200F0D481AC4B9C421DD1E7
:10369000AB4BD3F8981041F08001C3F89810D3F8E1
:1036A000981021F08001C3F898100FE05246D046E0
:1036B000BCE7A34BD3F8901041F40031C3F890104D
:1036C000D3F8901021F40031C3F890102368D5F896
:1036D00008B0DF0795F8059053D44FEA8923206896
:1036E0004FEA092106F0010603F48053954F01F4D7
:1036F0008061E71B0B439449B7FA87F701407F09C4
:103700000B43BF0043EA8603134323604FEA0933A8
:10371000626803F4005322F4405213436360A368C9
:1037200023F44073A3607C4B9C4200F054817B4B9C
:103730009C4229D07A4B9C4226D003F580639C4260
:1037400022D003F580639C421ED003F544439C4283
:1037500000F04181A3F51C439C4215D003F5806322
:103760009C4211D003F51C439C4200F0348103F5C8
:1037700080639C4200F02F81E36A23F00F033B43F8
:10378000E36211B0BDE8F08F70485EF00BFB0028DB
:10379000F2D0BBF1000FEFD06D4B19F0010F03EB2E
:1037A0008703D3F89C3CB0FBF3F000EB5B00B0FB6D
:1037B000FBF080B2E060E36A23F00F0343EA070303
:1037C000E36208D01EB1636843F480336360BAF1EA
:1037D000000F40F0D18095F874301BB1636843F45A
:1037E00000436360A36819F0080F43F48053A3609B
:1037F000236823F000532360636823F490436360DD
:10380000A36823F02A03A36003D0A36843F008034E
:10381000A360236843F001032360002E3FD0EF6BC9
:10382000002F00F0AE806B6CFEB227F0FF09002283
:10383000099304F12403103E484600934FF480633B
:1038400005934FF4807303934FF480330A93414BF5
:10385000A3FB063600230293360904933146CDE9D3
:103860000B33CDE90D336B690193EB6808930023AB
:10387000CDE9062370F0E8FF6A463146484670F00D
:1038800087FF3B6843F001033B60334BA2689B5DBD
:1038900042F040024B44A2605B689BB26B65B8F19A
:1038A000000F3FF46EAF2E6C002E7BD0F1B2AA6CED
:1038B000284B26F0FF07A1F1100509923846A3FB1B
:1038C0000535002301932D0908932946CDE90333DB
:1038D000CDE90633CDE90B33CDE90D334023029317
:1038E00004F1280300934FF4806305934FF4803371
:1038F0000A9370F0A9FF6A462946384670F048FFDF
:10390000336843F010033360236843F040032360BF
:1039100011B0BDE8F08F00BF00100140004400402E
:1039200000480040004C004000500040001401409E
:1039300000780040007C004000180140001C01405D
:1039400000440258000C0058F369FFEF080000071C
:1039500018C01790ABAAAAAA706518904A4BD3F862
:10396000981041F01001C3F89810D3F8981021F086
:103970001001C3F89810A9E6636843F4003363604C
:1039800029E7236843F480732360A36843F00103AD
:10399000A360236843F020032360236843F01003EF
:1039A00023607CE7236843F080032360236843F0AF
:1039B0004003236011B0BDE8F08F334BD3F8901073
:1039C00041F48011C3F89010D3F8901021F48011C5
:1039D000C3F890107AE62D485EF0E4F9D7E62A4B5A
:1039E000D3F8901041F48021C3F89010D3F89010D0
:1039F00021F48021C3F8901068E6234BD3F890108F
:103A000041F40021C3F89010D3F8901021F4002164
:103A1000C3F890105AE61C4BD3F8981041F02001DF
:103A2000C3F89810D3F8981021F02001C3F898102B
:103A30004CE6154BD3F8981041F04001C3F89810AC
:103A4000D3F8981021F04001C3F898103EE60E4BD1
:103A5000D3F8901041F08041C3F89010D3F8901043
:103A600021F08041C3F8901030E6074BD3F8901056
:103A700041F00041C3F89010D3F8901021F00041BC
:103A8000C3F8901022E600BF004402580803000764
:103A900038B50409013C072C19D80F4D00F00F036D
:103AA00005EB4402108A40FA03F212F0010210D032
:103AB0000122254402FA03F3013B184078F040FA52
:103AC00095F8943C054A034402EBC30038BD00203E
:103AD00038BD104638BD00BF18C0179064000024E0
:103AE0002DE9F047984D05EB001353F8F04C002CEE
:103AF00000F08F8033F8E67C06464FEA001938461E
:103B00006CF0DAF901227B0907F01F07023BBA408B
:103B1000082B0FD8DFE813F0BF00C700CF00D70095
:103B2000DF000900E700EF00B7008849CB6F23EA08
:103B30000203CB6705EB0903013613F8EC0CF6B270
:103B4000FFF7A6FF074610B11223C671837105EB7C
:103B5000090313F8EB0CFFF79BFF824610B1132308
:103B6000C671837105EB090313F8EA0CFFF790FFA8
:103B7000804610B11423C67183714D4450462E21E6
:103B800015F8E82CFFF7E8F915F8E72C40460E2168
:103B9000FFF7E2F915F8E92C2E213846FFF7DCF99A
:103BA00023686B4A23F001039442236033D0694BAE
:103BB0009C423ED1654BD3F8902042F48042C3F83A
:103BC0009020D3F8902022F48042C3F89020E3683C
:103BD00043F00043E360A36823F4F073A360236819
:103BE000DA0716D4A1685C4A5C4B0A401343A36011
:103BF000E368DB0042D5E268594B134043F0E863C9
:103C0000E360236823F400632360236D23F0010342
:103C10002365BDE8F0874D4BD3F8982042F48052DD
:103C2000C3F89820D3F8982022F48052C3F8982043
:103C3000CDE74C4B9C4213D04B4B9C4263D04B4B3B
:103C40009C426ED1414BD3F8982042F48012C3F8C5
:103C50009820D3F8982022F48012C3F89820B6E771
:103C60003A4BD3F8902042F40042C3F89020D3F8A6
:103C7000902022F40042C3F89020A8E7236843F480
:103C800080532360B7E73149D1F89C3023EA02031F
:103C9000C1F89C304EE72D49D1F8983023EA020351
:103CA000C1F8983046E72949D1F8903023EA020359
:103CB000C1F890303EE72549D1F8943023EA020359
:103CC000C1F8943036E72149D1F8803023EA020365
:103CD000C1F880302EE71D49D1F8843023EA020371
:103CE000C1F8843026E71949D1F88C3023EA020361
:103CF000C1F88C301EE71549D1F8883023EA020359
:103D0000C1F8883016E7114BD3F8982042F40052DE
:103D1000C3F89820D3F8982022F40052C3F89820D2
:103D200055E7134B9C427FF452AF03F50C33D3F8A5
:103D30009C2042F02002C3F89C20D3F89C2022F063
:103D40002002C3F89C2042E7F810002400440258E7
:103D50000030014000380040E0FFBF8F0700002026
:103D6000FFFF39D8003C00400034014000500140C2
:103D70000014005808B51D20FFF78AFE10B190F915
:103D8000063053B11E20FFF783FE10B190F90630C4
:103D900003B108BD5523C38008BD5523C380F1E797
:103DA000F8B50E4B93F848709FB10D4DC7F1090758
:103DB0000924013C0FD0AE683079FFF769FE95F811
:103DC000DC10F27908B1FFF7A5F8A74205F5B47544
:103DD000EFD10120F8BDA368FFDE00BF80310020D5
:103DE000C0250020F0B4046EEFF31183502282F35B
:103DF00012880279920702D590F872203AB901220E
:103E000080F86420DBB283F31188F0BC7047026C49
:103E1000116801F001010029F4D1466A856AAE42B9
:103E2000EDD0856A476A866AB74220D8866A816281
:103E30000169891B1FFA81FC8169DBB229440025D5
:103E400080F8645040202062D16051686FF30F0108
:103E500041EA0C015160116841F001011160A26852
:103E600042F08002A26083F31188F0BC7047416A7F
:103E7000866AA1EB060C416A1FFA8CFC8162DBE7C3
:103E8000027D0346C0691F2A1B6805D9203A2021FC
:103E900001FA02F2DA60A5E7202101FA02F29A6043
:103EA000A0E700BF08B51D480023C0F88430BFF369
:103EB0004F8F436923F480334361BFF34F8FD0F8B2
:103EC000803043F6E074C3F34E3CC3F3C90E4FEAAF
:103ED0004C1C0CEA0401734641EA8372013BC0F8B2
:103EE00074225A1CF8D1ACF1200C1CF1200FF0D137
:103EF000BFF34F8FBFF36F8FBFF34F8FBFF36F8F42
:103F00004369002223F400334361C0F85022BFF319
:103F10004F8FBFF36F8F72B6FCF7FEFA00ED00E033
:103F2000012808B508BF0522034B18BF0122DA6536
:103F300072B6FCF7F1FA00BF00400058890AA1F5FB
:103F4000801152292DD81E4B0B4410B593F820E058
:103F5000BEF10D0F24D8EFF31184502383F31288A0
:103F60000368FBB1191D436200F1100200F1200C3F
:103F700052F8043F0BB10B60191D9445F8D1002293
:103F8000E3B20A6083F31188436A73B14C220D4B8C
:103F900002FB0E3353F8902CD36843F00103D36037
:103FA00010BD704700F12401DEE74C22054B02FBF7
:103FB0000E3353F8902CD36823F00103D36010BD67
:103FC00018C01790F8100024F0B40D4601688B0A51
:103FD000A3F58013522B2CD81D4C234493F820308A
:103FE0000D2B26D84C261B4C40794FF0020C06FBBB
:103FF000034454F8906C840820460CFA04FC03EB4C
:10400000830403EB44042044ADB1F768124C47EA43
:104010000C0704EB800CCCF8B457CCF8C427F7603D
:1040200003EB83020D4803EB4203F0BC00EB83007B
:1040300084E7F0BC7047F46824EA0C04F460064C92
:1040400004EB8006C6F8B457C6F8C427E8E700BFFB
:1040500018C01790F810002400000024B0070024B6
:1040600003689B0AA3F58013522B00D970470F4AAF
:10407000134493F820300D2BF8D84FF04C0C10B4AB
:104080000B4C42790CFB0340022350F8900CDA40B1
:104090009340C26829B922EA03035DF8044BC36068
:1040A000704713435DF8044BC360704718C0179006
:1040B000F810002403689B0AA3F58013522B12D832
:1040C000094A134493F820200D2A0CD84079022382
:1040D00006494FF04C0CD8400CFB0212834052F8BA
:1040E000902CDB431361704718C01790F810002420
:1040F00001490248FDF7D4B9B0070024000001408F
:1041000001490248FDF7CCB9B00700240000014086
:1041100002494FF08040FDF7C3B900BFDC0700241F
:1041200001490248FDF7BCB908080024000400401A
:1041300001490248FDF7B4B93408002400080040E2
:1041400001490248FDF7ACB960080024000C0040AA
:10415000F8B5164D164E2A69EB681A404FF000402C
:10416000B2FA82F3EAB120FA03F3012A6FEA0303F9
:1041700002EA03012B610A46F2D1D6F8B4788FB176
:10418000013F0023BFB2C6F8B438D6F8B04834B106
:1041900023682046394698476468002CF8D10022ED
:1041A000DCE7F8BDEF6ABFB2EFE700BF00100040E8
:1041B0000000002401490248FDF772B9E408002418
:1041C0000004014010B5064C064804F6E401FDF772
:1041D00067F904F63C110448BDE81040FDF760B9EA
:1041E0000000002400040140001C00400149024876
:1041F000FDF756B910090024001800400149024893
:10420000FDF74EB96809002400200040014902482A
:10421000FDF746B9940900240040014001490248D5
:10422000FDF73EB9C009002400440140014902489D
:10423000FDF736B9EC090024004801401F4B9842B5
:1042400010B50ED003F5806398420AD01C4A03F5DE
:104250008043984218BF904203D003F58063984290
:104260001BD15DF09BFA174B1749DC69DA69C4F37F
:10427000022CC2F3022201EB0C0393F8D83A03F0AC
:104280001F03D8400F4B11491B69C3F3C03342EAE7
:10429000C303CB5C03FB00F010BD5DF07FFA094B5C
:1042A0000949DC69DA69C4F30214C2F302120B197A
:1042B00093F8D83A03F01F03D840E3E70000014029
:1042C000004001400044025818C0179044651890FF
:1042D0002DE9F04F002391B0DFF8F0920093B14B3D
:1042E000B14DA3F6CC5AB14EB14C276899F8F623DC
:1042F000BB0AA3F58013522B00F2CE80534493F8EF
:1043000020300D2B00F2C880012A16F903B000F00E
:104310000281022A02D1BBF1080F3DD14FF0000803
:104320004146584612F066FB12F0EEFB90F900C0D1
:10433000BCF1000F18BFBCF1540F14BF4FF0010CBB
:104340004FF0000C40F0DD8008F104081FFA88F8F7
:10435000B8F1100FE4D1009B002B00F0A880924A26
:104360000CE0534493F820300D2B0ED8F3565B45E8
:104370000ED002F58672AA4200F0958091680B6813
:104380009B0AA3F58013522BEBD900235B45F0D198
:104390004B7961799942ECD11C34824B9C42A4D177
:1043A000009B05F586750133042B00939CD1814B4E
:1043B0004FF0010ADFF818B293F848300133029346
:1043C000029B534565D099F80A34DBF80C600393DF
:1043D0009BF810300093002E5BD0774A3368556805
:1043E0007648B288002D184401924FEA902040F39D
:1043F0009F806D4A002405E0013402F58672AC42CC
:1044000000F0938011688142F6D1674A4FF48671BB
:10441000019F01FB0424009ACBF80C608BF810205C
:10442000019ACBF81840B2FA82FC0322CCF11F05A6
:104430006800CBF80450B27186F807A002FA00F6C3
:10444000A16C0122D4F854E0314302FA00F002FAE0
:1044500005F5A164216D0143D4F8AC0021655649EE
:104460000E78A9B2002E00F0408145EA0E05656580
:104470009F61FBF77FFF0AF1010A2046FBF74EFF21
:104480000BF1200B40F20113BAF1090F2BF8043C99
:1044900096D111B0BDE8F08F013A012A7FF67CAFCA
:1044A0004FF0000B3AE7BCF1000F7FF475AFA06846
:1044B0000022434B04E001320C33102A00F06183E8
:1044C00059688842F7D152B261793846FDF760FFEA
:1044D0003C4A0023416804E0102B02F12C023FF417
:1044E0005BAF576818460133B942F5D12C23364AE1
:1044F00003FB002090F9EC30002B7FF44DAFAC6053
:104500004EE7009B002B7FF42AAF1C34254B9C42C6
:104510007FF4EBAE44E7BBF1010F3FF4FFAE1C3478
:10452000204B9C427FF4E1AE3AE7042C00F043823A
:104530004FF48671204A01FB05221169059100297B
:1045400000F0F1829060013054211D4FC4B29E46AC
:1045500082F8101182F811416A1C17494A60059AC5
:1045600010685179D2F808C0002204E001320C37FB
:10457000102A00F006837B689C45F7D152B2CDF833
:1045800010E0FDF705FF0C4B4FF48672DFF8348026
:1045900002FB05310022049BD0E90170C1E90770DC
:1045A00041461CE0E4CD17909020002060651890F3
:1045B00004CD179080310020882000200000FEA745
:1045C000D802002098030020CC020020F81000241C
:1045D000C0240020102A01F12C013FF45AAF486892
:1045E000944601328742F5D12C22824902FB0C1CF1
:1045F0009CF9EC20002A7FF44CAF4FF486728CF8C3
:10460000ED4054217C4802FB05F28CF8EC10144676
:104610007A4AA11006947A4C02F5607C00FB01F105
:1046200006982018C360C1EBC10302EB431201EBF3
:10463000C10304F10801C0F8B4200CEB4313069A3F
:10464000C0F8FC3033238C18C0F8B8308C23C0F885
:104650000031059B1B6818460493FFF7EFFD039B91
:10466000062B00F0AE81072B6649674B674A18BFDF
:104670001A46674B18BF0B464FF48671B0FBF3F335
:10468000B0FBF2F2013B5E48013A01FB05019BB22F
:10469000A1F8BC20A1F874302366069B03F15801F1
:1046A00000F10803049819440023A4F85830636605
:1046B000E3656FF0FDFF049A136843F08003136015
:1046C000059B5B791A4603930C2A1BD8DFE812F08E
:1046D000F3011A001A001A00D1011A001A001A0078
:1046E000AF011A001A001A008C01CCF12F0C3F0404
:1046F00002FA0CF242EA0E02626532469F61FBF753
:1047000039FEB8E63E4A4FF4867304984FF0020C27
:1047100003FB0523602208924FF4807259690368F5
:104720000E92012223F00103079109920A220360ED
:104730000023CDE90B2C08AA0A930D930F936FF079
:1047400039FE07990023B1F5807F00F0128240F214
:104750003B81B1F5805F00F00882B1F5803F00F049
:10476000FF81B1F5806F15BF4FF4006208223C2332
:10477000042304991831C8580243CA50059B18797C
:10478000002840F0BE81049A136843F001031360CF
:10479000002304E0102B08F12C0800F0AE81D8F8BB
:1047A0000420194601339742F4D105932C22114B72
:1047B00002FB0132D2F8CC00164A904214BFA1206D
:1047C000A0206BF079FB0399059B0C2900F29381E3
:1047D000114A02EB4102B2F8CC1D09484FF486722F
:1047E000DFF838E002FB0502DDF810C0002011837D
:1047F0001DE000BFCC0200206B4CA407204A01241E
:1048000088200020D0DD06004495080010552200C5
:1048100040771B000000024018C01790B4380020F9
:10482000944500F0A0810130042800F0AD815EF8CD
:104830003020002AF4D1BF4A1746D2F8542701325B
:10484000C7F8542707EBC002049FC000C2F83477B2
:104850000EEB0007902218462346B7F804C041EA41
:104860000C01B9800027B449FDF700FEB34A4FF4AC
:1048700086734FF0400C4FF4403EB14803FB0523D4
:104880004FF48052DD690793296841F010012960D7
:10489000296841F014012960C4E91F77C4E927772A
:1048A000C4E92977196AC4F878C04FF4806CC4F859
:1048B00094100391E9B2C4F898E01039C4F884C0A8
:1048C00025F0FF0CA0FB0101D3F8B800CDF810C013
:1048D000C4F890000909D3F80C80C4F8882008F1C6
:1048E00018029848059108F110082267069A70325C
:1048F0000244D3F8B40060674FF48040C4F88C00E1
:1049000060466FF045FFD5F800E0069AC4F820E055
:10491000D5F814E0B8328B4BC4F824E0D5F804E0A5
:104920001A44039BC4F828E0D5F808E0C4F82CE04A
:10493000D5F80CE0C4F8DC304FF48063C4F8C870DC
:10494000C4F8CC30079BC4F830E0C4E93077C4E940
:104950003977C4E93B77DDE904C14FF4003760469D
:104960004FF4006CC4F8E070D3F80071C4F8B8805C
:10497000C4F8D8704FF48047C4F8D0C0D3F8FC30E6
:10498000C4F8D470C4F8BC306FF002FF2B68B7884D
:1049900063636B69A3636B68E363AB682364EB6871
:1049A00063642B6843F010032B602B6843F01403FF
:1049B0002B6033682FE5032389F80B3411B0BDE871
:1049C000F08F614A614B57E6102900F0D78000F262
:1049D000BF80012900F0D080042915BF4FF4006288
:1049E00008223C230023C4E604984FF486725349FE
:1049F000036802FB05124FF4805123F0010351615B
:104A00000222036000230A930D930F9360230893FF
:104A10004FF480730E93012309930A23CDE90B32DF
:104A200008AA6FF0C7FC4FF400620423A1E60498C3
:104A30004FF4867241494FF0600C03684FF0020E4C
:104A400002FB05124FF4807123F00103516108AAA3
:104A5000036000230E910A930D930F930123CDE978
:104A600008C30A23CDE90B3E6FF0A4FC08220423FF
:104A70007FE632494FF48672049802FB051210213A
:104A800003685161602223F0010308924FF48072A1
:104A9000036000230E9201220A930D930F930223C9
:104AA00009920A22CDE90B2308AA6FF083FC0023A8
:104AB0004FF400625DE604984FF486721F49036864
:104AC00002FB0512012123F0010351616022036002
:104AD000002308924FF480720A930D930F930223E0
:104AE0000E920A220991CDE90B2308AA6FF062FC0D
:104AF000002308223DE600216FE64FF0FF3100233E
:104B000053E6FEF7C5FF079038B1059B0221DA791D
:104B1000FEF700FA5422079BDA80049A536C43F4A0
:104B2000004353642FE6022389F80B3411B0BDE82B
:104B3000F08F00BF8031002001000000882000209D
:104B4000ABAAAAAA90200020882A1100A0BB0D00C1
:104B5000402915BF4FF4006208223C23002308E6D9
:104B600008223C2305E6C00072E64FF400620423ED
:104B7000FFE508220423FCE50822FAE54FF4006271
:104B8000F7E500235B68FFDE00239B88FFDE00BFA4
:104B90002DE9F04FB24D8FB095F80C84B8F1000FAD
:104BA00003D100200FB0BDE8F08F00222F21404636
:104BB00012F000F806460028F3D0036890F805903C
:104BC000A84F0193A7F84C9DFDF70AFC0028E8D0F8
:104BD000D0E901430293002CE3D0DFF8C0B20022F9
:104BE000594601E0102ADCD04B6894462C31013242
:104BF0009C42F7D12C229C4B02FB0C3C9CF9ECA074
:104C0000BAF1000FCDD1019B2F221846ACF8EC2051
:104C1000C7F8003DFFF712FB944A904280F0FC80F9
:104C2000012303930198FFF709FB039B9049C7F801
:104C300004ADB0FBF3F2120A8E48A1FB0221002260
:104C4000C7F8102DC7F8082D0A090909A0FB0202B0
:104C5000C7F80C1D5208A5F810245200A5F80E2420
:104C600097F83D2D02F0FF01002A00F0E7800222B4
:104C70000198814987F83D2D5CF0CCFF0122404628
:104C800087F8482D87F83E2D87F83F2D87F8402D6F
:104C900087F8412D87F8422D87F8432D87F8442D5A
:104CA00087F8452D87F8462D87F8472D87F83D2D45
:104CB000FEF7EEFEC5F8140428B12F21C1804E2165
:104CC000F279FEF727F96D4A0021029BB9F10C0F2A
:104CD000C5F82414C5F81C34C5F83414C5F83C14C0
:104CE000C5F84414C5F84814D2F8D800C5F81844DB
:104CF00040F00100C2F8D800D2F8D80000F001005E
:104D000004900498D2F8D80040F00200C2F8D8000D
:104D1000D2F8D82002F002020592059A4FF0400224
:104D2000C5F820244FF48062C5F828244FF480523F
:104D3000C5F82C244FF48042C5F830244FF40032DB
:104D4000C5F838244FF00302C5F8402479D84C4AFE
:104D500002EB4902B2F8E88DC2464A4A08F1080857
:104D60004949C5F8502407EB8802C2F8001D5A468D
:104D7000002101E0102969D0536808462C32013126
:104D80009C42F7D1384B2C2202FB0032D2F8CC00E7
:104D90003E4A904214BFA120A0206BF08DF8002065
:104DA00001E0102850D0DBF8043001300BF12C0B5F
:104DB0009C42F6D107EB8807534660223449FDF741
:104DC00055FBD7F8000D5BF0B7FD00287FF4E9AE86
:104DD000B479002760260C9063004A4606A929484A
:104DE00003F002030893E300CDE9066703F008032C
:104DF000002600270993CDE90A676AF0A7FD00287D
:104E00007FF4CFAEA30749461E4822D55CF080FF51
:104E1000B0FA80F04009C5E60198FFF70FFA1D4A85
:104E20001D490244A1FB021A4FEA9A5A0AF1FF3ABD
:104E30001FFA8AFA0AF101030393F3E687F83C1D8F
:104E400015E78A46884688E70020B3E74FF0FF3031
:104E500098E75CF053FEB0FA80F04009A2E600BF8C
:104E6000F810002400000024CC020020006CDC02BA
:104E7000598B4F01ABAAAAAA040D00240044025882
:104E800018C01790000D00241015002400000240E7
:104E9000D502000000366E01819F5E169803002047
:104EA0002DE9F0470468A30AA3F58013522B71D8AB
:104EB00015466F4A134493F820600D2E6AD84C278C
:104EC000DFF8C481013907FB06FA89B208EB0A0949
:104ED00049F8841C0068FFF7B1F9A8F19003B0FB12
:104EE000F5F0013807FB063749F88C0C391D59F8E5
:104EF000900CA04200F0B7800AF1080A002249F89D
:104F0000904C534449F8882CC3E9022219F8533CC9
:104F100003F0FF02002B00F0A3804C250223204663
:104F200005FB068505F8533C5CF074FE0123B4F1E3
:104F3000804F05F8483C05F8523C05F8513C05F80F
:104F4000503C05F84F3C05F84E3C05F84D3C05F843
:104F50004C3C05F84B3C05F84A3C05F8493C05F843
:104F6000533C444BA4EB0303B3FA83F34FEA5313CC
:104F700056D0002B54D1404A94420DD002F58062A5
:104F8000944209D002F5806294422BD002F5784217
:104F9000944227D0BDE8F0874C2303FB068313F827
:104FA000542C012AF6D00221344A03F8531CA0687D
:104FB0000240A260012203F8532C03F8531C6268DC
:104FC000A16822F0700221F080014C23626000226F
:104FD000A160012103FB068303F8531C03F8542C42
:104FE000BDE8F0874C2202FB068212F8541C01290E
:104FF000D0D0022102F8531C2049A068014020486B
:10500000A1600121201A02F8531C0021B0FA80F09F
:1050100002F8541C1B4A4009944213D090B9B9E7D6
:105020004C2202FB068212F8541C0129B2D0022144
:1050300002F8531C1149A06801400020A160012121
:1050400002F8531C4C22022102FB068202F8531C78
:105050006268A1680BB90028B3D022F47002B0E7EF
:1050600009F8542C59E7BDE8F0475CF0D3BD00BF08
:1050700018C0179000000140000400408800CEFFD7
:1050800000040140000C0040F810002403689B0A53
:10509000A3F58013522B09D82DE9F041304D2B4454
:1050A00093F820600D2E02D9BDE8F08170470446C8
:1050B000FFF7F6FE4C222B4B02FB063313F8532C62
:1050C000012A12D020680023274951F8332090424A
:1050D0001DD001330E2BF8D10122002011465BF0C8
:1050E00073F8224B01221A60DEE7022153F8902C5C
:1050F00003F8531C1E4B91680B40062BE2D0B3F50E
:10510000803FDFD0136843F001031360DAE705EB5B
:10511000C3050126154F95F86E4A3246314604F014
:105120001F0520465BF050F81B2C4FEA541806FA76
:1051300005F547F828500AD02E2CB5D13246314615
:105140002C205BF041F84FF480537B60ACE7324693
:10515000314619205BF038F84FF000733B60A3E74D
:1051600018C01790F810002480CA179000E100E0E2
:1051700007000100F8B5134C94F89E3D03F0FF05BD
:10518000002BF9D1104B012693F8903484F89E6DD2
:1051900003B9F8BD0D4AB4F89C7D138A14320C484B
:1051A0003946FCF7DFF9034610B184F89E5DF8BD7F
:1051B000D4F8504D3246394605486362BDE8F840A0
:1051C00072F0F0BE00000024F8100024E0F000248B
:1051D000500D002437B590F85F380446032B2FD1CB
:1051E0000023204D8DF807309DF8073094F8602893
:1051F0009A4201D803B030BD9DF8073005EBC303D8
:1052000093F898348BB181F0010383B19DF8073096
:1052100005EBC303D3F89404FDF770FE9DF8073047
:105220000133DBB28DF80730DEE70B46EDE79DF882
:10523000073005EBC303D3F89404FDF765FEEDE7F3
:10524000D0E910039B7903F00103994204D003B025
:10525000BDE83040FDF752BE03B0BDE83040FDF779
:1052600053BE00BFF810002438B5044600790D463F
:1052700050B1FEF70DFC08B10323C380E279294643
:10528000BDE83840FDF768BE38BD10B504462221A0
:10529000FFF7EAFF2046FEF70DFF20460121BDE89B
:1052A0001040FEF7DDBE10B504460121FFF7DCFF1C
:1052B00000212046BDE81040FEF7D2BE38B510F8F8
:1052C000133CA0F6640433BB94F85028002A33D171
:1052D000616AA36A99421ED0A36AA169581CA062A0
:1052E000CB5CA06A2169DBB2884200D3A2625B007A
:1052F00043F40073A4F854380A2384F85238012385
:1053000084F8503894F85F38012B01D0042B02D177
:10531000606CFFF7C8FF94F84C38002B6DD194F8FF
:105320004D380133DBB2092B84F84D3825D12046A6
:10533000BDE83840FBF708B994F952586DB1B4F89C
:105340005418013D20464B0801F00101A4F85438DF
:10535000FFF740FF84F85258DDE7626AA36A84F8D9
:1053600050589A42D7D194F85F38012B01D0042BC2
:10537000D1D1606CFFF789FFCDE70A2B3DD194F8BE
:105380004F382BB9B4F8563843F00103A4F8563817
:105390002379D9070AD5B4F85608820501D4C30782
:1053A00018D4B4F85C380133A4F85C380122002327
:1053B00084F84C2894F84F2884F84D38012A1CD1E1
:1053C0006179606C84F84F3801F00101BDE8384024
:1053D0006CF0AEBAE36AC0F3470013B1216B984793
:1053E000E4E7E3696269D054E369E2680133B3FB3F
:1053F000F2F102FB1133E361D8E738BD2DE9F84340
:1054000010F8133CA0F664047BB1B4F858380133AB
:105410009BB2082BA4F858381BD90021606C84F883
:105420005118A4F858186CF083FA394F97F8D484BF
:10543000B8F1000F03D101212046FFF7CBFE94F80D
:1054400050385BBB626AA36A9A4204D1002387F892
:10545000D434BDE8F883B8F1020F12D808F101087E
:1054600014BFFF237F2387F8D484A4F8543808237B
:10547000606C84F85238012384F85038BDE8F84352
:1054800011E7A36AA269591CA162D35CA16A2269CF
:10549000DBB29142E9D30022A262E6E794F95268B6
:1054A0005EB3B4F8549897F8D55419F001010BD0B5
:1054B000012D01D8012103E0AB1E012B09D80021E9
:1054C0002046FFF787FE04E015F0FD03F2D0012B24
:1054D000F6D00135EDB2032D87F8D554B9D9013E88
:1054E0004FEA5909002376B2A4F8549887F8D534C6
:1054F00084F85268002EA5D0ABE7626AA36A9A428C
:10550000A7D1606C84F85068BDE8F843BDE600BFE1
:10551000F81000242DE9F047BFF35F8F9C4C002169
:10552000626A0B46884622F4803262620A46C4F8F8
:105530009410C4F898300133C4F89C20112BC4F89F
:10554000A020F6D10523C4F89430636A43F4803375
:105550006362BFF34F8FBFF36F8F8E4801258E4A72
:105560008E49121A8E4E76F07FF98E488E4A8F49F8
:10557000121A76F079F9D4F888308D4A43F4700322
:105580008C49C4F888303560C6F81080336843F021
:105590008003336033682B433360336843F48033D4
:1055A0003360336843F480533360C6F81880C6F81C
:1055B0001C80C6F82080C6F82880C6F82C80C6F863
:1055C0003080C6F83480C6F83880C6F83C80C6F80B
:1055D0004080C6F84480336823F480233360764BE0
:1055E000C6F86080C3F80851744BA2608A1A184646
:1055F000734976F039F94FF6FF03A060E2681A406C
:10560000704B1343E3605CF0A7F8B269B369C2F36F
:1056100003226D4B6D4E134493F8D83A03F01F03E9
:1056200020FA03F30F2073605AF00AFEFCF738F9F2
:105630005CF092F8664A706000216648121A76F0B3
:1056400071F96548654A6649121A76F00DF9BFF39B
:105650005F8F636A06F56376002723F48033636205
:10566000C4F894804A4C22E0002949D03268737A09
:10567000103616F8068C1B0616F805EC16F804CC46
:1056800043EA087316F8030CC4F89870013743EA2C
:105690004103C4F89C20032F43EA8E4343EA4C4362
:1056A00043EA004343F00103C4F8A03029D0D6F800
:1056B0000480317AB8F1000FD6D032680029D6D1F3
:1056C00022F01F09A8EB090ABAF1200F38BF4FF0EA
:1056D000200A504676F006F9411E05FA01F39A4574
:1056E00001D00146013005FA00F301E05B00013111
:1056F0005A4202EA090298188045F7D8C9B2B6E7BB
:10570000FEE70523C4F89430636A43F48033636290
:10571000BFF34F8FBFF36F8FBFF34F8FBFF36F8F09
:105720000022C4F85022BFF34F8FBFF36F8F63691D
:1057300043F400336361BFF34F8FBFF36F8FC4F83F
:105740008420BFF34F8FD4F8805043F6E0761048A2
:10575000C5F34E34C5F3C905640104EA06012B46BE
:1057600041EA8372013BC0F860225A1CF8D1203C08
:1057700014F1200FF1D1BFF34F8F436943F480330D
:105780004361BFF34F8FBFF36F8FBDE8F08700BF5A
:1057900000ED00E000000000104D0000D40A199058
:1057A0000044025884200020882000208D84199015
:1057B00000001090CC0210900080005100000020EA
:1057C000000010900003FA0518C01790CC020020CA
:1057D000E0F0002420F0002480EC002420F00024DD
:1057E0009184199010B4EFF31182102383F312887F
:1057F0000C4B4FF0E0200024D2B2D3F8B41D01319D
:10580000C3F8B41D8169C3F8B81DC3F8B04D016970
:1058100082F31188D3F8AC2D5DF8044B0132C3F844
:10582000AC2D70470000002410B4EFF31181102359
:1058300083F312884FF0E0229469136913F4803FD8
:105840000D4B03D00120C3F8B00D9469D3F8B40D0B
:10585000C9B2D3F8B02D81F311880244D3F8A41D46
:105860004FF47A7000FB01F31B1B5DF8044BB3FB94
:10587000F1F300FB0230704700000024B0F1FF3F5D
:105880007DD003282DE9F04704463CDC3D4F2C2514
:1058900005FB0075D5F8C46D002E34D0984695F8F8
:1058A000D93D914603F0FF026BBB01238A4685F880
:1058B000D93D85F8D82DFFF7B7FFC5F8E80DFFF7FC
:1058C000B3FF73680546304A1340304A43EA4A033F
:1058D0001A437260B3699A0718D5C6F82890B3695D
:1058E00098071ED4B369D90641D52C23F2692849FB
:1058F00004FB03F342F010021F441944F261D7F88D
:10590000C40DFCF70DFB0020BDE8F087B369DB0692
:10591000EBD4FFF789FF42F20F73401B9842D9DDA9
:105920000EE0C6F82880B3699A0614D4B369DB0682
:10593000DBD4FFF779FF42F20F73401B9842F2DD90
:105940002C23134904FB03F31F441944D7F8C40D57
:10595000FCF7E6FAD7E7F3692C22012002FB047773
:1059600043F020030022F36187F8D92DCCE7FFF73D
:105970005BFF42F20F73401B9842B0DDE0E700206E
:10598000704700BF00000024008000FC002002825D
:10599000D80D0024B0F1FF3F00F0AD8003282DE9C1
:1059A000F84F044600F38480DFF85CA12C2606FB48
:1059B00000A6D6F8C45D002D7AD096F8D90D984689
:1059C00000F0FF03002873D1914601220F4686F8AC
:1059D000D92D86F8D83DFFF727FFC6F8E80DFFF769
:1059E00023FF6B68B9F1FF0F444A4FEA470783462C
:1059F00003EA020318D002F104423B4302F52042BD
:105A00001A436A60AB6999073BD4AB69DA0640D4A4
:105A1000FFF70AFF42F20F73A0EB0B009842F1DD93
:105A200051E06B68354A134043EA0843344A0A9E02
:105A30003B43B0441A436A60AA6950070DD4AA696F
:105A4000D10626D4FFF7F0FE42F20F73A0EB0B0055
:105A5000984238DCAA695007F1D56A6A06F8012B2A
:105A6000B045E9D1AB699A0639D4AB69DB0610D4ED
:105A7000FFF7DAFE42F20F72A0EB0B039342F1DD67
:105A800021E0C5F82890AB695B06CAD4AB69DE0695
:105A900011D52C22E8691B4904FB02F240F01000EA
:105AA0000AEB0203E8611144D3F8C40DFCF738FA9D
:105AB0000020BDE8F88FFFF7B7FE42F20F73A0EBAE
:105AC0000B009842DFDD2C220E4904FB02F20AEBA8
:105AD00002031144D3F8C40DFCF722FAE8E7EA699F
