:020000040800F2
:100000000000022071F905080DFA05084D59000895
:100010000DFA05080DFA05080DFA050800000000A4
:100020000000000000000000000000000DFA0508BC
:100030000DFA0508000000000DFA0508D53100088A
:100040000DFA05080DFA05080DFA05080DFA050860
:100050000DFA05080DFA0508451D00084B1D00089E
:10006000511D0008571D00085D1D0008B102000069
:10007000C5020000D9020000ED02000001030000EB
:1000800015030000290300000DFA0508DF5C0008D5
:10009000E55C00080DFA05080DFA0508631D000867
:1000A0000DFA0508192600080DFA050809260008AA
:1000B0001D2600082D2600083D260008AD1A000860
:1000C000A91A0008B51A0008B11A00080DFA0508A7
:1000D0000DFA0508651E0000711E00007D1E00005F
:1000E0006B1D00080DFA050800000000012700083C
:1000F000D926000811270008C92600083D03000082
:100100000DFA05080DFA05084D2600080DFA050838
:10011000891E0000951E00005D2600086176050816
:100120005103000065030000790300008D03000007
:10013000A10300000DFA05080DFA05080DFA0508DF
:1001400000000000000000000000000000000000AF
:10015000B5030000C9030000DD030000A11E00007C
:10016000BD1A0008B91A00080DFA05080DFA0508AD
:100170000DFA05080DFA05080DFA05080000000043
:100180000DFA05080DFA0508AD1E0000B91E0000A5
:100190000DFA05080DFA05080DFA05080DFA05080F
:1001A0000DFA05080DFA05080DFA05080DFA0508FF
:1001B0000DFA05080DFA05080DFA0508C51A00081C
:1001C000C11A00080DFA05080DFA05080DFA050810
:1001D0000DFA0508096905080DFA05080DFA050864
:1001E0000DFA05080DFA05080DFA05080DFA0508BF
:1001F0000DFA05080DFA05080DFA05080DFA0508AF
:100200000DFA05080DFA05080DFA05080DFA05089E
:100210002127000831270008412700080DFA0508AA
:100220000DFA05080DFA05080DFA05080000000092
:100230000DFA05080DFA0508000000000DFA050882
:100240000DFA05080DFA05080DFA05080DFA05085E
:100250000DFA05080DFA05080DFA05080DFA05084E
:100260000DFA05080DFA05080DFA05080DFA05083E
:100270000DFA05080DFA0508C51E00000000000073
:100280000DFA0508000000000DFA05080000000046
:08029000000000000DFA050852
:1002A000BFF34F8F074A08440029A0EB010304DC89
:1002B000BFF34F8FBFF36F8F70472039C2F85C32A6
:1002C000F2E700BF00ED00E0002A03464FF0000215
:1002D00070B54FEA014418BF0D4600F1C00604BFD7
:1002E00025460C4619682143C3E9001299680C336E
:1002F000294343F8041CB342F4D1D0F8C030C0F80D
:10030000C8202B43C0E9303270BD0B49002230B504
:1003100008461446D0F83034934200DC30BDD1F8A2
:10032000AC3003F1C0055C600C33AB42FBD1013251
:1003300001F58671EEE700BF784201207047034B5C
:1003400003EB401393F85104704700BF784201203B
:10035000426A806A131A58425841704790F84F38E1
:1003600030B53BB990F84D18012490F84E38DAB208
:10037000914200D830BD04FA03F2B0F85658013368
:100380002A43A0F85628F2E70379024613F0010049
:1003900005D0D369D068116A01385B1A18407047DC
:1003A00010B503790446DB0701D4002010BDFFF728
:1003B000EBFF0028F9D0236A6269D05C236AE26807
:1003C000C0B20133B3FBF2F102FB11332362EDE75C
:1003D00003799B070AD5436A8269D154436A02694B
:1003E0000133B3FBF2F102FB1133436270477047F4
:1003F000017170470379024613F0020007D0536A77
:100400001069916A01385B1A0340DBB2C01A704769
:1004100007289FBF064B4FF4B47202FB0033B3F8BA
:1004200034059ABFB0FA80F040090020704700BF41
:1004300078420120072807D84FF4B472034B02FB1F
:100440000033012283F83625704700BF784201202F
:1004500070B510238D00044612F4004F4FEA42029B
:100460000CBF07260E26013B92B226602C44F3D126
:1004700000EB81128C010351122042F8213070BD33
:1004800070B58E0005460424130B013C4FEA02129E
:1004900003EB430392B203F118032B603544F3D10D
:1004A00000EB01130A018450062043F8214070BD7F
:1004B000704770471822034B02FB003313F8730C8C
:1004C000704700BF70530120054B93F83C208242D7
:1004D00083BF182202FB003353F8700C00207047D2
:1004E00070530120072808D8044B03EB401090F804
:1004F000503413B1012380F836347047784201201C
:1005000007289FBF054B03EB4013B3F83404B0FA40
:1005100080F094BF40090020704700BF784201205E
:10052000054B93F83C30834283BF044B03EB4013ED
:10053000D3F8400400207047705301207842012016
:100540004309012200F01F0004492033824041F892
:100550002320BFF34F8FBFF36F8F704700E100E0A0
:100560004FF49A723B4B2DE9F04F42433A4C85B021
:1005700003EB002054F80280A7184FF0000997F809
:10058000191197F81831994202D105B0BDE8F08FE2
:10059000D8F8C41011F4001CF7D197F81931C1F341
:1005A00004419E1CDDB21B0102EB061B01951344A6
:1005B0004FEA011AA34400EB011E23449BF805B047
:1005C0009B69BBF1000F2BD023F0604343F08043C5
:1005D00002EB06164AF80030264433791B04CEF8A5
:1005E0000430019B367902EB03151C352544CDE917
:1005F00002995FFA8CF39E4216D8029BCEF808301F
:10060000039BCEF80C30012303FA01F1C8F8D01097
:1006100097F81931013303F00F0387F81931AEE76A
:100620000E4D05EA8343D3E703F0FC0A03F003030E
:1006300015F80CB00CF1010C0AF1100ADB00EA44C9
:100640000BFA03FB5AF8083C4BEA03034AF8083C50
:10065000CFE700BF30AC0040F82000200000FC1FB6
:100660004FF49A732DE9F04F43433F4D87B0044652
:10067000EE58D6F8508018F0010F16D118F0080F78
:1006800064D118F4007F6BD04FF4007320463365BB
:100690004FF49A7303FB0455D5F820310133C5F8A4
:1006A000203107B0BDE8F04F5AE700F5800701227E
:1006B00005EB030BAC3732653F02D6F8A4305B067E
:1006C000DCD0D6F8A4100DF1100A4FF0000CC1F3E5
:1006D000052107EB01120B01D859536810F0804E29
:1006E000C3F3034314BF20F06040C0F38A40082BDB
:1006F00028BF0823009393680293D36803935FFA9B
:100700008CF30193DDE9003293420DD8DBF81090B1
:10071000C6F8A810B9F1000FCFD0BEF1000104AAAD
:1007200018BF0121C847C8E7DDE90223BCF1030F68
:1007300098BF13460CF1010C9946019B03F003028C
:10074000D20029FA02F90AF8019BD8E70823336599
:100750004FF49A7303FB04535A6901325A6190E7CC
:1007600007B0BDE8F08F00BFF8200020084A002342
:1007700030B5843A92F8C40018241D46984200DC33
:1007800030BD04FB03F1895801B10D600133F5E779
:1007900070530120EAE700EE100AB8EE400A7047F5
:1007A000BCEEC00A10EE103A98B270470E48F0B591
:1007B00000F5687590F89C730024E6B2B74201D842
:1007C00000200CE02E8996420AD1AE7A9E4207D1D3
:1007D00000EB0410D0E9E8230120C1E90023F0BDBB
:1007E00001341035E9E700BFF82000200F4B00224C
:1007F000F0B403F5687493F89C63D5B2AE4201D8A7
:10080000F0BC70472789CD8AAF420BD1A77A0D7E05
:10081000AF4207D103EB0213D3F8AC33002BEFD078
:10082000F0BC184701321034E7E700BFF820002081
:10083000F0B5114E96F8204496F82174E5B20134D3
:1008400004F01F04A74211D0082B06EB051728BFA0
:10085000082387F8311407F22741C7F8240487F8E2
:10086000303413449A4202D186F82044F0BD12F885
:10087000010B01F8010FF5E7F8200020072810D838
:10088000DFED087A084B80FE670ADFED087A03EB9C
:10089000400380FE270ABDEEC00A10EE102AA3F81E
:1008A0002426704700F8FF45F820002000000000D3
:1008B0000120704701207047B0F5FA6F9FED0A7A6A
:1008C0009FED0A0AA8BF4FF4FA60B0F57A7FB8BF6F
:1008D0004FF47A7007EE900AF8EE677A77EEC77AEF
:1008E00027EE800A704700BF00007A44560E03418D
:1008F00091F91B20CB7E002A0CDD5909064A02EB38
:10090000810203F01F0101238B40D2F834160B4300
:10091000C2F83436704700BFF82000200D4BDFEDE1
:100920000E7A03EA4033000407EE103A00F000406C
:1009300067EE277A17EE903ADFED087AB4EEE77AA1
:10094000F1EE10FAA8BF43F0FF43034300EE103A64
:10095000704700BF00E0FF0F000080770000800FAD
:100960000E2809D8DFE800F0151515151515151511
:10097000150A0C0E10121400402070470C2070470E
:1009800010207047142070471820704720207047AF
:10099000302070472DE9F043456A35B94162BDE822
:1009A000F083CEF800100B60F9E74E68AE462B4698
:1009B00026F0604CC6F38A47C6F3807817EA26070C
:1009C00038BF67465C6894EA060F24F060420CD595
:1009D000002C1EDA920CBA4201D0BA420FD99D42C5
:1009E000DFD10D60DAE71346ECE7944505D104F05A
:1009F0008049C4F38074444507D19445EFD31A6805
:100A00009E46002AEFD11960C9E7B9F1000FF6D070
:100A1000E5E7BA42F3D0E0E780EA0120082341F29B
:100A2000210201B2013B4000002980B2B8BF504012
:100A300013F0FF03F5D1704712B10B0E00F8013B24
:100A40000B0C817003700B0A43707047012380F810
:100A500029300020704708B50346C06B5A6A02442B
:100A60005A629B6B03B19847002008BD036B024696
:100A70001B681B6A5B685B7813F0010008BF82F893
:100A800029007047826341627047704704307047A5
:100A900030B4074CD4F8440604F5C96504EB80145F
:100AA00005EB8010D4F84846A469A44630BC6047E2
:100AB000F8200020064BD3F8442603F5C96003EB69
:100AC000821300EB8210D3F84836DB69184700BF69
:100AD000F820002004307047036B02461B681B6A35
:100AE0005B689B7813F0010008BF82F8290070470B
:100AF000826341627047012380F8293000207047EB
:100B0000A9E77047043070470C4BD3F8C82602445D
:100B1000C3F8C82693F8CC261044C0B283F8CC069C
:100B200093F8CC26120605D593F8CC2682F08002E5
:100B300083F8CC26024B01221A707047F82000205F
:100B400000000020134A10B5134C92F8CC36234411
:100B5000C0E9003492F8CD3692F8CC06834207D92A
:100B600092F8CC2601209A1A0023C1E9002310BD77
:100B700092F8CC06834209D2002B92F8CC2608BF0B
:100B80000120C2F1800218BF0220EEE700221346C6
:100B90001046EAE7F8200020A0060024012210B544
:100BA000044611464EF000FD2046BDE810404EF0D0
:100BB000DDBC2DE9F84305682023D5E904286C68DD
:100BC000C8F81C00117D17681F294AD920398B40AD
:100BD00043F01803FB6098F814102023D8F8006045
:100BE0001F2943D920398B4043F01803F360D8F80C
:100BF000043000205168086018603846196841F0D8
:100C00001001196092F80890AA6949465AF08AFEC4
:100C100098F80880EA69304641465AF083FE2B6A0C
:100C20009A6863686FF30F031343134A12F80910AD
:100C300063607B5812F8082043F001037B50B358DF
:100C400043F00103B350A36843F44043A360236817
:100C500043F001032360236843F400732360BDE87D
:100C6000F8838B4043F01803BB60B4E78B4043F03C
:100C70001803B360BBE700BF5CF406084368426D2D
:100C800010B59A61EFF31182502383F31288416803
:100C9000846C0B6823EA0403046D23430B60D3B216
:100CA00083F3118843691A6822F001021A60026A0C
:100CB0001A60426A5A61826A5A60C26A9A60026B1A
:100CC000DA608368B0F86C201B68DA62002303776F
:100CD00010BD00221B4B4FF0010C10462DE9F041D6
:100CE0001C464FF486761746D4F8301491420CDC3B
:100CF00048B1154B93F8CE26542A02BFB3F8D42638
:100D00000132A3F8D426BDE8F08106FB024595F830
:100D1000FD1001F0FF0E89B19968B3F810800868E2
:100D2000C16821EA0801C1605869016821F0010128
:100D30000160704685F8FD7083F8FEC0013203F54E
:100D40008673D1E778420120F82000202DE9F04198
:100D50002A4C05460E464FEA401804EB401797F818
:100D60005034A3B363F0A8F860B1254B182193F871
:100D7000402701FB02332B4493F8ED6616B10123A3
:100D800087F836341F48444400EB4510A4F8346417
:100D900063F0BAF81C4AD4F84C3492F8445001225B
:100DA000D4F83814D3F8AC309DB18A4003F1C004B4
:100DB000050403F10C034FEA400058BF53F8081C28
:100DC00080B25CBF114343F8081CA342F0D1BDE8D8
:100DD000F081103103F1C0048A40010403F10C03D7
:100DE0004FEA400058BF53F8081C80B25CBF114363
:100DF00043F8081CA342F0D1E9E700BF7842012084
:100E0000F8200020AC4601207053012010B50446A4
:100E100061F07CF981B22046BDE8104096E71823C6
:100E200010B5084C03FB004414ED1F7A54ED1E7AF4
:100E3000E7EE007AB0EE670A61F068F954F8843C96
:100E4000186010BD705301209FED067ADFED067A21
:100E5000E0EE077A08B5B0EE670A61F057F980B2A4
:100E600008BD00BFD007FA3D00007A44F8B54FF046
:100E7000B0430D4E0127D3F88040D3F888201440AA
:100E80000440C3F8884004B9F8BDB4FA84F5C5F14C
:100E90001F0506EB850307FA05F5D3F8440724EA96
:100EA000050403689847EEE7F82000202DE9F84391
:100EB00007690446C3680D464FF000481F400FB94C
:100EC000BDE8F883B7FA87F328FA03F21B3BD24355
:100ED00017402261042BF2D8DFE803F02B262119FA
:100EE0000300AE6A86B1013E0023B6B2AB62D5F80C
:100EF0002490B9F1000FE2D0D9F8003048463146CD
:100F00009847D9F80490F4E7E66AB6B2EFE7686864
:100F10000028D4D0616B036889B29847CFE7A868EE
:100F20000028CCD0A16BF6E7E8680028C7D0E16BB9
:100F3000F1E728690028C2D0216CECE730B591B008
:100F4000C4B220F0FF0518200193103C149B0392BB
:100F50004FF48062029300230A910F93CDE905328A
:100F6000169AB4FBF0F404922146159A2846099289
:100F70004FF48032CDE90733CDE90B23CDE90D33B2
:100F80005AF01EFD01AA214628465AF0CBFC11B0AA
:100F900030BDF8B5A0F668042379DB0725D565795F
:100FA00094F84C3805F001073D46FBB1D4F84834BD
:100FB0001A68D36A5B08536294F8503823B1B4F8C6
:100FC0005A380133A4F85A3885F00101606C59F0A1
:100FD0001FFA012384F84F38002384F84D3884F831
:100FE0004E38A4F8563884F84C38F8BD94F84F6859
:100FF0002046012E04BF94F84D3884F84E38FFF790
:10100000ADF94EB9012387EA030184F84F38606CCB
:10101000BDE8F84059F0FCB90023394684F84F3850
:10102000F5E738B5A0F668040022344D606C03681B
:101030005A62A1F12903302B31D895F8233895F85D
:1010400024180133DBB2012B85F8233809D9B4F811
:10105000563885F823285B08A4F856384B1C85F8C9
:10106000243895F824280023082AA4F8583815D1E4
:1010700085F82438B5F8263801339BB2032BA5F840
:10108000263808D92379DB0705D5E36A94F8560892
:1010900043B3216B98470023A4F8563838BD5B3919
:1010A0006C290CD8B4F8563885F823285B0843F02F
:1010B0008003A4F8563895F824380133CFE794F824
:1010C0005138002BCDD1012185F82338A5F82638D9
:1010D000802384F85118A4F8563885F8241859F05C
:1010E00097F9BEE7E3696269D054E369E2680133C6
:1010F000B3FBF2F102FB1133E361CCE7F8200020EF
:1011000070B505460C26084C013E00D170BD94F91F
:10111000000015F0DBF8031E04DB6178EA18D172D9
:10112000A278EA540434EFE7283F06081FB50DF112
:101130000E02002300921022ADF80E305CF0AEFFDC
:10114000BDF80E0005B05DF804EBFFF7E7BB38B55E
:1011500090F834300446012B05D1026B1268117BE4
:1011600009B1126ABAB994F82920B2B1012B10D191
:101170000B4D0223206B2A4605F1200149F0A6F809
:101180006B78D84303F0010200F0010084F82920B5
:1011900038BD0023F5E70020FAE70120F8E700BF9B
:1011A0000000002410B504462046FFF7D0FF0028B9
:1011B000FAD0012010BDF0B51F4D95B01F4A04466E
:1011C00005F140030120099205F1A002009305F109
:1011D000600394F828700E46019302238DF80C00EA
:1011E0000293174B8DF82000049305F180038DF8CE
:1011F0003400059300238DF848001393CDE90A23AA
:10120000CDE90630CDE90E33CDE91033236B3A1D1D
:1012100018680C925BF014FA3A46314605F1A100C9
:10122000FFF70AFC6946206B49F024F8236B186825
:101230005BF006FA15B0F0BD000000244D0A00086E
:101240006D0A000810B594B004465022064968465D
:1012500062F04AFA6946206B49F00CF8236B186873
:101260005BF0EEF914B010BD543F06082DE9F843C9
:101270001F46036B05468946186890465BF0E0F907
:1012800095F828201F4C131D1F48696A6363FFF7F8
:10129000D3FBD9F800300020D8F80060012F236478
:1012A000A664EE63A06519D1184B84F84C70E06514
:1012B000C4E91430164B95F82920A3F11401286BCA
:1012C000002A08BF194648F0D5FFAB6B1BB92B6B42
:1012D00018685BF0B5F9E86BBDE8F883022FFBD125
:1012E0002065D9F8043084F84C006365D8F80430E0
:1012F0001E44E3650123EE6384F86030034B6366AC
:10130000D8E700BF00000020C1000024570A0008F1
:101310001800002013B5CDE90032049B6A464162F3
:1013200001A983630123FFF7A1FF02B010BD10B52F
:1013300002798CB0012A8DF8071016D10DF1070340
:10134000046802A98DF814200293002320468DF82A
:1013500028200B93CDE90332CDE90633CDE90833DC
:1013600048F088FF20685BF06BF90CB010BD164B9D
:1013700030B593F828388DB00479012B14BFC2F32F
:1013800007430023012C1DD152BA8DF8053001AB63
:101390000568ADF8062004220293002328468DF844
:1013A000041002A98DF814408DF828400B93CDE964
:1013B0000332CDE90633CDE9083348F05BFF2868F6
:1013C0005BF03EF90DB030BDF82000202DE9F84368
:1013D000414C0546076B894694F8293890463F4EA4
:1013E000386886F8E0305BF02BF994F82A38B5F8C5
:1013F00006E0002B58D0D4F82C383949B3FBFEF264
:101400000EFB12331A0A86F8023186F80121D9F848
:1014100000300A46DFF8DCC0CCF81C31D8F80030C8
:10142000CCF824310023CCF82C319368002B4BD11D
:101430002C4B176053600122D4F82C0884F82A281A
:10144000D8F800200244B2FBFEF00EFB1020C4F8D6
:101450002C2800283CD1D4F83008B0FBFEF0CCF8A2
:1014600044014FEA104C40BA86F841C1A6F8420147
:10147000986858BB1C4E1F605E6084F82A08C4F848
:10148000302895F8293003B91431D8F8003038469F
:10149000EB6348F0EFFEAB6B1BB92B6B18685BF08E
:1014A000CFF8E86BBDE8F8836B6A1049C4F82C38B4
:1014B000C4F83038B3FBFEF20EFB12331A0A86F87A
:1014C000223186F82121A2E71432AEE71433CFE7A8
:1014D000074BCCF82C31D4E7F82000200000002482
:1014E0007C0000201C01002048010020CC000020CE
:1014F000010B00080000002038B51C4613B1BDE800
:10150000384063E7836B20469847204638BD13B5C3
:10151000CDE90032049B6A46416201A98363FFF76B
:1015200055FF02B010BD10B590F834300446012BC1
:101530000FD1006B03681A7B0AB11B6A5BB95BF0C1
:1015400083F800F00103C04300F0010084F8293063
:1015500010BD0020F5E70020FAE738B50446074D36
:101560002046FFF7E0FF10B10023E36205E0D5F865
:101570003438E26A9B1A002BF2DB38BDF8200020D9
:1015800010B5FF2104463030FFF7D1FE114B204645
:10159000D3F834380233E362FFF7DFFF94F83430D6
:1015A000012B15D10022A021206B5CF03DFD94F8A9
:1015B0003430012B0CD194F82020B021206B920004
:1015C00042F01002BDE8104002F0FC025CF02CBDBD
:1015D00010BD00BFF820002070B504460D46FFF78F
:1015E000BCFF062104F130063046FFF7A0FE0123C0
:1015F000E288D82184F829303046B5FBF2F2FFF7B3
:10160000B6FE034BD3F834380F33E36270BD00BF2E
:10161000F820002038B504460025A388AB4200D846
:1016200038BD218A2046E388594369430135FFF7D5
:10163000D3FFF2E770B50E4D044695F82A38B3B1E2
:10164000C388D5F83068B6FBF3F60A4BC3F844619B
:10165000FFF783FF3246102104F13000FFF787FEC9
:10166000D5F834380233E362002385F82A3870BD98
:10167000F8200020000000202DE9F04F4A4F99B0DB
:10168000C6881D4697F82AB80446DFF824A1894683
:101690009046B1FBF6F6FFF7CDFFDAF84431BBF127
:1016A000000F01D1B3421CD02046FFF756FF18B9F6
:1016B000002019B0BDE8F08F4FF0FF3304F1300087
:1016C00032461321CAF84431FFF751FED7F83438B7
:1016D00020460233E362FFF740FF0028E8D0CAF853
:1016E0004461E68894F83420B9FBF6F106FB1191C9
:1016F000761AAE4234BFB5B2ADB2012A39D14FEA43
:10170000112C8DF80E1002A997F829380320266BAA
:10171000049101A98DF80830C0238DF80C008DF8D4
:10172000093000238DF80DC08DF80A308DF80F3088
:101730008DF81C208DF830308DF844208DF858201D
:101740001793CDE9051019493046089103A9CDE951
:10175000091304210B9104A9CDE90D33CDE90F85BF
:10176000CDE91233CDE9143348F084FD30685AF0E6
:1017700067FFD7F8343820460233E362FFF7EDFE07
:10178000002895D094F83430012B0AD1206B5AF000
:101790005BFFC0F301100238012802D82046FFF792
:1017A000EFFE284685E700BFF8200020D90A000890
:1017B000000000200020704770478069C0F340009F
:1017C000704707B50268034622F002020260026811
:1017D00022F004020260026822F040020260026805
:1017E00022F020020260026822F010020260026809
:1017F00022F0800202608269900603D5DA6942F025
:101800002002DA611846FFF7D8FF08B100229A6279
:101810009A69D20701D401229A61002058601A689F
:1018200022F001021A600190019A3F2A11DD1A6824
:1018300042F001021A600123084A0B7000234B702A
:10184000B2F8383801339BB2A2F8383803B05DF8EB
:1018500004FB00BF019A01320192E5E7F820002065
:101860001E4B2C22014602FB0032D2F83C08406895
:1018700010B4046824062ED58469E40506D5C4692D
:1018800044F48074C461012482F854488269940548
:1018900009D5C269012442F40072C2612C2202FB04
:1018A000013282F854488269520509D5C26901247F
:1018B00042F48062C2612C2202FB013282F8544859
:1018C0002C2251430B4493F8543823B1044B5DF858
:1018D000044B194475E75DF8044B7047F82000206D
:1018E0004C2900208069C0F3001070472C216D4AFC
:1018F000414338B553180446D3F83C385B68186840
:10190000C0060ED51846FFF7EDFF50B1D869114457
:1019100040F0100001F65401D8611846BDE8384087
:101920004FE71968890729D51846FFF746FF28B3FE
:101930002C2101FB042191F8590880B191F8580835
:1019400068B1D1F85C08451CC1F85C580078C0B299
:10195000986291F858080138C0B281F858082C21D3
:1019600001FB042292F8581819B192F85928002A5C
:101970007ED11A6822F002021A6079E019684D07D8
:1019800024D59969480721D52C2101FB042191F820
:101990005A0880B191F8580868B1D1F86058681CAD
:1019A000C1F86008586AC0B2287091F85808013828
:1019B000C0B281F858082C2101FB042292F8582863
:1019C000002A55D11A6822F00402D5E719684906A1
:1019D00026D599694D0623D52C2101FB042292F8C6
:1019E0005A18002944D092F8560892F858185A68A4
:1019F00022F07F7222F45F3222F47F7222F003021F
:101A0000024342EA014242F0024242F410525A605A
:101A10001A6822F002021A601A6842F00402ABE768
:101A20001968880625D59969890622D5D96941F0B2
:101A30002001D961196821F002011960196821F0AB
:101A400004011960196821F040011960196821F03A
:101A500020011960196821F010011960196821F03E
:101A6000800119602C2303FB0422002382F85538DF
:101A700038BD1A6822F002021A601A6822F00402C5
:101A80001A601A6822F040021A601A6822F02002D6
:101A90001A601A6822F010021A601A6822F0800296
:101AA0006AE700BFF82000200020D9E600201DE7EB
:101AB0000120D5E6012019E70220D1E6022015E732
:101AC0000320CDE6032011E72C2208B55043054B37
:101AD00019180B4601F65401D3F84008FFF771FEC0
:101AE000002008BDF8200020BFF34F8F074A0844AC
:101AF0000029A0EB010304DCBFF34F8FBFF36F8F0E
:101B000070472039C2F86832F2E700BF00ED00E00C
:101B1000034B5A5C835823F001038350704700BF86
:101B20005CF4060810B504460068217AFFF7F0FF60
:101B30000A4B5B5C03441A68D207FCD4227D202345
:101B40001F2A05D9203A934043F01803C36010BD03
:101B5000934043F018038360F9E700BF5CF4060884
:101B6000D3B20F2B30B503D82B230E4C013B01D140
:101B7000002014E02578854212D165788D420FD17E
:101B8000094B02EB420103F5CC7000EB8100A17818
:101B90000C2404FB0233C3F8A01183F8981130BD64
:101BA0000334E3E7A43F060800000020D3B20F2B64
:101BB00030B51FD8104B00241D68A84216D11D79DE
:101BC0008D4213D10D4B02EB420103F5CC7000EBBB
:101BD00081000B4901EBC4010C2491F8011104FBB5
:101BE0000233C3F8A01183F8981130BD01340833D3
:101BF0001A2CE1D10020F8E724400608000000205C
:101C0000283F0608034670B4B0B10C49002204799D
:101C100001F6EC0502EB4200465DA64206D1014406
:101C200091F9EE285979186870BCBFE70132152A7E
:101C3000F0D14FF0FF32F5E770BC7047F82000207C
:101C4000C3B2182220F0FF00103BB3FBF2F3034AAB
:101C5000D35C0344586880B2704700BF5CF4060848
:101C60000138064B2C2202FB0033D3F85802044BF8
:101C7000984214BFA120A02058F094BA0000002080
:101C800000000240F8B501381E46104C2C231546C2
:101C90000F4603FB00440E4BD4F85802984214BF81
:101CA000A120A02058F07EFAB4F97002C5F3011209
:101CB000A909C4F86872C4F874624DF075FCB4F9EF
:101CC0007002BDE8F8404DF051BC00BF000000209C
:101CD00000000240B1F5807F10B527D01AD8102936
:101CE00026D012D8012925D0042914BF08230123A6
:101CF000134A1830134493F8CC2193F8D5410823A4
:101D00008158A3400B43835010BD402914BF0823C2
:101D10000323EDE7B1F5805F0ED0B1F5803F0DD024
:101D2000B1F5806F14BF08230523E1E70423DFE743
:101D30000223DDE70023DBE70623D9E70723D7E704
:101D4000283F06080120FFF791B80220FFF78EB860
:101D50000420FFF78BB80820FFF788B81020FFF7A2
:101D600085B84FF47870FFF781B84FF47C40FFF7E7
:101D70007DB830B1036882881B691A4214BF012004
:101D80000020704730B181F00101838802680901A9
:101D90008B409361704710B1036882889A617047E5
:101DA00018B1838802681B0493617047F0B50C4634
:101DB00087B016460546E0B107680F4A07F127438A
:101DC00003F57E039B0A02EB4303B3F8DE0158F0F0
:101DD000E9F9AB8801A93846019304F01303029393
:101DE000C4F34113C4F381040393CDE904464EF0D8
:101DF0009BF907B0F0BD00BF283F06080022D5E7D9
:101E000070B5094C0025094E96F83C30AB4201DC18
:101E1000012070BD237F1BB1217DE068FFF7EEFF3D
:101E200001352034F0E700BFAC460120705301209B
:101E30000268838851690B4218BF1B049361704785
:101E4000014B53F82000704750400058014B43F8B5
:101E5000201070475040005807B51A4AFF211368F8
:101E600043F480731360184BD3F8F42042F48032AB
:101E7000C3F8F420D3F8F42002F480320192019ADE
:101E8000124A5162CA21516253215162D3F8D030B3
:101E9000DB010DD40122D0B201320021FFF7D6FFC1
:101EA000072AF8D10A49002003B05DF804EBCDE71A
:101EB0000020FFF7C5FF064B9842EBD103B05DF859
:101EC00004FB00BF0048025800440258004000587C
:101ED000316665422DE9F843D0F85C5104468368C9
:101EE00000F5967800F1E00728461E685CF0F8FAE5
:101EF000D4F81C110023B1F5807F84F8203141D043
:101F000034D8102940D02CD8012903D0042914BF7B
:101F1000082301231F4A06F11800DFF87CC0D15CBA
:101F20001CF803C00823425803FA0CF322EA030307
:101F3000424643503046D4F81C91494659F02CFB98
:101F400049463046FFF7C6FE402339462846C4F8C6
:101F5000E8305CF0CEFA2B6843F010032B60BDE84C
:101F6000F883402914BF08230323D3E7B1F5805F2A
:101F70000CD0B1F5803F0BD0B1F5806F14BF0823B2
:101F80000523C7E70423C5E70223C3E70623C1E708
:101F90000723BFE7F4400608FD4006080379024620
:101FA00013F0020004D092F87200003818BF01202C
:101FB00070472DE9F04F046E87B00546FFF7EEFF3E
:101FC0002368DFF8DCB223F4F87305905C452360E6
:101FD000A36823F00103A360236823F001032360B7
:101FE00056D110204EF08AFF10204EF091FF23684A
:101FF000AF68DA0795F8059095F8048000F11E8126
:102000009B4E4FEA0921206808F0010AA31B01F446
:102010008061059A5E425E414FEA89235C4503F484
:1020200080534FEA860643EA0103924901EA000120
:1020300043EA0103C2F1000143EA8A0301F0080107
:1020400043EA010323604FEA0933616803F4005354
:1020500021F4405143EA01036360A36823F4407311
:10206000A3605CD184484EF05DFF002873D0002F40
:1020700071D0824B002203EB8603D3F8F031B0FB22
:10208000F3F303EB5703B3FBF7F39BB2E36063E0B7
:102090007B4B9C4208D14FF400304EF01CFF4FF4B4
:1020A00000304EF021FFA2E7764B9C4206D14FF460
:1020B00080204EF010FF4FF48020F2E7724B9C42DC
:1020C00006D14FF400204EF006FF4FF40020E8E761
:1020D0006E4B9C4206D14FF480104EF0FCFE4FF444
:1020E0008010DEE76A4B9C4204D120204EF006FFB0
:1020F00020207AE7674B9C4206D14FF080404EF09B
:10210000EAFE4FF08040CCE7634B9C427FF46FAF18
:102110004FF000404EF0DFFE4FF00040C1E7584B5B
:102120009C4201D15D489EE7564B9C42FAD003F594
:1021300080639C42F6D003F580639C42F2D003F5A5
:1021400044439C428ED0A3F51C439C42EAD003F545
:1021500080639C42E6D00122E36A23F00F033343FD
:10216000E362002A6AD119F0010F2B6E0DD0BAF18B
:10217000000F03D05A6842F480325A6018F0020F00
:1021800003D05A6842F400325A6095F874201AB1AC
:102190005A6842F400425A60A36819F0080F43F4E9
:1021A0008053A360236823F000532360636823F403
:1021B00090436360A36823F02A03A36003D0A3685D
:1021C00043F00803A360236843F001032360BAF1DE
:1021D000000F1CD0EE6B002E33D04FF48073002222
:1021E00030460293EB6801936B69009304F124037A
:1021F000696CFEF7A3FE3368304643F00103336099
:10220000A36843F04003A360FFF71AFD6865059BD0
:10221000A3B12E6C36B30023402230460093CDE9A3
:10222000013304F12803A96CFEF788FE336843F0FC
:1022300010033360236843F04003236007B0BDE818
:10224000F08F236843F480732360A36843F0010395
:10225000A360236843F020032360236843F0100346
:102260002360D4E7236843F080032360E2E700BFE4
:10227000000C0058F369FFEF08030007283F060829
:102280000044004000480040004C00400050004026
:102290000014014000780040007C00400800000766
:1022A00000100140F8B50146046EEFF3118550238C
:1022B00083F31288FFF772FEEDB228B9012381F88B
:1022C000643085F31188F8BD0A6C106800F00100D5
:1022D0000028F6D14E6A8B6A9E42EFD08E6A4F6A12
:1022E0008B6A9F421BD94B6A886A1B1A486A9BB249
:1022F0008862002081F864004020896920623144AE
:10230000D16051686FF30F010B435360136843F0C2
:1023100001031360A36843F08003A360D1E78F6AD1
:102320000B69DB1B9BB2E3E70346C0691A7D1968A2
:1023300020231F2A03D9203A9340CB60B2E7934071
:102340008B60FBE7BFF34F8F0549064BCA6802F469
:10235000E0621343CB60BFF34F8F00BFFDE700BFC8
:1023600000ED00E00400FA0508B51C4A0023C2F89D
:102370008430BFF34F8F536923F480335361BFF32D
:102380004F8FD2F8803043F6E074C3F3C900C3F333
:102390004E335B0103EA0406014646EA81750139C2
:1023A000C2F87452F9D2203B13F1200FF2D1BFF3DF
:1023B0004F8FBFF36F8FBFF34F8FBFF36F8F536993
:1023C00023F4003353610023C2F85032BFF34F8F20
:1023D000BFF36F8F72B6FFF7B5FF00BF00ED00E0EF
:1023E000800AA0F5801052289DBF034B1B1893F85C
:1023F0002002FE20704700BF283F06082DE9F84361
:10240000184B93F818255AB917495026174F4FF013
:102410002C0801F18405914695F840309A4201DB81
:10242000BDE8F8830B7CB3B14C682046FFF7D8FFBA
:10243000EFF3118386F31288D4F824C008FB0070F0
:10244000DBB20CF1010CC0F854C9606940F0010026
:10245000606183F3118851F8183B0132C3F8009092
:10246000DAE700BF00000020EC520120F820002035
:10247000094A002302F51D7110B551F8334084421A
:1024800004D102EBC302B2F8780210BD01330E2B67
:10249000F3D10020F9E700BF283F060808B5FFF791
:1024A0009FFF0D2897BF4C23002010FB03F0024B29
:1024B00098BFC01808BD00BFB82C002002460846CF
:1024C00070B5FFF78DFF0D2824D8EFF3118150234D
:1024D00083F312881368F3B902F1240302F11004A4
:1024E00002F1200654F8045F0DB11D602B1DA642B9
:1024F000F8D100241C60CBB283F31188094B516AD8
:102500004C2202FB0033D3F8C02BD36831B143F027
:102510000103D36070BD53620433DFE723F001038E
:10252000F7E700BFF8200020F8B50D460168044623
:102530000846FFF755FF0D282ED86479174B4FEA50
:10254000940CE6465DB94C26022706FB003607FAD6
:102550000CF7D6F8C04BE66826EA0706E6600B24BF
:1025600004FB00E403EB8406C6F83059C6F84029A2
:1025700055B14C2202FB0033D3F8C02B0223D468A0
:1025800003FA0CF32343D3602C2310FB03F0044B1A
:102590001844BDE8F84091E7F8BD00BFF8200020DE
:1025A000242A00200246006810B5FFF719FF0D2805
:1025B0000DD8094B4C2404FB0033507902228008CB
:1025C000D3F8C03B824019B1D9680A43DA6010BD24
:1025D000D96821EA0202F9E7F820002002460068E3
:1025E00008B5FFF7FDFE0D280BD84C21054B52799D
:1025F00001FB00339208D3F8C01B02239340DB4356
:102600000B6108BDF820002001490248FEF74EBCCE
:10261000242A002000000140FFF7F6BF02494FF0D6
:102620008040FEF743BC00BF502A00200149024809
:10263000FEF73CBC7C2A002000040040014902480F
:10264000FEF734BCA82A00200008004001490248D7
:10265000FEF72CBCD42A0020000C00402DE9F041EC
:10266000174E184F3569F3681D404FF000420DB901
:10267000BDE8F081B5FA85F3012D22FA03F36FEA84
:102680000303336103EA050318D1D7F8304A94B144
:10269000013C0023A4B2C7F8303AD7F82C8A0025B1
:1026A000B8F1000FE1D0D8F80030404621469847F5
:1026B000D8F80480F4E7F46AA4B2EEE71D46D6E742
:1026C00000100040F820002001490248FEF7EEBB50
:1026D000582B00200004014010B5064C064804F5B4
:1026E0002661FEF7E3FB04F6B8210448BDE810407C
:1026F000FEF7DCBBF820002000040140001C004075
:1027000001490248FEF7D2BB842B0020001800408C
:1027100001490248FEF7CABBDC2B00200020004024
:1027200001490248FEF7C2BB082C002000400140CE
:1027300001490248FEF7BABB342C00200044014096
:1027400001490248FEF7B2BB602C0020004801405E
:1027500038B50D46114690F83D200446022AD0B205
:102760000DD094F83D20012A02D1022284F83D20A8
:10277000082D21D004D86DB1042D15D0002038BD0E
:102780000C2DFBD1206B104AC263104AC264226830
:10279000403206E0606A0C4AC2630C4AC264226896
:1027A00034324CF05FFFE9E7A06A074AC263074A88
:1027B000C26422683832F4E7E06A034AC263034A1B
:1027C000C26422683C32ECE723C90408E3C8040869
:1027D00008B51A4B98420FD003F5806398420BD08E
:1027E00003F57053984207D003F58063984203D0F5
:1027F00003F58063984219D14EF060F81049114BEF
:10280000CA69C2F30222134493F8E43203F01F03AF
:10281000D840CB69C3F30223094A1269C2F3C0321C
:1028200043EAC203084AD35C584308BD4EF062F83D
:10283000034BDB69C3F30213EEE700BF0000014066
:1028400000440258283F060843F4060870B505689E
:1028500016462846FFF722FE0446002857D00139C5
:1028600089B2C1602846FFF7B3FFB0FBF6F001382C
:1028700060602068A84204D1211DBDE870404EF080
:10288000D5B90023204625602361A36063614EF023
:102890001DFA1F4B9D4212D0B5F1804F0FD0A3F50A
:1028A0007C439D420BD003F580639D4207D003F526
:1028B00080639D4203D003F578439D4227D194F86D
:1028C0003C30012B23D00222124B84F83D20A96812
:1028D0000B400F49AB608D424FF0010384F83D304F
:1028E00084F83D206B68AA6803D001F580618D42B1
:1028F00001D123F4700323F0700322F080026B6097
:102900000123AA6084F83D30002384F83C3070BD78
:10291000000001408800CEFF38B505460068FFF78B
:102920005FFD0D28044613D82846FFF78FFF4C2380
:102930000B4814FB03F4204459F0E2F828685BF0DC
:10294000B0FD0446FEF72AF91B2C02D02E2C05D030
:1029500038BD1920BDE83840FEF720B92C20F9E732
:10296000B82C002038B50C460546FFF731FFA042D1
:1029700009D32846FFF72CFF00EB5400B0FBF4F01E
:10298000013880B238BD0020FCE737B590F85F38D9
:102990000446032B2FD100231F4D8DF807309DF8DF
:1029A000073094F860289A4201D803B030BD9DF8F2
:1029B000073005EBC30313F8C03C8BB181F0010372
:1029C00083B19DF8073005EBC30353F8C40CFFF740
:1029D000E2F99DF807300133DBB28DF80730DEE70E
:1029E0000B46EDE79DF8073005EBC30353F8C40C25
:1029F000FFF7D6F9EDE7D0E910039B7903F0010367
:102A0000994204D003B0BDE83040FFF7C4B903B029
:102A1000BDE83040FFF7C4B9F03100202DE9F047A0
:102A2000BCB0BFF35F8FA54B5A6A22F480325A6262
:102A300000221146C3F89420C3F898200132C3F84D
:102A40009C10112AC3F8A010F6D10522C3F89420D7
:102A50005A6A42F480325A62BFF34F8FBFF36F8FCE
:102A60009748984A9849121A60F03EFE9748984A4B
:102A70009849121A60F038FE0320FFF7E1F90428A4
:102A800023D026D8012808D0022822D104210320EF
:102A9000FFF7DCF972B6FFF755FC02210320FFF7C0
:102AA000D5F98D4BD3F8F4200A43C3F8F420D3F8BA
:102AB000F4300B400D930D9B884BD3F8002882F324
:102AC0000888D3F804389847FEE700210320FFF771
:102AD000BDF97A4A0120804CD2F88830804D43F409
:102AE0007003804EC2F88830002320602361216883
:102AF00041F080012160216801432160216841F497
:102B000080312160216841F480512160A361E3613B
:102B10002362A362E36223636363A363E3632364C7
:102B20006364216821F48021216023666E4BC3F821
:102B300008014FF000639360D1686C4B21F4E061B1
:102B40000904090C0B43D3604DF016FEA369A2697A
:102B5000C3F303232B4493F8E43203F01F03D8405C
:102B6000C6F844050F204CF051FD614BDA68570759
:102B70007ED4DB68002303935E4BDA6A22F0010205
:102B8000DA62DB6A03F001030393594B9A6942F45A
:102B900040429A619A6902F440420392039A9A6908
:102BA0009204FCD54C2200210DA8534C60F0FAFD94
:102BB000524B42F203021968A4F11403B2EB114F15
:102BC0004C4A08BF1C460023E0680593484B002888
:102BD00062D1996941F4404199619B6903F4404392
:102BE0000593D36A43F00103D362D36A03F0010370
:102BF0000593059B3E4A93699B04FCD5364B4FF0E9
:102C000001083F480027D3F8E02008A942F08002DD
:102C1000C3F8E020D3F8E03003F080030493049B72
:102C20004FF4403383610323CDE90838CDE90A73BB
:102C30004DF07AFA4FF480330DA8CDF834800E931E
:102C400002231E97CDE91633A3781893A38819930E
:102C5000A3791A93E3791B93237A1C9323691D9319
:102C60004DF044FB03283FF415AF00284CD0FEE79D
:102C7000DA68244922F0070242F00202DA6051F8D1
:102C8000840C5A6894043FF575AF51F8842C121ADD
:102C9000B2F57A7FF5D96DE7D16A21F00101D162F1
:102CA000D26A02F0010205929A6922F4404202437C
:102CB0009A619B6903F440439AE700BF00ED00E08E
:102CC0000000000018220000E48E07087442012072
:102CD000784201201AE10708004402580090F01FD2
:102CE000283F060800000020008000510003FA057C
:102CF0000048025800040058300500200010005C15
:102D0000001C0258F03100207A4A136813F00E0FAD
:102D100000F09B80784B9A6902F070023F2A40F2E3
:102D2000A180DA6902F070023F2A05D8DA6922F040
:102D3000700242F04002DA616F4BDA6902F4E0623D
:102D4000B2F5806F05D2DA6922F4E06242F4806263
:102D5000DA611A6A02F070023F2A05D81A6A22F074
:102D6000700242F040021A62634B9A69170705D459
:102D70009A6922F00F0242F008029A619A6922F4DD
:102D800070629A611A6894016BD51A6941F28830B1
:102D90005A4F22F0070242F003021A6157F8841CCE
:102DA000554A136903F03803182B62D1936903F075
:102DB0000F03082B05D9936923F00F0343F0080391
:102DC00093614C4A136803F00F03022B57D84A4B08
:102DD0009A6902F07002402A5DD8DA6902F0700246
:102DE000402A05D9DA6922F0700242F04002DA6125
:102DF000414BDA6902F4E062B2F5806F05D9DA6915
:102E000022F4E06242F48062DA611A6A02F070022F
:102E1000402A05D91A6A22F0700242F040021A6272
:102E2000354C4DF0A9FCA369A269C3F303231D44EB
:102E300095F8E43203F01F03D840C6F84405D6F8ED
:102E400048054CF0E3FB68B30BE0136823F00F0375
:102E500043F002031360136803F00F03022B3FF4E7
:102E600059AFFEE79A6922F0700242F040029A617F
:102E700057E757F8843C5B1A834292D9F1E713680D
:102E800023F00F0343F002031360136803F00F03F2
:102E9000022BE6D19BE79A6922F0700242F04002D1
:102EA0009A619AE71023149016900DA80D934DF097
:102EB0001DFA00B1FEE72368114A43F08003236046
:102EC000D4F8F43043F00203C4F8F430D4F8F4300A
:102ED00003F002030293029B136A43F0010313629F
:102EE00057F8842C074B57F8841C8A420CD1013BBD
:102EF000F9D1CFE50020005200440258F031002003
:102F00000004005800E20400A54C0A204CF024FB09
:102F100023689804FCD54FF480230DA80326A04D08
:102F20000D934FF4401302272E9358F001FED4F86E
:102F3000EC300DA843F00203C4F8EC30D4F8EC30C8
:102F400003F002030193019BD4F8943043F0020391
:102F5000C4F89430D4F8943023F00203C4F89430C9
:102F60000024904B1A6841F20303B3EB124F8E4AD0
:102F700034BF4FF0405300231A438C4B5A601A68F9
:102F800022F47C5242F400521A601A6842F0600245
:102F90001A600D96CDE92A4458F0CAFD4FF4E0437B
:102FA0000DA838940D93CDE9244458F0C1FD1823A1
:102FB0000DA82D940D93329458F0BAFD4FF40023D0
:102FC0000DA80D934FF40033359358F0B1FDD5F8AB
:102FD000E03008A9764843F00103C5F8E030D5F8A1
:102FE000E0300C9403F001030793079B4FF48073C8
:102FF000CDE90A46CDE908374DF096F82B6908A9C6
:103000006C4823F0FE7343F088732B61D5F8E030F1
:1030100043F00403C5F8E030D5F8E0300C9403F039
:1030200004030693069B4FF40073CDE90A46CDE9ED
:1030300008374DF079F82B695F4E23F07E4343F05B
:10304000FC432B614DF098FB5C4AC6F844052146D1
:103050005B48121A60F0A6FB5A485B4A5B49121A99
:1030600060F042FBBFF35F8F594D06F24C560127CB
:103070006B6A23F480336B62C5F89440D6F80490F1
:10308000307AB9F1000F68D100B9FEE73268737A7F
:10309000103616F8068C1B0616F805EC16F804CC4C
:1030A00043EA087316F8031CC5F89840013443EA54
:1030B0004003C5F89C20032C43EA8E4343EA4C436B
:1030C00043EA014343F00103C5F8A030D6D10523FC
:1030D000C5F894306B6A43F480336B62BFF34F8F53
:1030E000BFF36F8FBFF34F8FBFF36F8F0022C5F811
:1030F0005022BFF34F8FBFF36F8F6B6943F40033E0
:103100006B61BFF34F8FBFF36F8FC5F88420BFF3A0
:103110004F8FD5F8803043F6E0742D49C3F3C900D2
:10312000C3F34E335B0103EA0406024646EA8275A6
:10313000013AC1F86052F9D2203B13F1200FF2D1CD
:10314000BFF34F8F4B6943F480334B61BFF34F8F15
:10315000BFF36F8F3CB0BDE8F0873268002896D18E
:1031600022F01F0AA9EB0A08B8F1200F38BF4FF070
:103170002008404660F0F6FA431E07FA03F2904535
:1031800008BF1846431C07FA03F35A4202EA0A0230
:103190009918894501D8C0B279E701305B00F4E79E
:1031A000004402580010005C7FBB220000840040F5
:1031B000000002580008025800000020E01D002412
:1031C000A006002400000024A00600241EE1070839
:1031D00000ED00E0EFF31182102383F312880C4915
:1031E000D2B2D1F834380133C1F834384FF0E0218D
:1031F000084B886943F8800C002043F87C0C09696F
:1032000082F3118853F8842C013243F8842C7047E0
:10321000F8200020F031002030B5EFF311811023A9
:1032200083F312884FF0E0229469136913F4803F0E
:103230000D4B03D0012043F87C0C94690B4AC9B2B2
:10324000D2F8345853F87C2C81F311884FF47A70FB
:1032500053F8781C2A4400FB01F31B1BB3FBF1F36A
:1032600000FB023030BD00BFF0310020F82000200C
:103270002DE9F0479046421C05468A461F4676D007
:10328000032874DCDFF8EC902C2606FB0096D6F8B9
:103290004048002C6BD096F8553803F0FF02002B05
:1032A00065D1012386F8553886F85428FFF7B4FF16
:1032B000C6F86408FFF7B0FF6168064621F07F7129
:1032C00021F45F3121F47F7121F0030141EA4A01C9
:1032D00042F20F7A41F0024141F408316160204628
:1032E000FEF76BFAD0B1C4F8288042F20F7820467E
:1032F000FEF763FA28B3A76242F20F77A3699B0631
:103300002AD5E3690022012043F02003E3612C2346
:1033100003FB059383F85528BDE8F0872046FEF7A8
:10332000E1FA20B1E36943F01003E36104E0FFF741
:1033300073FF801B5045D2DD2846BDE8F047FEF7FD
:10334000C3BB2046FEF7CEFA0028EBD1FFF764FF9F
:10335000801B4045CBDDEFE72046FEF7C3FA00288F
:10336000E0D1FFF759FF801BB842C7DDE4E700203A
:10337000D2E700BFF8200020134B5B68C3F30803BB
:1033800030B4F3B9EFF31183DBB910494FF0E02506
:103390000F4BD1F83428AC69D1F834088242F8D107
:1033A00053F8800C8442F4D853F8781C4FF47A70A8
:1033B00000FB01F31B1BB3FBF1F330BC00FB02303D
:1033C000704730BC28E700BF00ED00E0F820002087
:1033D000F0310020C04B93F844302DE9F04F87B016
:1033E000002B71D0BD4B0024D3F834380593BC4B6F
:1033F0001E461F460393D7F8303406F586769C4266
:10340000049365DBB74F0024B74BA7F23476DFF89F
:10341000E882009396F83C30A34247DD009B9B690D
:1034200093F8FE20002A3AD1D3E93DA9009BD3F8B6
:1034300004B0FFF7A1FFDFF8A4C209F10042AB4BD3
:103440009CF8CE56393A13F8741C0190542D4FF065
:1034500001000AEB42020AEB4103029500FA0BF06D
:1034600001D1ACF8D6169A4205D9B3F800C01CEACF
:10347000000F35D10233A3EB0A0E9A424FEA6E0ECB
:1034800043D819B10139994B03F8741C029B542B92
:1034900005D1924AB2F8D2360133A2F8D236009B57
:1034A000013414372033082C0093B3D18A4B012206
:1034B00083F8382800231A46039901F58671039191
:1034C0000499994200F31A81012007B0BDE8F08FFA
:1034D0004FF4907156F8180C0134FCF7E1FE8AE7BE
:1034E000B3F802C01CEA000F01D10433C3E7B3F8FC
:1034F00004C01CEA000F01D10633BCE7B3F806C0D4
:1035000008331CEA000FAED1B5E7A9EB0E094FF066
:10351000000C1A46B9F1450F6146E34628BF4FF04B
:10352000450903EB4909994500F28F80BCF1110F61
:10353000ACD9DCF11502A9D4D8F87C356B489E458E
:10354000019D50F8703C38BFC8F87CE5A5EB030E30
:10355000BEF1000F16DB03F5F42303F590739D42D3
:1035600084BF2B46053340F8703CD8F87C35052BDA
:103570008ABF053B0023DBB200F8743C4FF0FF33F9
:10358000C8F87C353AB101FA02F2CCF1140C0121F1
:1035900001FA0CF11143564AC1F3C43302EB830321
:1035A000D3F8F40201F01F0302EB8303D3F8F432E3
:1035B00043EA0033C1F34410C1F3842102EB8000DD
:1035C00002EB8102D0F8F402D2F8F42243EA0013AD
:1035D00043EA022383EA132282EA121202F00F0264
:1035E0000F2A6ED1B3F5803F6BD21B09029A542A81
:1035F00001BF3A49B1F8D0260132A1F8D026D6F859
:103600003C270132C6F83C274FF6FF7293425DD04B
:10361000B3F5606F58D1314A182092F8401700FB7B
:103620000122224492F8ED260D2A4DD18022BA774C
:103630004FF6FF715C20059A591A2E4B18BF0121D5
:1036400000FB04300CF07CFF29E7B3F800A00AEA85
:10365000000ADA451BD003F1020AD1452FD9AAEBA3
:10366000020203233AF802BC521000EA0B0B0132AB
:1036700092FBF3F2012A4FF00103B8BF01229140FF
:103680009444013A03FA02F21143524617E0B3F8A8
:1036900002A00AEA000AD34502D003F1040ADCE7DB
:1036A000B3F804A00AEA000AD34502D003F1060ADF
:1036B000D3E703F1080ADB8803409B45CDD153468D
:1036C00031E74FF6FF7391E7BB81B1E7D6F83827B2
:1036D0000132C6F83827ABE770530120F8200020EC
:1036E00078420120A45A0120AC460120F03100208C
:1036F000283F0608AC5B012000000020039901333D
:1037000001F80E2CD8E6F8B5204B93F8412793F832
:1037100040379A421AD11E4C00251E4E2746D7F834
:103720003034AB4217DCFFF727FED6F81C4B1A4BA0
:103730000022944203F108030CDD53F8080C013217
:1037400033F8041CC5682943C160F2E75AF0D0F889
:103750000028E0D1F8BDE021D4F8AC00FEF7C4F9B0
:1037600096F8443043B1237F012B05D10023204636
:1037700084F8FC30FDF782FA6269013504F586743D
:10378000136843F001031360C9E700BFF82000206D
:103790007842012070530120905E01202DE9F04F06
:1037A000814C85B094F844301BB9012005B0BDE8C8
:1037B000F08F7E4B04F234797D4F4FF00008D3F840
:1037C00034383D460293FFF7D7FD019094F83C0052
:1037D000404519DC012384F838380023C4F8483BFD
:1037E0009842E2D9BA68013397F8D81007F5B47750
:1037F000126857F84C4C11F0020F116A14BF41EADD
:10380000840121431162EBE7D4F8483B019AD31AB3
:1038100004D4D5F824219A4200F3C3804FF4B47342
:10382000644A03FB082393F85436002B00F09A8077
:10383000D5F85C01FEF704FAAB68A989C0F116005F
:103840001A680728D36823EA0103D36040F28A800C
:10385000D4F83C370122D5F864110133C4F83C3761
:103860000023D1F800A09E469C46824226D251F801
:103870002260BCF1140FA6EB0A0B26DC1BF1080634
:1038800048BF0BF11706BBF1070F4FEA26161CDDE8
:103890008EF0010E824203FA06F306F1FF3BB444B8
:1038A00038BF51F822A0013203930123904203FA5A
:1038B0000BFB039B4BEA0303D7D206E0CCF11506C2
:1038C000002E02DDBEF1000FE4D1BCF1150F56D180
:1038D000394A03F01F0002EB8000D0F87463C3F391
:1038E000441002EB8000D0F874C3C3F38420C3F308
:1038F000C43302EB800002EB8302D0F87403D2F8E9
:103900007433000240EA0C10304340EA033383EA88
:10391000132282EA121202F00F020F2A2FD1C3F3F0
:103920000F134FF6FF72934229D0B3F5606F23D186
:103930001E4A182092F8401700FB0122424492F8D8
:10394000ED260D2A18D1802289F81E204FF6FF712E
:103950005C20029A591A194B18BF012100FB08304C
:103960000CF0EEFD284608F1010805F5B47509F1E3
:103970001409FEF7AFFA29E7A9F80C30E6E70A4880
:10398000D0F838370133C0F83837B8F1000F02D01B
:103990004FF6FF73DAE7582200F5FC605FF0A4FEF3
:1039A000F6E7002002E700BF70530120F820002056
:1039B000AC47012078420120283F0608AC5B01207B
:1039C0002DE9F047534E56F8483CC3B30433DFF8B3
:1039D0005091DFF8508199F8802599F98075022A75
:1039E0002DD84FF49A757D4308EB050494F83021E7
:1039F0002AB3187B082822D894F8182194F81911B2
:103A00005FFA82FA0132D3F800C002F00F028A4254
:103A100038D1FFF7B1FCD4F82021D4F82431064680
:103A20009A420ED0D4F82031C4E949304FF49A7349
:103A300003FB0783D3F81C210132C3F81C21BDE826
:103A4000F087D4F82831344AC31A9342EEDD58F88F
:103A50000590257B2846FCF773FD0723690905F0CF
:103A60001F05C9F8D43084F819A1D4F82C312B4A99
:103A70000133C4F82861C4F82C310123AB4042F86B
:103A80002130D3E705EB0A112CF060444FEADC7CCF
:103A9000033341448C610AF1020105EB011105EB8E
:103AA0000A1541441C3581F805C0087145440021C0
:103AB000CCB2A04228D84FF49A7404FB0784207B30
:103AC00084F81821FCF73CFD3846FCF749FD237BC0
:103AD0000122590903F01F0302FA03F30F4A42F8C7
:103AE000213056F8482C56F85C1C136846F8483CC0
:103AF000116046F85C2C36F8562C013A26F8562C04
:103B0000002B9CD0043366E713F8014F6C5401314D
:103B1000CEE700BFF03100209F86010000E100E009
:103B200000000020F82000202DE9F04F00220023A3
:103B3000894600252DED048B97B04846CDE90E232C
:103B4000CDE90C23CDE90A23002338228DF8165045
:103B50000DF1400808931146079306930EAB0995A3
:103B600000932B468DF815508DF814505AF096FAA4
:103B70000DF1160303227021484600932B465AF09C
:103B80008DFA0CAB252288214846009301235AF078
:103B900085FA0AAB2522AD214846009301235AF04D
:103BA0007DFA09AB1B22ED214846009301235AF010
:103BB00075FA08AB20224FF48471484600932B46D7
:103BC0005AF06CFA07AB20224FF4947148460093E8
:103BD0002B465AF063FA06AB20224FF4A4714846F4
:103BE00000932B465AF05AFA0DF1150306224FF4B2
:103BF000B471484600932B465AF050FA05AB0222A6
:103C00004FF4B771009348462B465AF047FAB9F87B
:103C100014B04FEACB0BBBF5C07FC0F00D820DF1A5
:103C2000170306224FF4BD71484600932B468DF8CA
:103C300017505AF033FA9DF817304FEA031A0AF575
:103C4000C0745C4508D8152B00F0C18107D8012B42
:103C500015D0062B00F0AD812E462F466CE0242BAC
:103C6000FAD146464FF4C075294670354846FDF7EF
:103C70005DFAB5F5846FA6EC010AF5D110E04FF4BA
:103C8000C0714846FDF752FA8DED100A8DED110A0C
:103C90008DED120A8DED130A8DED140A8DED150AC6
:103CA000DDED117A9DED107ADDED146A37EE277A9D
:103CB0009DED126AF6EE007A27EE277ADDED137A93
:103CC00077EEA67ADDED156AB5EEC07A77EEA67AC4
:103CD000DFEDDD6AF1EE10FAB5EEC06A67EEA67AA6
:103CE000C5BFF1EEC76A9FEDD97A002726EE877A25
:103CF000C4BFBCEEC77A17EE107AF1EE10FAF5EEFB
:103D0000C07AC5BFB1EEC67ADFEDD06A002627EED5
:103D1000267AC4BFBCEEC77A17EE106AF1EE10FA2D
:103D200040F36B81B1EEE77ADFEDC87A67EE277A70
:103D3000FCEEE77A17EE905A0AF5C87ADA4540F2B7
:103D40005E81002400231093C8E901339DF81630EA
:103D5000022B22D1DDE90EBA5BEA0A031DD0BC4A70
:103D60000023584651465BF051FD4FF47A7281466C
:103D700000230391584651465BF048FD4FF47A7298
:103D800000235BF043FD039B92B2404600924A46FB
:103D900038F008FE01238DF84A309DED070ADDED6D
:103DA000080A20EE009ADDED067AA0EEA09AF0EE69
:103DB000498AE7EEA78ADFEDA77AB4EEE79AF1EE3B
:103DC00010FA40F33D815EF02DF9DFEDA37A20EE8D
:103DD000278AB5EEC08AF1EE10FA03D5DFED9F7A9F
:103DE00038EE278ADFF8A49259F8403C013349F8AD
:103DF000403C19F83C3C002B40F04A814FF0000A4F
:103E0000D3462A22002196485FF0CCFC0A220023E8
:103E1000DDE90A015BF03CFD0A22002349F8340C7D
:103E2000DDE90C015BF034FDDDED087A9FED8D7A64
:103E30000A22099BF4EEC77A49F8300C93FBF2F39F
:103E4000F1EE10FA49F82C3C00F13081DFED866A82
:103E5000F4EEE67AF1EE10FA00F32B81DFED836ADF
:103E600067EEA67AFDEEE77A17EE903ADDED077A77
:103E7000F4EEC77A29F8103CF1EE10FA00F11C813B
:103E8000DFED796AF4EEE67AF1EE10FA00F31781CD
:103E9000DFED766A67EEA67AFDEEE77A17EE903AE6
:103EA000DDED067AF4EEC77A29F80E3CF1EE10FA51
:103EB00000F108819FED6C7AF4EEC77AF1EE10FA0A
:103EC00000F303819FED697A67EE877A9FED687A48
:103ED000FDEEE77AB4EEC79A17EE903AF1EE10FADB
:103EE00029F80C3CF4EEC78ADBBFF1EEC97ADFEDAE
:103EF0005F6ADFED607A67EEA67AF1EE10FAFCEE0B
:103F0000E77AD8BF9FED597A17EE903AD4BFF1EE19
:103F1000E87ADFED587A29F8083CD8BF67EE877A4F
:103F2000FCEEE77A17EE903AF2EE047A29F80A3CB2
:103F300068EE277AF5EEC07AF1EE10FA00F1C8804B
:103F40009FED4D7AB4EE478A9FED4A7AF1EE10FA72
:103F500077FE277A98E8070029F8284CFCEEE77AE4
:103F6000464C49F8185C17EE903A29F826AC29F827
:103F700024BC29F8063C9DF8153084E807009DF81C
:103F80001420022A98BF002349E9087609F8043C66
:103F9000FFF7F2F90123C9F8140089F8183059F82D
:103FA000403C013349F8403C17B0BDEC048BBDE800
:103FB000F08F46464FF4C075294610354846FDF748
:103FC000B5F8B5F5F07FA6EC010AF5D168E62C4FFF
:103FD000464610224FF4C07317F8011B01354846BE
:103FE00002FB0131FDF7A2F8062D4FF4C0734FF02C
:103FF0001002A6EC010AEFD152E600259CE621460C
:104000004846FDF793F8B5EEC00AF1EE10FA7FF7D7
:1040100098AEDFED1C7AB4EEE70AF1EE10FAD6BFE7
:10402000DFED127A9FED130A20EE270ABCEEC00ADC
:1040300010EE103A9CB285E62C462E462F4681E6BD
:104040009FED118ACEE600BFABAAAA3E00007A44DB
:1040500040420F0018B7D138E02E65420000B4434B
:10406000CE3100200AD7A3C3C3D5A3430000C84262
:1040700074B5D14800FF7F4700CCCC45F831002013
:104080001C43060866D6234400000000F0310020DF
:10409000FFF772F959F8383CC01A0F4B98423FF7B6
:1040A000ADAE39F826AC39F824BCAAE6DFED0B7AC0
:1040B000D8E6DFED0B7AD5E6DFED087AECE6DFED4A
:1040C000087AE9E6DFED057A00E7DFED057AFDE63F
:1040D000DFED047A3EE700BF7F841E00000000C7CA
:1040E00000FEFF460000000010B50C4620212DED1B
:1040F000028B2046FDF71AF830212046B0EE408AA8
:10410000FDF714F8FFF738F9214B012243F8380C7A
:1041100003F83C2C53F8402C013243F8402CB5EE08
:10412000C08AF1EE10FA12DDDFED1A7AB4EEE78AFA
:10413000F1EE10FAD6BFDFED187A9FED188A28EE5F
:10414000278ABCEEC88A18EE102A23F8262CB5EE72
:10415000C00AF1EE10FA12DDDFED0E7AB4EEE70AD6
:10416000F1EE10FAD6BFDFED0C7A9FED0C0A20EECF
:10417000270ABCEEC00A10EE102A23F8242C53F8AC
:10418000402CBDEC028B013243F8402C10BD00BF27
:10419000F031002066D623440000C84200FF7F476C
:1041A0007FB500240DF10E0310220546009323462F
:1041B0000E46ADF80E40ADF80C40ADF80A4059F08F
:1041C0006DFF03AB10222846B1180093234659F027
:1041D00065FF0DF10A0328461022009306F1200125
:1041E00023463A4C59F05AFFBDF80E00FCF796FBF7
:1041F000BDF80C00B0EE406AFCF790FBBDF80A0079
:10420000F0EE406AFCF78AFBE3690133E361DFED1E
:10421000307AB4EEE76AF1EE10FA44D49FED2D7ACD
:10422000B4EEC76AF1EE10FA40DC9FED2B7A26EE71
:10423000076AF4EEE76ABDEEC66AF1EE10FA16EE12
:10424000103A238435D49FED237AF4EEC76AF1EE59
:1042500010FA31DC9FED207A66EE876AB4EEE70A49
:10426000FDEEE66AF1EE10FA16EE903A638426D47B
:10427000DFED187AB4EEE70AF1EE10FA22DCDFED9A
:10428000167A20EE270ABDEEC00A10EE103AA3847B
:10429000FFF772F80123A06284F82C30E369013340
:1042A000E36104B070BD9FED0D6AC2E79FED0C6A3B
:1042B000BFE7DFED0A6AD1E7DFED096ACEE79FEDE0
:1042C000070AE0E79FED060ADDE700BFF0310020B6
:1042D0006F1203C26811034200007A44000000C755
:1042E00000FEFF461FB500230C460DF10F021946D4
:1042F0002046009208228DF80F3059F0CFFE0B4B6C
:104300009DF80F2093F82D1051B983F82E2001222B
:1043100083F82D200821204604B0BDE810403FE777
:1043200093F82E309A42F5D004B010BDF031002041
:104330000846002134E7F0B52DED048B8BB0002446
:104340000D46202205AB21462846ADF80E400093CD
:104350002346ADF80C40ADF80A4004948DF80940AE
:104360008DF8084059F09AFE0DF10E0328461022F0
:1043700020210093234659F091FE03AB28461022DA
:1043800030210093234659F089FE0DF10A03284697
:10439000102240210093234659F080FE04AB2846AA
:1043A000122250210093012359F078FE0DF10903E8
:1043B0002846072262210093234659F06FFE02AB84
:1043C0002846052200936921234659F067FE9DF88F
:1043D0000850072D00F28980BDF80E0006AEFCF7EC
:1043E0009DFABDF80C00B0EE409AFCF797FABDF8C4
:1043F0000A00F0EE408A1022FCF790FA214630467F
:10440000B0EE408A5FF0CEF99FED447A69EE077A0C
:10441000F5EEC07AF1EE10FA6BD4DFED416AB4EE3E
:10442000669ADFED406AF1EE10FA76FEA77AFCEEAE
:10443000E77A17EE903ADFED3C7AF4EEE78AADF8D2
:104440001A30F1EE10FA57D4DFED387AF4EEE78A3D
:10445000F1EE10FA53DC68EE878ADFED357AFDEE77
:10446000E88AB4EEE78ACDED078AF1EE10FA49D476
:104470009FED307AB4EEC78AF1EE10FA45DC38EEE3
:10448000670AFCEEC07A9FED2C7A17EE903ADDEDCC
:10449000047AF8EEE77A8DF81930F4EEC77AF1EE87
:1044A00010FA35D49FED257AF4EEC77AF1EE10FAC2
:1044B00031DC9FED237A67EE877AFDEEE77A214FB4
:1044C00007EB051417EE903A07EB85073034ADF88B
:1044D000243096E80F0084E80F001B4B012283F87C
:1044E0008125FEF749FFC7F8B0000BB0BDEC048B87
:1044F000F0BDDFED167A9AE7DFED158AADE7DFED67
:10450000158AAAE79FED110ABBE79FED130AB8E7EA
:10451000DFED127AD1E7DFED127ACEE70000C84274
:1045200066D6234400FF7F470AD7A3CB0AD7A34B05
:10453000339388439A090444000048CA70FE474AEE
:104540000AD7233CF03100200000002000000000CA
:10455000000000CF0000004F00007F43000000C7B4
:1045600000FEFF462DE9F047CC7EA4B00F46002C9C
:1045700048D10DF10F030722214638460093234608
:104580008DF80F408DF80E4059F088FD0DF10E03A7
:104590000122072138460093234659F07FFDBB8A4C
:1045A000012B05D9013B9BB2062B28BF06231C46D5
:1045B0009DF80E30724D0BB3002385F8D0304FF0CC
:1045C00000080DF1100AC1461FFA88F395F8D06073
:1045D0009C4203D90F2E08F1010816D9012385F852
:1045E000D130FEF7C9FE0F2EC5F8E40021D83146C0
:1045F000002024B0BDE8F04759F0ACBE95F8D130AA
:10460000002BDCD124B0BDE8F087002308224FEA5C
:10461000C8013846CDF800A08DF8109059F03EFD45
:10462000731C2E4485F8D0309DF8103086F8D230B7
:10463000CAE7544F4FF000083E46A7F11609347CF4
:104640003CB11022494630465FF000FA002800F0E5
:10465000858008F101081136B8F1100FEFD104AED2
:10466000802200219DF80F4030465FF09BF895F9BD
:10467000FB2195F8FB31002A04DD903301226B44C5
:1046800003F8802C3B460022012093F910C0013230
:10469000197C1133BCF1000FC2BF9031694401F89D
:1046A000800C102AF1D10123DFF8E4801846C3F30F
:1046B000421103F01F0208EB810100FA02F2D1F867
:1046C00034160A4218BFF0540133802BEFD1631E19
:1046D000DBB27D2B28BF7D242346F25C002A47D025
:1046E0000133DAB27E2AF8D1264416F80139002BBC
:1046F0003FD0013C14F0FF04F7D185F8D14085F894
:10470000D0407FE701331137102B1AD03A7C002AB2
:10471000F8D103EB03121C4819012A4400F11006DA
:10472000E83250F8047BB04242F8047BF9D10B44E4
:1047300001222B4483F8F840144B83F84C2B06F0ED
:1047400069F9C4F3471204F01F01012308EB820248
:104750008B40D2F834160B43C2F834361021204671
:1047600059F0F8FD002385F8D13085F8D03049E7BD
:10477000DCB295F8F83113F00103C7D0E1E700BFD0
:10478000F0310020D8320020C232002070530120C6
:10479000F820002038B50446FEF7EEFD0546FEF78A
:1047A000EBFD431BA342FAD338BD2DE9F74F2C2371
:1047B000DFF8B493804603FB0093D3F83C58002DF8
:1047C00000F0B781D3F8444824B194F90630002BA7
:1047D00040F0AF812C2303FB0893D3F8486826B13F
:1047E00096F90630002B40F0A48108F10103DBB2FA
:1047F00014B11522E371A27116B11622F371B271D0
:10480000288D092755F0CEFC2046FDF7C4FA304626
:104810001121FDF7C0FA2046FDF7F0FA11213046CC
:10482000FDF7ECFA204655F03DFD2046FDF7B8FABD
:104830000520FFF7AFFF2046FDF7ADFA0520FFF793
:10484000A9FF013FEED1204655F02CFD2046FDF793
:10485000A7FA0520FFF79EFF3046FDF7A1FA0520D5
:10486000FFF798FF2046FDF796FA0520FFF792FF25
:104870003046FDF790FA0520FFF78CFF2046FDF744
:1048800078FA10B13046FDF774FA4FF02C0A204642
:104890000AFB08FA09EB0A0B9BF84E389BF84C28E8
:1048A000002B0CBF1E213E210191FDF77FFA9BF8E2
:1048B0004D2830460199FDF779FADBF83C389E48DF
:1048C00014225C68002150445EF06CFF236823F0E2
:1048D00001032360994B9C420AD14FF400104CF025
:1048E000FAFA4FF400104CF0FFFA4CF003F82FE006
:1048F000934B9C4206D14FF480004CF0ECFA4FF4FD
:104900008000F0E78F4B9C4206D14FF400004CF042
:10491000E2FA4FF40000E6E78B4B9C42E5D18B4E68
:10492000D6F89C3043F08003C6F89C30D6F89C3013
:1049300023F08003C6F89C304BF0C0FF326A844BF2
:10494000C2F30212134493F8E43203F01F03D84079
:104950002C2307EE900A9FED7F7AB0EE084AF8EE1E
:10496000677A03FB08999FED7C5AF7EE003AB9F895
:1049700050980026C7EE275A9FED787A07EE909A56
:1049800040F2145EF8EEE77AC7EE274ADFED747A5C
:10499000B0EE007AE5EE877AA5EE875A25EE844AD6
:1049A00037EE856A74EEE72AB9F5C87F06F1010C87
:1049B000D5BF4FF4967278226423322307EE90CA53
:1049C000D8BF4FF416781344A2F13202F8EEE76A2A
:1049D000C8BF4FF4827807EE903AD4BF71464FF4C7
:1049E000FA7166EEA56AB8EEE77AC7EE267A07EEA8
:1049F000102A01EB0802B8EEC77A37EE447A77EE58
:104A0000E37AFCEEE77A17EE903AC7EE267AFCEEF0
:104A1000E77A17EE900A07EE908AB8EEE73A07EECB
:104A2000902AF8EEE77A23EE243A83EE277A37EEDF
:104A3000453A32EEC77AC3EE267A77EEE37AFCEE99
:104A4000E77A17EE901AC7EE267A77EEE37AFCEE55
:104A5000E77A17EE902A02F1020808EB010AB0EE9D
:104A6000467A07EE90AAF8EE677AA6EEA77AF4EEF9
:104A7000C74AF1EE10FA55DC43EA00085FFA88F8FD
:104A8000B8F10F0F50D841EA02081FFA88F8B8F1C0
:104A9000FF0F49D81B05000403F07F6392B200F4B6
:104AA0007F0003432F4843EA067300EA01210B43CA
:104AB00043EA02072368002223F001031146236022
:104AC000236823F4F85323602761236843F001032C
:104AD0002360A36823F40043A360A3686FF30A0371
:104AE000A360236823F440132360636823F4004326
:104AF0006360236843F00103236095F82B004AF0BC
:104B000053FD95F82B004AF031FD002295F82A005C
:104B100011464AF049FD95F82A0003B0BDE8F04F70
:104B20004AF024BD013198E7BCF10F0FC2D06646B0
:104B30003AE703B0BDE8F08F4C2900200054004054
:104B400000580040005C0040001C0058004402581F
:104B5000283F0608286B6E4E000016430024744957
:104B60000000704200FFFF00F820002010B504464E
:104B7000013C00D210BD4FF47A70FFF70BFEF7E74F
:104B800038B504460D460121013C08460CF084FA74
:104B90000021E4B208460CF07FFA0120013C0CF041
:104BA000F0F900200CF0EDF901200CF03BFD284657
:104BB000FFF7DCFF01200CF0E4F900200CF0E1F934
:104BC0000020E4B20CF02EFD2846FFF7CFFFFF2CAB
:104BD000E3D138BD013038B54C1EC5B232210520B5
:104BE000FFF7CEFF4FF4FA70FFF7C0FFFA21284617
:104BF000FFF7C6FF4FF47A70FFF7B8FF013CEDD224
:104C000038BD0A2108B5FFF7E5FF55F0E3F810B10C
:104C100090F9063013B92021FDF7F0B8704738B588
:104C2000040900F00F02013C052C18D80D4D05EBCE
:104C30004403B3F8FA1341FA02F313F001000DD064
:104C4000012325449340013B03EA01005FF0B8F8DB
:104C500095F806340344044800EBC30038BD002037
:104C6000FCE700BF283F0608F43300202DE9F04799
:104C7000894D06464FEA001805EB0013D3F80445AA
:104C8000002C00F0E580B3F80E75384655F08AFA2E
:104C900007F01F027F090123023F9340082F0DD820
:104CA000DFE807F06B8189056373917999007B498F
:104CB000D1F8802022EA0303C1F8803005EB080315
:104CC000013693F80805F6B2FFF7A9FF814610B147
:104CD0001223C671837105EB080393F80905FFF7EA
:104CE0009EFF824610B11323C671837105EB080342
:104CF00093F80A05FFF793FF074610B11423C67116
:104D0000837145442E21504695F80C25FDF74EF849
:104D100095F80D250E213846FDF748F895F80B2536
:104D20002E214846FDF742F8236823F00103236053
:104D30005B4B9C4257D14FF480504CF0DFF84FF45E
:104D400080504CF0E5F8574B9C4257D103F50C339B
:104D5000D3F89C2042F02002C3F89C20D3F89C207A
:104D600022F02002C3F89C2048E04C49D1F884206E
:104D700022EA0303C1F88430A0E74849D1F898201B
:104D800022EA0303C1F8983098E74449CA6F22EA3F
:104D90000303CB6792E74149D1F8882022EA030355
:104DA000C1F888308AE73D49D1F8902022EA030310
:104DB000C1F8903082E73949D1F8942022EA030300
:104DC000C1F894307AE73549D1F88C2022EA030300
:104DD000C1F88C3072E73149D1F89C2022EA0303F4
:104DE000C1F89C306AE7304B9C4233D14FF480408D
:104DF0004CF071F84FF480404CF076F8E36843F0E3
:104E00000043E360A36823F4F073A3602368DA0728
:104E10001ED4A268254B134043F0005343F0070310
:104E2000A360E368DB0003D4236843F4805323606A
:104E3000E36823F01F5323F4C02343F0E863E360E7
:104E4000236823F400632360236D23F001032365AB
:104E5000BDE8F087164B9C4206D14FF400404CF061
:104E60003AF84FF40040C7E7124B9C4208D14FF488
:104E700000504CF043F84FF400504CF049F8BDE7B7
:104E80000D4B9C427FF45FAF4FF480104CF036F82E
:104E90004FF48010F1E700BFF031002000440258C9
:104EA000003001400014005800380040E0FFBF8F80
:104EB000003C0040003401400050014038B590F8FB
:104EC00075300446012B16D190F87200FFF7A7FE4B
:104ED000054680B1FCF74DFF70B1002394F87320B4
:104EE0000221284684F87530FCF760FF226E1368B3
:104EF00043F008031360012038BD10B590F87530F9
:104F0000044683B990F87200FFF789FE226E2021D3
:104F1000136823F008031360012384F87530BDE89B
:104F20001040FCF76BBF10BD38B5044600790D4644
:104F300050B1FFF774FE08B10323C380E27929461C
:104F4000BDE83840FCF732BF38BD10B50446222119
:104F5000FFF7EAFF2046FDF741FB20460121BDE8AF
:104F60001040FDF71FBB10B504460121FFF7DCFF21
:104F700000212046BDE81040FDF714BB38B510F8FD
:104F8000133CA0F6640433BB94F85028002A33D1B4
:104F9000616AA36A99421ED0A36AA169581CA062E3
:104FA000CB5CA06A2169DBB2884200D3A2625B00BD
:104FB00043F40073A4F854380A2384F852380123C8
:104FC00084F8503894F85F38012B01D0042B02D1BB
:104FD000606CFFF7C8FF94F84C38002B6DD194F843
:104FE0004D380133DBB2092B84F84D3825D12046EA
:104FF000BDE83840FBF7B2B994F952586DB1B4F836
:105000005418013D20464B0801F00101A4F8543822
:10501000FDF7BBFC84F85258DDE7626AA36A84F8A6
:1050200050589A42D7D194F85F38012B01D0042B05
:10503000D1D1606CFFF789FFCDE70A2B3DD194F801
:105040004F382BB9B4F8563843F00103A4F856385A
:105050002379D9070AD5B4F85608820501D4C307C5
:1050600018D4B4F85C380133A4F85C38012200236A
:1050700084F84C2894F84F2884F84D38012A1CD124
:105080006179606C84F84F3801F00101BDE8384067
:1050900055F0BEB9E36AC0F3470013B1216B9847DE
:1050A000E4E7E3696269D054E369E2680133B3FB82
:1050B000F2F102FB1133E361D8E738BD2DE9F84383
:1050C00010F8133CA0F66404ABB9444F97F864950C
:1050D000B9F1000F03D101212046FDF756FC94F8E9
:1050E0005038002B40D1626AA36A9A4219D100233A
:1050F00087F8643513E0B4F8583801339BB2082BB5
:10510000A4F858380BD90021606C84F85118A4F821
:10511000581855F07DF994F85138002BD5D0BDE8DA
:10512000F883B9F1020F12D809F1010914BFFF2366
:105130007F2387F86495A4F854380823606C84F8BA
:105140005238012384F85038BDE8F8430BE7A36ACE
:10515000A269591CA162D35CA16A2269DBB29142A7
:10516000E9D30022A262E6E794F952685EB3B4F88C
:10517000548897F8655518F001010BD0012D01D81E
:10518000012103E0AB1E012B09D800212046FDF7C9
:10519000FCFB04E015F0FD03F2D0012BF6D0013545
:1051A000EDB2032D87F86555B9D9013E4FEA58088D
:1051B000002376B2A4F8548887F8653584F85268DD
:1051C000002E90D0ABE7626AA36A9A42A7D1606CC6
:1051D00084F85068BDE8F843B7E600BFF03100201E
:1051E000F8B50D4D00240D4F97F83C30A34201DC7B
:1051F0000120F8BD082C0CD0AE68013405F5B4755B
:105200003079FFF70CFD15F88C1CF279FCF7CEFD18
:10521000EAE700239B68FFDEAC47012070530120C2
:1052200028B18088B0FA80F0C0F11F0070474FF0BD
:10523000FF3070472DE9F04FDFF800A291B0002752
:10524000D146794D4FF0080825E0022B30D10828CF
:105250002DE001243DE091680393086802920191DA
:1052600059F032F98642039BDDE9011203D16879D6
:10527000497988420AD0013302F586722BE0013465
:105280000C33102C2DD14FF0FF322EE0B8F1010875
:1052900005F11C053DD0D5F800B0584659F014F979
:1052A000624B064693F87835012BCED10128EDD11B
:1052B0000024214630460CF0FDF90CF041FA90F93B
:1052C00000300BB1542BC4D10434A4B2102CF0D153
:1052D000002452460023BB42BDD1002CD6D1A96880
:1052E000534B5A689142CAD162B269795846FCF769
:1052F0005DFC40680BF02AFE01380F28C6D82C232D
:105300004C4A03FB002090F97832002BBED1C9F83B
:105310000850013709F58679042F92D10023DFF870
:1053200020B10393444B039A93F83C30934222DD1F
:10533000DBF80C3001933D4B93F88C959BF81030C3
:105340000693019BBBB118463C4EFFF769FF1D68F1
:10535000D6F83074002105F127434FF48674049089
:1053600003F57E039B0AB94208DB042F51D10323C6
:105370002E4A82F88D3511B0BDE8F08F04FB01F0A4
:1053800032589A4243D10644049B0322039C4FF0B7
:105390000108CBF80430019B0134CBF81860CBF83E
:1053A0000C30069B8BF81030019B9A71DC71049BCA
:1053B000B16C5B009A4008FA03F31143326DB1649B
:1053C0001A431D49049B91F8447008FA03F33265AF
:1053D000726D9DB2002F00F0FE811343414601988B
:1053E0007365FCF7CFFC42462946D6F8AC00FAF7C5
:1053F0006BFF3046FBF742FC0123082C0BF1200B1E
:105400000BF8043C0BF8033C03948BD1B3E7013158
:10541000A9E74FF486727A43B118D1F80880B8F141
:10542000000F0FD10223A3E754430608F0310020F8
:1054300098010020000000207053012078420120D4
:10544000AC46012003F1010AB35054227B1C5FFAE1
:105450008AFAD8F8000081F808210022C6F8303412
:1054600081F809A1D8F8086098F80510C64B5C6867
:10547000A64240F0798152B2FCF798FB4368C34CD6
:1054800005934FF486737B431C440293059B636131
:1054900083680598A3610BF059FD524654210BF027
:1054A00040FD00283FF467AF3323E02165602646C6
:1054B000C4F8B030029B9A10B54B5A43B54B01FB70
:1054C000023103F56073C4F8AC108C21C4F8F810F5
:1054D0004FF4907101FB0233C4F8F430D8F8005057
:1054E0002846FDF775F9B9F1060F00F04581AA4A83
:1054F000AA4BB9F1070F18BF1A464FF01E0CA3496B
:105500004FF48679B0FBF2F30CFB02F24FF0180C6B
:10551000013B09FB0719B2FBFCF2B0FBF2F09BB2B6
:1055200000220138A9F86C30A9F8B4002846A4F884
:1055300058206266C4E91723029B5833194456F079
:10554000A3F92B6843F080032B6098F80530082BF3
:1055500000F0348100F21281002B00F02981042B2D
:1055600000F02A8100234FF002094FF4867228468A
:105570000A930D930F93602308934FF480730E9357
:10558000012309930A23CDE90B392B6823F001038A
:105590002B607E4B02FB073308AAD3F80CA05146C0
:1055A00055F0FAFF28465146FCF794FB98F80400A2
:1055B00088B1FFF734FB824698F807204946FCF78C
:1055C000F5FBBAF1000F02D05423AAF806306B6C39
:1055D00043F400436B642B68059843F001032B6090
:1055E0000BF0B4FC8146FCF73BFB98F80520DFF894
:1055F000BCC10C2A96BF6A4B002003EB42034FF458
:10560000867298BFB3F80C05604B02FB07330CF5AC
:1056100032621882002352F83310002940F0D18002
:105620000CEBC301C1F8205BDCF81C1B0131CCF88A
:105630001C1B02EBC3035B49DFF850A14FF00008CD
:105640009A8810439022988048462346FCF71AFB1C
:105650004FF4867303FB07A77D692B6843F01003A3
:105660002B602B6843F014032B60029B03F1700145
:105670005144084607914BF01DFC4FF44030C4F8EC
:105680007C804FF48063BA69C4F898004020C4F865
:105690009420C4F884304FF48043C4F88080A0671D
:1056A000D7F8B0000799C4F89000D7F80490059295
:1056B00009F1180020674FF48050C4F88800D7F82B
:1056C000AC00C4F88C306067284658F012FF296897
:1056D000029B2162696961626968A162A968E162ED
:1056E000E968216303F1B8018A4450464BF0E2FBBC
:1056F0004FF48063059A5146C4F8CC304FF4003320
:10570000C4F8C4802846C4F8DC20C4F8C880C4F8B3
:10571000E030C4F8C080D7F8F830C4F8D83009F1C8
:105720001003C4F8B8304FF40063C4F8D030D7F891
:10573000F430C4F8BC304FF48043C4F8D43058F08F
:10574000D8FE2B6863636B69A3636B68E363AB6824
:105750002364EB6863642B6843F010032B602B68B1
:1057600043F014032B600FE601320C33102A7FF450
:105770007EAE4FF0FF327FE60B4ABEE60C2B7FF485
:10578000F1AE4FF4805314E09801002078420120DC
:105790006B4CA407206B002440771B00D0DD060073
:1057A000283F060801000000A0BB0D007053012037
:1057B0000123C9F80C30D5E61023FAE74FF48073C3
:1057C000F7E78D423FF435AF0133042B7FF423AF6D
:1057D00000239B88FFDE049B39460198103308FAAA
:1057E00003F313437365FCF7CDFA3A46FCE508B5BD
:1057F00070B10123FFF714FD834009D04FF0B04290
:10580000D2F8801021EA0301C2F88010C2F8883073
:1058100008BD2DE9F04387B00646FFF701FD0028DB
:1058200015461C469DF8389038DB1E4F3B1807EB99
:10583000890793F826851C4B03EB80033046C3F899
:105840004417FFF7D4FF0023D7F8382501A93068A3
:105850000593B388019304F0030313430293C4F345
:105860004113C4F38104039304944AF05DFC0F4B8D
:10587000434493F88E25AA4210DD83F88E55C5F374
:1058800001120B4BA91113F80840204649F08CFE79
:10589000204607B0BDE8F04349F068BE07B0BDE858
:1058A000F08300BF283F0608F8200020F0310020D8
:1058B00054F4060808B558B10123FFF7B1FC834042
:1058C00006D04FF0B041D1F880201343C1F88030AA
:1058D00008BD70B5202104461848FAF7E1FC174DC1
:1058E000174B0021174EDA793AB15A7935F8120080
:1058F00006EB420280B2A2F8800001310C33042989
:10590000F1D1114B0C2202FB043393F89F0550B1E7
:10591000043C93F89D35022C06D8062B0CD8074A78
:1059200032F8130080B270BD062B05D8054A02EB91
:105930004303B3F88000F5E70020F4E7E01D0024FE
:1059400088370020A0060024F03100200CF00AB9AE
:105950004FF49A732DE9F04F4343CB4D85B0044685
:10596000EF580E46EA18002F00F0B68192F8049026
:10597000B9F1000F00F0B08192F80580B8F1000F86
:1059800000F0AA81508904F1010A54F00BFC48464A
:10599000FFF745F9814640465FFA8AFAFFF73FF97B
:1059A0008046B9F1000F04D05F2389F807A089F879
:1059B0000630B8F1000F04D0602388F807A088F8FB
:1059C00006304FF49A7B022148460BFB045B9BF8A0
:1059D0000720FCF7EBF940469BF808202221FCF752
:1059E000E5F99BF8060070B1FFF719F9804618B188
:1059F000612380F807A0837140460121FCF7FEF97E
:105A00004046FCF7CDF9BB6943F00103BB619F4BF6
:105A1000BA69D00701D4013BFAD1BB6913F0010880
:105A200000F05A81BB6943F00203BB61BB6923F4F8
:105A30004073BB61002E00F04F81954A136D03F057
:105A40004053B3F1805F00F0AF80B3F1005F00F02E
:105A50003981002B8F4B18BF002340F2EE2C4FF4FE
:105A60007A7E40F20120B3FBF8F208FB12310029E4
:105A700040F02D81B2FBF6F106FB1122002A40F026
:105A80002681A1F10802112A00F221810CFB01F20A
:105A900002F5FA72B2FBFEF2914298BF01F1FF32B9
:105AA000891A802900F21381023A042901F1FF3397
:105AB00008F1FF3843EA02230A4628BF042243EADA
:105AC0000843013A43EA4263FB6104F58003AC33C7
:105AD0001B0203F580721E1D96428CBF01264026D4
