:020000040800F2
:10000000F8FF012091370C082D380C08457C0408B6
:100010002D380C082D380C082D380C080000000075
:100020000000000000000000000000002D380C0857
:100030002D380C08000000002D380C08415D040824
:100040002D380C082D380C082D380C082D380C08CC
:100050002D380C082D380C08191A0408411A040808
:10006000691A0408911A0408B91A0408BD030000AB
:10007000D1030000E5030000F90300000D040000B7
:1000800021040000350400002D380C08217F0408ED
:10009000297F04082D380C082D380C08E11A0408B3
:1000A0002D380C083D4404082D380C082D44040854
:1000B0004D4404085D4404086D44040845130408D5
:1000C000411304084D130408491304082D380C0883
:1000D0002D380C08453A00008D3B0000013D000022
:1000E000211B04082D380C080000000029450408D5
:1000F0000145040839450408F14404084904000096
:100100002D380C08452704087D4404082D380C08B8
:10011000753E0000E93F00008D440408E5290B0806
:100120005D040000710400008504000099040000D3
:10013000AD0400002D380C082D380C082D380C08A3
:1001400000000000000000000000000000000000AF
:10015000C1040000D5040000E90400005D41000076
:1001600055130408511304082D380C082D380C08B9
:100170002D380C0835200B082D380C080000000025
:100180002D380C082D380C08D142000045440000E1
:100190002D380C082D380C082D380C082D380C087B
:1001A0002D380C082D380C082D380C0800000000E4
:1001B0002D380C082D380C082D380C085D13040858
:1001C000591304082D380C0800000000000000003E
:1001D00000000000000000002D380C0800000000A6
:1001E000000000000000000000000000000000000F
:1001F00000000000000000002D380C082D380C080D
:100200002D380C082D380C08000000002D380C0883
:100210004945040859450408694504082D380C0867
:100220002D380C08000000002D380C0800000000DC
:10023000492704082D380C08000000002D380C0850
:100240002D380C082D380C082D380C082D380C08CA
:100250002D380C082D380C082D380C082D380C08BA
:100260002D380C082D380C082D380C082D380C08AA
:100270002D380C082D380C082D4700000000000018
:100280002D380C082D380C082D380C082D380C088A
:10029000000000002D380C082D380C08000000006C
:1002A000000000002D380C082D380C08B94500005E
:1002B0002D380C082D380C082D380C08317F040817
:0C02C0002D380C082D380C082D380C08C7
:020000040804EE
:10000000114A037A0168D35C10B4CC58CA1824F0A2
:100010000104CC501368DB07FCD4037D1F2B09D9E6
:10002000203B20225DF8044B02FA03F343F018034F
:10003000CB60704720225DF8044B02FA03F343F0D3
:1000400018038B60704700BF3C230D084368426D66
:1000500030B49A61EFF31182502383F31288416820
:10006000D2B2856C0B68046D23EA050323430B6051
:1000700082F31188436981681A68096822F00102D5
:10008000D0E908541A60826A1D605C615A60D0E948
:100090000B429C60DA600023B0F86C2030BCCA626E
:1000A00003777047002A4FEA014C034630B508BF7A
:1000B000E64600F1C00514BF8E468C460024196840
:1000C0000C3353F8042C43F8084C41EA0C0142EA83
:1000D0000E02AB4243F80C1C43F8042CEFD1D0F8CD
:1000E000C03043EA0E03C0E93144C0F8C03030BD2F
:1000F00010B40C4C6368002B11DD002004F1080CD7
:100100000146DCF8AC3003F1C00259600C33934275
:10011000FBD1013063680CF5867C8342F1DC5DF82D
:10012000044B704704000020F0B5404C04EB401332
:1001300093F8543403B9F0BD3D4B42011D7893F858
:1001400001C065450CD00CEB4C0E03EBCE0E9EF8B7
:1001500004604FEA4C0E771E012F5AD9032E52D05D
:100160002244A2F83814EFF31181902383F312880C
:1001700092F83A34C9B2B2F8380443EA4003002096
:100180009BB282F83A0481F311881909207881EA38
:1001900013215940D8B1C9431B01D2F8505401244E
:1001A000D2F83C049BB201F00F01D5F8AC2084409A
:1001B0000B4302F1C000590013F4004F8BB202D17F
:1001C0005168214351600C329042F4D1F0BDD2F815
:1001D0003C041B01D2F8502401F00F0110309BB2F7
:1001E0000124D2F8AC200B43844002F1C000590036
:1001F00013F4004F8BB202D15168214351600C328D
:100200009042F4D1F0BD0CF1010606F00306AE42B7
:10021000A6D0E64403EBCE030344597C00299FD0CB
:10022000A318012083F83A049AE700BF04000020D5
:10023000E8210024704700BF024B03EB401393F802
:100240005504704704000020426A806A131A58421D
:100250005841704790F84F3830B53BB990F84D1879
:10026000012490F84E38DAB2914200D830BD04FA39
:1002700003F2B0F8565801332A43A0F85628F2E7A3
:100280000379024613F0010005D0D369D068116AE2
:1002900001385B1A1840704710B503790446DB0734
:1002A00001D4002010BDFFF7EBFF0028F9D0236A2E
:1002B0006269D05C236AE268C0B20133B3FBF2F139
:1002C00002FB11332362EDE703799B070AD5436AEA
:1002D0008269D154436A02690133B3FBF2F102FB34
:1002E00011334362704770470171704703790246CA
:1002F00013F0020007D0536A1069916A01385B1A43
:100300000340DBB2C01A704707280AD84FF4B47212
:10031000054B02FB0033B3F83805B0FA80F0400912
:1003200070470020704700BF04000020072807D84E
:10033000044B4FF4B471012201FB003383F83A25DA
:10034000704700BF0400002010B584464FEA810EBC
:10035000102312F4004F4FEA420214BF0E24072468
:10036000013B92B2CCF80040F444F2D100EB811290
:100370008C010351122042F8213010BD10B5844683
:100380004FEA810E0424130B013C4FEA021203EBE7
:10039000430392B203F11803CCF80030F444F2D1D5
:1003A00000EB01130A018450062043F8214010BDE0
:1003B000704700BF704700BF00EB4000024B03EBEB
:1003C000C00313F8670C7047FC100020064B93F82D
:1003D0004820824206D900EB400003EBC00353F8EB
:1003E000640C704700207047FC100020072808D8D4
:1003F000044B03EB401393F8542412B1012283F809
:100400003A24704704000020072808D8054B03EB66
:100410004013B3F83804B0FA80F040097047002068
:10042000704700BF04000020064B93F84830834219
:1004300005D9054B03EB4013D3F844047047002063
:10044000704700BFFC100020040000202DE9F04F91
:100450004FF49A754A4E85B000FB05F506EB050E84
:100460009EF87D219EF87C31DEF864909A4273D02C
:10047000444B05F11C0B4FF0010A03EB00289FEDE4
:100480003E7BD9F8C44014F4001265D19EF87D116A
:10049000C4F304448B1C2701C9B205EB0310009779
:1004A00008EB041C304490F86900002857D005EB95
:1004B00001103044C06F20F0604040F0804047F8A9
:1004C0000800080105EB0313334493F868703F04F8
:1004D000CCF8047093F868708DED027B3FB328442C
:1004E000012F304490F8803002931ED01023012059
:1004F00013FB01B1244B19440346CDE9008403F0FA
:10050000FC0203F0030311F8018F01301032DB000D
:100510006A4408FA03F352F8084C234342F8083CB3
:10052000C3B2BB42EBD3DDE90084DDE902270AFA5E
:1005300004F4CCF80820CCF80C70C9F8D0409EF830
:100540007D31013303F00F038EF87D319EF87D215C
:100550009EF87C319A4294D105B0BDE8F08F05EB4E
:1005600001100A4F3044C06F07EA8040009F47F8EF
:1005700008000801A6E700BF00000000000000001E
:10058000E821002430AC00404C2200240000FC1F75
:100590002DE9F04FDFF8F0B04FF49A7985B00746B7
:1005A00009FB00B9D9F864502C6DE6070FD4220777
:1005B00008D508232B654FF49A7303FB07B39A6F92
:1005C00001329A67A3054CD405B0BDE8F08F012332
:1005D0002B65D5F8A4305806E9D02A4E01943E4444
:1005E0003602D5F8A430C3F3052A06EB0A134FEA06
:1005F0000A1290595A6810F080489968C2F3034271
:10060000D3F80CE014BF20F06040C0F38A40082A01
:10061000134628BF08239AB100240DF1070C00955A
:10062000224602F00302032C8CBF75460D460134AE
:10063000D200D540E2B293420CF8015FF1D8009DA0
:10064000D9F87440C5F8A8A02CB1B8F1000102AAED
:1006500018BF0121A047D5F8A4305906C1D1019C8B
:10066000A5E74FF49A724FF40073384602FB07BBBC
:100670002B65DBF884310133CBF8843105B0BDE85C
:10068000F04FE3E6AC004000E82100241B4B93F858
:100690004C2092B353F8781C09B100200860012A5D
:1006A0002BD053F8601C09B100200860022A24D026
:1006B00053F8481C09B100200860032A1DD053F8E4
:1006C000301C09B100200860042A16D053F8181C09
:1006D00009B100200860052A0FD0196809B100206F
:1006E0000860062A09D0996909B100200860072A24
:1006F00003D01B6B0BB100221A607047FC10002066
:100700001B4B93F84C2092B353F8781C09B100208E
:100710000860012A2BD053F8601C09B10020086042
:10072000022A24D053F8481C09B100200860032A8B
:100730001DD053F8301C09B100200860042A16D0DF
:1007400053F8181C09B100200860052A0FD0196859
:1007500009B100200860062A09D0996909B1002072
:100760000860072A03D01B6B0BB100221A60704788
:10077000FC100020C04B1B78002B40F04781BF4B82
:1007800093F84C20002A00F0418113F8681C30B522
:1007900000294AD153F8781C0020012A086043D967
:1007A00013F8501C002962D153F8601C0020022A63
:1007B000086039D913F8381C002940F0C38053F879
:1007C000481C0020032A08602ED913F8201C002999
:1007D00040F0DA8053F8301C0020042A086023D946
:1007E00013F8081C002940F0F08053F8181C002072
:1007F000052A086018D9197C002940F00881196879
:100800000020062A08600FD993F82810002957D134
:1008100099690020072A086006D993F84020002A29
:1008200070D11B6B00221A6030BD53F8742C910AF2
:10083000A1F58011522940F20A814FF0FE0CEFF32E
:100840001181502080F312888D4C4FF02C0E556A88
:10085000C9B250690EFB0C4C013540F00100CCF8D8
:100860002854506181F3118893F84C2092E753F893
:100870005C2C910AA1F58011522940F2EC804FF0D6
:10088000FE0CEFF31181502080F312884FF02C0EF4
:10089000556A7B4CC9B2506901350EFB0C4440F0DF
:1008A0000100C4F82854506181F3118893F84C205A
:1008B000002053F8601C022A08603FF67BAFB3E7C4
:1008C000DA69910AA1F58011522900F2E1806D48A0
:1008D00010F801C0EFF31181502080F312884FF01F
:1008E0002C0E556A664CC9B2506901350EFB0C449A
:1008F00040F00100C4F82854506181F3118893F846
:100900004C2085E75A6B910AA1F58011522900F21B
:10091000C2805C4810F801C0EFF31181502080F3D1
:1009200012884FF02C0E556A554CC9B250690135EA
:100930000EFB0C4440F00100C4F82854506181F3D0
:1009400011886EE753F8442C910AA1F580115229C1
:1009500040F285804FF0FE0EEFF31181502080F3BE
:1009600012884FF02C0C556A454CC9B250690135BC
:100970000CFB0E4440F00100C4F82854506181F390
:10098000118893F84C201AE753F82C2C910AA1F502
:100990008011522967D94FF0FE0CEFF311815020DE
:1009A00080F312884FF02C0E556A354CC9B250694D
:1009B00001350EFB0C4440F00100C4F8285450618E
:1009C00081F3118893F84C2004E753F8142C910A12
:1009D000A1F5801152294AD94FF0FE0CEFF3118195
:1009E000502080F312884FF02C0E556A244CC9B267
:1009F000506901350EFB0C4440F00100C4F8285446
:100A0000506181F3118893F84C20EEE670475A68E4
:100A1000910AA1F58011522936D94FF0FE0CEFF35F
:100A20001181502080F312884FF02C0E556A144C1F
:100A3000C9B2506901350EFB0C4440F00100C4F806
:100A40002854506181F3118893F84C20D7E60D4863
:100A500010F801C0F3E60B4810F801C011E709488F
:100A600010F801E078E7074810F801C095E705485D
:100A700010F801C0B2E700BF00000024FC10002005
:100A8000E8210024F06B0C08044810F801C0C6E708
:100A90004FF0FE0C1EE74FF0FE0C3DE7F06B0C082C
:100AA00000EE100AB8EE400A704700BFBCEEC00A64
:100AB00010EE103A98B27047124810B590F894466C
:100AC000ECB100F5D36C4FF0000E05E00EF1010E15
:100AD0000CF1100CA64510D0BCF808009042F5D1DE
:100AE0009CF80A009842F1D1074B012003EB0E134A
:100AF00053E90223C1E9002310BD002010BD2046A8
:100B000010BD00BFE82100248828002470B5104ED5
:100B100096F89446D4B1B1F816E006F5D3630022F6
:100B200003E001321033A24210D0B3F808C0F445FC
:100B3000F7D19D7A91F818C06545F2D106EB0216FF
:100B4000D6F8A43613B1BDE87040184770BD00BF99
:100B5000E821002470B5154C94F818C794F819676B
:100B60000CF1010505F01F05AE421DD05FFA8CFCAB
:100B7000082B9E4604EB0C1628BF4FF0080EC6F853
:100B80001C0786F8291786F828E75BB1013A06F2B8
:100B90001F710023013312F8010FDBB201F8010FBE
:100BA0009E45F7D884F8185770BD00BFE82100248F
:100BB0002DE9F047214C6568002D34DD002304F158
:100BC00008024FF4867601271846984606FB034C28
:100BD00001339CF8051101F0FF0E59B9AB4202F543
:100BE0008672F3D120B1164B93F81C29542A1DD0DC
:100BF000BDE8F08791687046B2F810A0D1F8009077
:100C0000D2F814E0D9F80C1021EA0A01C9F80C1046
:100C1000DEF8001021F00101CEF800108CF80581FB
:100C200082F8FE70DAE70020BDE8F087B3F82429E7
:100C30000132A3F82429BDE8F08700BF040000209A
:100C4000E821002410B5044684F00CF90146204642
:100C500089B2BDE81040FFF767BA00BF10B500EBDE
:100C60004000084C04EBC00414ED1C7A54ED1B7AD0
:100C7000E7EE007AB0EE670A84F0F4F854F8783CB6
:100C8000186010BDFC10002002692DE9F843C3680C
:100C900012EA030828D005460E464FF00047B8FA7E
:100CA00088F327FA03F21B3BD24308EA02082A61C1
:100CB000042B16D8DFE803F03B30251A0300B36A93
:100CC000002B3FD003F1FF3900231FFA89F9B362EB
:100CD000746A34B123682046494698476468002CFA
:100CE000F8D1B8F1000FDAD1BDE8F88370680028B8
:100CF000F7D0696B036889B29847B8F1000FCED17D
:100D0000F2E7B0680028ECD0A96B036889B2984775
:100D1000B8F1000FC3D1E7E7F0680028E1D0E96B34
:100D2000036889B29847B8F1000FB8D1DCE73069A1
:100D30000028D6D0296C036889B29847B8F1000F13
:100D4000ADD1D1E7EB6A1FFA83F9C1E710B590F88E
:100D50003DE0BEF1020F76D0144690F83D20844667
:100D6000012A02D1022280F83D200C2921D8DFE897
:100D700001F007202020222020203A2020205200AD
:100D8000DCF824003449DCF80020C1633349C16435
:100D900090F8341001290CD0012180F8341090F81B
:100DA0003510012952D000224FF4006380F834201E
:100DB0004365002010BDDCF828002749DCF800203E
:100DC000C1632649C16490F834100129F1D0012192
:100DD00080F8341090F835100129E4D138322146DA
:100DE00068F050FCE5E7DCF82C001B49DCF800203B
:100DF000C1631A49C16490F834100129D9D0012186
:100E000080F8341090F835100129CCD13C322146BD
:100E100068F038FCCDE7DCF830000F49DCF8002042
:100E2000C1630E49C16490F834100129C1D0012179
:100E300080F8341090F835100129B4D140322146A1
:100E400068F020FCB5E75FFA8EF010BD3432214621
:100E500068F018FCADE700BFCD580A0875580A08BD
:100E6000F8B5A0F668042379DB0725D5657994F8F1
:100E70004C3805F001073D46FBB1D4F848341A68F8
:100E8000D36A5B08536294F8503823B1B4F85A38E7
:100E90000133A4F85A3885F00101606C7AF0ACFE99
:100EA000012384F84F38002384F84D3884F84E38F5
:100EB000A4F8563884F84C38F8BD94F84F68012EE1
:100EC00003D194F84D3884F84E382046FFF7C2F924
:100ED0004EB9012385EA030184F84F38606CBDE800
:100EE000F8407AF089BE0023394684F84F38F5E798
:100EF00038B5A0F668040022344D606C03685A626D
:100F0000A1F12903302B31D895F8CF3995F8D019B4
:100F10000133DBB2012B85F8CF3909D9B4F8563843
:100F200085F8CF295B08A4F856384B1C85F8D039D2
:100F300095F8D0290023082AA4F8583815D185F847
:100F4000D039B5F8D23901339BB2032BA5F8D23989
:100F500008D92379DB0705D5E36A94F8560843B32B
:100F6000216B98470023A4F8563838BD5B396C29AB
:100F70000CD8B4F8563885F8CF295B0843F08003C5
:100F8000A4F8563895F8D0390133CFE794F85138A2
:100F9000002BCDD1012185F8CF39A5F8D239802396
:100FA00084F85118A4F8563885F8D0197AF024FE40
:100FB000BEE7E3696269D054E369E2680133B3FBD9
:100FC000F2F102FB1133E361CCE700BFE82100241A
:100FD00038B569F03DF90D490D4CD1F8FC20A4FB62
:100FE00000400C4D42F080720B4B800CC1F8FC208D
:100FF0004FF060420949C5F8D409C2F8B01F002279
:101000005A601A6842F001021A6038BD00ED00E033
:1010100083DE1B43E8210024001000E055CEACC560
:1010200070B505460D26084C013E00D170BD94F9FF
:10103000000021F0EDFC031E04DB6178EA18117357
:10104000A278EA540434EFE7436C0C0800207047A0
:10105000704700BF036882B023F002030360036897
:1010600023F004030360036823F040030360036874
:1010700023F020030360036823F010030360036878
:1010800023F08003036083699B0603D5C36943F0A3
:101090002003C36183699A0701D5002383628369B2
:1010A000DB0701D40123836100224260036823F03F
:1010B000010303600192019B3F2B06DC00BF019BF3
:1010C00001330193019B3F2BF8DD03684FF0010CC6
:1010D000074A43EA0C030360002381F800C04B7009
:1010E000B2F8D83963449BB2A2F8D83902B070473D
:1010F000E82100242C2170B400FB01F16B4C631833
:10110000D3F8DC395B681A68D5060CD59A69D20623
:1011100009D5DA692144184642F0100201F6F411AB
:1011200070BCDA6196E71A6896071ED59A6995072A
:101130001BD52C2202FB004292F8F91921B192F83A
:10114000F819002940F093802C2202FB004292F80B
:10115000F81921B192F8F929002A40F086801A681E
:1011600022F0020270BC1A6070471A68510722D43C
:101170001A68560638D59A69550635D52C2202FBD1
:10118000004292F8FA1900296FD092F8F6494849BE
:1011900092F8F8095A680A404649224342EA004256
:1011A000114359601A6822F002021A601A6842F06C
:1011B00004021A6059E09A695207D9D52C2202FB21
:1011C000004292F8FA1919B192F8F81900295DD184
:1011D0002C2202FB004292F8F829002A45D11A6815
:1011E00022F004021A6040E01A68910625D59A6937
:1011F000920622D5D9692C2241F0200102FB00423F
:101200000020D961196821F002011960196821F0E4
:1012100004011960196821F040011960196821F072
:1012200020011960196821F010011960196821F076
:101230008001196082F8F50917E01A6822F00202AD
:101240001A601A6822F004021A601A6822F040023A
:101250001A601A6822F020021A601A6822F010023E
:101260001A601A6822F080021A6070BC7047D2F8C7
:10127000FC194D1CC2F8FC590978C9B2996292F860
:10128000F8190139C9B282F8F8195DE7596AD2F83C
:10129000005AC9B26E1CC2F8006A297092F8F81997
:1012A0000139C9B282F8F81992E700BFE821002499
:1012B000008000FC002400822C23014610B41E4C48
:1012C00003FB0043D3F8DC295068026812062AD5D4
:1012D0008269D20506D5C26942F48072C2610122D8
:1012E00083F8F42983699A0509D5C2692C2342F44D
:1012F000007203FB0143C261012283F8F429836970
:101300005B0509D5C2692C2342F4806203FB0143CB
:10131000C261012283F8F4292C2303FB01F1631835
:1013200093F8F43913B95DF8044B7047034B5DF83B
:10133000044B19448EE600BFE8210024DC2B002476
:101340000020B9E70020D5E60120B5E70120D1E66D
:101350000220B1E70220CDE60320ADE70320C9E675
:101360002DE9F8430568D5E904366C68F0611A7D0B
:10137000D3F800801F2A4BD9203A2021376801FA80
:1013800002F242F01802C8F80C20327D1F2A4AD916
:10139000203A202101FA02F242F01802FA60726843
:1013A00000205968086010604046116841F0100143
:1013B000116093F80890AA6949467DF0E1FC367AFD
:1013C000EA69384631467DF0DBFC2B6A9A6863682F
:1013D0006FF30F0313436360164B13F809009A5D14
:1013E00058F8003043F0010348F80030BB5843F090
:1013F0000103BB50A36843F44043A360236843F058
:1014000001032360236843F400732360BDE8F8837D
:101410002021376801FA02F242F01802C8F80820C9
:10142000327D1F2AB4D8202101FA02F242F01802BC
:10143000BA60B4E73C230D08D3B20F2B1FD8114B71
:1014400000B503F1840E02E00333734514D093F822
:1014500000C08445F8D193F801C08C45F4D102EB6B
:1014600042020948997800EB82030430D96000EB0E
:10147000820019715DF804FB00205DF804FB002078
:10148000704700BF746C0C080000002410B40C4CB2
:10149000002304F68C2C01E0152B0CD003EB430247
:1014A00001331CF802108142F6D1144494F98E0ADB
:1014B0005DF8044B70474FF0FF305DF8044B704708
:1014C000E821002430B5114D002305F5847C02E0AD
:1014D00001331A2B18D05CF833408442F8D10CEB5E
:1014E000C30EDC009EF804E08E45F1D102EB42020F
:1014F000074B254403EB8201043395F80D4103EBC0
:101500008200CC600C7130BD002030BDF06B0C0847
:1015100000000024F0B1002310B504460E4894F8F2
:1015200004E000F68C2C01E0152B11D003EB4302F4
:1015300001331CF802107145F6D1831861792068D7
:1015400093F98E2AD3B20F2B02D8BDE81040B9E729
:10155000002010BD00207047E82100244FF02C0C23
:1015600001380C4B82B00C4A0CFB00330B49D3F80A
:10157000C4308B4214BF02230123D2F8D810194380
:10158000C2F8D810D2F8D82013400193019B02B0C2
:10159000704700BF000000240044025800000240D1
:1015A000F8B501381E46134C2C2315460F4603FB95
:1015B0000044114BD4F8C400984214BFA120A020CD
:1015C00078F0DEFDC5F30112A909B4F9DC00C4F816
:1015D000D470C4F8E06067F005FBB4F9DC30002B90
:1015E00007DB03F01F0001225B090449824041F838
:1015F0002320F8BD000000240000024000E100E0CC
:101600002DE9F04F89B09DF84860002800F09C80DB
:101610008C46CC4984884FF0004701EB86064FF09A
:10162000B0481546C84AD6F8E8E1B4FA84F600682E
:10163000F740C6F11F06314402EB8606C3F34112A0
:1016400091F8D8B1D8F88010C6F8CCCA21EA0701C1
:10165000C8F8801003F00301C8F8887041EA0E0151
:101660000092002C69D021F010077E1E012E6ED84A
:1016700001F00302C3F381034FEA111A4FF001088E
:1016800002924FF0030900220193CDE903B50EE069
:10169000DCF8201021EA0601CCF82010016829406E
:1016A0004EEA01010160013234FA02F143D008FA36
:1016B00002F651003442F6D0D0F808E009FA01F5FC
:1016C000019B022F2EEA050E03FA01FC4FF00F03D7
:1016D0004CEA0E0C0AFA02FEC0F808C04FEAD20C1F
:1016E000D0F804B000EB8C0C2BEA060B02F00706D6
:1016F0004EEA0B0E4FEA8606C0F804E003FA06F63F
:10170000D0F80CE0009B2EEA050E6FEA050503FAFF
:1017100001FB4BEA0E0B07FA01FEC0F80CB0B7D084
:10172000029B0132066803FA01F12E403143016049
:1017300034FA02F1BBD1DDE903B5834B5B4493F886
:101740000C2BAA4200F3BC8009B0BDE8F08F11F069
:10175000805300F0078101F480334FF0010ADFF875
:10176000FC81029301F40033039301F4801304938A
:1017700001F40013059301F00303019300230AFA17
:1017800003F1214000F090805E000322D0F80CE0CD
:1017900023F0030702FA06F9009A07F1B04702FAAC
:1017A00006FC2EEA090E019A07F580674CEA0E0C3A
:1017B00002FA06F60F22C0F80CC0D0F800C02CEADE
:1017C000090C46EA0C060660D8F8F46046F00206FA
:1017D000C8F8F460D8F8F46006F002060796079E91
:1017E00003F00306D7F808C0B60002FA06FE574A0F
:1017F00090422CEA0E0C2ED0DFF864E1704500F028
:1018000092800EF5806E704500F0D4800EF5806EEB
:10181000704500F0D6800EF5806E704500F0D780E0
:101820000EF5806E704500F0BE800EF5806E70453E
:1018300000F0D4800EF5806E704500F0D6800EF575
:10184000006E704514BF4FF00A0E4FF0090E0EFAED
:1018500006FE4CEA0E0C4FF0B042C7F808C0CF436A
:10186000D2F88060029A002A5BD13E404FF0B0422D
:10187000C2F88060D2F88460039A002A5CD13E40AE
:101880004FF0B042C2F884601668049A002A51D121
:101890003E404FF0B04216605668059A002A47D184
:1018A0003E404FF0B0425660013334FA03F17FF40A
:1018B00066AF254B5B4493F80C2BAA427FF744AFED
:1018C000234A83F80C5BAB11D2682249C2F302228F
:1018D00011F80B10C2F10704101D042C28BF0424BA
:1018E00006282BD9033A4FF0FF30C5F3011590407D
:1018F00025EA00054FF0FF30A04023EA0003164818
:101900009340012244182B4301F01F0549091B0194
:10191000AA40DBB284F8003340F8212009B0BDE8CA
:10192000F08F0E43A2E70AFA06F64CEA060C92E79D
:101930000E43B6E70E43ACE70E43A1E700252A4667
:10194000D8E700BFF06B0C08E82100240000025823
:1019500000ED00E024230D0800E100E000440258FF
:1019600000040258964601F0030101274FF0030CD2
:1019700007FA03F2224211D05A00C6680CFA02F8A4
:1019800026EA08090EFA02F601FA02F246EA090608
:10199000C660066826EA080632430260013334FA5C
:1019A00003F2E5D1C9E64FF0050E0EFA06FE4CEA49
:1019B0000E0C50E74FF0020E0EFA06FE4CEA0E0C2B
:1019C00049E7032202FA06F64CEA060C43E74FF019
:1019D000040E0EFA06FE4CEA0E0C3CE74FF0060E23
:1019E0000EFA06FE4CEA0E0C35E74FF0070E0EFA23
:1019F00006FE4CEA0E0C2EE760B182884FF0B04133
:101A00004FF00043B2FA82F2D1F88000D340034392
:101A1000C1F88030704700BF4FF0B042D2F880303C
:101A2000D2F888100B4003F00103C2F8883023B1CC
:101A3000024BD3F8CC0A036818477047E82100240A
:101A40004FF0B042D2F88030D2F888100B4003F04B
:101A50000203C2F8883023B1024BD3F8D00A0368DE
:101A600018477047E82100244FF0B042D2F8803088
:101A7000D2F888100B4003F00403C2F8883023B179
:101A8000024BD3F8D40A036818477047E8210024B2
:101A90004FF0B042D2F88030D2F888100B4003F0FB
:101AA0000803C2F8883023B1024BD3F8D80A036880
:101AB00018477047E82100244FF0B042D2F8803038
:101AC000D2F888100B4003F01003C2F8883023B11D
:101AD000024BD3F8DC0A036818477047E82100245A
:101AE000F8B54FF0B043D3F88050D3F888201540B4
:101AF00005F47875C3F888507DB1084F0126B5FA12
:101B000085F4C4F11F0407EB840306FA04F4D3F848
:101B1000CC0A03689847A543F1D1F8BDE821002419
:101B2000F8B54FF0B043D3F88050D3F88820154073
:101B300005F47C45C3F888507DB1084F0126B5FAFD
:101B400085F4C4F11F0407EB840306FA04F4D3F808
:101B5000CC0A03689847A543F1D1F8BDE8210024D9
:101B600030B1036882881B691A4214BF012000202B
:101B7000704700BF10B1036882889A61704700BF48
:101B800018B1838802681B049361704770B50D46D5
:101B900082B00446164640B101680C4B0C4A0B4417
:101BA0009B0A02EB4303B3F8F40178F0E9FAC5F3BA
:101BB0008101C5F3411305F01302CDE90016A18898
:101BC00020687DF077FF02B070BD00BF0000FEA767
:101BD000F06B0C0800B1D9E770472DE9F84FDFF83A
:101BE00098832C23074603FB0083D3F8DC69002E7F
:101BF00000F08E81D3F8E45925B195F90630002B19
:101C000040F086812C2303FB0783D3F8E84924B1F5
:101C100094F90630002B40F07B817B1CDBB215B1C0
:101C20001522EB71AA7114B11622E371A2714FF063
:101C30002C09308D78F0A4FA214609FB07F92846D3
:101C40007FF01CFE284608EB090ABE4D9AF8EE39D3
:101C50009AF8EC29002B0CBF4FF01E0B4FF03E0BF7
:101C60005946FFF7B7FF20469AF8ED295946FFF786
:101C7000B1FFDAF8DC39B44814225C68002148442A
:101C8000DFF8F89284F03AFC236823F00103236024
:101C9000AE4B9C4215D1D5F8903043F40013C5F8F3
:101CA0009030D5F8903023F40013C5F8903068F0E8
:101CB000F1FAA44BDB69C3F30213994499F8043297
:101CC00033E0A34B9C420AD1D5F8903043F4800313
:101CD000C5F89030D5F8903023F48003E5E79D4BAC
:101CE0009C420AD1D5F8903043F40003C5F89030F7
:101CF000D5F8903023F40003D7E7974B9C4240F08F
:101D00000981D5F89C3043F08003C5F89C30D5F8A4
:101D10009C3023F08003C5F89C3068F0BBFA2B6A36
:101D2000C3F302134B4493F8043203F01F039FEDF7
:101D30008B7A9FED8B5AB0EE084AD8402C23F7EEF1
:101D4000003A002507EE900A03FB078840F2145C76
:101D5000F8EE677AB8F8F089C7EE275A07EE908A4E
:101D60009FED807AF8EEE77AC7EE274ADFED7E7ABC
:101D7000B0EE007AE5EE877AA5EE875A25EE844A22
:101D800037EE856A74EEE72AB8F5C87F05F10107DA
:101D9000D5BF4FF4967278226423322307EE907AEF
:101DA000D8BF4FF4167E1344A2F13202F8EEE76A70
:101DB000C8BF4FF4827E07EE903AD4BF61464FF41D
:101DC000FA7166EEA56AB8EEE77A7144C7EE267A34
:101DD00007EE102AB8EEC77A37EE447A77EEE37A48
:101DE000FCEEE77A17EE903AC7EE267AFCEEE77A39
:101DF00017EE900A07EE90EAB8EEE73A07EE901A6F
:101E0000F8EEE77A23EE243A83EE277A37EE453A66
:101E100032EEC77AC3EE267A77EEE37AFCEEE77A03
:101E200017EE901AC7EE267A77EEE37AFCEEE77AA1
:101E300017EE902A02F1020E0EEB0109B0EE467A7F
:101E400007EE909AF8EE677AA6EEA77AF4EEC74A04
:101E5000F1EE10FA6FDC43EA000E5FFA8EFEBEF17F
:101E60000F0F6AD841EA020E1FFA8EFEBEF1FF0F75
:101E700063D81B05000403F07F6392B200F47F0077
:101E800003433A4843EA057300EA01210B43134335
:101E90002268374D22F001022260226822F4F852B3
:101EA0002260002223612368114643F0010323606E
:101EB000A36823F40043A360A3686FF30A03A3603D
:101EC000236823F440132360636823F400436360B2
:101ED000236843F001032360012496F82B0066F089
:101EE00081FE96F82B305A0903F01F0304FA03F31E
:101EF00045F82230002296F82A00114666F072FE5C
:101F000096F82A305A0903F01F039C4045F82240F6
:101F1000BDE8F88F174B9C427FF4C9AED5F89030DE
:101F200043F00073C5F89030D5F8903023F000737B
:101F3000BBE63D4628E701317EE70F2FF9D10023AC
:101F4000A6E700BF00440258DC2B002400540040E8
:101F500000580040005C0040001C0058286B6E4E8A
:101F600000001643002474490000704200FFFF0087
:101F700000E100E000640040E8210024F06B0C0860
:101F800008B1002202E670470D4B70B593F8486027
:101F9000A6B10C4C002503E001352034B5420DD02C
:101FA000237F002BF8D0E06800220028F4D0013510
:101FB000217DFFF7EBFD2034B542F1D1012070BD4A
:101FC000FC1000203C04002070B590F872300446EC
:101FD0001D09013D062D11D81B4E03F00F0306EB22
:101FE0004502B2F8141241FA03F2D20706D590F86E
:101FF0007520012AD0B205D0012070BD94F875304B
:102000000120FAE798400138084084F085FD7319F3
:102010000E4A93F82432034402EBC30552F83320EE
:10202000AB8810691840E8D0002394F8732002218F
:10203000284684F87530FFF7A9FD226E136843F037
:1020400008031360D8E700BFF06B0C08FC2C0024D9
:1020500070B5154BBFF34F8F144903F50352C1F808
:10206000683220339342FAD1BFF34F8FBFF36F8FA3
:102070000F4C40F62A030C4AB4F87C5904F513605F
:102080002946FEF763FE034618B1002384F87E3923
:1020900070BDD4F83069294604F5136001227362DB
:1020A000BDE8704080F028BD80E0012400ED00E034
:1020B000E8210024014B53F820007047504000589D
:1020C000014B43F8201070475040005819481A4BF4
:1020D00001681A4A41F4807130B482B00160D3F8CB
:1020E000F410FF24CA2041F48031C3F8F410D3F86F
:1020F000F41001F4803101915321019D546250622A
:102100005162D3F8D030DB010CD40C4B00220C49C7
:102110005A659A65DA651A665A669A66196502B052
:1021200030BC7047126D064B9A42EED102B030BC03
:10213000704700BF00480258004402580040005851
:10214000316665422DE9F84FD0F85C710446534B77
:1021500000F59676FDB227F0FF09826800F1E00AEB
:10216000103D4846D2F80080A3FB05352D092946CD
:102170007CF062FED4F81C210023B2F5807F84F845
:1021800020317FD00DD8102A00F084805DD8012A3C
:1021900046D0042A16BF6FF400616FF008013C239B
:1021A0000EE0B2F5805F71D0B2F5803F3BD0B2F562
:1021B000806F15BF6FF400616FF008013C230423AA
:1021C000324608F11806404656F803C001EA0C01F1
:1021D000F150D4F81CB159467CF0E4FBBBF5807F8C
:1021E0002ED024D8BBF1100F3FD037D8BBF1010F50
:1021F00002D0BBF1040F34D14FF0080C33685246C3
:102200002946484643EA0C0333604023C4F8E830CB
:102210007CF0B6FD3B6843F010033B60BDE8F88FEF
:102220006FF00801CCE76FF008013C23C8E7BBF56D
:10223000805F22D0BBF5803F1AD0BBF5806F10D1F4
:1022400008F11C064FF0080CD8E7402A15BF6FF4C0
:1022500000616FF008013C230023B1E7BBF1400FA0
:10226000CAD03C364FF4006CC8E74FF4006CC5E7A9
:1022700008F154064FF0080CC0E708F11C064FF4B3
:10228000006CBBE76FF00801042399E76FF400616D
:10229000042395E76FF4006192E700BFABAAAAAAF6
:1022A000464A92F8981E013949B24B1C00F08480CE
:1022B000434B480103EB411100B5C2F89C1E811D40
:1022C00013F801E003EB010C92F8A01E8E455BD0E1
:1022D0009CF802E08E4555D000F10A0113F801E0A8
:1022E00003EB010C92F8A11E8E4546D09CF802E04B
:1022F0008E4540D000F10E0113F801E003EB010C14
:1023000092F8A21E8E4531D09CF802E08E452BD06B
:1023100092F8961E31B300F1120113F801E003EBBD
:10232000010C92F8A31E8E4535D09CF802E08E4534
:102330002FD000F1160113F801E003EB010C92F825
:10234000A41E8E4533D09CF802E08E452DD01A3065
:1023500092F8A51E13F800C003448C4521D098784C
:1023600088421DD05DF804FB0CF1020CBCF8001093
:10237000A2F8A81ECCE70CF1020CBCF80010A2F8E1
:10238000B21EB7E70CF1020CBCF80010A2F8B01EA8
:10239000A2E70CF1020CBCF80010A2F8AA1EC8E7D4
:1023A00002331B88A2F8AE3EDCE70CF1020CBCF84D
:1023B0000010A2F8AC1ECAE7704700BFE821002455
:1023C0001C6E0C080120704738B5134D41F20D13F7
:1023D000124941F28832D5F8F80ED5F8B44E00040F
:1023E000A060E068014020460B430D21E36068F0E7
:1023F000EFFA38B1D5F8E82E034600201343C5F8AC
:10240000E83E38BD606900F4F050A0F50060B0FA15
:1024100080F0400938BD00BFE8210024C0E0FEFF85
:10242000C74BD3F8301FD3F8342F70B58C0F93F807
:10243000B85F100EC2F3072C83F8604FC1F38364BA
:102440000001012D83F8614FC1F3016483F8624FED
:10245000C1F3074483F8634FC1F30724C9B283F87B
:10246000644FC2F3035483F8651FA3F8660FC2F3E9
:10247000C030B3F8661F89B241EA0401C2F30344D5
:10248000A3F8661FC2F3403183F8684FC2F380346B
:1024900083F8690F4FF0000083F86A4F83F86B1FD1
:1024A000C2F3003183F86C1FD3F8381F83F86D0F27
:1024B00040F2EF80022D00F0C3802A204FEA4C0C3E
:1024C00083F8794FC1F3C01201F07F010CF07E0C4C
:1024D00083F87ACF4FF0010C93F87A4F1443D3F876
:1024E0003C2F83F87A4FD40F83F87B1F910D83F82C
:1024F0007C4FC2F3417401F00C01C2F3815583F8A3
:102500007D4FC2F3826483F87E4F83F87F1F93F878
:102510007F1FD3F8404F294383F87F1FC2F34051F8
:1025200083F8801F002183F8811FC2F3004183F8E4
:10253000821FC2F3C03183F8831FC2F3803183F856
:10254000841FC2F3403183F8851FC2F3003183F842
:10255000861FC2F3812183F8871FC2F30121C2F3D2
:10256000460283F8881FC4F3074183F8892F220E9F
:10257000090283F88ACF83F88C2FC4F30722A3F8CB
:102580008E1F2406B3F88E1F89B21143A3F88E1F45
:10259000D3F8441FC3F8904F0C0ED3F8902F42EAA3
:1025A0000442C3F8902F0A0AD3F8904F02F47F42F6
:1025B0002243C1F30724C9B2C3F8902FD3F8905F28
:1025C000D3F8482F2C43C3F8904F83F8941F110E73
:1025D00083F8951F110C0906C3F8981F1102D3F850
:1025E000984F0A4601F47F01214392B2D3F84C4F31
:1025F000C3F8981FD3F8981F0A43C3F8982FC4F361
:102600000352D3F8981F41EA1461C3F8981F93F856
:102610009C1F1143C4F3072283F89C1F210A01F475
:102620007061A3F89E1FB3F89E1F89B21143C4F3D3
:102630004602A3F89E1F83F8A02F83F8A1CF70BD98
:102640001204C1F3072C0D0E02F47C12C3F8702F94
:10265000C1F30742D3F8704F44EA0524C3F8704F22
:10266000D3F8704F22434FF40074C3F8702FD3F89F
:10267000702FC3F8B04F013240F10004A40244EAC5
:1026800092549202C3F8AC4FC1F38034C3F8A82F20
:1026900014E74FEA8C2CC1F3C26594000CF440623D
:1026A000C1F3072C04F47F74C3F8702FD3F8702F94
:1026B0001443CA0BC3F8704F02F00602D3F8704FF0
:1026C00044EA9174C3F8704FC1F3026483F8745FF5
:1026D000012583F8754FC1F3425483F8764FC1F357
:1026E000824483F8774FC1F3C03483F8782F93F88E
:1026F000782F224383F8782FD3F8704F93F8782FF0
:1027000093F8686F023205FA02F2B540D617A2FBC1
:10271000052EC3F8B05F05FB06EE04FB0EEE013498
:10272000A2FB0424A644520AC1F3803442EACE52EA
:10273000C3F8A82F4FEA5E22C3F8AC2FBEE600BF55
:10274000E821002476F0E6BE76F0E4BE2DE9F04FF5
:10275000067991B00546046E16F0020A48D090F84A
:102760007280B8F1000818BF4FF001084FEAC802A4
:10277000236823F4F8732360A36823F00103A360A4
:10278000236823F001032360B44B9C4200F088814E
:10279000B34B9C422FD0B34B9C4200F0C281B24B52
:1027A0009C4200F0CC81B14B9C4200F0A881B04B20
:1027B0009C4200F0D281AF4B9C4200F0EA81AE4BCC
:1027C0009C4200F0F481AD4B9C4200F0D481AC4BB4
:1027D0009C421DD1AB4BD3F8981041F08001C3F857
:1027E0009810D3F8981021F08001C3F898100FE0EA
:1027F0005246D046BCE7A34BD3F8901041F40031C9
:10280000C3F89010D3F8901021F40031C3F8901061
:102810002368D5F808B0DF0795F8059053D44FEA40
:10282000892320684FEA092106F0010603F480534A
:10283000954F01F48061E71B0B439449B7FA87F782
:1028400001407F090B43BF0043EA86031343236023
:102850004FEA0933626803F4005322F440521343F1
:102860006360A36823F44073A3607C4B9C4200F038
:1028700054817B4B9C4229D07A4B9C4226D003F555
:1028800080639C4222D003F580639C421ED003F5F6
:1028900044439C4200F04181A3F51C439C4215D067
:1028A00003F580639C4211D003F51C439C4200F069
:1028B000348103F580639C4200F02F81E36A23F0AA
:1028C0000F033B43E36211B0BDE8F08F704868F03E
:1028D0004DF90028F2D0BBF1000FEFD06D4B19F08D
:1028E000010F03EB8703D3F86C32B0FBF3F000EB7E
:1028F0005B00B0FBFBF080B2E060E36A23F00F0303
:1029000043EA0703E36208D01EB1636843F48033EF
:102910006360BAF1000F40F0D18095F874301BB1BC
:10292000636843F400436360A36819F0080F43F43D
:102930008053A360236823F000532360636823F46B
:1029400090436360A36823F02A03A36003D0A368C5
:1029500043F00803A360236843F001032360002EC3
:102960003FD0EF6B002F00F0AE806B6CFEB227F013
:10297000FF090022099304F12403103E4846009306
:102980004FF4806305934FF4807303934FF48033C7
:102990000A93414BA3FB06360023029336090493A6
:1029A0003146CDE90B33CDE90D336B690193EB680B
:1029B00008930023CDE906237CF03EFA6A463146AF
:1029C00048467CF0DDF93B6843F001033B60334B44
:1029D000A2689B5D42F040024B44A2605B689BB2E0
:1029E0006B65B8F1000F3FF46EAF2E6C002E7BD0FC
:1029F000F1B2AA6C284B26F0FF07A1F1100509924D
:102A00003846A3FB0535002301932D090893294679
:102A1000CDE90333CDE90633CDE90B33CDE90D33F1
:102A20004023029304F1280300934FF4806305933D
:102A30004FF480330A937CF0FFF96A462946384602
:102A40007CF09EF9336843F010033360236843F051
:102A50004003236011B0BDE8F08F00BF00100140BB
:102A60000044004000480040004C0040005000403E
:102A70000014014000780040007C00400018014034
:102A8000001C014000440258000C0058F369FFEF9D
:102A900008000007F06B0C08ABAAAAAA3C230D089B
:102AA0004A4BD3F8981041F01001C3F89810D3F8AE
:102AB000981021F01001C3F89810A9E6636843F458
:102AC0000033636029E7236843F480732360A368BD
:102AD00043F00103A360236843F0200323602368CD
:102AE00043F0100323607CE7236843F080032360F6
:102AF000236843F04003236011B0BDE8F08F334BEF
:102B0000D3F8901041F48011C3F89010D3F89010CE
:102B100021F48011C3F890107AE62D4868F026F869
:102B2000D7E62A4BD3F8901041F48021C3F89010D7
:102B3000D3F8901021F48021C3F8901068E6234B5D
:102B4000D3F8901041F40021C3F89010D3F89010FE
:102B500021F40021C3F890105AE61C4BD3F89810CA
:102B600041F02001C3F89810D3F8981021F020010B
:102B7000C3F898104CE6154BD3F8981041F040017B
:102B8000C3F89810D3F8981021F04001C3F89810BA
:102B90003EE60E4BD3F8901041F08041C3F8901000
:102BA000D3F8901021F08041C3F8901030E6074B25
:102BB000D3F8901041F00041C3F89010D3F8901072
:102BC00021F00041C3F8901022E600BF00440258F3
:102BD0000803000738B50409013C062C1AD80F4D2C
:102BE00000F00F0305EB4402B2F8140240FA03F2BE
:102BF00012F0010210D00122254402FA03F3013B36
:102C0000184083F089FF95F82432054A034402EB0B
:102C1000C30038BD002038BD104638BDF06B0C082D
:102C2000FC2C00242DE9F047984D05EB0013D3F858
:102C3000BC4F002C00F08F80B3F8C67F06464FEAE9
:102C40000019384677F09CFA01227B0907F01F072C
:102C5000023BBA40082B0FD8DFE813F0BF00C700D3
:102C6000CF00D700DF000900E700EF00B700884978
:102C7000CB6F23EA0203CB6705EB0903013693F818
:102C8000C00FF6B2FFF7A6FF074610B11223C671B8
:102C9000837105EB090393F8C10FFFF79BFF824691
:102CA00010B11323C671837105EB090393F8C20FAA
:102CB000FFF790FF804610B11423C67183714D4415
:102CC00050462E2195F8C42FFEF784FF95F8C52FA6
:102CD00040460E21FEF77EFF95F8C32F2E21384681
:102CE000FEF778FF23686B4A23F0010394422360C8
:102CF00033D0694B9C423ED1654BD3F8902042F4CF
:102D00008042C3F89020D3F8902022F48042C3F888
:102D10009020E36843F00043E360A36823F4F0737A
:102D2000A3602368DA0716D4A1685C4A5C4B0A40AA
:102D30001343A360E368DB0042D5E268594B1340BC
:102D400043F0E863E360236823F400632360236DAA
:102D500023F001032365BDE8F0874D4BD3F898209D
:102D600042F48052C3F89820D3F8982022F480527D
:102D7000C3F89820CDE74C4B9C4213D04B4B9C4260
:102D800063D04B4B9C426ED1414BD3F8982042F418
:102D90008012C3F89820D3F8982022F48012C3F848
:102DA0009820B6E73A4BD3F8902042F40042C3F89B
:102DB0009020D3F8902022F40042C3F89020A8E796
:102DC000236843F480532360B7E73149D1F89C303E
:102DD00023EA0203C1F89C304EE72D49D1F8983020
:102DE00023EA0203C1F8983046E72949D1F8903028
:102DF00023EA0203C1F890303EE72549D1F8943028
:102E000023EA0203C1F8943036E72149D1F8803033
:102E100023EA0203C1F880302EE71D49D1F884303F
:102E200023EA0203C1F8843026E71949D1F88C302F
:102E300023EA0203C1F88C301EE71549D1F8883027
:102E400023EA0203C1F8883016E7114BD3F8982023
:102E500042F40052C3F89820D3F8982022F400528C
:102E6000C3F8982055E7134B9C427FF452AF03F50B
:102E70000C33D3F89C2042F02002C3F89C20D3F8F6
:102E80009C2022F02002C3F89C2042E7E821002485
:102E9000004402580030014000380040E0FFBF8F7E
:102EA00007000020FFFF39D8003C004000340140FB
:102EB000005001400014005808B51D20FFF78AFE9D
:102EC00010B190F9063053B11E20FFF783FE10B108
:102ED00090F9063003B108BD5523C38008BD5523C2
:102EE000C380F1E72DE9F04FB64D9DB015F8DC1C1D
:102EF00031B1B54B93F8845328461DB0BDE8F08F2F
:102F0000B24C01237C2204F6B46005F8DC3C83F06B
:102F1000F5FAD4F89C6E4FF4805294F8969E376878
:102F2000C4F8BC2EC4F8B47EB9F1000F03D04FF43E
:102F30008042C4F8C02EA64A4FF400300121C2E9F5
:102F4000050194F8E42E002A00F0EB800322A14B47
:102F500084F8E42EDB6C13F4803F0CAB184603932B
:102F600000F0DB8067F0D0F90E999B4B0A0A7E686F
:102F7000A3FB0232994B12093340134350007B608C
:102F800081423B6843F003033B6056D3944AB1FB54
:102F9000F0F1B2FBF1F255F8D81C023255F8D83CEA
:102FA0005B1A9A42FAD80023DFF81C828D4A0693F6
:102FB000BB60F9688C4B0B4043F48053FB60D8F83E
:102FC0008833A2FB032341F288325B0A02FB03F63B
:102FD0003246002A00F090807B6B013A1B06F8D540
:102FE000824A8149BA634FF4D572BA60FA681140D7
:102FF00041F208120A43FA604EB132467B6B13F07D
:10300000450F02D0980440F1F980013AF6D1002230
:10301000C4F8F02EBA60F968734A0A4042F480524C
:10302000FA603246002A67D07B6B013A1806F9D560
:103030006E4A0023BA63029302E155F8D82C55F882
:10304000D83C9B1A022BFAD9ADE77B6B5A0700F1EB
:10305000B282C7F838A07969069B002903F1010301
:103060000693069B04DB4FF6FE72934240F2F38018
:1030700006984FF6FE72904200F231834B0040F109
:103080001A81396801228807C4F8EC2E00F09B826F
:1030900001920022DFF850913846BA6041F20232C4
:1030A000F96801EA09010A43FA6067F033FD28BBB9
:1030B0007A6907F1180B07F11C0AC4F8202FBA69C6
:1030C000C4F8242FFA69C4F8282F3A6AC4F82C2FC0
:1030D00041F20312B860F96801EA090107F1200919
:1030E0000A43FA6046B17B6B13F0450F02D09A0495
:1030F00040F1F882013EF6D14FF00040012384F800
:10310000E43ED4F8E83E0343C4F8E83E2A252846C6
:1031100088F884531DB0BDE8F08F67F08FF90D99E2
:1031200023E7334A974200F09082324A974200F0F8
:10313000A88294F8B00EFFF74DFD824694F8B20EC7
:10314000FFF748FD804694F8A80EFFF743FD94F87A
:10315000AC3E074694F8AABE019394F8AE3E0293A3
:10316000BAF1000F05D0504694F8B12E0E21FEF7AB
:103170000DFDB8F1000F05D0404694F8B32E0E2196
:10318000FEF704FD2FB1384694F8A92E0E21FEF764
:10319000FDFCB9F1000F40F019820022B6F90400DD
:1031A000114665F01FFDB6F90430002B07DB03F074
:1031B0001F0101225B098A400F4941F82320D4F8FE
:1031C000B47EC3E6E032002400000024E82100249D
:1031D0009830002400440258598B4F01002CC0FF46
:1031E00010210100D34D6210C0E0FEFFC500200099
:1031F000007000520024024800E100E07A6B5107A1
:1032000000F1B0827A6BD2074ED47A6B530601D5A7
:103210004022BA6300224FF00109CF493846C4F872
:10322000F09EBA60FA68114041F237120A43372122
:10323000FA6041F2883267F0CBFB90BBCDF8089082
:1032400006994FF6FE72914231D8DFF80CB3DFF8E1
:103250000C93DFF80CA3002337213846BB6041F202
:103260003713FA6802EA0B02134341F28832FB601B
:1032700067F0AEFB00287FF441AFC7F8089041F239
:103280002913FA6802EA0B021343FB604EB133467E
:103290007A6B12F0450F02D091047FF5D6AE013B58
:1032A000F6D14FF0805029E70122BA63AFE60699C4
:1032B000914200F214823A68910700F08481D4F8B8
:1032C000EC3E032B01937FF4E4AED4F8102FD4F836
:1032D000143FB969090DC4F8F41E910F8DF8301030
:1032E000C2F383618DF83110C2F301618DF83210A1
:1032F000C2F307418DF83310C2F30721D2B28DF823
:1033000034108DF835201A0DADF83620C3F3034282
:103310008DF83820C3F3C0328DF83920C3F38032E2
:103320008DF83A20C3F340328DF83B20C3F30032CE
:103330008DF83C2000228DF83D20019A002A40F0B3
:103340006D8140F6FC7202EA8303D4F8182F43EA39
:1033500092731093C2F3C2638DF84430C2F30263D8
:103360008DF84530C2F342538DF84630C2F38243A4
:103370008DF84730C2F3C2338DF8483001231099DD
:103380009DF84800194400F00700023081409DF884
:10339000380000F00F00C4F8FC1E8340C4F8003F62
:1033A0005B0A01FB03F3C4F8043FD4F8F81E4FF4A2
:1033B0000079D4F81C3F4FF0010B0804C2F38031B0
:1033C000C4F8089F8DF84910C2F3C61102F07F02BD
:1033D000DFF884A18DF84A1006468DF84B20DA0FED
:1033E00007218DF84C20C3F341728DF84D20C3F3B3
:1033F00082628DF84E20C3F383528DF84F20C3F3C1
:1034000040528DF8502000228DF85120C3F3004225
:103410008DF85220C3F3C0328DF85320C3F38032AD
:103420008DF85420C3F340328DF85520C3F3003299
:103430008DF85620C3F381228DF85720C3F3012263
:10344000C3F346038DF858208DF8593041F2071325
:103450008DF85AB0B8603846FA6802EA0A02134397
:1034600041F28832FB6067F0B3FA00287FF446AE81
:10347000C7F8089041F21013FA681021384602EAA2
:103480000A021A43FA6041F2883267F0A1FA41F267
:103490001013002840F0B88055F8D89C7A69900144
:1034A00000F18E804FF0400B10213846C7F808B06D
:1034B000FA6802EA0A02134341F28832FB6067F0BD
:1034C00087FA00284ED1BE6041F23713FA683721DF
:1034D000384602EA0A02134341F28832FB6067F081
:1034E00077FA00283ED14FF0FF337B62C7F828B04F
:1034F00001301F28FCD9FB6A0D21174A384623F0FA
:10350000FF0343F06303FB620023BB60FB681A40C8
:1035100041F20D13134341F28832FB6067F058FA11
:1035200000BB039B06E055F8D82CA2EB0902013240
:1035300000F01B817A6B12F4957F7A6B40F0188152
:103540001104F0D503F12001D7F8802043F8042BB3
:103550009942F9D1E7E700BFC0E0FEFF000010C1CB
:10356000C5002000D4F8E83EC4F8E83E864B0122AE
:103570001021BB63D4F8E83E03433846C4F8E83E64
:103580004FF4007384F8E42EBB60FB687F4A1A4056
:1035900041F21013134341F28832FB6067F018FACE
:1035A00000283FF4B3AD784BBB630123C4F8E80EA9
:1035B00084F8E43EAAE504234FF08050BB639DE508
:1035C0004FF40060D2E74FF0806097E55846FFF770
:1035D00001FB20B194F8AB2E0E21FEF7D7FA01982B
:1035E000FFF7F8FA20B194F8AD2E0E21FEF7CEFACF
:1035F0000298FFF7EFFA94F8AF2E00283FF4CDAD14
:103600000E21FEF7C3FAC8E55F4BBB63D4F8E83E72
:103610000343C4F8E83E84F8E4BE77E5019A012A42
:103620004FD11B04D4F8182F03F47C1343EA124340
:1036300010934FF40073C4F8003F109B01339B02BA
:10364000C4F8FC3EC4F8043FAFE6514AD2F8D410A7
:1036500021F48031C2F8D410D16F41F48031D167A8
:10366000D16F21F48031D167D2F8D41041F4803188
:10367000C2F8D410D2F8D42002F480320592059A10
:1036800057E5434AD2F8DC1021F40071C2F8DC108F
:10369000D2F8841041F40071C2F88410D2F884107A
:1036A00021F40071C2F88410D2F8DC1041F40071EA
:1036B000C2F8DC10D2F8DC2002F400720492049A02
:1036C00037E5314B01224FF08050BB63D4F8E83E20
:1036D00043F08053C4F8E83E84F8E42E0EE54FF042
:1036E00080700BE57B6B5B0700F103827B6BDE0771
:1036F00000F1FA813B69DBB2032B40F0F781254BE7
:10370000BB637B6913F4604F0AD05D0400F1FF8155
:1037100013F4004F14BF4FF480504FF48030EDE4A9
:103720001B0C1A4A3846C4F8F83E1B04BB60FB6801
:103730001A4041F209331343FB6067F0EBF90028AC
:103740007FF4DCAC7A69C4F8102FDBF80030C4F8E1
:10375000143FDAF80010C4F8181FD9F80010C4F8A4
:103760001C1FB6E50422BA6351E44FF00040FDE6A9
:10377000120700F1C6817A6B900700F1C6817A6B5F
:10378000910613D5BFE100BFFF0FE01FC0E0FEFFB1
:1037900000440258C5002000D7F8801055F8D82CF6
:1037A00043F8041BA2EB09020132DED07A6BD2048B
:1037B000F2D4DDE90E130C984FF4007A0D9A4FEA1B
:1037C000114C5FFA83FE92FA82F9020A2CF0FF0C88
:1037D00022F0FF024CEA0E0CDFF84CE342EA1062E2
:1037E000C7F838E0C0F3811E92B2C0F340108DF8E4
:1037F0001CE08DF81D003846ADF81E20CAB2CDF889
:1038000020908DF82420C1F30722C1F303518DF8D5
:103810002520C3F385228DF826101021ADF828C08D
:103820008DF82A20C3F301228DF82B20C3F3031255
:1038300003F00F038DF82C208DF82D309DF84330C8
:10384000B54A8DF82E30C7F808A0FB681A4041F23F
:103850001013134341F28832FB6067F0B9F8002877
:103860007FF4A1AE01999DF82C3001299DF82D20FF
:10387000DBB2D4F8C09ED2B200F0B1800323C4F80A
:103880000C0F84F8E43EB9F5004F00F0C180B9F5A3
:10389000804F00F00081B9F1000F00F0C080D4F833
:1038A000E83E43F00063C4F8E83ED4F8E83EFBB1DC
:1038B0009A4A4FF4007310213846BA63BB60FB6824
:1038C000954A1A4041F21013134341F28832FB60CB
:1038D00067F07EF8002800F0D980904BBB6301238D
:1038E000D4F8E82E1043C4F8E80E84F8E43E0DE462
:1038F000D4F8C82ED4F8B83E032AD4F8BC0ED4F8B5
:10390000C41E09D8D4F80CCFBCF5007F04D0BCF598
:10391000807F14BF04220222034378680B4380494E
:10392000014038460B43102143EA0903DFF8E891D0
:1039300013437B604FF40073BB6041F21013FA68CD
:1039400002EA0902134341F28832FB6067F040F853
:103950000028C2D1012341F20D1A84F8E43E55F843
:10396000D8BC0AE0D4F8E83E0343C4F8E83E55F872
:10397000D83CA3EB0B03013341D0BE6041F2883247
:10398000FB680D21384603EA090343EA0A03FB609A
:1039900067F01EF80028E5D17B6903F4F053B3F516
:1039A000006FE4D1019B01225E4F0546002B029B74
:1039B000C4F8E80E18BF0223C4F8E00E84F8E42E21
:1039C00084F8B83FA7F1200307F110040FCB87E874
:1039D0000F0017E90F0084E80F00FFF798BB1343AF
:1039E00005D00323C4F80CAF84F8E43E4BE74FF452
:1039F0008073C4F80C3F032384F8E43E43E74FF0A0
:103A000000420123C4F8E82E84F8E43EFFF77EBBB1
:103A1000D4F8E83E43F08053C4F8E83E45E77B69BC
:103A2000002000219A01CDE90C015AD4039876F0C8
:103A300061F8034620BB0D9BDB035FD5BE6041F2FE
:103A40003713FA683721DFF8D0A0384602EA0A02B5
:103A5000134341F28832FB6066F0BAFF034678B93F
:103A6000C7F80890FA6841F206130621384602EAC0
:103A70000A02134341F28832FB6066F0A9FF034655
:103A8000D4F8E82E1343C4F8E83E0EE7012384F887
:103A9000E43EFFF73BBB00207B690021CDE90C0130
:103AA00098011ED4039876F025F803460028E7D144
:103AB0000D9B590322D5BE6041F23713FA683721B6
:103AC000DFF854A0384602EA0A02134341F2883272
:103AD000FB6066F07DFF03460028D1D10223BB6066
:103AE000C0E74FF40063CBE70123BB630120FFF77E
:103AF00005BB04231846BB63FFF700BB4FF0806390
:103B0000BEE7082032E5202030E502202EE54FF404
:103B10000050FFF7F3BA00BFC0E0FEFFFF0FE01F49
:103B2000002CC0FF183100243A0F00182DE9F0478F
:103B3000344C94F8B00EFFF74DF8064694F8B20EE8
:103B4000FFF748F8054694F8A80EFFF743F894F8F5
:103B5000968E074694F8ACAE94F8AA0E94F8AE4E42
:103B60000EB11823F3800DB11923EB800FB11A2386
:103B7000FB80B8F1000F15D138460121FDF7FAFF9F
:103B8000FEF7FEF930460121FDF7F4FF2846FDF768
:103B9000F1FF3046FEF7F4F928460121BDE8F04771
:103BA000FEF7EEB9FFF716F8814608B11B23C38074
:103BB0005046FFF70FF8804608B11C23C38020460B
:103BC000FFF708F8044638460CB11D23E3800121B5
:103BD000FDF7D0FFFEF7D4F94846FDF7CBFF40468E
:103BE000FDF7C8FF2046FDF7C5FF01214846FEF757
:103BF000C7F940460121FEF7C3F901212046FEF72F
:103C0000BFF9BFE7E8210024F8B50E4B93F84870E0
:103C10009FB10D4DC7F109070924013C0FD0AE68D3
:103C20003079FEF7D7FF95F8DC10F27908B1FDF78F
:103C3000ADFFA74205F5B475EFD10120F8BDA3682B
:103C4000FFDE00BFFC1000203C050020F0B4046E35
:103C5000EFF31183502282F312880279920702D582
:103C600090F872203AB9012280F86420DBB283F325
:103C70001188F0BC7047026C116801F00101002945
:103C8000F4D1466A856AAE42EDD0856A476A866A93
:103C9000B74220D8866A81620169891B1FFA81FCBC
:103CA0008169DBB22944002580F8645040202062FD
:103CB000D16051686FF30F0141EA0C015160116846
:103CC00041F001011160A26842F08002A26083F31A
:103CD0001188F0BC7047416A866AA1EB060C416A04
:103CE0001FFA8CFC8162DBE7027D0346C0691F2A54
:103CF0001B6805D9203A202101FA02F2DA60A5E713
:103D0000202101FA02F29A60A0E700BFBFF34F8FB3
:103D10000549064BCA6802F4E0621343CB60BFF367
:103D20004F8F00BFFDE700BF00ED00E00400FA0583
:103D30009D4AD36803F00703062BD3682DE9F043AF
:103D40009A4DB9B000F00082974C00230393A36909
:103D500023F44043A361A36903F440430393039B0B
:103D6000A3699B04FCD5442200210CA882F0C6FB69
:103D700000238D4A0793A36923F44043A361A369F9
:103D800003F440430793079B93699F04FCD50120EC
:103D90004FF4803102220423CDE90A014FF48271ED
:103DA0000AA81A93CDE91322CDE91531CDE91832CD
:103DB0000121002217911B9265F0F4FF00B1FEE78C
:103DC0007B4A136803F00F03022B0BD8136823F010
:103DD0000F0343F003031360136803F00F03032B77
:103DE00000D0FEE7734A936903F070033F2B05D8B8
:103DF000936923F0700343F0400393616D4AD369E4
:103E000003F070033F2B05D8D36923F0700343F010
:103E10004003D361674AD36903F4E063B3F5806F6D
:103E200005D2D36923F4E06343F48063D361614A2C
:103E3000136A03F070033F2B05D8136A23F0700355
:103E400043F0400313625B4B9A69160705D49A69E5
:103E500022F00F0242F008029A61564A936923F455
:103E60007063936113689C01BBD5136941F288307C
:103E700023F0070343F00303136155F8D81C05E052
:103E800055F8D83C5B1A834200F27281136903F043
:103E90003803182BF4D1936903F00F03082B05D9CD
:103EA000936923F00F0343F008039361404B1A68B2
:103EB00012F00C0F0AD01A6822F00F0242F003022F
:103EC0001A601B6803F00F03032B8AD1394A9369E8
:103ED00003F07003402B05D9936923F0700343F07E
:103EE00040039361334AD36903F07003402B05D933
:103EF000D36923F0700343F04003D3612D4AD369A3
:103F000003F4E063B3F5806F05D9D36923F4E0636C
:103F100043F48063D361274A136A03F07003402B94
:103F200005D9136A23F0700343F040031362214C58
:103F300066F08EF9A269A369C2F303221E4B1344F3
:103F40001E4A93F8043203F01F0320FA03F3D2F859
:103F50008C03C2F8883364F07DFE002840F00C81A9
:103F60001022119013900AA80A9265F01BFF0028F6
:103F700040F0FD802368124943F080032360D4F8A9
:103F8000F43043F00203C4F8F430D4F8F43003F012
:103F900002030493049A0A6A0A4B42F001020A627D
:103FA00055F8D81C13E000BF00480258E032002446
:103FB0000020005200440258F06B0C08000000245E
:103FC0000004005800E20400013B00F0D28055F8E4
:103FD000D82C9142F8D055F8D82C55F8D83C9B1ADB
:103FE0000A2BFAD9654C23689804FCD54FF480223B
:103FF0004FF440130AA803260A924FF000082A93B0
:104000007AF0DCFFD4F8EC204FF000095C4B0AA8F2
:1040100042F002025B4900250227C4F8EC20D4F8E4
:10402000EC2002F002020592059AD4F8942042F0A6
:104030000202C4F89420D4F8942022F00202C4F8BA
:104040009420514A09685A601A6822F47C5242F45A
:1040500000521A601A6842F060021A600A96CDE9AE
:1040600026897AF0ABFF4FF4E0430AA834950A930F
:10407000CDE920897AF0A2FF18230AA829950A938E
:104080002E957AF09BFFD4F8D4300AA843F48033FD
:10409000C4F8D430D4F8D430129503F480330E969B
:1040A0000D9706934FF48033069A05220A931D93C9
:1040B0004FF4FA73CDE90B230423CDE910550F9388
:1040C0007AF07CFF4FF400230AA80A934FF40033E0
:1040D00031937AF073FFD4F8E0304FF480712B48BD
:1040E00043F00103C4F8E030D4F8E03003F00103FA
:1040F00009932B46099A3A46CDE900657BF0DAFC34
:1041000023693A464FF4007123F0FE7343F088733D
:104110002361D4F8E03043F00403C4F8E0302B46C8
:10412000D4F8E000019500F004000096089008988B
:1041300017487BF0BFFC236923F07E4343F0FC4328
:10414000236139B0BDE8F08323F03F0343F004035B
:10415000D36055F8D81C06E055F8D83C5B1AB3F587
:104160007A7F3FF6F1AD53689804F5D5ECE5FEE7AC
:1041700037E672B6FFF7CAFD33E600BF00440258C7
:10418000008400400010005C7FBB22200000025829
:10419000000802581648174AC168174B10B44FF66A
:1041A000FF0483B02140154C0A43C260D3F8D010FD
:1041B000D3F8DC2044F8D41C42F00052C3F8DC20D1
:1041C000D3F8DC2002F000520092009AD3F8DC20F1
:1041D00042F08042C3F8DC20D3F8DC3003F08043A7
:1041E0000193019B03B05DF8044BFCF7F1BE00BFE7
:1041F00000ED00E00005FA0500440258E03200241A
:1042000008B51D480023C0F88430BFF34F8F4369C1
:1042100023F480334361BFF34F8FD0F8803043F6EF
:10422000E074C3F34E3CC3F3C90E4FEA4C1C0CEAD6
:104230000401734641EA8372013BC0F874225A1CA0
:10424000F8D1ACF1200C1CF1200FF0D1BFF34F8F4F
:10425000BFF36F8FBFF34F8FBFF36F8F43690022A0
:1042600023F400334361C0F85022BFF34F8FBFF3F4
:104270006F8F72B6FFF74AFD00ED00E0890AA1F5E5
:10428000801152292CD81E4B10B513F801E0BEF155
:104290000D0F24D8EFF31184502383F312880368A1
:1042A000FBB1191D436200F1100200F1200C52F81D
:1042B000043F0BB10B60191D9445F8D10022E3B205
:1042C0000A6083F31188436A73B14C220D4B02FBE1
:1042D0000E3353F8D02CD36843F00103D36010BDE4
:1042E000704700F12401DEE74C22064B02FB0E333F
:1042F00053F8D02CD36823F00103D36010BD00BF66
:10430000F06B0C08E0320024F0B50C4601688B0A13
:10431000A3F58013522B2BD81E4DEB5C0D2B27D809
:1043200040794C261C4D4FF0020E06FB035C8508BD
:104330005CF8D06C28460EFA05FED4B103EB830C72
:10434000F768164D03EB4C0C47EA0E07604405EB8B
:10435000800CCCF80444CCF81424F76003EB8302FF
:104360000F4803EB4203BDE8F04000EB830085E714
:10437000F0BD03EB830503EB45052844F56825EA0A
:104380000E05F560054D05EB8006C6F80444C6F839
:104390001424E3E7F06B0C08E0320024E821002449
:1043A000E825002403689B0AA3F58013522B00D94B
:1043B00070470E4AD35C0D2BFAD84FF04C0C10B45A
:1043C0000B4C42790CFB0340022350F8D00CDA402E
:1043D0009340C26829B922EA03035DF8044BC36025
:1043E000704713435DF8044BC3607047F06B0C08D3
:1043F000E032002403689B0AA3F58013522B10D8E7
:10440000084AD25C0D2A0CD84079022306494FF0A5
:104410004C0CD8400CFB0212834052F8D02CDB43EA
:1044200013617047F06B0C08E03200240149024828
:10443000FCF72ABCE825002400000140014902489D
:10444000FCF722BCE82500240000014002494FF09F
:104450008040FCF719BC00BF142600240149024823
:10446000FCF712BC40260024000400400149024829
:10447000FCF70ABC6C2600240008004001490248F1
:10448000FCF702BC98260024000C0040F8B5164D3D
:10449000164E2A69EB681A404FF00040B2FA82F3D8
:1044A000EAB120FA03F3012A6FEA030302EA0301E7
:1044B0002B610A46F2D1D6F804758FB1013F002373
:1044C000BFB2C6F80435D6F8004534B1236820469B
:1044D000394698476468002CF8D10022DCE7F8BD23
:1044E000EF6ABFB2EFE700BF00100040E8210024F0
:1044F00001490248FCF7C8BB1C2700240004014006
:1045000010B5064C064804F23451FCF7BDFB04F22A
:104510008C510448BDE81040FCF7B6BBE8210024EC
:1045200000040140001C004001490248FCF7ACBBFC
:10453000482700240018004001490248FCF7A4BBAA
:10454000A02700240020004001490248FCF79CBB42
:10455000CC2700240040014001490248FCF794BBED
:10456000F82700240044014001490248FCF78CBBB5
:1045700024280024004801402DE9F0414FF4257221
:104580008EB00021734881F0B9FF734B734D4FF02B
:104590000008D3F8F02040F27D27A5F52F7605F628
:1045A000F41442F00102C3F8F020D3F8F02002F036
:1045B00001020092009AD3F8E82042F00102C3F809
:1045C000E820D3F8E82002F001020192019AD3F822
:1045D000E82042F00202C3F8E820D3F8E82002F015
:1045E00002020292029AD3F8E82042F00402C3F8D1
:1045F000E820D3F8E82002F004020392039AD3F8EB
:10460000E82042F00802C3F8E820D3F8E82002F0DE
:1046100008020492049AD3F8E82042F01002C3F88A
:10462000E820D3F8E82002F010020592059AD3F8AA
:10463000E82042F02002C3F8E820D3F8E82002F096
:1046400020020692069AD3F8F02042F00202C3F844
:10465000F020D3F8F02002F002020792079AD3F874
:10466000E82042F04002C3F8E820D3F8E82002F046
:1046700040020892089AD3F8E82042F08002C3F87A
:10468000E820D3F8E82002F080020992099AD3F8D2
:10469000E82042F48072C3F8E820D3F8E82002F45E
:1046A00080720A920A9AD3F8F02042F48032C3F85A
:1046B000F020D3F8F02002F480320B920B9AD3F85A
:1046C000F02042F40032C3F8F020D3F8F02002F4D6
:1046D00000320C920C9AD3F8F02042F48022C3F8F6
:1046E000F020D3F8F03003F480230D930D9B55F8A0
:1046F0002810002354F83320914226D001330E2B8A
:10470000F8D1002008F1070875F03AFDB845EED160
:104710004FF0000840F27D2755F82810002354F888
:10472000332091420CD001330E2BF8D1002008F138
:10473000070875F025FDB845EED10EB0BDE8F08153
:1047400006EBC303B3F8B40CF1E706EBC303B3F80D
:10475000B40CD7E7E825002400440258AC6E0C08DE
:104760001F4B984210B50ED003F5806398420AD0D3
:104770001C4A03F58043984218BF904203D003F5CA
:10478000806398421BD165F085FD174B1749DC69A2
:10479000DA69C4F3022CC2F3022201EB0C0393F892
:1047A000043203F01F03D8400F4B11491B69C3F3B8
:1047B000C03342EAC303CB5C03FB00F010BD65F0DD
:1047C00069FD094B0949DC69DA69C4F30214C2F3D3
:1047D00002120B1993F8043203F01F03D840E3E7E9
:1047E000000001400040014000440258F06B0C08FA
:1047F00010230D082DE9F04F002391B0DFF8EC9263
:104800000093B04BB04DA3F5606AB04EB04C276832
:1048100099F8B623BB0AA3F58013522B00F2CC8083
:104820001AF803300D2B00F2C780012A16F903B0E5
:1048300000F00181022A02D1BBF1080F3CD14FF0F8
:1048400000084146584616F047F816F0CFF890F9A0
:1048500000C0BCF1000F18BFBCF1540F14BF4FF0E3
:10486000010C4FF0000C40F0DC8008F104081FFA46
:1048700088F8B8F1100FE4D1009B002B00F0A7805E
:10488000914A0BE01AF803300D2B0ED8F3565B4516
:104890000ED002F58672AA4200F0958091680B68EE
:1048A0009B0AA3F58013522BECD900235B45F0D172
:1048B0004B7961799942ECD11C34824B9C42A6D150
:1048C000009B05F586750133042B00939ED1814B27
:1048D0004FF0010ADFF818B293F848300133029321
:1048E000029B534565D099F8CA33DBF80C600393FB
:1048F0009BF810300093002E5BD0774A33685568E0
:104900007648B288002D184401924FEA902040F377
:104910009F806D4A002405E0013402F58672AC42A6
:1049200000F0938011688142F6D1674A4FF4867196
:10493000019F01FB0424009ACBF80C608BF8102037
:10494000019ACBF81840B2FA82FC0322CCF11F0581
:104950006800CBF80450B27186F807A002FA00F69E
:10496000A16C0122D4F854E0314302FA00F002FABB
:1049700005F5A164216D0143D4F8AC0021655649C9
:104980000E78A9B2002E00F0408145EA0E0565655B
:104990009F61FBF787FB0AF1010A2046FBF756FBF4
:1049A0000BF1200B40F20113BAF1090F2BF8043C74
:1049B00096D111B0BDE8F08F013A012A7FF67CAFA5
:1049C0004FF0000B3BE7BCF1000F7FF475AFA06820
:1049D0000022434B04E001320C33102A00F06183C3
:1049E00059688842F7D152B261793846FCF76AFDBE
:1049F0003C4A0023416804E0102B02F12C023FF4F2
:104A00005BAF576818460133B942F5D12C23364ABB
:104A100003FB002090F9E430002B7FF44DAFAC6035
:104A20004EE7009B002B7FF42BAF1C34254B9C42A0
:104A30007FF4EDAE44E7BBF1010F3FF400AF1C344F
:104A4000204B9C427FF4E3AE3AE7042C00F0438213
:104A50004FF48671204A01FB052211690591002956
:104A600000F0F1829060013054211D4FC4B29E4687
:104A700082F8101182F811416A1C17494A60059AA0
:104A800010685179D2F808C0002204E001320C37D6
:104A9000102A00F006837B689C45F7D152B2CDF80E
:104AA00010E0FCF70FFD0C4B4FF48672DFF83480FA
:104AB00002FB05310022049BD0E90170C1E90770B7
:104AC00041461CE0F0790C080C0000202C230D0856
:104AD00010790C08FC100020040000200000FEA744
:104AE00004000024C400002400000024E03200245C
:104AF0003C040020102A01F12C013FF45AAF486811
:104B0000944601328742F5D12C22824902FB0C1CCB
:104B10009CF9E420002A7FF44CAF4FF486728CF8A5
:104B2000E54054217C4802FB05F28CF8E410144661
:104B30007A4AA11006947A4C02F5607C00FB01F1E0
:104B400006982018C360C1EBC10302EB431201EBCE
:104B5000C10304F10801C0F8B4200CEB4313069A1A
:104B6000C0F8FC3033238C18C0F8B8308C23C0F860
:104B70000031059B1B6818460493FFF7F1FD039B6A
:104B8000062B00F0AE81072B6649674B674A18BFBA
:104B90001A46674B18BF0B464FF48671B0FBF3F310
:104BA000B0FBF2F2013B5E48013A01FB05019BB20A
:104BB000A1F8BC20A1F874302366069B03F15801CC
:104BC00000F10803049819440023A4F858306366E0
:104BD000E3657AF065F8049A136843F08003136084
:104BE000059B5B791A4603930C2A1BD8DFE812F069
:104BF000F3011A001A001A00D1011A001A001A0053
:104C0000AF011A001A001A008C01CCF12F0C3F04DE
:104C100002FA0CF242EA0E02626532469F61FBF72D
:104C200041FAB8E63E4A4FF4867304984FF0020CFE
:104C300003FB0523602208924FF4807259690368D0
:104C40000E92012223F00103079109920A220360C8
:104C50000023CDE90B2C08AA0A930D930F9379F04A
:104C6000A1FE07990023B1F5807F00F0128240F287
:104C70003B81B1F5805F00F00882B1F5803F00F024
:104C8000FF81B1F5806F15BF4FF4006208223C230D
:104C9000042304991831C8580243CA50059B187957
:104CA000002840F0BE81049A136843F001031360AA
:104CB000002304E0102B08F12C0800F0AE81D8F896
:104CC0000420194601339742F4D105932C22114B4D
:104CD00002FB0132D2F8C400164A904214BFA12050
:104CE000A02075F04DFA0399059B0C2900F29381E1
:104CF000114A02EB4102B2F8001E09484FF48672D5
:104D0000DFF838E002FB0502DDF810C00020118357
:104D10001DE000BF000000246B4CA40780D80124D4
:104D200004000020D0DD0600449508001055220044
:104D300040771B0000000240F06B0C083018002088
:104D4000944500F0A0810130042800F0AD815EF8A8
:104D50003020002AF4D1BF4A1746D2F85427013236
:104D6000C7F8542707EBC002049FC000C2F834778D
:104D70000EEB0007902218462346B7F804C041EA1C
:104D80000C01B9800027B449FCF70AFCB34A4FF480
:104D900086734FF0400C4FF4403EB14803FB0523AF
:104DA0004FF48052DD690793296841F010012960B2
:104DB000296841F014012960C4E91F77C4E9277705
:104DC000C4E92977196AC4F878C04FF4806CC4F834
:104DD00094100391E9B2C4F898E01039C4F884C083
:104DE00025F0FF0CA0FB0101D3F8B800CDF810C0EE
:104DF000C4F890000909D3F80C80C4F8882008F1A1
:104E000018029848059108F110082267069A703236
:104E10000244D3F8B40060674FF48040C4F88C00BB
:104E2000604679F0ADFFD5F800E0069AC4F820E0BE
:104E3000D5F814E0B8328B4BC4F824E0D5F804E080
:104E40001A44039BC4F828E0D5F808E0C4F82CE025
:104E5000D5F80CE0C4F8DC304FF48063C4F8C870B7
:104E6000C4F8CC30079BC4F830E0C4E93077C4E91B
:104E70003977C4E93B77DDE904C14FF40037604678
:104E80004FF4006CC4F8E070D3F80071C4F8B88037
:104E9000C4F8D8704FF48047C4F8D0C0D3F8FC30C1
:104EA000C4F8D470C4F8BC3079F06AFF2B68B788B6
:104EB00063636B69A3636B68E363AB682364EB684C
:104EC00063642B6843F010032B602B6843F01403DA
:104ED0002B6033682FE5032389F8CB3311B0BDE88D
:104EE000F08F614A614B57E6102900F0D78000F23D
:104EF000BF80012900F0D080042915BF4FF4006263
:104F000008223C230023C4E604984FF486725349D8
:104F1000036802FB05124FF4805123F00103516135
:104F20000222036000230A930D930F9360230893DA
:104F30004FF480730E93012309930A23CDE90B32BA
:104F400008AA79F02FFD4FF400620423A1E604982B
:104F50004FF4867241494FF0600C03684FF0020E27
:104F600002FB05124FF4807123F00103516108AA7E
:104F7000036000230E910A930D930F930123CDE953
:104F800008C30A23CDE90B3E79F00CFD0822042367
:104F90007FE632494FF48672049802FB0512102115
:104FA00003685161602223F0010308924FF480727C
:104FB000036000230E9201220A930D930F930223A4
:104FC00009920A22CDE90B2308AA79F0EBFC002311
:104FD0004FF400625DE604984FF486721F4903683F
:104FE00002FB0512012123F00103516160220360DD
:104FF000002308924FF480720A930D930F930223BB
:105000000E920A220991CDE90B2308AA79F0CAFC75
:10501000002308223DE600216FE64FF0FF31002318
:1050200053E6FDF7D7FD079038B1059B0221DA79E9
:10503000FCF7ACFD5422079BDA80049A536C43F4CE
:10504000004353642FE6022389F8CB3311B0BDE847
:10505000F08F00BFFC1000200100000004000020C1
:10506000ABAAAAAA0C000020882A1100A0BB0D0040
:10507000402915BF4FF4006208223C23002308E6B4
:1050800008223C2305E6C00072E64FF400620423C8
:10509000FFE508220423FCE50822FAE54FF400624C
:1050A000F7E500235B68FFDE00239B88FFDE00BF7F
:1050B0002DE9F04FB04D8FB095F8CC83B8F1000FCB
:1050C00003D100200FB0BDE8F08F00222F21404611
:1050D00015F0E2FC06460028F3D0036890F805902E
:1050E000A64F0193A7F87C99FCF714FA0028E8D0A2
:1050F000D0E901430293002CE3D0DFF8B8B20022DC
:10510000594601E0102ADCD04B6894462C3101321C
:105110009C42F7D12C229A4B02FB0C3C9CF9E4A058
:10512000BAF1000FCDD1019B2F221846ACF8E42034
:10513000C7F83039FFF714FB924A904280F0F880AC
:10514000012303930198FFF70BFB039B8E49C7F8DC
:1051500034A9B0FBF3F2120A8C48A1FB0221002211
:10516000C7F84029C7F838290A090909A0FB020233
:10517000C7F83C195208A5F8D0235200A5F8CE2351
:1051800097F86D2902F0FF01002A00F0E380022267
:1051900001987F4987F86D2965F052FB012240464E
:1051A00087F8782987F86E2987F86F2987F870299A
:1051B00087F8712987F8722987F8732987F8742985
:1051C00087F8752987F8762987F8772987F86D2970
:1051D000FDF700FDC5F8D40328B12F21C1804E2171
:1051E000F279FCF7D3FC6B4A0021029B4FF4806CF0
:1051F000C5F8E413B9F10C0FC5F8F413C5F8FC13A6
:10520000C5F80414C5F80814C5E9F643D2F8D80067
:1052100040F00100C2F8D800D2F8D80000F0010038
:1052200004900498D2F8D80040F00200C2F8D800E8
:10523000D2F8D82002F002020592059A4FF04002FF
:10524000C5F8E0234FF48052C5E9FAC24FF480421A
:10525000C5F8F0234FF40032C5F8F8234FF00302ED
:10526000C5F8002479D84C4A02EB4902B2F81C8EEA
:10527000C2464A4A08F108084949C5F8102407EB14
:105280008802C2F830195A46002101E0102969D07D
:10529000536808462C3201319C42F7D1384B2C22FE
:1052A00002FB0032D2F8C4003E4A904214BFA12053
:1052B000A02074F065FF002001E0102850D0DBF83A
:1052C000043001300BF12C0B9C42F6D107EB880720
:1052D000534660223449FCF763F9D7F8300964F08B
:1052E00035F800287FF4EDAEB479002760260C90E5
:1052F00063004A4606A9294803F002030893E30025
:10530000CDE9066703F00803002600270993CDE9DD
:105310000A6774F07FFC00287FF4D3AEA3074946E8
:105320001E4822D565F00AFBB0FA80F04009C9E6B4
:105330000198FFF715FA1D4A1D490244A1FB021A04
:105340004FEA9A5A0AF1FF3A1FFA8AFA0AF1010360
:105350000393F7E687F86C1919E78A46884688E7C9
:105360000020B3E74FF0FF3098E765F0DDF9B0FAC1
:1053700080F04009A6E600BFE0320024E8210024C6
:1053800000000024006CDC02598B4F01ABAAAAAAD2
:105390001C2B002400440258F06B0C08182B00242E
:1053A000B836002400000240D502000000366E012D
:1053B000819F5E16C40000242DE9F0470468A30A0B
:1053C000A3F58013522B6FD815466E4AD65C0D2E6E
:1053D0006AD84C27DFF8C481013907FB06FA89B285
:1053E00008EB0A0949F8C41C0068FFF7B9F9A8F1ED
:1053F000D003B0FBF5F0013807FB063749F8CC0CB9
:10540000391D59F8D00CA04200F0B7800AF1080A03
:10541000002249F8D04C534449F8C82CC3E9022271
:1054200019F8933C03F0FF02002B00F0A3804C25F9
:105430000223204605FB068505F8933C65F000FA3B
:105440000123B4F1804F05F8883C05F8923C05F83B
:10545000913C05F8903C05F88F3C05F88E3C05F82A
:105460008D3C05F88C3C05F88B3C05F88A3C05F82A
:10547000893C05F8933C444BA4EB0303B3FA83F354
:105480004FEA531356D0002B54D1404A94420DD0CA
:1054900002F58062944209D002F5806294422BD0DA
:1054A00002F57842944227D0BDE8F0874C2303FBF5
:1054B000068313F8942C012AF6D00221344A03F80B
:1054C000931CA0680240A260012203F8932C03F809
:1054D000931C6268A16822F0700221F080014C23C5
:1054E00062600022A160012103FB068303F8931C84
:1054F00003F8942CBDE8F0874C2202FB068212F8D8
:10550000941C0129D0D0022102F8931C2049A068E4
:1055100001402048A1600121201A02F8931C0021BB
:10552000B0FA80F002F8941C1B4A4009944213D050
:1055300090B9B9E74C2202FB068212F8941C0129AB
:10554000B2D0022102F8931C1149A068014000204A
:10555000A160012102F8931C4C22022102FB068269
:1055600002F8931C6268A1680BB90028B3D022F43A
:105570007002B0E709F8942C59E7BDE8F04765F0F0
:105580005FB900BFF06B0C08000001400004004050
:105590008800CEFF00040140000C0040E0320024EF
:1055A00003689B0AA3F58013522B07D82DE9F0411D
:1055B0002F4DEE5C0D2E02D9BDE8F08170470446F8
:1055C000FFF7FAFE4C222B4B02FB063313F8932C09
:1055D000012A12D020680023274951F83320904235
:1055E0001DD001330E2BF8D101220020114663F0AB
:1055F000F9FA224B01221A60DEE7022153F8D02C7F
:1056000003F8931C1E4B91680B40062BE2D0B3F5B8
:10561000803FDFD0136843F001031360DAE705EB46
:10562000C3050126154F95F8B64C3246314604F0B5
:105630001F05204663F0D6FA1B2C4FEA541806FAD1
:1056400005F547F828500AD02E2CB5D13246314600
:105650002C2063F0C7FA4FF480537B60ACE73246EE
:105660003146192063F0BEFA4FF000733B60A3E7A8
:10567000F06B0C08E0320024A0780C0800E100E098
:1056800007000100F8B5134C94F8CE3903F0FF057C
:10569000002BF9D1104B012693F8503484F8CE69D1
:1056A00003B9F8BD0D4AB4F8CC79138A14320C480A
:1056B0003946FBF74BFB034610B184F8CE59F8BDD1
:1056C000D4F880493246394605486362BDE8F8405F
:1056D0007DF012BAE8210024E03200244085012444
:1056E000682B002437B590F85F380446032B2FD180
:1056F0000023204D8DF807309DF8073094F860287E
:105700009A4201D803B030BD9DF8073005EBC303C2
:1057100093F858348BB181F0010383B19DF80730C1
:1057200005EBC303D3F85404FCF724FA9DF80730C3
:105730000133DBB28DF80730DEE70B46EDE79DF86D
:10574000073005EBC303D3F85404FCF719FAEDE76F
:10575000D0E910039B7903F00103994204D003B010
:10576000BDE83040FCF706BA03B0BDE83040FCF7B6
:1057700007BA00BFE032002438B5044600790D4670
:1057800050B1FDF727FA08B10323C380E279294617
:10579000BDE83840FCF71EBA38BD10B504462221DA
:1057A000FFF7EAFF2046FEF725FE20460121BDE86F
:1057B0001040FEF7F7BD10B504460121FFF7DCFFEE
:1057C00000212046BDE81040FEF7ECBD38B510F8CA
:1057D000133CA0F6640433BB94F85028002A33D15C
:1057E000616AA36A99421ED0A36AA169581CA0628B
:1057F000CB5CA06A2169DBB2884200D3A2625B0065
:1058000043F40073A4F854380A2384F8523801236F
